:100000000C944A010C940D0A0C943F0A0C94710A4A
:100010000C94A30A0C94D50A0C94070B0C94390B7E
:100020000C946B0B0C947B010C947B010C947B0166
:100030000C947B010C947B010C947B010C94CD20DF
:100040000C947B010C947B010C947B010C947B0140
:100050000C947B010C947B010C947B010C949D15FA
:100060000C947B010C9466020C945A030C947B0153
:100070000C947B010C947B010C947B010C947B0110
:100080000C947B010C947B010C947B010C947B0100
:100090000C949B020C949A030C947B010C947B01AE
:1000A0000C947B010C947B010C947B010C947B01E0
:1000B0000C947B010C947B010C945F220C94CA215C
:1000C0000C94C2220C947B010C947B010C94D00202
:1000D0000C94DA030C947B010C9405030C941A0421
:1000E0000C947B01084AD73B3BCE016E84BCBFFD1C
:1000F000C12F3D6C74319ABD56833DDA3D00C77FF8
:1001000011BED9E4BB4C3E916BAAAABE0000008090
:100110003F05A84CCDB2D44EB93836A9020C50B91F
:10012000918688083CA6AAAA2ABE000000803F004B
:1001300000090A02080B0C0D070603040100000069
:1001400000000000000000000000000000000000AF
:10015000000000000000000000000011100F00006F
:10016000000000000000000000000000000000008F
:10017000000000000001021020200808102040109C
:10018000204080020102010804020101020408105B
:100190002040808040201008040201800402018079
:1001A00040201008040201080402010102040810A2
:1001B0002040800102040810204080050505050745
:1001C0000508080808020202020A0A0808040404D2
:1001D00004010101010101010103030303030303FE
:1001E00003040707070C0C0C0C0C0C0C0C0202028D
:1001F0000206060606060606060B0B0B0B0B0B0B80
:100200000B000020002300260029002C002F0032C4
:100210000000010000030106010901000022002581
:100220000028002B002E00310034000201000005E0
:100230000108010B0100002100240027002A002DE5
:10024000003000330001010000040107010A0149E8
:100250004E46494E4954594E414E0000204100003F
:10026000C84200401C4620BCBE4CCA1B0E5AAEC53C
:100270009D74CDCCCC3D0AD7233C17B7D13877CC71
:100280002B329595E6241FB14F0AF0334C382A40A3
:100290005140563411241FBECFEFD1E2DEBFCDBF97
:1002A00000E00CBF17E0A0E0B2E0EEE9F2E900E008
:1002B0000BBF02C007900D92A832B107D9F712E127
:1002C000A8E2B7E001C01D92A435B107E1F712E042
:1002D000C2E9D2E000E006C022970109FE010BBF8F
:1002E0000E94E245CA38D10780E00807A9F70E94BA
:1002F0009D410C943D490C940000FC01848595853A
:10030000FC01E05CFF4F20813181FC01EE5BFF4F7F
:1003100080819181281B390B2F733327C9010895E0
:10032000FC0184859585FC01E05CFF4F4081518193
:10033000FC01EE5BFF4F208131814217530741F0F2
:100340000190F081E02DE80FF91F208130E002C01C
:100350002FEF3FEFC9010895FC0184859585FC01CD
:10036000E05CFF4F40815181FC01EE5BFF4F20813B
:1003700031814217530771F0A081B181A80FB91FD5
:100380002C918081918101968F739927918380832D
:1003900030E002C02FEF3FEFC9010895FC0181A1B9
:1003A000882329F0A489B5898C9186FFFBCF11A2FF
:1003B0000895CF93DF93FC0126853785D901A05C92
:1003C000BF4F8D919C91119701968F739927E901E9
:1003D000CE5BDF4F4881598184179507D9F30D9083
:1003E000BC91A02DA20FB31F6C93A685B785A05C0E
:1003F000BF4F11969C938E93A689B7892C9181E06B
:1004000090E0078C02C0880F991F0A94E2F7282B0E
:100410002C9381E081A30488F589E02D808180649C
:10042000808381E090E0DF91CF910895EF92FF9279
:100430000F931F93CF93DF93FC0126853785D90156
:10044000A05CBF4F8D919C91119701968F73992756
:1004500089010E5B1F4FE801E880F9808E159F052A
:10046000D1F30D90BC91A02DA20FB31F6C93A68564
:10047000B785A05CBF4F11969C938E93A689B789D0
:100480008C91442311F0816001C08E7F8C93A689EA
:10049000B7892C9181E090E0078C02C0880F991FEA
:1004A0000A94E2F7282B2C9381E081A30488F58934
:1004B000E02D80818064808381E090E0DF91CF91A6
:1004C0001F910F91FF90EF90089508951F920F9242
:1004D0000FB60F9211240BB60F921BBE2F933F93B2
:1004E0004F935F936F937F938F939F93AF93BF933C
:1004F000EF93FF938091C00082FD07C08091C600FA
:100500006CE879E00E94384002C08091C600FF91FB
:10051000EF91BF91AF919F918F917F916F915F917B
:100520004F913F912F910F900BBE0F900FBE0F90E8
:100530001F90189508951F920F920FB60F921124D5
:100540000BB60F921BBE2F933F934F935F936F9306
:100550007F938F939F93AF93BF93EF93FF9380917C
:10056000C80082FD07C08091CE0064E079E00E945F
:10057000384002C08091CE00FF91EF91BF91AF91C2
:100580009F918F917F916F915F914F913F912F91AB
:100590000F900BBE0F900FBE0F901F9018950895EF
:1005A0001F920F920FB60F9211240BB60F921BBE23
:1005B0002F933F934F935F936F937F938F939F936B
:1005C000AF93BF93EF93FF938091D00082FD07C05C
:1005D0008091D6006CE778E00E94384002C080919C
:1005E000D600FF91EF91BF91AF919F918F917F9135
:1005F0006F915F914F913F912F910F900BBE0F9094
:100600000FBE0F901F90189508951F920F920FB66E
:100610000F9211240BB60F921BBE2F933F934F9353
:100620005F936F937F938F939F93AF93BF93EF935A
:10063000FF938091300182FD07C08091360164EF05
:1006400077E00E94384002C080913601FF91EF911F
:10065000BF91AF919F918F917F916F915F914F91DA
:100660003F912F910F900BBE0F900FBE0F901F90D8
:1006700018958EE897E00E947D01892B11F00E9469
:1006800081338CE697E00E947D01892B11F00E9456
:100690000A308AE497E00E947D01892B11F00E94C4
:1006A000313088E297E00E947D01892B11F00C9493
:1006B0005E3008951F920F920FB60F9211240BB661
:1006C0000F921BBE2F933F938F939F93EF93FF93B4
:1006D000209188093091890980918A0990918B092C
:1006E0002817390731F48091C1008F7D8093C100B4
:1006F00014C0E0918A09F0918B09E85BF64F2081E4
:1007000080918A0990918B0901968F739927909314
:100710008B0980938A092093C600FF91EF919F91E6
:100720008F913F912F910F900BBE0F900FBE0F90A6
:100730001F9018951F920F920FB60F9211240BB6AF
:100740000F921BBE2F933F938F939F93EF93FF9333
:1007500020910009309101098091020990910309CB
:100760002817390731F48091C9008F7D8093C90023
:1007700014C0E0910209F0910309E054F74F208181
:10078000809102099091030901968F7399279093A4
:100790000309809302092093CE00FF91EF919F916E
:1007A0008F913F912F910F900BBE0F900FBE0F9026
:1007B0001F9018951F920F920FB60F9211240BB62F
:1007C0000F921BBE2F933F938F939F93EF93FF93B3
:1007D000209178083091790880917A0890917B086F
:1007E0002817390731F48091D1008F7D8093D10093
:1007F00014C0E0917A08F0917B08E85CF74F208103
:1008000080917A0890917B0801968F739927909335
:100810007B0880937A082093D600FF91EF919F91F7
:100820008F913F912F910F900BBE0F900FBE0F90A5
:100830001F9018951F920F920FB60F9211240BB6AE
:100840000F921BBE2F933F938F939F93EF93FF9332
:100850002091F0073091F1078091F2079091F30712
:100860002817390731F4809131018F7D8093310150
:1008700014C0E091F207F091F307E055F84F2081A2
:100880008091F2079091F30701968F7399279093C7
:10089000F3078093F20720933601FF91EF919F9128
:1008A0008F913F912F910F900BBE0F900FBE0F9025
:1008B0001F9018954F925F926F927F928F929F92A6
:1008C000AF92BF92CF92DF92EF92FF920F931F935E
:1008D000CF93DF93CDB7DEB7FC011382128288EE8F
:1008E000482E83E0582E612C712C448255826682FA
:1008F00077828DE097E0918380837587648757873F
:100900004687318B208B138B028BF58AE48AD78A3A
:10091000C68AB18EA08E938E828E8C89848F8D89AB
:10092000858F8E89868F8F89878F888D80A3DF91B1
:10093000CF911F910F91FF90EF90DF90CF90BF90DC
:10094000AF909F908F907F906F905F904F900895A1
:10095000CF92DF92EF92FF92CF93DF93EC016A0187
:100960007B01411581EE580761057105F9F0EC89AD
:10097000FD8981E090E008A002C0880F991F0A94C9
:10098000E2F7808360E079E08DE390E0A7019601D3
:100990000E948445215031094109510956954795D6
:1009A00037952795211580E1380798F0EC89FD8966
:1009B000108260E874E88EE190E0A70196010E9441
:1009C000844521503109410951095695479537957C
:1009D0002795E889F9893083EA89FB89208319A260
:1009E000EE89FF89408181E090E09C010C8C02C07F
:1009F000220F331F0A94E2F7422B4083EE89FF89CE
:100A000040819C010D8C02C0220F331F0A94E2F733
:100A1000422B4083EE89FF8940819C010E8C02C0ED
:100A2000220F331F0A94E2F7422B4083EE89FF899D
:100A300020810F8C02C0880F991F0A94E2F78095DD
:100A400082238083DF91CF91FF90EF90DF90CF9052
:100A50000895BF92CF92DF92EF92FF92CF93DF93F0
:100A6000EC016A017B01B22E411581EE5807610548
:100A70007105F9F0EC89FD8981E090E008A002C0E1
:100A8000880F991F0A94E2F7808360E079E08DE394
:100A900090E0A70196010E94844521503109410947
:100AA00051095695479537952795211580E13807C7
:100AB00098F0EC89FD89108260E874E88EE190E09E
:100AC000A70196010E94844521503109410951092D
:100AD0005695479537952795E889F9893083EA89AE
:100AE000FB89208387E0B8120AC0E88DF98D86E083
:100AF0008083EE89FF8980818460808308C0EE89CD
:100B0000FF89808184708083E88DF98DB082EE89C1
:100B1000FF89408181E090E09C010C8C02C0220F93
:100B2000331F0A94E2F7422B4083EE89FF8940810C
:100B30009C010D8C02C0220F331F0A94E2F7422B56
:100B40004083EE89FF8940819C010E8C02C0220FF8
:100B5000331F0A94E2F7422B4083EE89FF892081FC
:100B60000F8C02C0880F991F0A94E2F780958223A8
:100B70008083DF91CF91FF90EF90DF90CF90BF9077
:100B80000895CF93DF93FC0186859785DC01A05CF7
:100B9000BF4FEC01CE5BDF4F4D915C9111972881E7
:100BA000398142175307C1F7A689B7894C9181E073
:100BB00090E09C01048C02C0220F331F0A94E2F7DC
:100BC000209524232C93A689B7894C919C01058CF0
:100BD00002C0220F331F0A94E2F7209524232C939E
:100BE000A689B7894C919C01068C02C0220F331F45
:100BF0000A94E2F7209524232C93A689B7892C9197
:100C0000078C02C0880F991F0A94E2F7809582230F
:100C10008C9384859585FC01EE5BFF4F20813181AB
:100C2000FC01E05CFF4F31832083DF91CF91089579
:100C300081E00895CF92DF92EF92FF920F931F937E
:100C4000CF93DF936C01EB017A01E60EF71E00E013
:100C500010E00BC06991D601ED91FC910190F081FB
:100C6000E02DC6011995080F191FCE15DF0591F764
:100C7000C801DF91CF911F910F91FF90EF90DF900E
:100C8000CF900895EF92FF920F931F93CF93DF932E
:100C90007C01EB0100E010E0FE01219664916623E7
:100CA00051F0F701A081B181ED91FC91C701199537
:100CB000080F191FF1CFC801DF91CF911F910F913C
:100CC000FF90EF900895AF92BF92CF92DF92EF9294
:100CD000FF920F931F93CF93DF937C016B0100E092
:100CE00010E0C0E0D0E011C0D701ED91FC91A080F0
:100CF000B180B801C6010E947510682FC701F501C7
:100D00001995C80FD91F0F5F1F4FD60114968D91EB
:100D10009C9115970817190738F3CE01DF91CF91F1
:100D20001F910F91FF90EF90DF90CF90BF90AF9009
:100D300008950C948741DC01ED91FC910190F081C4
:100D4000E02D1994DB01ED91FC9111970190F08158
:100D5000E02DBC01CD0119940F931F93CF93DF9326
:100D6000EC016DE00E949B068C016AE0CE010E94BE
:100D70009B069C01200F311FC901DF91CF911F916C
:100D80000F9108950F931F93CF93DF93EC010E946F
:100D900042068C01CE010E94AC069C01200F311F3F
:100DA000C901DF91CF911F910F9108950F931F9368
:100DB000CF93DF93EC010E9463068C01CE010E9469
:100DC000AC069C01200F311FC901DF91CF911F910B
:100DD0000F9108950F931F93CF93DF93EC010E941F
:100DE00087418C01CE010E94AC069801280F391F63
:100DF000C901DF91CF911F910F9108950F931F9318
:100E0000CF93DF93EC010E949B068C01CE010E94E0
:100E1000AC069C01200F311FC901DF91CF911F91BA
:100E20000F9108950F931F93CF93DF93EC010E94CE
:100E3000A2068C01CE010E94AC069C01200F311F3E
:100E4000C901DF91CF911F910F9108955F926F9229
:100E50007F928F929F92AF92BF92CF92DF92EF924A
:100E6000FF920F931F93CF93DF93CDB7DEB7A19778
:100E70000FB6F894DEBF0FBECDBF3C016A017B0107
:100E8000522E19A281E0821710F08AE0582E8E01AE
:100E90000F5D1F4F852C912CA12CB12CC701B601E1
:100EA000A50194010E9484458C2D529E8019112425
:100EB000015011098A3010F4805D01C0895CF8018D
:100EC000808369017A01C114D104E104F10431F78E
:100ED000B801C3010E948741A1960FB6F894DEBF06
:100EE0000FBECDBFDF91CF911F910F91FF90EF907B
:100EF000DF90CF90BF90AF909F908F907F906F903A
:100F00005F9008952115310541F4DC01ED91FC91CC
:100F10000190F081E02D642F19940C9426070F9313
:100F20001F93CF93DF93EC010E9482078C01CE01C7
:100F30000E94AC069C01200F311FC901DF91CF91A7
:100F40001F910F9108959A01AB0160E070E00C943D
:100F500082070F931F93CF93DF93EC019A01AB01AC
:100F600060E070E00E9482078C01CE010E94AC0616
:100F70009801280F391FC901DF91CF911F910F915F
:100F800008959A01462F50E060E070E00C948207CB
:100F90000F931F93CF93DF93EC019A01462F50E0FC
:100FA00060E070E00E9482078C01CE010E94AC06D6
:100FB0009801280F391FC901DF91CF911F910F911F
:100FC0000895CF92DF92EF92FF920F931F93CF93EA
:100FD000DF93EC016A017B012115310579F4E88189
:100FE000F9810190F081E02D642FDF91CF911F9165
:100FF0000F91FF90EF90DF90CF9019942A30310538
:1010000019F477FD0EC02AE0B701A601CE01DF91E9
:10101000CF911F910F91FF90EF90DF90CF900C94A4
:1010200026076DE20E949B068C0144275527BA01D2
:101030004C195D096E097F092AE0CE010E9426073E
:101040009C01200F311FC901DF91CF911F910F919A
:10105000FF90EF90DF90CF9008950F931F93CF9361
:10106000DF93EC010E94E1078C01CE010E94AC06E7
:101070009C01200F311FC901DF91CF911F910F916A
:1010800008959A01AB01662757FD6095762F0C9461
:10109000E1070F931F93CF93DF93EC019A01AB010C
:1010A000662757FD6095762F0E94E1078C01CE01DF
:1010B0000E94AC069801280F391FC901DF91CF911A
:1010C0001F910F9108956F927F928F929F92AF928E
:1010D000BF92CF92DF92EF92FF920F931F93CF9325
:1010E0008C016A017B01C22F9A01AB01C701B601D5
:1010F0000E942D45882319F06BE177E032C046014C
:101100005701E894B7F82FEF3FEF4FE75FE7C501CE
:10111000B4010E942D4581110DC02FEF3FEF4FE725
:101120005FE7C501B4010E94714218161CF46FE11B
:1011300077E017C02FEF3FEF4FE75FE4C701B6013D
:101140000E94744418160CF40AC02FEF3FEF4FE7CB
:101150005FECC701B6010E94714287FF12C063E2D3
:1011600077E0C801CF911F910F91FF90EF90DF9032
:10117000CF90BF90AF909F908F907F906F900C9486
:10118000874120E030E0A901C701B6010E94714209
:1011900087FF0AC06DE2C8010E949B063C01F7FA76
:1011A000F094F7F8F09402C0612C712CB12C60E03F
:1011B00070E080E09FE307C020E030E040E251E4CF
:1011C0000E947842B394BC12F7CF262F372F482FB6
:1011D000592FC701B6010E94AB414B015C01792D2B
:1011E0009B2D0E94E5426B017C010E9411439B01F3
:1011F000AC01682D792D8A2D9B2D0E94AA41B62E17
:10120000A72E982E892E2AE0A601B701C8010E94B8
:101210002607680E791ECC23C9F161EC74E0C80181
:101220000E948741680E791E31C020E030E040E224
:1012300051E4D501F4016B2F7A2D8F2F982D0E9448
:101240007F444B015C01792D9B2D0E94E0426B0194
:10125000EE24D7FCE094FE2C2AE030E0B701A60192
:10126000C8010E94E107680E791EC701B6010E94FD
:1012700013439B01AC01682D792D8A2D9B2D0E9473
:10128000AA41B62EA72E982E892EC150C111CDCFBE
:10129000C301CF911F910F91FF90EF90DF90CF90FE
:1012A000BF90AF909F908F907F906F9008950C9417
:1012B00063080F931F93CF93DF93EC010E946308A1
:1012C0008C01CE010E94AC069801280F391FC9017C
:1012D000DF91CF911F910F910895883008F073C06E
:1012E000E82FF0E0EE0FFF1FE053F64F71836083AD
:1012F000843011F130F4823059F090F48130B1F53E
:101300003DC0863009F446C020F1873079F54FC0E2
:10131000809169008C7F842B80936900E89A0895FE
:1013200080916900440F551F440F551F837F842B04
:1013300080936900E99A08958091690074E0440FF0
:10134000551F7A95E1F78F7C842B80936900EA9A88
:1013500008958091690066E0440F551F6A95E1F792
:101360008F73842B80936900EB9A089580916A00B3
:101370008C7F842B80936A00EC9A089580916A0098
:10138000440F551F440F551F837F842B80936A00A1
:10139000ED9A089580916A0024E0440F551F2A9524
:1013A000E1F78F7C842B80936A00EE9A08958091F8
:1013B0006A0096E0440F551F9A95E1F78F73842BCE
:1013C00080936A00EF9A0895883030F5843089F070
:1013D00030F4823051F058F4813079F410C0863006
:1013E00081F048F0873049F40EC0E8980DC0E998C4
:1013F0000BC0EA9809C0EB9807C0EC9805C0ED98BF
:1014000003C0EE9801C0EF98E82FF0E0EE0FFF1F49
:10141000E053F64F1182108208951F920F920FB67B
:101420000F9211240BB60F921BBE2F933F934F9335
:101430005F936F937F938F939F93AF93BF93EF933C
:10144000FF938091D4099091D509892B29F0E091DF
:10145000D409F091D5091995FF91EF91BF91AF9102
:101460009F918F917F916F915F914F913F912F91BC
:101470000F900BBE0F900FBE0F901F9018951F92EC
:101480000F920FB60F9211240BB60F921BBE2F9323
:101490003F934F935F936F937F938F939F93AF93FC
:1014A000BF93EF93FF938091D6099091D709892B31
:1014B00029F0E091D609F091D7091995FF91EF91A4
:1014C000BF91AF919F918F917F916F915F914F915C
:1014D0003F912F910F900BBE0F900FBE0F901F905A
:1014E00018951F920F920FB60F9211240BB60F9200
:1014F0001BBE2F933F934F935F936F937F938F9375
:101500009F93AF93BF93EF93FF938091D8099091EE
:10151000D909892B29F0E091D809F091D9091995B9
:10152000FF91EF91BF91AF919F918F917F916F91BB
:101530005F914F913F912F910F900BBE0F900FBE77
:101540000F901F9018951F920F920FB60F921124B3
:101550000BB60F921BBE2F933F934F935F936F93E6
:101560007F938F939F93AF93BF93EF93FF9380915C
:10157000DA099091DB09892B29F0E091DA09F091E1
:10158000DB091995FF91EF91BF91AF919F918F91D9
:101590007F916F915F914F913F912F910F900BBE73
:1015A0000F900FBE0F901F9018951F920F920FB6BD
:1015B0000F9211240BB60F921BBE2F933F934F93A4
:1015C0005F936F937F938F939F93AF93BF93EF93AB
:1015D000FF938091D0099091D109892B29F0E09156
:1015E000D009F091D1091995FF91EF91BF91AF9179
:1015F0009F918F917F916F915F914F913F912F912B
:101600000F900BBE0F900FBE0F901F9018951F925A
:101610000F920FB60F9211240BB60F921BBE2F9391
:101620003F934F935F936F937F938F939F93AF936A
:10163000BF93EF93FF938091D2099091D309892BA7
:1016400029F0E091D209F091D3091995FF91EF911A
:10165000BF91AF919F918F917F916F915F914F91CA
:101660003F912F910F900BBE0F900FBE0F901F90C8
:1016700018951F920F920FB60F9211240BB60F926E
:101680001BBE2F933F934F935F936F937F938F93E3
:101690009F93AF93BF93EF93FF938091DC09909159
:1016A000DD09892B29F0E091DC09F091DD0919951C
:1016B000FF91EF91BF91AF919F918F917F916F912A
:1016C0005F914F913F912F910F900BBE0F900FBEE6
:1016D0000F901F9018951F920F920FB60F92112422
:1016E0000BB60F921BBE2F933F934F935F936F9355
:1016F0007F938F939F93AF93BF93EF93FF938091CB
:10170000DE099091DF09892B29F0E091DE09F09143
:10171000DF091995FF91EF91BF91AF919F918F9143
:101720007F916F915F914F913F912F910F900BBEE1
:101730000F900FBE0F901F901895FC018081918132
:101740000C940D14CF93DF93EC018881998100975D
:1017500011F00E940D14198218821D821C821B82B6
:101760001A82DF91CF9108950F931F93CF93DF9348
:10177000EC018B016F5F7F4F888199810E94AB14D0
:10178000009731F0998388831B830A8381E001C02D
:1017900080E0DF91CF911F910F910895CF93DF9358
:1017A000EC0188819981892B31F08A819B81861790
:1017B000970708F00CC0CE010E94B40B882349F0B3
:1017C0008C819D81892B19F4E881F981108281E057
:1017D00001C080E0DF91CF910895EF92FF920F93C7
:1017E0001F93CF93DF93EC017B018A01BA010E9422
:1017F000CE0B811104C0CE010E94A20B07C01D8335
:101800000C83B701888199810E947A46CE01DF91CD
:10181000CF911F910F91FF90EF900895DC011196E9
:101820001C921E9213961C921E92129715961C9251
:101830001E92149716961C926115710559F0DB01E2
:101840000D900020E9F7AD0141505109461B570B9F
:101850000C94ED0B0895CF93DF93EC01FB018617F9
:10186000970761F0608171816115710529F04481EC
:1018700055810E94ED0B02C00E94A20BCE01DF91A8
:10188000CF910895FC011182108213821282158279
:10189000148216820C942B0CCF93DF93D82FC92F70
:1018A0006115710561F0DB010D900020E9F7AD01D4
:1018B00041505109461B570B0E94ED0B02C00E947C
:1018C000A20B8D2F9C2FDF91CF9108950F931F9323
:1018D000CF93DF93CDB7DEB7A1970FB6F894DEBFF5
:1018E0000FBECDBF8C01CB01BA01F801118210826D
:1018F0001382128215821482168230E0AE014F5F8D
:101900005F4F0E945C47BE016F5F7F4FC8010E941E
:101910004C0CA1960FB6F894DEBF0FBECDBFDF9181
:10192000CF911F910F9108950F931F93CF93DF9342
:10193000CDB7DEB7A2970FB6F894DEBF0FBECDBF0E
:101940008C01CB01BA01F80111821082138212823C
:1019500015821482168230E0AE014F5F5F4F0E9405
:101960000B47BE016F5F7F4FC8010E944C0CA296CF
:101970000FB6F894DEBF0FBECDBFDF91CF911F91A0
:101980000F9108950F931F93CF93DF93CDB7DEB7D9
:1019900061970FB6F894DEBF0FBECDBF8C01CB01AF
:1019A000F80111821082138212821582148216822B
:1019B00050E0BE016F5F7F4F0E948147BE016F5FA5
:1019C0007F4FC8010E944C0C61960FB6F894DEBFA1
:1019D0000FBECDBFDF91CF911F910F9108950F934F
:1019E0001F93CF93DF93CDB7DEB762970FB6F8940E
:1019F000DEBF0FBECDBF8C01CB01F801118210827A
:101A00001382128215821482168250E0BE016F5F2B
:101A10007F4F0E94EA46BE016F5F7F4FC8010E9460
:101A20004C0C62960FB6F894DEBF0FBECDBFDF91AF
:101A3000CF911F910F9108950F931F93CF93DF9331
:101A4000CDB7DEB729970FB6F894DEBF0FBECDBF76
:101A50008C01862FF8011182108213821282158266
:101A60001482168250E0BE016F5F7F4F90E00E94AB
:101A70008147BE016F5F7F4FC8010E944C0C2996C1
:101A80000FB6F894DEBF0FBECDBFDF91CF911F918F
:101A90000F910895CF93DF931F921F92CDB7DEB7BA
:101AA000FC01118210821382128215821482168226
:101AB00069831A82BE016F5F7F4F0E944C0C0F90AA
:101AC0000F90DF91CF910895EF92FF920F931F93A4
:101AD000CF93DF93EC017B010C811D8161157105B2
:101AE00011F480E016C04115510591F0040F151F47
:101AF000B8010E94CE0B8823A1F3288139818C8103
:101B00009D81B701820F931F0E947A461D830C832B
:101B100081E0DF91CF911F910F91FF90EF90089599
:101B2000FB0144815581608171810C94640D6115C4
:101B3000710559F0DB010D900020E9F7AD0141502E
:101B40005109461B570B0C94640D80E00895CF9308
:101B5000DF931F921F92CDB7DEB769831A8241E0EF
:101B600050E0BE016F5F7F4F0E94640D0F900F9099
:101B7000DF91CF910895EF92FF920F931F93CF9330
:101B8000DF9300D01F92CDB7DEB77C01862F4AE0ED
:101B900050E08E010F5F1F4FB80190E00E94EA46AF
:101BA000F80101900020E9F7AF0141505109401BB5
:101BB000510BB801C7010E94640D0F900F900F9058
:101BC0000F90DF91CF911F910F91FF90EF900895AB
:101BD000EF92FF920F931F93CF93DF93CDB7DEB7B2
:101BE00027970FB6F894DEBF0FBECDBF7C01CB01A7
:101BF0004AE050E08E010F5F1F4FB8010E94EA4695
:101C0000F80101900020E9F7AF0141505109401B54
:101C1000510BB801C7010E94640D27960FB6F894C6
:101C2000DEBF0FBECDBFDF91CF911F910F91FF900F
:101C3000EF900895EF92FF920F931F93CF93DF934E
:101C400000D000D0CDB7DEB77C01CB014AE050E038
:101C50008E010F5F1F4FB8010E948147F80101906C
:101C60000020E9F7AF0141505109401B510BB80169
:101C7000C7010E94640D26960FB6F894DEBF0FBE12
:101C8000CDBFDF91CF911F910F91FF90EF900895FD
:101C9000EF92FF920F931F93CF93DF93CDB7DEB7F1
:101CA0002C970FB6F894DEBF0FBECDBF7C01CB01E1
:101CB000BA012AE030E08E010F5F1F4FA8010E9499
:101CC0000B47F80101900020E9F7AF01415051099D
:101CD000401B510BB801C7010E94640D2C960FB632
:101CE000F894DEBF0FBECDBFDF91CF911F910F9152
:101CF000FF90EF900895EF92FF920F931F93CF9371
:101D0000DF93CDB7DEB72B970FB6F894DEBF0FBECB
:101D1000CDBF7C01CB01BA012AE030E08E010F5F1C
:101D20001F4FA8010E945C47F80101900020E9F7CD
:101D3000AF0141505109401B510BB801C7010E942E
:101D4000640D2B960FB6F894DEBF0FBECDBFDF91AA
:101D5000CF911F910F91FF90EF900895CF93DF9354
:101D6000D82FC92FFB0144815581608171810E9468
:101D7000640D811104C08D2F9C2F0E94A20B8D2F0A
:101D80009C2FDF91CF910895CF93DF93D82FC92F48
:101D90006115710569F0DB010D900020E9F7AD01D7
:101DA00041505109461B570B0E94640D811104C01C
:101DB0008D2F9C2F0E94A20B8D2F9C2FDF91CF91F6
:101DC0000895CF93DF93D82FC92F0E94A70D8111BB
:101DD00004C08D2F9C2F0E94A20B8D2F9C2FDF9172
:101DE000CF910895CF93DF93D82FC92F0E94BB0DB9
:101DF000811104C08D2F9C2F0E94A20B8D2F9C2F30
:101E0000DF91CF910895CF93DF93D82FC92F0E94F0
:101E1000E80D811104C08D2F9C2F0E94A20B8D2FE5
:101E20009C2FDF91CF910895CF93DF93D82FC92FA7
:101E30000E941A0E811104C08D2F9C2F0E94A20BAC
:101E40008D2F9C2FDF91CF910895CF93DF93D82FC3
:101E5000C92F0E94480E811104C08D2F9C2F0E9413
:101E6000A20B8D2F9C2FDF91CF910895CF93DF93FD
:101E7000D82FC92F0E947B0E811104C08D2F9C2F5B
:101E80000E94A20B8D2F9C2FDF91CF910895CF93AD
:101E9000DF93DC01ED91FC91EB01A881B9813097D2
:101EA00011F01097C9F4109759F0EB012C813D8186
:101EB000232B31F02C9130E031952195310914C05C
:101EC000309781F0DC0114968D919C911597892BA8
:101ED00049F0208130E008C0BD01CF01DF91CF91F2
:101EE0000C94714620E030E0C901DF91CF91089554
:101EF000FC0144815581FB01248135814217530740
:101F000029F40E94470F21E0892B09F020E0822F5D
:101F10000895DC0114962D913C911597232B39F4EB
:101F200081E06115710511F0FB0108C00895DC0125
:101F3000ED91FC916115710529F481E0908199235F
:101F400049F007C0CF010E9471469C0181E0232B1C
:101F500009F080E008950E94470F892F881F882785
:101F6000881F08950E94470F21E0181619060CF0EB
:101F700020E0822F08950E94470F21E018161906CD
:101F80000CF420E0822F08950E94470F892F80953E
:101F9000881F8827881F0895EF92FF920F931F9341
:101FA000CF93DF938617970709F1FC0124813581D0
:101FB000FB014481558124173507D1F4232BB1F05F
:101FC000C081D181FC01008111810BC090E00E9491
:101FD00037467C01899190E00E943746E816F90661
:101FE00039F4F80181918F018111F0CF81E001C0B6
:101FF00080E0DF91CF911F910F91FF90EF900895B6
:10200000FA01DB0114964D915C911597DC01149651
:102010002D913C911597241B350B2E173F0790F0FF
:102020008D919C91009771F0DB016D917C91611510
:10203000710541F08E0F9F1F0E9481469C0181E037
:10204000232B09F080E00895FC0144815581FB01B8
:10205000248135814217530720F040E050E00C9472
:10206000001080E00895FC0184819581DB011496C5
:102070004D915C91159784179507A0F020813181CF
:102080002115310579F06D917C916115710551F043
:10209000841B950B820F931F0E9471469C0181E067
:1020A000232B09F080E00895DC0114962D913C91DA
:1020B00015976217730728F4ED91FC91E60FF71F4F
:1020C00040830895FC01248135816217730720F451
:1020D00080819181009729F41092E00960EE79E007
:1020E00002C0680F791FCB010895FC01248135815E
:1020F0006217730748F480819181009729F0FC01F1
:10210000E60FF71F8081089580E008950C94751004
:102110000F931F93CF93DF93EB0141155105E9F026
:102120002097D9F0FC01048115812017310708F0B0
:1021300013C041505109021B130B4017510708F4FB
:102140008A01FC0160817181620F731FA801CE01B9
:102150000E948F46C00FD11F1882DF91CF911F912F
:102160000F910895CF93DF93FC01848195814817E7
:10217000590770F4C081D18170E0CE01840F951FA2
:102180000E946646009721F09C012C1B3D0B02C06B
:102190002FEF3FEFC901DF91CF91089540E050E06C
:1021A0000C94B210CF93DF93FC0184819581481782
:1021B000590780F4C081D181FB0160817181CE011A
:1021C000840F951F0E94A946009721F09C012C1BAB
:1021D0003D0B02C02FEF3FEFC901DF91CF91089572
:1021E00040E050E00C94D210DF92EF92FF920F93F8
:1021F0001F93CF93DF93EC018C819D814817590782
:1022000018F02FEF3FEF1BC08A010F5F1F4FE881CF
:10221000F981E00FF11FD0801082E880F98070E032
:10222000C7010E949E46F701E00FF11FD082009780
:1022300041F328813981AC01421B530B9A01C9013A
:10224000DF91CF911F910F91FF90EF90DF90089554
:10225000FC0144815581415051090C94F410AF9216
:10226000BF92CF92DF92EF92FF920F931F93CF9383
:10227000DF936B018A01FB014481558141155105B2
:1022800069F1FC01248135812115310539F12417CB
:10229000350720F10217130718F0890101501109C1
:1022A000FC01E080F180C701CFEFDFEF5701A00E06
:1022B000B11E10C0F601608171810E94A94600978D
:1022C00079F09C012E193F090217130708F49E01AB
:1022D0000196E901A816B90668F702C0CFEFDFEF53
:1022E000CE01DF91CF911F910F91FF90EF90DF9082
:1022F000CF90BF90AF900895FC0144815581FB01C0
:1023000024813581421B530B0C942F11BF92CF9225
:10231000DF92EF92FF920F931F93CF93DF936C01A5
:102320007B01EA0189012417350720F48D2FE9018B
:10233000042F182F6AEA74E0C6010E940E0CD70120
:1023400014968D919C9115978C179D07C8F0801756
:10235000910708F48C01D701ED91FC911197E00FE2
:10236000F11FB08010826D917C916C0F7D1FC601B2
:102370000E944C0CD701ED91FC91E00FF11FB0824F
:10238000C601DF91CF911F910F91FF90EF90DF90E9
:10239000CF90BF900895CF93DF93EC01FB01248190
:1023A00035810E948611CE01DF91CF910895DC0125
:1023B000ED91FC91309729F40895861301C0408374
:1023C000319680818111F9CF08952F923F924F92DB
:1023D0005F926F927F928F929F92AF92BF92CF92B5
:1023E000DF92EF92FF920F931F93CF93DF938C01B5
:1023F0005B017A01DC0114966D907C901597611455
:10240000710409F4E1C0FB0144805580411451047A
:1024100009F4DAC0DA011496CD90DC901597C4184F
:10242000D508FC01C081D181C114D104E1F411C0EF
:10243000D7016C9111967C91119714964D915C91F6
:102440001597C8010E944B46F701C481D581C00F82
:10245000D11FD5016D917C91CE010E94A9468C01BE
:10246000009731F7B1C0D7FE02C04E012FC0FB016B
:102470002080318043014EC023014C1A5D0AA20125
:10248000BE01C4010E944B46E401C40DD51DD70115
:102490006C9111967C91119714964D915C911597C2
:1024A000CE010E944B46F701848095808C0E9D1EC4
:1024B000D5011496CD91DC911597C60DD71DF80165
:1024C000848195818C0D9D1D95838483D5016D91AB
:1024D0007C91CE010E94A9463C01009769F6BE019D
:1024E000C401DF91CF911F910F91FF90EF90DF908A
:1024F000CF90BF90AF909F908F907F906F905F90A4
:102500004F903F902F900C947A46EC01C40DD51D4E
:102510008C0C9D1CB101CE010E94A9460097A9F721
:102520008614970409F450C0F801828193818815BC
:10253000990598F4B401C8010E94B40B882309F4EA
:1025400043C00BC0D7FD40C0AE01B501C8010E9419
:102550002F11EC0197FF07C037C0D8011496CD9119
:10256000DC9115972FC0F80180819181D5011496D7
:102570002D913C9115972C0F3D1F820F931F448185
:102580005581421B530BBC018C0D9D1D0E9454466E
:10259000F801848195818C0D9D1D95838483019024
:1025A000F081E02DE80FF91F1082D8012D913C91A8
:1025B0002C0F3D1FF7016081718144815581C90154
:1025C0000E944B462197BECFDF91CF911F910F9173
:1025D000FF90EF90DF90CF90BF90AF909F908F9043
:1025E0007F906F905F904F903F902F900895CF9382
:1025F000DF93FC01C081D181209729F407C090E0CE
:102600000E943746899388818111F9CFDF91CF915C
:102610000895CF93DF93FC01C081D181209729F4E5
:1026200007C090E00E943F46899388818111F9CFCD
:10263000DF91CF910895AF92BF92CF92DF92EF9248
:10264000FF920F931F93CF93DF936C01DC01ED900A
:10265000FC901197E114F10409F442C014960D9115
:102660001C91159701151105D9F15701E501BFEF2F
:10267000AB1ABB0A888190E00E942F46892BB1F7E4
:10268000015011090E0D1F1DF801808190E00E947C
:102690002F46892B69F40F5F1F4F0C1B1D0BD601B2
:1026A00015961C930E931497EC16FD0650F404C077
:1026B0000C171D0790F4EFCFA801BE01C7010E94BF
:1026C0004B46D601ED91FC91119714968D919C91FA
:1026D0001597E80FF91F108203C001501109D4CFDC
:1026E000DF91CF911F910F91FF90EF90DF90CF90EE
:1026F000BF90AF900895FC0180819181009711F007
:102700000C94084660E070E080E090E008950F933C
:102710001F93CF93DF938230910510F482E090E015
:10272000E0915012F091511220E030E0C0E0D0E092
:1027300023C04081518148175907A8F0481759070D
:1027400061F482819381209719F09B838A832EC044
:10275000909351128093501229C02115310529F010
:102760004217530710F0A90102C0BE01DF01028128
:102770001381EF019A01F8013097D9F6211531053F
:1027800009F1281B390B2430310590F412968D91F4
:102790009C9113976115710521F0FB01938382834E
:1027A00004C09093511280935012FD0132962FC0B5
:1027B000FD01E20FF31F81939193225031092D9374
:1027C0003C9325C04DB75EB748575109E0910202CE
:1027D000F0910302E417F507C0F44E1B5F0B481796
:1027E000590798F09C012E5F3F4F4217530768F03E
:1027F0002E0F3F1F309303022093020230930102F9
:10280000209300028193919302C0E0E0F0E0CF01B9
:10281000DF91CF911F910F910895EF92FF920F9347
:102820001F93CF93DF93009709F48EC0DC011297BA
:1028300013961C921E921297E0905012F090511233
:10284000E114F10489F42D913C911197280F391F5F
:1028500080910202909103028217930789F5B09349
:102860000302A093020270C0E70120E030E001C043
:10287000EA01CA17DB0738F44A815B819E014115E2
:102880005105B1F722C0AC0142505109FA01D3837E
:10289000C28300811181BC01600F711F6C177D071D
:1028A00061F468817981600F711F6E5F7F4F718362
:1028B00060836A817B81738362832115310529F4EA
:1028C000B0935112A09350123FC0F901B383A28379
:1028D000E90149915991C40FD51FAC17BD0771F497
:1028E000DC019E918E91840F951F029691838083C7
:1028F00012968D919C91139793838283A0E0B0E010
:1029000002C0D7017C01F701828193810097C9F74A
:10291000C701029620813181820F931F209102020C
:10292000309103022817390779F4109729F410928F
:1029300051121092501204C013961C921E921297BC
:10294000F0920302E0920202DF91CF911F910F916A
:10295000FF90EF9008958F929F92AF92BF92CF9287
:10296000DF92EF92FF920F931F93CF93DF93EC01CF
:10297000009779F4CB01DF91CF911F910F91FF90D8
:10298000EF90DF90CF90BF90AF909F908F900C947E
:102990008713DC01A60FB71FFC013297AE17BF07E4
:1029A00018F4C0E0D0E0A3C000811181061717071A
:1029B000B0F00530110508F49AC0C80104978617D5
:1029C000970708F494C002501109061B170B0D93CA
:1029D0001D9371836083CD010E940D1488C06B012B
:1029E000C01AD10A7C01E00EF11EE0915012F09164
:1029F000511220E030E080E090E048C0EE15FF0585
:102A0000D1F580809180540142E0A40EB11CAC1439
:102A1000BD0488F17401EC18FD08670122E0C20EC4
:102A2000D11C9E012250310945E0C416D10478F032
:102A30004281538113965C934E9312971196FC92A8
:102A4000EE92F901718360833A2F2B2F09C00E5F3C
:102A50001F4F080D191DD9010D931C93328123813D
:102A6000009721F0FC013283238341C03093501240
:102A7000209351123CC0808191812817390708F4B6
:102A80009C0152814381CF01E52FF42F309709F04B
:102A9000B5CF80910202909103028E159F05C1F47B
:102AA00026173707A8F48DB79EB788579109A8173E
:102AB000B90708F076CFB0930302A0930202B09357
:102AC0000102A0930002FE013297718360830FC060
:102AD000CB010E9487137C01009709F462CFA80103
:102AE000BE010E944B46CE010E940D14E701CE01AB
:102AF000DF91CF911F910F91FF90EF90DF90CF90DA
:102B0000BF90AF909F908F9008950C9487130C9472
:102B100087130C940D140C940D1421E030E0FC018B
:102B20008081882311F020E030E0C901089521E080
:102B3000FC0120830895089508951F920F920FB607
:102B40000F9211242F933F938F939F93AF93BF9333
:102B50008091E1099091E209A091E309B091E40923
:102B60003091E909232F2D5F2D3720F40196A11D07
:102B7000B11D05C0232F2A570296A11DB11D209318
:102B8000E9098093E1099093E209A093E309B093E6
:102B9000E4098091E5099091E609A091E709B091D7
:102BA000E8090196A11DB11D8093E5099093E609FE
:102BB000A093E709B093E809BF91AF919F918F91DE
:102BC0003F912F910F900FBE0F901F9018950F936C
:102BD0001F938FB7F8940091E1091091E2092091B9
:102BE000E3093091E4098FBFB801C9011F910F912A
:102BF00008950F931F939FB7F8940091E5091091E2
:102C0000E6092091E7093091E80986B5A89B06C03E
:102C10008F3F21F00F5F1F4F2F4F3F4F9FBF322F2E
:102C2000212F102F0027080F111D211D311D42E0FB
:102C3000000F111F221F331F4A95D1F7B801C90198
:102C40001F910F910895CF92DF92EF92FF92CF9351
:102C5000DF936B017C010E94F915EB0110C00E940B
:102C6000BB170E94F9156C1B7D0B683E734038F052
:102C700081E0C81AD108E108F108C851DC4FC1143D
:102C8000D104E104F10459F7DF91CF91FF90EF9067
:102C9000DF90CF900895019739F0880F991F880F22
:102CA000991F02970197F1F70895789484B582608F
:102CB00084BD84B5816084BD85B5826085BD85B5E0
:102CC000816085BDEEE6F0E0808181608083E1E88F
:102CD000F0E01082808182608083808181608083C7
:102CE000E0E8F0E0808181608083E1EBF0E08081CA
:102CF00084608083E0EBF0E0808181608083E1E9A3
:102D0000F0E0808182608083808181608083E0E95F
:102D1000F0E0808181608083E1EAF0E08081826080
:102D20008083808181608083E0EAF0E0808181603F
:102D30008083E1E2F1E08081826080838081816034
:102D40008083E0E2F1E0808181608083EAE7F0E067
:102D500080818460808380818260808380818160C3
:102D600080838081806880831092C10008958930BB
:102D700009F443C088F4843029F138F4823059F1E1
:102D8000E8F4813009F05EC023C0873061F188F536
:102D9000863009F057C023C08D3009F440C020F4BC
:102DA0008B30A9F1C0F52DC0803109F442C08131CA
:102DB00009F443C08F3009F045C037C080918000CE
:102DC0008F7703C0809180008F7D8093800008956D
:102DD00084B58F7702C084B58F7D84BD08958091BE
:102DE000B0008F7703C08091B0008F7D8093B000DA
:102DF0000895809190008F7707C0809190008F7D1B
:102E000003C080919000877F809390000895809107
:102E1000A0008F7707C08091A0008F7D03C08091B4
:102E2000A000877F8093A0000895809120018F7774
:102E300007C0809120018F7D03C080912001877F92
:102E4000809320010895CF93DF9390E0FC01EB582D
:102E5000FE4F4491FC01E554FE4F8491882341F1DB
:102E600090E0880F991FFC01EB5CFD4F2591349198
:102E7000D901855E9D4FFC0185919491C82FD92F72
:102E80009FB7F8948C91611106C0409584238C9370
:102E90008881842308C0623041F4242F2095822346
:102EA0008C938881842B888302C0842B8C939FBF52
:102EB000DF91CF9108950F931F93CF93DF931F92CC
:102EC000CDB7DEB7282F30E0F901E15DFE4F8491E8
:102ED000F901EB58FE4F1491F901E554FE4F0491AE
:102EE0000023D1F0882321F069830E94B7166981FD
:102EF000E02FF0E0EE0FFF1FE55EFD4F859194910E
:102F0000DC019FB7F8948C91611103C01095812367
:102F100001C0812B8C939FBF0F90DF91CF911F91A8
:102F20000F910895CF93DF93282F30E0F901E15DF1
:102F3000FE4F8491F901EB58FE4FD491F901E5540D
:102F4000FE4FC491CC2389F081110E94B716EC2F5B
:102F5000F0E0EE0FFF1FEF5FFD4F85919491DC01D4
:102F60008C918D2321E030E011F420E030E0C901A4
:102F7000DF91CF9108950895FC01A681B7819D014D
:102F80002F5F3F4F8481958140855185840F951F28
:102F90002817390740F46C933783268311961C92C7
:102FA00021E030E002C020E030E0C9010895FC01DA
:102FB000A481B581B783A68380859185892B09F08B
:102FC0001C92089508952F923F924F925F926F92B4
:102FD0007F928F929F92AF92BF92CF92DF92EF92A9
:102FE000FF920F931F93CF93DF93CDB7DEB72A974E
:102FF0000FB6F894DEBF0FBECDBF9A878987DC017C
:10300000D6968C91882309F4FAC00E94E71569834B
:103010007A838B839C83E985FA8580A191A129819C
:103020003A81281B390B84A595A5281739070CF47C
:10303000E6C0028CF38DE02DC080D180E280F38069
:10304000A985BA855E96ED91FC915F97A7019601DF
:1030500060817181828193810E94AA416D837E8308
:103060008F839887E985FA85208931894289538938
:103070000E947F44A985BA8594962D913D914D91EA
:103080005C9197970E94AB41562E672E782E092FA0
:10309000982F452D562D692F702FE985FA8544A369
:1030A00055A366A377A322A813A934A845A8222D67
:1030B000312F432D542D652D762D872D902F0E9475
:1030C000744418166CF4422D512F632D742DA9856C
:1030D000BA8594964D935D936D937C93979718C0A2
:1030E000E985FA8586A497A4A0A8B1A8A5019401B2
:1030F000652D762D872D902F0E94714287FF08C085
:10310000A985BA8594968D929D92AD92BC9297971F
:10311000E985FA852485358546855785BD81AE814B
:103120000F81B8846B2F7A2F802F9B2D0E947F44B4
:10313000A985BA8594962D913D914D915C91979773
:103140000E94AB414B015C01E985FA8520A531A5C0
:1031500042A553A5C701B6010E94AA41A985BA8517
:1031600054962D913D914D915C9157970E947F44CB
:103170009B01AC01C501B4010E94AA41962EA72E65
:10318000B82E092F222D312F432D542D692D7A2D44
:103190008B2D902F0E9474441816B4F0E985FA859F
:1031A00026A417A530A841A8222D312F432D542D38
:1031B000692D7A2D8B2D902F0E94714287FD04C0BE
:1031C000292C1A2D3B2C402EA985BA855C96ED91B1
:1031D000FC915D97422D512F632D742D40835183B7
:1031E00062837383FD01C0A6D1A6E2A6F3A68981FE
:1031F0009A81AB81BC8180A391A3A2A3B3A32A9699
:103200000FB6F894DEBF0FBECDBFDF91CF911F91F7
:103210000F91FF90EF90DF90CF90BF90AF909F9075
:103220008F907F906F905F904F903F902F90089578
:103230002F923F924F925F926F927F928F929F92C6
:10324000AF92BF92CF92DF92EF92FF920F931F93B4
:10325000CF93DF931C014A015B012801390120E073
:1032600030E0A901C501B4010E94714287FD8EC002
:1032700020E030E0A901C301B2010E94714287FD44
:1032800085C020E030E0A901C701B6010E9471426B
:1032900087FD7CC0F10180829182A282B382448248
:1032A000558266827782C086D186E286F38664A5DF
:1032B00075A5882777FD8095982F0E94134320E0FD
:1032C00030E04AE754E40E947842D62FC72F8C01A1
:1032D000F10184869586A686B786BE01982F272F92
:1032E000362F492F512FC301B2010E947F442B0179
:1032F0003C01982F442D552D692F772DF101408BDE
:10330000518B628B738BBE01272F362F402F512F8D
:10331000C701B6010E9478427B01D82FC92FCE0188
:103320000E2D1F2D292F382FF101048B158B268B85
:10333000378B808D918D019749F5A501940160E04F
:1033400070E0CB010E94AA41F101648775878687EE
:103350009787242D352D462D572D60E070E0CB0149
:103360000E94AA41F101608B718B828B938BCE01FD
:10337000202F312F492F582F60E070E0CB010E94A1
:10338000AA41F101648B758B868B978BDF91CF916E
:103390001F910F91FF90EF90DF90CF90BF90AF9073
:1033A0009F908F907F906F905F904F903F902F9065
:1033B0000895CF92DF92EF92FF920F931F93CF93D6
:1033C000DF93EC018B0116161706BCF5882777FDF5
:1033D0008095982F0E9413436B017C016CA57DA5FD
:1033E000882777FD8095982F0E9413439B01AC019D
:1033F000C701B6010E9478426B017C01762F272F0E
:103400003D2D4E2D5F2D688979898A899B890E947F
:103410007F44688B798B8A8B9B8B2C2D3D2D4E2D79
:103420005F2D6C897D898E899F890E9478426C8B83
:103430007D8B8E8B9F8B1DA70CA7DF91CF911F914A
:103440000F91FF90EF90DF90CF9008954F925F9291
:103450006F927F928F929F92AF92BF92CF92DF92A4
:10346000EF92FF920F931F93CF93DF93EC016A01CA
:103470007B0148015901A9019801C701B6010E94C9
:10348000744487FF4FC0CEA6DFA6E8AAF9AA8AAA8D
:103490009BAAACAABDAA8EA9882309F443C00C8DAF
:1034A0001D8DF8014080518062807380A5019401D8
:1034B000C301B2010E947444181634F4F8018082EA
:1034C0009182A282B3820DC0A7019601C301B2010D
:1034D0000E94714287FF05C0F801C082D182E2825A
:1034E000F3828CA09DA0AEA0BFA0CAA8DBA8ECA8C8
:1034F000FDA8A7019601C501B4010E9474441816E5
:103500000CF40CC0CEA4DFA4E8A8F9A8A70196018A
:10351000C501B4010E94714287FF04C0CCA2DDA2A4
:10352000EEA2FFA2DF91CF911F910F91FF90EF903C
:10353000DF90CF90BF90AF909F908F907F906F90D3
:103540005F904F9008958F929F92AF92BF92CF92CB
:10355000DF92EF92FF92CF93DF93EC01EC8DFD8D24
:10356000C080D180E280F380CCA2DDA2EEA2FFA2D7
:10357000EA8DFB8D408151816281738148A759A7F3
:103580006AA77BA78AA89BA8ACA8BDA8A50194019F
:10359000C701B6010E94744418160CF40CC08EA426
:1035A0009FA4A8A8B9A8A5019401C701B6010E94CB
:1035B000714287FF04C08CA29DA2AEA2BFA2DF9180
:1035C000CF91FF90EF90DF90CF90BF90AF909F9002
:1035D0008F9008951F93CF93DF93EC0111E061303A
:1035E000710509F010E08EA991E08927181303C036
:1035F000CE010E94A31A1EABDF91CF911F910895B7
:103600000F931F93CF93DF93EC018B018EA9882337
:1036100061F1888D998D6817790739F12C853D8581
:103620004E855F8560E070E0CB010E94AA416C8707
:103630007D878E879F87288939894A895B8960E0E1
:1036400070E0CB010E94AA41688B798B8A8B9B8B9F
:103650002C893D894E895F8960E070E0CB010E9432
:10366000AA416C8B7D8B8E8B9F8B198F088FDF917E
:10367000CF911F910F9108952F923F924F925F9299
:103680006F927F928F929F92AF92BF92CF92DF9272
:10369000EF92FF920F931F93CF93DF9300D000D050
:1036A000CDB7DEB71C017A8369835C834B833E838D
:1036B0002D83270138014501560100E010E02FE776
:1036C00033E440E050E0BA010E94261A84E690E01C
:1036D000F10195A784A768A179A1C1010E94001BEF
:1036E000CC8CDD8CEE8CFF8C95018401B301A201A2
:1036F000C1010E9418190E94E715F10184A495A444
:10370000AA2497FCA094BA2C681979098A099B0904
:1037100060A371A382A393A316AA8B819C81958F2A
:10372000848F89819A81938F828F8D819E81978FDB
:10373000868F26960FB6F894DEBF0FBECDBFDF9101
:10374000CF911F910F91FF90EF90DF90CF90BF909E
:10375000AF909F908F907F906F905F904F903F9031
:103760002F9008950F931F93CF93DF93FC017183E4
:103770006083128213821482158286E58683178203
:10378000108611861286138614861586168617866D
:10379000108A118A128A138A148A158A168ADF01FE
:1037A000A754BF4F1D921C92DF01A55ABE4F1D9218
:1037B0001C92DF01A15ABE4F1D921C92DF01AF592E
:1037C000BE4F1D921C92DF01AD59BE4F1D921C923F
:1037D000178ADF01A954BF4F1D921C92EF010EE121
:1037E00010E08FE090E00E948713FE01E15EFE4F43
:1037F000808391838FE090E00E948713FC01DE01BB
:10380000A558BF4F8D939C931082015011092296A9
:103810000115110531F7DF91CF911F910F91089597
:10382000FC015281438134812581652F742F832FC0
:10383000922F0895FC0186810895FC0157814085EF
:1038400031852285652F742F832F922F0895FC01D7
:103850005385448535852685652F742F832F922FB8
:103860000895CF92DF92EF92FF926A017B01FC01F3
:103870002785308941895289C701B6010E947F445A
:10388000FF90EF90DF90CF900895FC015389448919
:1038900035892689652F742F832F922F08959C01D7
:1038A000295E3F4FC9010895660F771F680F791F82
:1038B000FB01E558FF4F8081918108954F925F92FF
:1038C0006F927F928F929F92AF92BF92CF92DF9230
:1038D000EF92FF920F931F93CF93DF93DB01CC9175
:1038E00081E090E0CD3221F0CB3211F080E090E029
:1038F0002B01480E591E612C3DECA32E4CEC942E4E
:103900005CEC852E6DE3762EB12C00E010E0D0E06B
:10391000C12CD12C76014AC0EE3209F445C0FF27F4
:10392000E7FDF095611015C0AAE0B0E0A70196018F
:103930000E9449456B017C01BF0160537109CB01B5
:10394000AA2797FDA095BA2FC80ED91EEA1EFB1E06
:103950002DC0BF0160537109882777FD8095982F8E
:103960000E9413439B01AC016A2D792D882D972D60
:103970000E947F449B01AC016B2D702F812F9D2FE6
:103980000E94AB41B62E072F182FD92F20E030E030
:1039900040E251E46A2D792D882D972D0E947842BE
:1039A000A62E972E882E792E66246394D201ED914F
:1039B0002D01E111B1CFC701B6010E9413439B0154
:1039C000AC016B2D702F812F9D2F0E94AB41CD320A
:1039D00049F4262F372F482F592F60E070E0CB0194
:1039E0000E94AA41DF91CF911F910F91FF90EF901C
:1039F000DF90CF90BF90AF909F908F907F906F900F
:103A00005F904F9008958F929F92AF92BF92EF92E6
:103A1000FF920F931F93CF93DF93EC01FC01E55AC4
:103A2000FE4F808191818436910584F4FE01E75434
:103A3000FF4F208131812E31310544F4FE01ED59D3
:103A4000FE4F208131812F3031052CF0FE01E15AEB
:103A5000FE4F118210828E01015A1E4F6A3011F002
:103A60006D3019F4D8011D921C92643211F5FE01DB
:103A7000E35AFE4F11821082FE01EF59FE4F118270
:103A80001082FE01E754FF4F11821082FE01ED59B2
:103A9000FE4F11821082FE01E554FF4F6083FE014C
:103AA000E55AFE4F81E090E091838083C15ADE4F5A
:103AB000E0C0F801208131812130310571F024F41A
:103AC000232B09F48DC288C22230310509F48BC042
:103AD0002330310509F080C2CFC0873091057CF4D6
:103AE000FC01E45FFD4F2081621309C0FE01E35A2F
:103AF000FE4F208131812F5F3F4F31832083FE01B4
:103B0000E80FF91FE554FF4F6083FE01E55AFE4FB1
:103B10000196918380838E0107541F4FFE01ED595A
:103B2000FE4F6A3219F16C32E1F5D8012D913C91CA
:103B3000C901880F991F8C0F9D1F815E9E4FDC016C
:103B40008D919C9140815181840F951FDC011C92C5
:103B50002F5F3F4FD8012D933C9311821082CF5994
:103B6000DE4F88819981BCE28B2783C0D8012D91DB
:103B70003C91C901880F991F8C0F9D1F815E9E4F3C
:103B8000DC018D919C9140815181840F951FDC0156
:103B90001C922F5F3F4FD8012D933C9311821082CE
:103BA00063C020813181D8018D919C91880F991F2C
:103BB0008C0F9D1FDC01A15EBE4F0D90BC91A02D0E
:103BC000A20FB31F6C932F5F3F4F31832083CF59D8
:103BD000DE4F772767FD709588819981682779275F
:103BE00079836883FDC1FE01E80FF91FE554FF4F9B
:103BF0006083FE01E55AFE4F019691838083DE01CA
:103C0000AD59BE4F2D913C911197FE01E754FF4FE6
:103C100080819181880F991F8C0F9D1FFC01E15EAF
:103C2000FE4F0190F081E02DE20FF31F60832F5FC4
:103C30003F4F2D933C93FE01EF59FE4F4081518140
:103C4000862F992787FD9095613414F0C79701C09E
:103C5000C0979C01A4E0220F331FAA95E1F7CA0187
:103C6000821B930B91838083C15ADE4F8881998197
:103C7000019699838883B4C19E01280F391FD90109
:103C8000A554BF4F6C93D901A454BF4F1C92DE01C1
:103C9000A55ABE4F02968D939C939E012D593E4F7F
:103CA000F90140815181DE01A754BF4F8D919C9154
:103CB0001197880F991F8C0F9D1F815E9E4FFC01ED
:103CC00080819181840F951FFC0160834F5F5F4F5E
:103CD000F901518340832D913C911197C901880FBF
:103CE000991F8C0F9D1F815E9E4FFC0180819181E9
:103CF000840F951FFC0110822F5F3F4F2D933C9343
:103D0000D8011D921C92FE01EF59FE4F80819181D6
:103D1000262F332727FD309561341CF027533109B6
:103D200002C020533109821B930B91838083892B1E
:103D300009F056C188819981892B39F4FE01E55A31
:103D4000FE4F20813181C90110C0FE01E35AFE4FB0
:103D500080819181069791F343C1FE01E80FF91F1D
:103D6000DF01A554BF4F4C91478B019797FFF5CFCB
:103D7000A90141505109C90137FF02C080E090E01C
:103D8000FE01E55AFE4F9A01281B390B318320832F
:103D90007E0137EBE30EF11CD7011D921C92B70197
:103DA0008E0107541F4FDE01AD59BE4F31C0119631
:103DB0001C921E9208C040838D919C911197019690
:103DC00011969C938E93FB01808191812D913C9162
:103DD0001197880F991F8C0F9D1FAC01415E5E4F9C
:103DE000FA0140815181420F531FFA0140818558E9
:103DF0009F4FFC0180819181820F931FFC01411133
:103E0000DACF1082F70180819181019691838083BE
:103E1000FB0120813181F8018081918128173907C8
:103E200034F2FE01E35AFE4F80819181069709F03A
:103E3000DAC0FE01EF5DFE4F60817181CE010E940C
:103E40005E1C6A837B838C839D83FE01ED5DFE4F48
:103E50000190F081E02D80818E83FE01EB5DFE4FAD
:103E600060817181CE010E945E1C20E030E048EC50
:103E700052E40E9478427B018C017F2D802F912F8C
:103E80000E944E434B015C01FE01EB59FE4F6083E3
:103E90007183828393839B01AC016E2D7F2D802FD4
:103EA000912F0E94AA4120E030E048EC52E40E94A9
:103EB0007F4420E030E040E752E40E947842A501D0
:103EC00094010E94AB419B01462F532F682F792FFD
:103ED0004F83588769877A87FE01E95DFE4F01901D
:103EE000F081E02D4081433559F4482F592F60E08F
:103EF00070E0CB010E94AA416F83788789879A87F7
:103F0000FE01E75DFE4F60817181CE010E945E1C63
:103F100020E030E048EC52E40E9478427B018C01C2
:103F20007F2D802F912F0E944E434B015C01FE019B
:103F3000EB59FE4F60837183828393839B01AC01B5
:103F40006E2D7F2D802F912F0E94AA4120E030E01E
:103F500048EC52E40E947F4420E030E040E752E425
:103F60000E947842A50194010E94AB419B01462F1B
:103F7000532F682F792F4B875C876D877E87FE01D3
:103F8000E55DFE4F0190F081E02D4081473559F409
:103F9000482F592F60E070E0CB010E94AA416B8747
:103FA0007C878D879E87FE01E35DFE4F6081718176
:103FB000CE010E945E1C6F87788B898B9A8BFE01E5
:103FC000E15DFE4F60817181CE010E945E1C6B8BB2
:103FD0007C8B8D8B9E8B07C0C15ADE4F1982188255
:103FE00020E030E002C021E030E0C901DF91CF9154
:103FF0001F910F91FF90EF90BF90AF909F908F9087
:104000000895CF92DF92EF92FF920F931F936B016F
:104010007C01CA01B901C114D104E104F10421F405
:10402000C12CD12C7601C394C092F509D092F60927
:10403000E092F709F092F8091093F4090093F3095C
:10404000209170002E7F209370002091B0002C7F73
:104050002093B0002091B100277F2093B1002091E0
:10406000B6002F7D2093B600209170002D7F209305
:1040700070002091B10024602093B1002091B10024
:104080002C7F2093B10020E034E244E75BE40E94FF
:104090007F4420E030E040E85CE30E947F440E94DF
:1040A000E04280E091E0861B970B9093ED098093AE
:1040B000EC091F910F91FF90EF90DF90CF90089542
:1040C0000F931F938A012FE632E143E85AE30E94DF
:1040D00001201F910F9108951092EF091092F0099D
:1040E0001092F1091092F2091092EE098091EC09F8
:1040F0009091ED098093B200E0E7F0E0808181606B
:10410000808308958091EF099091F009A091F109C1
:10411000B091F2090196A11DB11D8093EF09909312
:10412000F009A093F109B093F2098091EF09909101
:10413000F009A091F109B091F2094091F50950916F
:10414000F6096091F7097091F80984179507A60799
:10415000B70710F18091EE0981111EC081E08093B4
:10416000EE098091EF099091F009A091F109B091C9
:10417000F209841B950BA60BB70B8093EF09909364
:10418000F009A093F109B093F209E091F309F091DD
:10419000F40919951092EE0908951F920F920FB627
:1041A0000F9211240BB60F921BBE2F933F934F9388
:1041B0005F936F937F938F939F93AF93BF93EF938F
:1041C000FF938091EC099091ED098093B2000E94D9
:1041D0008220FF91EF91BF91AF919F918F917F913D
:1041E0006F915F914F913F912F910F900BBE0F9068
:1041F0000FBE0F901F901895CB010C949747CB01E1
:10420000642F0C949F4790919E0A80919D0A981765
:1042100069F08F5F803508F080E0E82FF0E0E35B25
:10422000F54F208180939D0A30E002C02FEF3FEFD1
:10423000C901089580919E0AE0919D0A8E1731F080
:10424000F0E0E35BF54F208130E002C02FEF3FEF5D
:10425000C901089550919E0A40919D0A252F30E092
:10426000842F90E0541708F002C0205B3F4F281BBA
:10427000390BC90108959B01AC012D3A8BE1380738
:104280004105510530F4109273001092200181E82D
:1042900012C063E056954795379527956A95D1F7F3
:1042A0002D3A8BE1380741055105B0F510927300A6
:1042B0001092200182E8809321013093A20A20937A
:1042C000A10AA5E2B0E00E94494522E096958795B3
:1042D000779567952A95D1F77093A40A6093A30AFE
:1042E00062E080E30E94231761E08EE20E945B1788
:1042F00061E08EE20E94231710929F0A10929E0A9C
:1043000010929D0A10924C0A10924B0A10924A0A7F
:1043100080E28ABB80937300089590914B0A9F5F5F
:10432000943408F090E020914A0A2917E1F32FB75E
:10433000F89430914C0A332341F0E92FF0E0E65035
:10434000F64F808390934B0A1DC091E090934C0AE6
:104350008093A50A1092A60A82E08ABB809173001E
:10436000826080937300809120018F7380688093B6
:10437000200180912401909125014096909329017C
:10438000809328012FBF0895862F0E948D2181E000
:1043900090E008951F920F920FB60F9211240BB662
:1043A0000F921BBE2F933F934F935F936F937F9317
:1043B0008F939F93EF93FF9340914C0A5091A50ADE
:1043C00080912801909129012091A10A3091A20A9F
:1043D0007091A60A1DC0820F931F652F61705695BC
:1043E0004F5F6717A9F020912001662311F0206C20
:1043F00002C02F732068209320019093290180939D
:1044000028016093A60A5093A50A40934C0A3FC026
:10441000493008F3493039F42AE020934C0A2091BE
:104420002001206C28C020914B0AE0914A0A2E13EB
:104430000DC010924C0A809120018F73809320014F
:10444000809173008D7F8093730021C021E02093C1
:104450004C0AEF5FE43408F0E0E0E0934A0AF0E051
:10446000E650F64F20812093A50A1092A60A2091CB
:1044700020012F732068209320012091A10A309100
:10448000A20A280F391F3093290120932801FF9198
:10449000EF919F918F917F916F915F914F913F919C
:1044A0002F910F900BBE0F900FBE0F901F9018957D
:1044B00080914C0A8111FCCF08950C9458221F92D0
:1044C0000F920FB60F9211240BB60F921BBE2F93B3
:1044D0003F934F938F939F93EF93FF938091260188
:1044E0009091270140919F0A2091210140FF04C033
:1044F0002F7B209321011BC02064209321014111B7
:1045000016C02091A30A3091A40A280F391F3093B6
:104510002B0120932A0124E02ABB20917300246000
:10452000209373009093A80A8093A70A0AC04A3088
:1045300040F4E42FF0E0EE0FFF1FE955F54F9183B3
:1045400080834F5F40939F0A209124013091250181
:10455000281B390B8091A10A9091A20A8217930718
:1045600018F481E08093A00AFF91EF919F918F91C1
:104570004F913F912F910F900BBE0F900FBE0F9058
:104580001F9018951F920F920FB60F9211240BB621
:104590000F921BBEAF92BF92CF92DF92EF92FF922B
:1045A0000F931F932F933F934F935F936F937F933B
:1045B0008F939F93AF93BF93CF93DF93EF93FF932B
:1045C000809173008B7F80937300809121018F7B9A
:1045D0008093210110919E0A1F5F103508F010E0B2
:1045E00080919D0A1817E9F1C12FD0E000919F0A30
:1045F0000B3008F00AE06091A70A7091A80A209198
:10460000A10A3091A20AC90196958795820F931F3E
:1046100040E050E0E12CDD24D394FF24FA94E9EA51
:10462000FAE0CC24C39415C0A191B1915D01A61A02
:10463000B70A4A0D5B1D08C0E11003C06D2D6095DF
:10464000F622DD0C820F931F48175907A8F7EC24B8
:10465000BD01015049F7FE01E35BF54FF082109375
:104660009E0A10929F0AFF91EF91DF91CF91BF9127
:10467000AF919F918F917F916F915F914F913F91FA
:104680002F911F910F91FF90EF90DF90CF90BF90EF
:10469000AF900F900BBE0F900FBE0F901F9018950C
:1046A00080919D0A80939E0A0895CF93DF93C3E77C
:1046B000D0E088818B7F888388818F7D88830E946A
:1046C00050230E94582288818D7F8883DF91CF916B
:1046D000089528E232E0FC0131832083089528E226
:1046E00032E0FC01318320830C948915FC01CB015D
:1046F00028E232E03183208373836283148240E0B6
:1047000050E0BA010E94642D61E086E10E94231707
:1047100061E087E10E94231761E088E10E9423178E
:1047200061E089E10C942317CF92DF92EF92FF9220
:10473000CF93DF93EC018A819B810E947E2E882398
:1047400071F08A819B810E94F32A6B017C010E9497
:10475000E71521E0C616D706E806F90608F020E0BE
:10476000822FDF91CF91FF90EF90DF90CF9008954F
:10477000CF92DF92EF92FF92CF93DF93EC010E94F2
:1047800094238823A9F10E94E7156B017C018A819B
:104790009B810E94ED2AC61AD70AE80AF90A89EE17
:1047A000C81683E0D806E104F104C0F16C8186E10B
:1047B0000E945B176C8187E10E945B176C8188E126
:1047C0000E945B176C8189E10E945B178C8191E0EC
:1047D00089278C830E94E715AB01BC018A819B81EC
:1047E000DF91CF91FF90EF90DF90CF900C94642DEC
:1047F00060E086E10E945B1760E087E10E945B1742
:1048000060E088E10E945B1760E089E1DF91CF9171
:10481000FF90EF90DF90CF900C945B17DF91CF91DA
:10482000FF90EF90DF90CF900895CF92DF92EF92BC
:10483000FF92CF93DF93EC018A819B810E945F2DD1
:10484000882311F18A819B810E942B2D181619064D
:10485000DCF48A819B810E94372D6B017C018A8167
:104860009B810E942B2DBC01882777FD8095982F76
:104870000E9413439B01AC01C701B6010E9474441E
:10488000181614F461E001C060E08A819B81DF9119
:10489000CF91FF90EF90DF90CF900C94B32E20E358
:1048A00032E0FC0131832083089520E332E0FC01F3
:1048B000318320830C9489152F923F924F925F92FF
:1048C0006F927F928F929F92AF92BF92CF92DF9220
:1048D000EF92FF920F931F93CF93DF9300D000D0FE
:1048E000CDB7DEB79E838D834A015B0168017901F4
:1048F000FC01828193810E94452B9B01AC01C50183
:10490000B4010E94AB4169837A831C01ED81FE8171
:10491000828193810E94452B9B01AC01C501B401AA
:104920000E94AA412B013C01ED81FE81828193818D
:104930000E94452B9B01AC01C701B6010E94AB410F
:104940004B015C01ED81FE81828193810E94452BA8
:104950009B01AC01C701B6010E94AA41162F7B83BF
:104960008C83092FED81FE81828193810E944F2BE0
:104970006B017C0124E83AEB4CE358E3B981AA814E
:104980006B2F7A2F822D932D0E94AA41A7019601A9
:104990000E947444181694F4ED81FE818281938103
:1049A0000E942F2B9B01AC01B981AA816B2F7A2F1A
:1049B000822D932D0E94714287FD7EC0ED81FE8184
:1049C000828193810E942F2B6B017C0124E83AEBBA
:1049D0004CE358E3642D752D862D972D0E94AB4135
:1049E000A70196010E94714287FF11C0ED81FE81EF
:1049F000828193810E944F2B9B01AC01642D752D08
:104A0000862D972D0E94744418160CF462C0ED8117
:104A1000FE81828193810E94592B2B013C0124E865
:104A20003AEB4CE358E3682D792D8A2D9B2D0E949B
:104A3000AA41A30192010E947444181684F4ED81E6
:104A4000FE81828193810E94032B9B01AC01682D22
:104A5000792D8A2D9B2D0E94714287FD45C0ED81E5
:104A6000FE81828193810E94032B4B015C0124E82B
:104A70003AEB4CE358E3AB81FC80612F7A2F8F2D0A
:104A8000902F0E94AB41A50194010E94714287FFC3
:104A90005AC0ED81FE81828193810E94592B9B0136
:104AA000AC01AB81FC80612F7A2F8F2D902F0E945B
:104AB0007444181624F147C039812A81432F522F9C
:104AC000622D732DED81FE81828193810E949A2D4A
:104AD00075CF442D552D662D772DED81FE81828178
:104AE00093810E94AE2D93CF482D592D6A2D7B2D99
:104AF000ED81FE81828193810E947E2DB0CF2B813A
:104B00009C81412F522F692F702FED81FE81828170
:104B1000938126960FB6F894DEBF0FBECDBFDF910E
:104B2000CF911F910F91FF90EF90DF90CF90BF90AA
:104B3000AF909F908F907F906F905F904F903F903D
:104B40002F900C94B42D26960FB6F894DEBF0FBEAE
:104B5000CDBFDF91CF911F910F91FF90EF90DF902C
:104B6000CF90BF90AF909F908F907F906F905F900D
:104B70004F903F902F9008958F929F92AF92BF9247
:104B8000CF92DF92EF92FF920F931F93CF93DF9319
:104B9000EC016A017B014801590140E050E064EBFF
:104BA00072E48A819B810E949A2D40E050E064EB80
:104BB00072EC8A819B810E94AE2D40E050E064E35C
:104BC00073E48A819B810E947E2D40E050E064E383
:104BD00073EC8A819B810E94B42D8A819B810E9403
:104BE000392B2DE93BEF46E157E30E947F44AB01AF
:104BF000BC018A819B810E94A82D95018401B70187
:104C0000A601CE010E945C24DF91CF911F910F91EC
:104C1000FF90EF90DF90CF90BF90AF909F908F90DC
:104C20000895CF92DF92EF92FF920F931F93CF934D
:104C3000DF931F921F92CDB7DEB76C017B0180E33B
:104C400092E0F6019183808373836283CB010E949B
:104C5000192B8B019C01C70129833A830E940D2BDC
:104C6000AB01BC0129813A81C6010E94BC250F908D
:104C70000F90DF91CF911F910F91FF90EF90DF90F8
:104C8000CF9008958F929F92AF92BF92CF92DF9272
:104C9000EF92FF920F931F93CF93DF9300D01F9259
:104CA000CDB7DEB74C01FC01828193810E94552D66
:104CB000882309F4CFC00E94E7156B017C01F40141
:104CC000828193810E94E02CC61AD70AE80AF90A69
:104CD000F1EECF16F3E9DF06F4E0EF06F10438F069
:104CE000F401828193810E94552D811184C0F401C9
:104CF000828193810E940C2D882309F4ABC0F401BA
:104D0000828193810E94F42C5B016C01F401828109
:104D100093810E94E82C7B018C01F40182819381B4
:104D20000E94192B9B01AC01F401828193812B839A
:104D30003C8349835A830E940D2B2B813C814981FE
:104D40005A810E947F35AB01BC01F40182819381BD
:104D50000E94782DF401828193810E94F92A6B01CF
:104D60007C01F401828193810E94252B9B01AC017F
:104D7000C701B6010E947444181664F4F4018281DC
:104D800093810E94F92AAB01BC01F40182819381D5
:104D90000E94942DF401828193810E94F42C8B0156
:104DA0009C01F401828193812B833C830E94E82C37
:104DB000AB01BC012B813C81C4010E945C24F40145
:104DC000828193810E94552D882371F1F4018281A3
:104DD00093810E94F92A6B017C01F4018281938105
:104DE0000E94392B9B01AC01C701B6010E9474449B
:104DF000181684F019C040E050E0BA01F401828135
:104E000093810E946A2D61E0F401828193810E9466
:104E1000752D6DCF40E050E0BA01F401828193819D
:104E20000E946A2D61E001C060E0F40182819381FB
:104E30000F900F900F900F90DF91CF911F910F91D6
:104E4000FF90EF90DF90CF90BF90AF909F908F90AA
:104E50000C94752D0F900F900F900F90DF91CF91C4
:104E60001F910F91FF90EF90DF90CF90BF90AF9088
:104E70009F908F900895CF93DF93EC018A819B815F
:104E80000E94E82CAB01BC018A819B810E94842D89
:104E90008A819B810E94F42CAB01BC018A819B8199
:104EA0000E948C2D40E050E0BA018A819B81DF9105
:104EB000CF910C94942D6F927F928F929F92AF928C
:104EC000BF92CF92DF92EF92FF920F931F93CF93F7
:104ED000DF93CDB7DEB7E7970FB6F894DEBF0FBE0E
:104EE000CDBF4C018B013C0183E1680E711CC301F5
:104EF0000E94E217F401128B018BC8010E946D2BF6
:104F000020E030E044E354E40E94AB416B017C01BB
:104F1000982F4C2D5D2D692F7F2DF40140835183F7
:104F200062837383C8010E948B2B9B01AC016C2DA3
:104F30007D2D8E2D9F2D0E94AB41F40164837583DE
:104F400086839783C8010E94632BF4016087718771
:104F50008287938781E0808BA401485F5F4FB40113
:104F60006C5F7F4F1F928F938FE38F9385E08F93BA
:104F70008EE18F9388EB8F938AE0A82E87EDB82E71
:104F800083EAC82E8DE3D82E16E6E12EFE2C06EE1F
:104F90001EE39401CE0101960E943C1B87E3FE01B3
:104FA0003196D30101900D928A95E1F700E010E06F
:104FB00024E832E440E050E0BA01C3010E94261A1E
:104FC00064E670E0C3010E94D9190F900F900F9012
:104FD0000F900F900F90E7960FB6F894DEBF0FBEBC
:104FE000CDBFDF91CF911F910F91FF90EF90DF9098
:104FF000CF90BF90AF909F908F907F906F900895CB
:1050000008958F929F92AF92BF92CF92DF92EF92CC
:10501000FF920F931F93CF93DF93EC0189899A89B5
:105020000E949D2E8E010D5E1F4F882309F4CDC076
:1050300061E070E0C8010E94EA1A89899A890E9499
:105040006D2B20E030E044E354E40E94AB416B015F
:105050007C01982F4C2D5D2D692F7F2D488359831E
:105060006A837B8389899A890E948B2B9B01AC017F
:105070006C2D7D2D8E2D9F2D0E94AB416C837D83E9
:105080008E839F83C8010E94E3172C853D854E8542
:105090005F85688579858A859B850E94AA41B62FA0
:1050A000A72F462F572F682F792F4A015B0120E049
:1050B00030E0A9016B2F7A2F0E947444181624F057
:1050C000B7FAB094B7F8B09489899A890E94D42C21
:1050D000BC01882777FD8095982F0E9413439B0180
:1050E000AC01C501B4010E94744418160CF07EC0D6
:1050F0008889C884D984EA84FB848C849D84AE84A6
:10510000BF84A5019401882311F1C701B6010E9453
:10511000744418160CF421C0A5019401C701B6010E
:105120000E94714287FF3DC0188A89899A890E942E
:10513000DA2CBC01882777FD8095982F0E941343B5
:105140009B01AC01C701B6010E94AA4126C0C7015C
:10515000B6010E94714287FF05C0CC86DD86EE86CF
:10516000FF861FC0A5019401C701B6010E947444C7
:105170001816BCF481E0888B89899A890E94DA2C00
:10518000BC01882777FD8095982F0E9413439B01CF
:10519000AC01C701B6010E94AB416C877D878E8749
:1051A0009F874C855D856E857F8589899A89DF918A
:1051B000CF911F910F91FF90EF90DF90CF90BF9014
:1051C000AF909F908F900C94E92D60E070E0C80143
:1051D000DF91CF911F910F91FF90EF90DF90CF90D3
:1051E000BF90AF909F908F900C94EA1ADF91CF916F
:1051F0001F910F91FF90EF90DF90CF90BF90AF90F5
:105200009F908F900895FC01108211821282138268
:105210001482158216821782108A118A128A138AC2
:10522000148A158A168A178A108E118E128E138E82
:10523000148E40E050E064EB72E4458F568F678F28
:1052400070A340E050E064EB72EC41A352A363A36F
:1052500074A340E050E064E373E445A356A367A35E
:1052600070A740E050E064E373EC41A752A763A746
:1052700074A715A683E482AB13AA14AA15AA16AACA
:1052800040E050E064E072E447AB50AF61AF72AF12
:1052900013AE40E050E068EC72E444AF55AF66AF47
:1052A00077AFDF01A05CBF4F40E050E060E271E407
:1052B0004D935D936D937C931397DF01AC5BBF4F70
:1052C0004D935D936D937C93139710861186128690
:1052D00013861486158616861786DF01A85BBF4FD6
:1052E0001C92DF01A75BBF4F1D921D921D921C9265
:1052F0001397DF01A35BBF4F1D921D921D921C925D
:105300001397DF01AF5ABF4F86E58C93DF01AE5A8A
:10531000BF4F1D921D921D921C921397DF01AA5A36
:10532000BF4F1D921D921D921C921397DF01A65A2A
:10533000BF4F1D921D921D921C921397DF01A25A1E
:10534000BF4F1D921D921D921C921397DF01AE5903
:10535000BF4F1C92DF01AD59BF4F1C92DF01AC590A
:10536000BF4F1C92DF01AB59BF4F1D921D921D9282
:105370001C921397DF01A759BF4F1D921D921D92DA
:105380001C921397DF01A359BF4F1D921C92DF019E
:10539000A159BF4F1D921C92DF01AF58BF4F1D9204
:1053A0001C92DF01AD58BF4F1C92DF01AC58BF4FBC
:1053B0001D921D921D921C921397DF01A858BF4F9A
:1053C0001D921D921D921C921397DF01A458BF4F8E
:1053D00040E050E060E272E44D935D936D937C9306
:1053E0001397DF01A058BF4F1C92DF01AF57BF4F8B
:1053F0001C92DF01AE57BF4F1D921C92DF01AC57CC
:10540000BF4F1D921C92DF01AA57BF4F40E050E0F2
:1054100060E87FE34D935D936D937C931397DF0179
:10542000A657BF4F1C92DF01A557BF4F40EE53E96F
:1054300064E070E04D935D936D937C931397DF016F
:10544000A157BF4F1C92DF01A057BF4F1C92DF0135
:10545000AF56BF4F83E690E08D939C93DF01AD562E
:10546000BF4F1C92DF01AC56BF4F40E050E46CE1EF
:1054700076E44D935D936D937C931397DF01A8566B
:10548000BF4F1D921C92DF01A656BF4F81E090E0F6
:105490008D939C93DF01A456BF4F40E056E960E036
:1054A00070E04D935D936D937C931397DF01A0564D
:1054B000BF4F4D935D936D937C931397DF01AC5574
:1054C000BF4F40E855E260E070E04D935D936D930F
:1054D0007C931397DF01A855BF4F4D935D936D9358
:1054E0007C931397DF01A455BF4F1C92E355FF4FE8
:1054F00087E090E09183808308950F931F93CF936B
:10550000DF93EC01FC01E355FF4F408160E070E068
:1055100089EF99E00E94FF20FE01E255FF4F408194
:1055200061E070E089EF99E00E94FF20CC58DF4FE6
:1055300064E070E049918B010F5F1F4F89EF99E0A4
:105540000E94FF20B8010D331105A1F7DF91CF9123
:105550001F910F910895EF92FF920F931F93CF9396
:10556000DF931F921F92CDB7DEB78C0160E070E031
:1055700089EF99E00E94FC20898361E070E089EF67
:1055800099E00E94FC208A83F801E355FF4F2981AE
:105590003A81808191812817390719F0C8010E944A
:1055A0007D2A0C581F4F64E070E07B018FEFE81AF2
:1055B000F80A89EF99E00E94FC20F80181938F019D
:1055C000B7016D33710589F70F900F90DF91CF917F
:1055D0001F910F91FF90EF900895FC016081718100
:1055E000828193810895FC01648175818681978110
:1055F0000895FC015489458936892789652F742FC0
:10560000832F922F0895FC0155A146A137A120A513
:10561000652F742F832F922F0895FC01EC58FF4FB4
:105620005081418132812381652F742F832F922FE6
:105630000895FC01E858FF4F508141813281238158
:10564000652F742F832F922F0895FC01508D418D6B
:10565000328D238D652F742F832F922F0895FC0197
:10566000558D468D378D20A1652F742F832F922F56
:105670000895FC01E458FF4F50814181328123811C
:10568000652F742F832F922F0895FC015089418933
:1056900032892389652F742F832F922F0895FC015F
:1056A00051A142A133A124A1652F742F832F922FE2
:1056B0000895FC0151A542A533A524A5652F742F9B
:1056C000832F922F0895FC0157A940AD31AD22AD33
:1056D000652F742F832F922F0895FC0153A944A99D
:1056E00035A926A9652F742F832F922F0895FC01C9
:1056F00082A9873559F4E159FF4F6081718188276C
:1057000077FD8095982F0E94134304C060857185B2
:10571000828593850895EF92FF920F931F93CF9305
:10572000DF93EC010E94772B9B01AC016BA97CA954
:105730008DA99EA90E94AA417B018C0120E030E046
:1057400044E353E47F2D912F0E94744418168CF08B
:1057500020E030E044E353EC6E2D7F2D802F912F1D
:105760000E94714287FF0AC020E030E044EB53E41E
:1057700008C020E030E044EB53EC03C020E030E010
:10578000A9016E2D7F2D802F912F0E94AB419B018F
:10579000462F532F682F792F4EA75FA768AB79ABA1
:1057A000622F732FDF91CF911F910F91FF90EF9098
:1057B0000895EF92FF920F931F93CF93DF938C0185
:1057C000D62FC72F64E572E08D2F9C2F0E9499067B
:1057D0006FE572E08D2F9C2F0E949906F80165A558
:1057E0004AE050E070E08D2F9C2F0E9441086DE64A
:1057F00072E08D2F9C2F0E949906F80162A98D2FCF
:105800009C2F0E949B06F80185A58823D9F163E7A8
:1058100072E08D2F9C2F0E949906F80143A954A98C
:1058200065A976A922E030E08D2F9C2F0E945709B0
:1058300069E772E08D2F9C2F0E949906C8010E9493
:10584000772BAB01BC0122E030E08D2F9C2F0E9412
:1058500057096FE772E08D2F9C2F0E94990620E078
:1058600030E044E052E4F80167A970AD81AD92AD3B
:105870000E94AA41AB01BC0122E030E08D2F9C2F99
:105880000E94570965E872E08D2F9C2F0E949906AF
:105890007801F0E8EF0EF11CF70160814AE050E07A
:1058A00070E08D2F9C2F0E9441086BE872E08D2FD5
:1058B0009C2F0E949906F801E458FF4F40815181C6
:1058C0006281738122E030E08D2F9C2F0E94570966
:1058D000F70180818823B9F161E972E08D2F9C2F57
:1058E0000E949906F801EC58FF4F40815181628176
:1058F000738122E030E08D2F9C2F0E94570967E9C9
:1059000072E08D2F9C2F0E949906F801E858FF4FF6
:10591000408151816281738122E030E08D2F9C2F84
:105920000E9457096DE972E08D2F9C2F0E94990605
:10593000F801448955896689778922E030E08D2F06
:105940009C2F0E94570963EA72E08D2F9C2F0E94C2
:105950009906F801ED56FF4F60814AE050E070E093
:105960008D2F9C2F0E94410869EA72E08D2F9C2F99
:105970000E949906F801EF56FF4F608171814AE05D
:1059800050E08D2F9C2F0E94410867EA75E08D2F13
:105990009C2F0E94EA0680E090E0DF91CF911F915A
:1059A0000F91FF90EF900895FC01EE57FF4F80811B
:1059B00091810895FC01EC57FF4F808191810895FA
:1059C000FC01E75BFF4F60817181828193810895C3
:1059D000FC01EE5AFF4F5081418132812381652FB6
:1059E000742F832F922F0895FC01EA5AFF4F5081A4
:1059F000418132812381652F742F832F922F089547
:105A0000FC01EA57FF4F5081418132812381652F8C
:105A1000742F832F922F08958F5A9F4FFC018081FE
:105A20000895FC015085418532852385652F742FAB
:105A3000832F922F0895FC0154854585368527854F
:105A4000652F742F832F922F0895FC01E856FF4F86
:105A5000808191810895FC01EF56FF4F80819181F3
:105A60000895FC01E159FF4F808191810895FC0167
:105A7000E759FF4F5081418132812381652F742F77
:105A8000832F922F0895FC01EC56FF4F50814181E6
:105A900032812381652F742F832F922F0895FC016B
:105AA000E359FF4F80819181089580589F4FFC01F9
:105AB00080810895885B9F4FFC01808108958D56F9
:105AC0009F4FFC0180810895FC01408351836283D4
:105AD00073830895FC014483558366837783089517
