:100000000C944A010C940D0A0C943F0A0C94710A4A
:100010000C94A30A0C94D50A0C94070B0C94390B7E
:100020000C946B0B0C947B010C947B010C947B0166
:100030000C947B010C947B010C947B010C945F214C
:100040000C947B010C947B010C947B010C947B0140
:100050000C947B010C947B010C947B010C949D15FA
:100060000C947B010C9466020C945A030C947B0153
:100070000C947B010C947B010C947B010C947B0110
:100080000C947B010C947B010C947B010C947B0100
:100090000C949B020C949A030C947B010C947B01AE
:1000A0000C947B010C947B010C947B010C947B01E0
:1000B0000C947B010C947B010C94EF220C945B223A
:1000C0000C9451230C947B010C947B010C94D00272
:1000D0000C94DA030C947B010C9405030C941A0421
:1000E0000C947B01084AD73B3BCE016E84BCBFFD1C
:1000F000C12F3D6C74319ABD56833DDA3D00C77FF8
:1001000011BED9E4BB4C3E916BAAAABE0000008090
:100110003F05A84CCDB2D44EB93836A9020C50B91F
:10012000918688083CA6AAAA2ABE000000803F004B
:1001300000090A02080B0C0D070603040100000069
:1001400000000000000000000000000000000000AF
:10015000000000000000000000000011100F00006F
:10016000000000000000000000000000000000008F
:10017000000000000001021020200808102040109C
:10018000204080020102010804020101020408105B
:100190002040808040201008040201800402018079
:1001A00040201008040201080402010102040810A2
:1001B0002040800102040810204080050505050745
:1001C0000508080808020202020A0A0808040404D2
:1001D00004010101010101010103030303030303FE
:1001E00003040707070C0C0C0C0C0C0C0C0202028D
:1001F0000206060606060606060B0B0B0B0B0B0B80
:100200000B000020002300260029002C002F0032C4
:100210000000010000030106010901000022002581
:100220000028002B002E00310034000201000005E0
:100230000108010B0100002100240027002A002DE5
:10024000003000330001010000040107010A0149E8
:100250004E46494E4954594E414E0000204100003F
:10026000C84200401C4620BCBE4CCA1B0E5AAEC53C
:100270009D74CDCCCC3D0AD7233C17B7D13877CC71
:100280002B329595E6241FB14F0AF03460394D3F6B
:10029000743F563511241FBECFEFD1E2DEBFCDBF74
:1002A00000E00CBF17E0A0E0B2E0E4EEF0E900E00F
:1002B0000BBF02C007900D92AA30B107D9F712E127
:1002C000AAE0B7E001C01D92A13AB107E1F712E040
:1002D000C2E9D2E000E006C022970109FE010BBF8F
:1002E0000E940545CA38D10780E00807A9F70E9497
:1002F000C0400C9460480C940000FC0184859585F6
:10030000FC01E05CFF4F20813181FC01EE5BFF4F7F
:1003100080819181281B390B2F733327C9010895E0
:10032000FC0184859585FC01E05CFF4F4081518193
:10033000FC01EE5BFF4F208131814217530741F0F2
:100340000190F081E02DE80FF91F208130E002C01C
:100350002FEF3FEFC9010895FC0184859585FC01CD
:10036000E05CFF4F40815181FC01EE5BFF4F20813B
:1003700031814217530771F0A081B181A80FB91FD5
:100380002C918081918101968F739927918380832D
:1003900030E002C02FEF3FEFC9010895FC0181A1B9
:1003A000882329F0A489B5898C9186FFFBCF11A2FF
:1003B0000895CF93DF93FC0126853785D901A05C92
:1003C000BF4F8D919C91119701968F739927E901E9
:1003D000CE5BDF4F4881598184179507D9F30D9083
:1003E000BC91A02DA20FB31F6C93A685B785A05C0E
:1003F000BF4F11969C938E93A689B7892C9181E06B
:1004000090E0078C02C0880F991F0A94E2F7282B0E
:100410002C9381E081A30488F589E02D808180649C
:10042000808381E090E0DF91CF910895EF92FF9279
:100430000F931F93CF93DF93FC0126853785D90156
:10044000A05CBF4F8D919C91119701968F73992756
:1004500089010E5B1F4FE801E880F9808E159F052A
:10046000D1F30D90BC91A02DA20FB31F6C93A68564
:10047000B785A05CBF4F11969C938E93A689B789D0
:100480008C91442311F0816001C08E7F8C93A689EA
:10049000B7892C9181E090E0078C02C0880F991FEA
:1004A0000A94E2F7282B2C9381E081A30488F58934
:1004B000E02D80818064808381E090E0DF91CF91A6
:1004C0001F910F91FF90EF90089508951F920F9242
:1004D0000FB60F9211240BB60F921BBE2F933F93B2
:1004E0004F935F936F937F938F939F93AF93BF933C
:1004F000EF93FF938091C00082FD07C08091C600FA
:100500006EE679E00E945B3F02C08091C600FF91D9
:10051000EF91BF91AF919F918F917F916F915F917B
:100520004F913F912F910F900BBE0F900FBE0F90E8
:100530001F90189508951F920F920FB60F921124D5
:100540000BB60F921BBE2F933F934F935F936F9306
:100550007F938F939F93AF93BF93EF93FF9380917C
:10056000C80082FD07C08091CE0066EE78E00E9450
:100570005B3F02C08091CE00FF91EF91BF91AF91A0
:100580009F918F917F916F915F914F913F912F91AB
:100590000F900BBE0F900FBE0F901F9018950895EF
:1005A0001F920F920FB60F9211240BB60F921BBE23
:1005B0002F933F934F935F936F937F938F939F936B
:1005C000AF93BF93EF93FF938091D00082FD07C05C
:1005D0008091D6006EE578E00E945B3F02C080917A
:1005E000D600FF91EF91BF91AF919F918F917F9135
:1005F0006F915F914F913F912F910F900BBE0F9094
:100600000FBE0F901F90189508951F920F920FB66E
:100610000F9211240BB60F921BBE2F933F934F9353
:100620005F936F937F938F939F93AF93BF93EF935A
:10063000FF938091300182FD07C08091360166ED05
:1006400077E00E945B3F02C080913601FF91EF91FD
:10065000BF91AF919F918F917F916F915F914F91DA
:100660003F912F910F900BBE0F900FBE0F901F90D8
:10067000189580E797E00E947D01892B11F00E9478
:100680009F348EE497E00E947D01892B11F00E9437
:1006900082318CE297E00E947D01892B11F00E944B
:1006A000A9318AE097E00E947D01892B11F00C941A
:1006B000D63108951F920F920FB60F9211240BB6E8
:1006C0000F921BBE2F933F938F939F93EF93FF93B4
:1006D00020916A0930916B0980916C0990916D09A4
:1006E0002817390731F48091C1008F7D8093C100B4
:1006F00014C0E0916C09F0916D09E65DF64F208120
:1007000080916C0990916D0901968F739927909350
:100710006D0980936C092093C600FF91EF919F9122
:100720008F913F912F910F900BBE0F900FBE0F90A6
:100730001F9018951F920F920FB60F9211240BB6AF
:100740000F921BBE2F933F938F939F93EF93FF9333
:100750002091E2083091E3088091E4089091E50847
:100760002817390731F48091C9008F7D8093C90023
:1007700014C0E091E408F091E508EE55F74F2081B0
:100780008091E4089091E50801968F7399279093E2
:10079000E5088093E4082093CE00FF91EF919F91AC
:1007A0008F913F912F910F900BBE0F900FBE0F9026
:1007B0001F9018951F920F920FB60F9211240BB62F
:1007C0000F921BBE2F933F938F939F93EF93FF93B3
:1007D00020915A0830915B0880915C0890915D08E7
:1007E0002817390731F48091D1008F7D8093D10093
:1007F00014C0E0915C08F0915D08E65EF74F20813F
:1008000080915C0890915D0801968F739927909371
:100810005D0880935C082093D600FF91EF919F9133
:100820008F913F912F910F900BBE0F900FBE0F90A5
:100830001F9018951F920F920FB60F9211240BB6AE
:100840000F921BBE2F933F938F939F93EF93FF9332
:100850002091D2073091D3078091D4079091D5078A
:100860002817390731F4809131018F7D8093310150
:1008700014C0E091D407F091D507EE56F84F2081CF
:100880008091D4079091D50701968F739927909303
:10089000D5078093D40720933601FF91EF919F9164
:1008A0008F913F912F910F900BBE0F900FBE0F9025
:1008B0001F9018954F925F926F927F928F929F92A6
:1008C000AF92BF92CF92DF92EF92FF920F931F935E
:1008D000CF93DF93CDB7DEB7FC011382128288EE8F
:1008E000482E83E0582E612C712C448255826682FA
:1008F000778280EF96E0918380837587648757873E
:100900004687318B208B138B028BF58AE48AD78A3A
:10091000C68AB18EA08E938E828E8C89848F8D89AB
:10092000858F8E89868F8F89878F888D80A3DF91B1
:10093000CF911F910F91FF90EF90DF90CF90BF90DC
:10094000AF909F908F907F906F905F904F900895A1
:10095000CF92DF92EF92FF92CF93DF93EC016A0187
:100960007B01411581EE580761057105F9F0EC89AD
:10097000FD8981E090E008A002C0880F991F0A94C9
:10098000E2F7808360E079E08DE390E0A7019601D3
:100990000E94A744215031094109510956954795B4
:1009A00037952795211580E1380798F0EC89FD8966
:1009B000108260E874E88EE190E0A70196010E9441
:1009C000A74421503109410951095695479537955A
:1009D0002795E889F9893083EA89FB89208319A260
:1009E000EE89FF89408181E090E09C010C8C02C07F
:1009F000220F331F0A94E2F7422B4083EE89FF89CE
:100A000040819C010D8C02C0220F331F0A94E2F733
:100A1000422B4083EE89FF8940819C010E8C02C0ED
:100A2000220F331F0A94E2F7422B4083EE89FF899D
:100A300020810F8C02C0880F991F0A94E2F78095DD
:100A400082238083DF91CF91FF90EF90DF90CF9052
:100A50000895BF92CF92DF92EF92FF92CF93DF93F0
:100A6000EC016A017B01B22E411581EE5807610548
:100A70007105F9F0EC89FD8981E090E008A002C0E1
:100A8000880F991F0A94E2F7808360E079E08DE394
:100A900090E0A70196010E94A74421503109410925
:100AA00051095695479537952795211580E13807C7
:100AB00098F0EC89FD89108260E874E88EE190E09E
:100AC000A70196010E94A74421503109410951090B
:100AD0005695479537952795E889F9893083EA89AE
:100AE000FB89208387E0B8120AC0E88DF98D86E083
:100AF0008083EE89FF8980818460808308C0EE89CD
:100B0000FF89808184708083E88DF98DB082EE89C1
:100B1000FF89408181E090E09C010C8C02C0220F93
:100B2000331F0A94E2F7422B4083EE89FF8940810C
:100B30009C010D8C02C0220F331F0A94E2F7422B56
:100B40004083EE89FF8940819C010E8C02C0220FF8
:100B5000331F0A94E2F7422B4083EE89FF892081FC
:100B60000F8C02C0880F991F0A94E2F780958223A8
:100B70008083DF91CF91FF90EF90DF90CF90BF9077
:100B80000895CF93DF93FC0186859785DC01A05CF7
:100B9000BF4FEC01CE5BDF4F4D915C9111972881E7
:100BA000398142175307C1F7A689B7894C9181E073
:100BB00090E09C01048C02C0220F331F0A94E2F7DC
:100BC000209524232C93A689B7894C919C01058CF0
:100BD00002C0220F331F0A94E2F7209524232C939E
:100BE000A689B7894C919C01068C02C0220F331F45
:100BF0000A94E2F7209524232C93A689B7892C9197
:100C0000078C02C0880F991F0A94E2F7809582230F
:100C10008C9384859585FC01EE5BFF4F20813181AB
:100C2000FC01E05CFF4F31832083DF91CF91089579
:100C300081E00895CF92DF92EF92FF920F931F937E
:100C4000CF93DF936C01EB017A01E60EF71E00E013
:100C500010E00BC06991D601ED91FC910190F081FB
:100C6000E02DC6011995080F191FCE15DF0591F764
:100C7000C801DF91CF911F910F91FF90EF90DF900E
:100C8000CF900895EF92FF920F931F93CF93DF932E
:100C90007C01EB0100E010E0FE01219664916623E7
:100CA00051F0F701A081B181ED91FC91C701199537
:100CB000080F191FF1CFC801DF91CF911F910F913C
:100CC000FF90EF900895AF92BF92CF92DF92EF9294
:100CD000FF920F931F93CF93DF937C016B0100E092
:100CE00010E0C0E0D0E011C0D701ED91FC91A080F0
:100CF000B180B801C6010E947510682FC701F501C7
:100D00001995C80FD91F0F5F1F4FD60114968D91EB
:100D10009C9115970817190738F3CE01DF91CF91F1
:100D20001F910F91FF90EF90DF90CF90BF90AF9009
:100D300008950C94AA40DC01ED91FC910190F081A2
:100D4000E02D1994DB01ED91FC9111970190F08158
:100D5000E02DBC01CD0119940F931F93CF93DF9326
:100D6000EC016DE00E949B068C016AE0CE010E94BE
:100D70009B069C01200F311FC901DF91CF911F916C
:100D80000F9108950F931F93CF93DF93EC010E946F
:100D900042068C01CE010E94AC069C01200F311F3F
:100DA000C901DF91CF911F910F9108950F931F9368
:100DB000CF93DF93EC010E9463068C01CE010E9469
:100DC000AC069C01200F311FC901DF91CF911F910B
:100DD0000F9108950F931F93CF93DF93EC010E941F
:100DE000AA408C01CE010E94AC069801280F391F41
:100DF000C901DF91CF911F910F9108950F931F9318
:100E0000CF93DF93EC010E949B068C01CE010E94E0
:100E1000AC069C01200F311FC901DF91CF911F91BA
:100E20000F9108950F931F93CF93DF93EC010E94CE
:100E3000A2068C01CE010E94AC069C01200F311F3E
:100E4000C901DF91CF911F910F9108955F926F9229
:100E50007F928F929F92AF92BF92CF92DF92EF924A
:100E6000FF920F931F93CF93DF93CDB7DEB7A19778
:100E70000FB6F894DEBF0FBECDBF3C016A017B0107
:100E8000522E19A281E0821710F08AE0582E8E01AE
:100E90000F5D1F4F852C912CA12CB12CC701B601E1
:100EA000A50194010E94A7448C2D529E8019112403
:100EB000015011098A3010F4805D01C0895CF8018D
:100EC000808369017A01C114D104E104F10431F78E
:100ED000B801C3010E94AA40A1960FB6F894DEBFE4
:100EE0000FBECDBFDF91CF911F910F91FF90EF907B
:100EF000DF90CF90BF90AF909F908F907F906F903A
:100F00005F9008952115310541F4DC01ED91FC91CC
:100F10000190F081E02D642F19940C9426070F9313
:100F20001F93CF93DF93EC010E9482078C01CE01C7
:100F30000E94AC069C01200F311FC901DF91CF91A7
:100F40001F910F9108959A01AB0160E070E00C943D
:100F500082070F931F93CF93DF93EC019A01AB01AC
:100F600060E070E00E9482078C01CE010E94AC0616
:100F70009801280F391FC901DF91CF911F910F915F
:100F800008959A01462F50E060E070E00C948207CB
:100F90000F931F93CF93DF93EC019A01462F50E0FC
:100FA00060E070E00E9482078C01CE010E94AC06D6
:100FB0009801280F391FC901DF91CF911F910F911F
:100FC0000895CF92DF92EF92FF920F931F93CF93EA
:100FD000DF93EC016A017B012115310579F4E88189
:100FE000F9810190F081E02D642FDF91CF911F9165
:100FF0000F91FF90EF90DF90CF9019942A30310538
:1010000019F477FD0EC02AE0B701A601CE01DF91E9
:10101000CF911F910F91FF90EF90DF90CF900C94A4
:1010200026076DE20E949B068C0144275527BA01D2
:101030004C195D096E097F092AE0CE010E9426073E
:101040009C01200F311FC901DF91CF911F910F919A
:10105000FF90EF90DF90CF9008950F931F93CF9361
:10106000DF93EC010E94E1078C01CE010E94AC06E7
:101070009C01200F311FC901DF91CF911F910F916A
:1010800008959A01AB01662757FD6095762F0C9461
:10109000E1070F931F93CF93DF93EC019A01AB010C
:1010A000662757FD6095762F0E94E1078C01CE01DF
:1010B0000E94AC069801280F391FC901DF91CF911A
:1010C0001F910F9108956F927F928F929F92AF928E
:1010D000BF92CF92DF92EF92FF920F931F93CF9325
:1010E0008C016A017B01C22F9A01AB01C701B601D5
:1010F0000E945044882319F06EEF76E032C046011A
:101100005701E894B7F82FEF3FEF4FE75FE7C501CE
:10111000B4010E94504481110DC02FEF3FEF4FE703
:101120005FE7C501B4010E94944118161CF462E007
:1011300077E017C02FEF3FEF4FE75FE4C701B6013D
:101140000E94974318160CF40AC02FEF3FEF4FE7A9
:101150005FECC701B6010E94944187FF12C066E0B0
:1011600077E0C801CF911F910F91FF90EF90DF9032
:10117000CF90BF90AF909F908F907F906F900C9486
:10118000AA4020E030E0A901C701B6010E949441C5
:1011900087FF0AC06DE2C8010E949B063C01F7FA76
:1011A000F094F7F8F09402C0612C712CB12C60E03F
:1011B00070E080E09FE307C020E030E040E251E4CF
:1011C0000E949B41B394BC12F7CF262F372F482F94
:1011D000592FC701B6010E94CE404B015C01792D09
:1011E0009B2D0E9408426B017C010E9434429B01AE
:1011F000AC01682D792D8A2D9B2D0E94CD40B62EF5
:10120000A72E982E892E2AE0A601B701C8010E94B8
:101210002607680E791ECC23C9F164EA74E0C80180
:101220000E94AA40680E791E31C020E030E040E202
:1012300051E4D501F4016B2F7A2D8F2F982D0E9448
:10124000A2434B015C01792D9B2D0E9403426B014F
:10125000EE24D7FCE094FE2C2AE030E0B701A60192
:10126000C8010E94E107680E791EC701B6010E94FD
:1012700036429B01AC01682D792D8A2D9B2D0E9451
:10128000CD40B62EA72E982E892EC150C111CDCF9C
:10129000C301CF911F910F91FF90EF90DF90CF90FE
:1012A000BF90AF909F908F907F906F9008950C9417
:1012B00063080F931F93CF93DF93EC010E946308A1
:1012C0008C01CE010E94AC069801280F391FC9017C
:1012D000DF91CF911F910F910895883008F073C06E
:1012E000E82FF0E0EE0FFF1FEE54F64F718360839E
:1012F000843011F130F4823059F090F48130B1F53E
:101300003DC0863009F446C020F1873079F54FC0E2
:10131000809169008C7F842B80936900E89A0895FE
:1013200080916900440F551F440F551F837F842B04
:1013300080936900E99A08958091690074E0440FF0
:10134000551F7A95E1F78F7C842B80936900EA9A88
:1013500008958091690066E0440F551F6A95E1F792
:101360008F73842B80936900EB9A089580916A00B3
:101370008C7F842B80936A00EC9A089580916A0098
:10138000440F551F440F551F837F842B80936A00A1
:10139000ED9A089580916A0024E0440F551F2A9524
:1013A000E1F78F7C842B80936A00EE9A08958091F8
:1013B0006A0096E0440F551F9A95E1F78F73842BCE
:1013C00080936A00EF9A0895883030F5843089F070
:1013D00030F4823051F058F4813079F410C0863006
:1013E00081F048F0873049F40EC0E8980DC0E998C4
:1013F0000BC0EA9809C0EB9807C0EC9805C0ED98BF
:1014000003C0EE9801C0EF98E82FF0E0EE0FFF1F49
:10141000EE54F64F1182108208951F920F920FB66C
:101420000F9211240BB60F921BBE2F933F934F9335
:101430005F936F937F938F939F93AF93BF93EF933C
:10144000FF938091B6099091B709892B29F0E0911B
:10145000B609F091B7091995FF91EF91BF91AF913E
:101460009F918F917F916F915F914F913F912F91BC
:101470000F900BBE0F900FBE0F901F9018951F92EC
:101480000F920FB60F9211240BB60F921BBE2F9323
:101490003F934F935F936F937F938F939F93AF93FC
:1014A000BF93EF93FF938091B8099091B909892B6D
:1014B00029F0E091B809F091B9091995FF91EF91E0
:1014C000BF91AF919F918F917F916F915F914F915C
:1014D0003F912F910F900BBE0F900FBE0F901F905A
:1014E00018951F920F920FB60F9211240BB60F9200
:1014F0001BBE2F933F934F935F936F937F938F9375
:101500009F93AF93BF93EF93FF938091BA0990910C
:10151000BB09892B29F0E091BA09F091BB09199513
:10152000FF91EF91BF91AF919F918F917F916F91BB
:101530005F914F913F912F910F900BBE0F900FBE77
:101540000F901F9018951F920F920FB60F921124B3
:101550000BB60F921BBE2F933F934F935F936F93E6
:101560007F938F939F93AF93BF93EF93FF9380915C
:10157000BC099091BD09892B29F0E091BC09F0913B
:10158000BD091995FF91EF91BF91AF919F918F91F7
:101590007F916F915F914F913F912F910F900BBE73
:1015A0000F900FBE0F901F9018951F920F920FB6BD
:1015B0000F9211240BB60F921BBE2F933F934F93A4
:1015C0005F936F937F938F939F93AF93BF93EF93AB
:1015D000FF938091B2099091B309892B29F0E09192
:1015E000B209F091B3091995FF91EF91BF91AF91B5
:1015F0009F918F917F916F915F914F913F912F912B
:101600000F900BBE0F900FBE0F901F9018951F925A
:101610000F920FB60F9211240BB60F921BBE2F9391
:101620003F934F935F936F937F938F939F93AF936A
:10163000BF93EF93FF938091B4099091B509892BE3
:1016400029F0E091B409F091B5091995FF91EF9156
:10165000BF91AF919F918F917F916F915F914F91CA
:101660003F912F910F900BBE0F900FBE0F901F90C8
:1016700018951F920F920FB60F9211240BB60F926E
:101680001BBE2F933F934F935F936F937F938F93E3
:101690009F93AF93BF93EF93FF938091BE09909177
:1016A000BF09892B29F0E091BE09F091BF09199576
:1016B000FF91EF91BF91AF919F918F917F916F912A
:1016C0005F914F913F912F910F900BBE0F900FBEE6
:1016D0000F901F9018951F920F920FB60F92112422
:1016E0000BB60F921BBE2F933F934F935F936F9355
:1016F0007F938F939F93AF93BF93EF93FF938091CB
:10170000C0099091C109892B29F0E091C009F0919D
:10171000C1091995FF91EF91BF91AF919F918F9161
:101720007F916F915F914F913F912F910F900BBEE1
:101730000F900FBE0F901F901895FC018081918132
:101740000C940D14CF93DF93EC018881998100975D
:1017500011F00E940D14198218821D821C821B82B6
:101760001A82DF91CF9108950F931F93CF93DF9348
:10177000EC018B016F5F7F4F888199810E94AB14D0
:10178000009731F0998388831B830A8381E001C02D
:1017900080E0DF91CF911F910F910895CF93DF9358
:1017A000EC0188819981892B31F08A819B81861790
:1017B000970708F00CC0CE010E94B40B882349F0B3
:1017C0008C819D81892B19F4E881F981108281E057
:1017D00001C080E0DF91CF910895EF92FF920F93C7
:1017E0001F93CF93DF93EC017B018A01BA010E9422
:1017F000CE0B811104C0CE010E94A20B07C01D8335
:101800000C83B701888199810E949D45CE01DF91AB
:10181000CF911F910F91FF90EF900895DC011196E9
:101820001C921E9213961C921E92129715961C9251
:101830001E92149716961C926115710559F0DB01E2
:101840000D900020E9F7AD0141505109461B570B9F
:101850000C94ED0B0895CF93DF93EC01FB018617F9
:10186000970761F0608171816115710529F04481EC
:1018700055810E94ED0B02C00E94A20BCE01DF91A8
:10188000CF910895FC011182108213821282158279
:10189000148216820C942B0CCF93DF93D82FC92F70
:1018A0006115710561F0DB010D900020E9F7AD01D4
:1018B00041505109461B570B0E94ED0B02C00E947C
:1018C000A20B8D2F9C2FDF91CF9108950F931F9323
:1018D000CF93DF93CDB7DEB7A1970FB6F894DEBFF5
:1018E0000FBECDBF8C01CB01BA01F801118210826D
:1018F0001382128215821482168230E0AE014F5F8D
:101900005F4F0E947F46BE016F5F7F4FC8010E94FC
:101910004C0CA1960FB6F894DEBF0FBECDBFDF9181
:10192000CF911F910F9108950F931F93CF93DF9342
:10193000CDB7DEB7A2970FB6F894DEBF0FBECDBF0E
:101940008C01CB01BA01F80111821082138212823C
:1019500015821482168230E0AE014F5F5F4F0E9405
:101960002E46BE016F5F7F4FC8010E944C0CA296AD
:101970000FB6F894DEBF0FBECDBFDF91CF911F91A0
:101980000F9108950F931F93CF93DF93CDB7DEB7D9
:1019900061970FB6F894DEBF0FBECDBF8C01CB01AF
:1019A000F80111821082138212821582148216822B
:1019B00050E0BE016F5F7F4F0E94A446BE016F5F83
:1019C0007F4FC8010E944C0C61960FB6F894DEBFA1
:1019D0000FBECDBFDF91CF911F910F9108950F934F
:1019E0001F93CF93DF93CDB7DEB762970FB6F8940E
:1019F000DEBF0FBECDBF8C01CB01F801118210827A
:101A00001382128215821482168250E0BE016F5F2B
:101A10007F4F0E940D46BE016F5F7F4FC8010E943D
:101A20004C0C62960FB6F894DEBF0FBECDBFDF91AF
:101A3000CF911F910F9108950F931F93CF93DF9331
:101A4000CDB7DEB729970FB6F894DEBF0FBECDBF76
:101A50008C01862FF8011182108213821282158266
:101A60001482168250E0BE016F5F7F4F90E00E94AB
:101A7000A446BE016F5F7F4FC8010E944C0C29969F
:101A80000FB6F894DEBF0FBECDBFDF91CF911F918F
:101A90000F910895CF93DF931F921F92CDB7DEB7BA
:101AA000FC01118210821382128215821482168226
:101AB00069831A82BE016F5F7F4F0E944C0C0F90AA
:101AC0000F90DF91CF910895EF92FF920F931F93A4
:101AD000CF93DF93EC017B010C811D8161157105B2
:101AE00011F480E016C04115510591F0040F151F47
:101AF000B8010E94CE0B8823A1F3288139818C8103
:101B00009D81B701820F931F0E949D451D830C8309
:101B100081E0DF91CF911F910F91FF90EF90089599
:101B2000FB0144815581608171810C94640D6115C4
:101B3000710559F0DB010D900020E9F7AD0141502E
:101B40005109461B570B0C94640D80E00895CF9308
:101B5000DF931F921F92CDB7DEB769831A8241E0EF
:101B600050E0BE016F5F7F4F0E94640D0F900F9099
:101B7000DF91CF910895EF92FF920F931F93CF9330
:101B8000DF9300D01F92CDB7DEB77C01862F4AE0ED
:101B900050E08E010F5F1F4FB80190E00E940D468C
:101BA000F80101900020E9F7AF0141505109401BB5
:101BB000510BB801C7010E94640D0F900F900F9058
:101BC0000F90DF91CF911F910F91FF90EF900895AB
:101BD000EF92FF920F931F93CF93DF93CDB7DEB7B2
:101BE00027970FB6F894DEBF0FBECDBF7C01CB01A7
:101BF0004AE050E08E010F5F1F4FB8010E940D4672
:101C0000F80101900020E9F7AF0141505109401B54
:101C1000510BB801C7010E94640D27960FB6F894C6
:101C2000DEBF0FBECDBFDF91CF911F910F91FF900F
:101C3000EF900895EF92FF920F931F93CF93DF934E
:101C400000D000D0CDB7DEB77C01CB014AE050E038
:101C50008E010F5F1F4FB8010E94A446F80101904A
:101C60000020E9F7AF0141505109401B510BB80169
:101C7000C7010E94640D26960FB6F894DEBF0FBE12
:101C8000CDBFDF91CF911F910F91FF90EF900895FD
:101C9000EF92FF920F931F93CF93DF93CDB7DEB7F1
:101CA0002C970FB6F894DEBF0FBECDBF7C01CB01E1
:101CB000BA012AE030E08E010F5F1F4FA8010E9499
:101CC0002E46F80101900020E9F7AF01415051097B
:101CD000401B510BB801C7010E94640D2C960FB632
:101CE000F894DEBF0FBECDBFDF91CF911F910F9152
:101CF000FF90EF900895EF92FF920F931F93CF9371
:101D0000DF93CDB7DEB72B970FB6F894DEBF0FBECB
:101D1000CDBF7C01CB01BA012AE030E08E010F5F1C
:101D20001F4FA8010E947F46F80101900020E9F7AB
:101D3000AF0141505109401B510BB801C7010E942E
:101D4000640D2B960FB6F894DEBF0FBECDBFDF91AA
:101D5000CF911F910F91FF90EF900895CF93DF9354
:101D6000D82FC92FFB0144815581608171810E9468
:101D7000640D811104C08D2F9C2F0E94A20B8D2F0A
:101D80009C2FDF91CF910895CF93DF93D82FC92F48
:101D90006115710569F0DB010D900020E9F7AD01D7
:101DA00041505109461B570B0E94640D811104C01C
:101DB0008D2F9C2F0E94A20B8D2F9C2FDF91CF91F6
:101DC0000895CF93DF93D82FC92F0E94A70D8111BB
:101DD00004C08D2F9C2F0E94A20B8D2F9C2FDF9172
:101DE000CF910895CF93DF93D82FC92F0E94BB0DB9
:101DF000811104C08D2F9C2F0E94A20B8D2F9C2F30
:101E0000DF91CF910895CF93DF93D82FC92F0E94F0
:101E1000E80D811104C08D2F9C2F0E94A20B8D2FE5
:101E20009C2FDF91CF910895CF93DF93D82FC92FA7
:101E30000E941A0E811104C08D2F9C2F0E94A20BAC
:101E40008D2F9C2FDF91CF910895CF93DF93D82FC3
:101E5000C92F0E94480E811104C08D2F9C2F0E9413
:101E6000A20B8D2F9C2FDF91CF910895CF93DF93FD
:101E7000D82FC92F0E947B0E811104C08D2F9C2F5B
:101E80000E94A20B8D2F9C2FDF91CF910895CF93AD
:101E9000DF93DC01ED91FC91EB01A881B9813097D2
:101EA00011F01097C9F4109759F0EB012C813D8186
:101EB000232B31F02C9130E031952195310914C05C
:101EC000309781F0DC0114968D919C911597892BA8
:101ED00049F0208130E008C0BD01CF01DF91CF91F2
:101EE0000C94944520E030E0C901DF91CF91089532
:101EF000FC0144815581FB01248135814217530740
:101F000029F40E94470F21E0892B09F020E0822F5D
:101F10000895DC0114962D913C911597232B39F4EB
:101F200081E06115710511F0FB0108C00895DC0125
:101F3000ED91FC916115710529F481E0908199235F
:101F400049F007C0CF010E9494459C0181E0232BFA
:101F500009F080E008950E94470F892F881F882785
:101F6000881F08950E94470F21E0181619060CF0EB
:101F700020E0822F08950E94470F21E018161906CD
:101F80000CF420E0822F08950E94470F892F80953E
:101F9000881F8827881F0895EF92FF920F931F9341
:101FA000CF93DF938617970709F1FC0124813581D0
:101FB000FB014481558124173507D1F4232BB1F05F
:101FC000C081D181FC01008111810BC090E00E9491
:101FD0005A457C01899190E00E945A45E816F9061D
:101FE00039F4F80181918F018111F0CF81E001C0B6
:101FF00080E0DF91CF911F910F91FF90EF900895B6
:10200000FA01DB0114964D915C911597DC01149651
:102010002D913C911597241B350B2E173F0790F0FF
:102020008D919C91009771F0DB016D917C91611510
:10203000710541F08E0F9F1F0E94A4459C0181E015
:10204000232B09F080E00895FC0144815581FB01B8
:10205000248135814217530720F040E050E00C9472
:10206000001080E00895FC0184819581DB011496C5
:102070004D915C91159784179507A0F020813181CF
:102080002115310579F06D917C916115710551F043
:10209000841B950B820F931F0E9494459C0181E045
:1020A000232B09F080E00895DC0114962D913C91DA
:1020B00015976217730728F4ED91FC91E60FF71F4F
:1020C00040830895FC01248135816217730720F451
:1020D00080819181009729F41092C20962EC79E025
:1020E00002C0680F791FCB010895FC01248135815E
:1020F0006217730748F480819181009729F0FC01F1
:10210000E60FF71F8081089580E008950C94751004
:102110000F931F93CF93DF93EB0141155105E9F026
:102120002097D9F0FC01048115812017310708F0B0
:1021300013C041505109021B130B4017510708F4FB
:102140008A01FC0160817181620F731FA801CE01B9
:102150000E94B245C00FD11F1882DF91CF911F910D
:102160000F910895CF93DF93FC01848195814817E7
:10217000590770F4C081D18170E0CE01840F951FA2
:102180000E948945009721F09C012C1B3D0B02C049
:102190002FEF3FEFC901DF91CF91089540E050E06C
:1021A0000C94B210CF93DF93FC0184819581481782
:1021B000590780F4C081D181FB0160817181CE011A
:1021C000840F951F0E94CC45009721F09C012C1B89
:1021D0003D0B02C02FEF3FEFC901DF91CF91089572
:1021E00040E050E00C94D210DF92EF92FF920F93F8
:1021F0001F93CF93DF93EC018C819D814817590782
:1022000018F02FEF3FEF1BC08A010F5F1F4FE881CF
:10221000F981E00FF11FD0801082E880F98070E032
:10222000C7010E94C145F701E00FF11FD08200975E
:1022300041F328813981AC01421B530B9A01C9013A
:10224000DF91CF911F910F91FF90EF90DF90089554
:10225000FC0144815581415051090C94F410AF9216
:10226000BF92CF92DF92EF92FF920F931F93CF9383
:10227000DF936B018A01FB014481558141155105B2
:1022800069F1FC01248135812115310539F12417CB
:10229000350720F10217130718F0890101501109C1
:1022A000FC01E080F180C701CFEFDFEF5701A00E06
:1022B000B11E10C0F601608171810E94CC4500976B
:1022C00079F09C012E193F090217130708F49E01AB
:1022D0000196E901A816B90668F702C0CFEFDFEF53
:1022E000CE01DF91CF911F910F91FF90EF90DF9082
:1022F000CF90BF90AF900895FC0144815581FB01C0
:1023000024813581421B530B0C942F11BF92CF9225
:10231000DF92EF92FF920F931F93CF93DF936C01A5
:102320007B01EA0189012417350720F48D2FE9018B
:10233000042F182F6DE874E0C6010E940E0CD7011F
:1023400014968D919C9115978C179D07C8F0801756
:10235000910708F48C01D701ED91FC911197E00FE2
:10236000F11FB08010826D917C916C0F7D1FC601B2
:102370000E944C0CD701ED91FC91E00FF11FB0824F
:10238000C601DF91CF911F910F91FF90EF90DF90E9
:10239000CF90BF900895CF93DF93EC01FB01248190
:1023A00035810E948611CE01DF91CF910895DC0125
:1023B000ED91FC91309729F40895861301C0408374
:1023C000319680818111F9CF08952F923F924F92DB
:1023D0005F926F927F928F929F92AF92BF92CF92B5
:1023E000DF92EF92FF920F931F93CF93DF938C01B5
:1023F0005B017A01DC0114966D907C901597611455
:10240000710409F4E1C0FB0144805580411451047A
:1024100009F4DAC0DA011496CD90DC901597C4184F
:10242000D508FC01C081D181C114D104E1F411C0EF
:10243000D7016C9111967C91119714964D915C91F6
:102440001597C8010E946E45F701C481D581C00F60
:10245000D11FD5016D917C91CE010E94CC458C019C
:10246000009731F7B1C0D7FE02C04E012FC0FB016B
:102470002080318043014EC023014C1A5D0AA20125
:10248000BE01C4010E946E45E401C40DD51DD701F3
:102490006C9111967C91119714964D915C911597C2
:1024A000CE010E946E45F701848095808C0E9D1EA2
:1024B000D5011496CD91DC911597C60DD71DF80165
:1024C000848195818C0D9D1D95838483D5016D91AB
:1024D0007C91CE010E94CC453C01009769F6BE017B
:1024E000C401DF91CF911F910F91FF90EF90DF908A
:1024F000CF90BF90AF909F908F907F906F905F90A4
:102500004F903F902F900C949D45EC01C40DD51D2C
:102510008C0C9D1CB101CE010E94CC450097A9F7FF
:102520008614970409F450C0F801828193818815BC
:10253000990598F4B401C8010E94B40B882309F4EA
:1025400043C00BC0D7FD40C0AE01B501C8010E9419
:102550002F11EC0197FF07C037C0D8011496CD9119
:10256000DC9115972FC0F80180819181D5011496D7
:102570002D913C9115972C0F3D1F820F931F448185
:102580005581421B530BBC018C0D9D1D0E9477454C
:10259000F801848195818C0D9D1D95838483019024
:1025A000F081E02DE80FF91F1082D8012D913C91A8
:1025B0002C0F3D1FF7016081718144815581C90154
:1025C0000E946E452197BECFDF91CF911F910F9151
:1025D000FF90EF90DF90CF90BF90AF909F908F9043
:1025E0007F906F905F904F903F902F900895CF9382
:1025F000DF93FC01C081D181209729F407C090E0CE
:102600000E945A45899388818111F9CFDF91CF913A
:102610000895CF93DF93FC01C081D181209729F4E5
:1026200007C090E00E946245899388818111F9CFAB
:10263000DF91CF910895AF92BF92CF92DF92EF9248
:10264000FF920F931F93CF93DF936C01DC01ED900A
:10265000FC901197E114F10409F442C014960D9115
:102660001C91159701151105D9F15701E501BFEF2F
:10267000AB1ABB0A888190E00E945245892BB1F7C2
:10268000015011090E0D1F1DF801808190E00E947C
:102690005245892B69F40F5F1F4F0C1B1D0BD60190
:1026A00015961C930E931497EC16FD0650F404C077
:1026B0000C171D0790F4EFCFA801BE01C7010E94BF
:1026C0006E45D601ED91FC91119714968D919C91D8
:1026D0001597E80FF91F108203C001501109D4CFDC
:1026E000DF91CF911F910F91FF90EF90DF90CF90EE
:1026F000BF90AF900895FC0180819181009711F007
:102700000C942B4560E070E080E090E008950F931A
:102710001F93CF93DF938230910510F482E090E015
:10272000E0919D12F0919E1220E030E0C0E0D0E0F8
:1027300023C04081518148175907A8F0481759070D
:1027400061F482819381209719F09B838A832EC044
:1027500090939E1280939D1229C02115310529F076
:102760004217530710F0A90102C0BE01DF01028128
:102770001381EF019A01F8013097D9F6211531053F
:1027800009F1281B390B2430310590F412968D91F4
:102790009C9113976115710521F0FB01938382834E
:1027A00004C090939E1280939D12FD0132962FC01B
:1027B000FD01E20FF31F81939193225031092D9374
:1027C0003C9325C04DB75EB748575109E0910202CE
:1027D000F0910302E417F507C0F44E1B5F0B481796
:1027E000590798F09C012E5F3F4F4217530768F03E
:1027F0002E0F3F1F309303022093020230930102F9
:10280000209300028193919302C0E0E0F0E0CF01B9
:10281000DF91CF911F910F910895EF92FF920F9347
:102820001F93CF93DF93009709F48EC0DC011297BA
:1028300013961C921E921297E0909D12F0909E1299
:10284000E114F10489F42D913C911197280F391F5F
:1028500080910202909103028217930789F5B09349
:102860000302A093020270C0E70120E030E001C043
:10287000EA01CA17DB0738F44A815B819E014115E2
:102880005105B1F722C0AC0142505109FA01D3837E
:10289000C28300811181BC01600F711F6C177D071D
:1028A00061F468817981600F711F6E5F7F4F718362
:1028B00060836A817B81738362832115310529F4EA
:1028C000B0939E12A0939D123FC0F901B383A283DF
:1028D000E90149915991C40FD51FAC17BD0771F497
:1028E000DC019E918E91840F951F029691838083C7
:1028F00012968D919C91139793838283A0E0B0E010
:1029000002C0D7017C01F701828193810097C9F74A
:10291000C701029620813181820F931F209102020C
:10292000309103022817390779F4109729F410928F
:102930009E1210929D1204C013961C921E92129722
:10294000F0920302E0920202DF91CF911F910F916A
:10295000FF90EF9008958F929F92AF92BF92CF9287
:10296000DF92EF92FF920F931F93CF93DF93EC01CF
:10297000009779F4CB01DF91CF911F910F91FF90D8
:10298000EF90DF90CF90BF90AF909F908F900C947E
:102990008713DC01A60FB71FFC013297AE17BF07E4
:1029A00018F4C0E0D0E0A3C000811181061717071A
:1029B000B0F00530110508F49AC0C80104978617D5
:1029C000970708F494C002501109061B170B0D93CA
:1029D0001D9371836083CD010E940D1488C06B012B
:1029E000C01AD10A7C01E00EF11EE0919D12F09117
:1029F0009E1220E030E080E090E048C0EE15FF0538
:102A0000D1F580809180540142E0A40EB11CAC1439
:102A1000BD0488F17401EC18FD08670122E0C20EC4
:102A2000D11C9E012250310945E0C416D10478F032
:102A30004281538113965C934E9312971196FC92A8
:102A4000EE92F901718360833A2F2B2F09C00E5F3C
:102A50001F4F080D191DD9010D931C93328123813D
:102A6000009721F0FC013283238341C030939D12F3
:102A700020939E123CC0808191812817390708F469
:102A80009C0152814381CF01E52FF42F309709F04B
:102A9000B5CF80910202909103028E159F05C1F47B
:102AA00026173707A8F48DB79EB788579109A8173E
:102AB000B90708F076CFB0930302A0930202B09357
:102AC0000102A0930002FE013297718360830FC060
:102AD000CB010E9487137C01009709F462CFA80103
:102AE000BE010E946E45CE010E940D14E701CE0189
:102AF000DF91CF911F910F91FF90EF90DF90CF90DA
:102B0000BF90AF909F908F9008950C9487130C9472
:102B100087130C940D140C940D1421E030E0FC018B
:102B20008081882311F020E030E0C901089521E080
:102B3000FC0120830895089508951F920F920FB607
:102B40000F9211242F933F938F939F93AF93BF9333
:102B50008091C3099091C409A091C509B091C6099B
:102B60003091CB09232F2D5F2D3720F40196A11D25
:102B7000B11D05C0232F2A570296A11DB11D209318
:102B8000CB098093C3099093C409A093C509B0935E
:102B9000C6098091C7099091C809A091C909B0914F
:102BA000CA090196A11DB11D8093C7099093C80958
:102BB000A093C909B093CA09BF91AF919F918F911A
:102BC0003F912F910F900FBE0F901F9018950F936C
:102BD0001F938FB7F8940091C3091091C4092091F5
:102BE000C5093091C6098FBFB801C9011F910F9166
:102BF00008950F931F939FB7F8940091C709109100
:102C0000C8092091C9093091CA0986B5A89B06C098
:102C10008F3F21F00F5F1F4F2F4F3F4F9FBF322F2E
:102C2000212F102F0027080F111D211D311D42E0FB
:102C3000000F111F221F331F4A95D1F7B801C90198
:102C40001F910F910895CF92DF92EF92FF92CF9351
:102C5000DF936B017C010E94F915EB0110C00E940B
:102C600058180E94F9156C1B7D0B683E734038F0B4
:102C700081E0C81AD108E108F108C851DC4FC1143D
:102C8000D104E104F10459F7DF91CF91FF90EF9067
:102C9000DF90CF900895019739F0880F991F880F22
:102CA000991F02970197F1F70895789484B582608F
:102CB00084BD84B5816084BD85B5826085BD85B5E0
:102CC000816085BDEEE6F0E0808181608083E1E88F
:102CD000F0E01082808182608083808181608083C7
:102CE000E0E8F0E0808181608083E1EBF0E08081CA
:102CF00084608083E0EBF0E0808181608083E1E9A3
:102D0000F0E0808182608083808181608083E0E95F
:102D1000F0E0808181608083E1EAF0E08081826080
:102D20008083808181608083E0EAF0E0808181603F
:102D30008083E1E2F1E08081826080838081816034
:102D40008083E0E2F1E0808181608083EAE7F0E067
:102D500080818460808380818260808380818160C3
:102D600080838081806880831092C10008958930BB
:102D700009F443C088F4843029F138F4823059F1E1
:102D8000E8F4813009F05EC023C0873061F188F536
:102D9000863009F057C023C08D3009F440C020F4BC
:102DA0008B30A9F1C0F52DC0803109F442C08131CA
:102DB00009F443C08F3009F045C037C080918000CE
:102DC0008F7703C0809180008F7D8093800008956D
:102DD00084B58F7702C084B58F7D84BD08958091BE
:102DE000B0008F7703C08091B0008F7D8093B000DA
:102DF0000895809190008F7707C0809190008F7D1B
:102E000003C080919000877F809390000895809107
:102E1000A0008F7707C08091A0008F7D03C08091B4
:102E2000A000877F8093A0000895809120018F7774
:102E300007C0809120018F7D03C080912001877F92
:102E4000809320010895CF93DF9390E0FC01EB582D
:102E5000FE4F4491FC01E554FE4F8491882341F1DB
:102E600090E0880F991FFC01EB5CFD4F2591349198
:102E7000D901855E9D4FFC0185919491C82FD92F72
:102E80009FB7F8948C91611106C0409584238C9370
:102E90008881842308C0623041F4242F2095822346
:102EA0008C938881842B888302C0842B8C939FBF52
:102EB000DF91CF9108950F931F93CF93DF931F92CC
:102EC000CDB7DEB7282F30E0F901E15DFE4F8491E8
:102ED000F901EB58FE4F1491F901E554FE4F0491AE
:102EE0000023D1F0882321F069830E94B7166981FD
:102EF000E02FF0E0EE0FFF1FE55EFD4F859194910E
:102F0000DC019FB7F8948C91611103C01095812367
:102F100001C0812B8C939FBF0F90DF91CF911F91A8
:102F20000F910895CF93DF93282F30E0F901E15DF1
:102F3000FE4F8491F901EB58FE4FD491F901E5540D
:102F4000FE4FC491CC2389F081110E94B716EC2F5B
:102F5000F0E0EE0FFF1FEF5FFD4F85919491DC01D4
:102F60008C918D2321E030E011F420E030E0C901A4
:102F7000DF91CF9108954F925F926F927F92AF92BF
:102F8000BF92CF92DF92EF92FF920F931F93CF9356
:102F9000DF9390E0FC01EB58FE4F0491FC01E554F7
:102FA000FE4F7491611102C010E001C0102FDA01D0
:102FB000C901BF70672F70E0660F771F6F5F7D4F8D
:102FC000412C512C3201FB01C591D49110C0C12C70
:102FD000D12C7601C394C40CD51CE61CF71C4816F2
:102FE00059066A067B0609F44FC026013701EC2F0B
:102FF000FD2FE081E023E11751F311C0C12CD12C4A
:103000007601C394C40CD51CE61CF71C481659065F
:103010006A067B0609F438C02601370103C0FB01AC
:10302000A590B490CA2DDB2DE881E023E113E6CF13
:1030300084199509A609B70920E030E0A901FB0130
:103040006591749109C0281739074A075B07E1F0B9
:103050002F5F3F4F4F4F5F4FC62FD72FE881E023A1
:10306000E11789F3A5E1B0E00E946C448B019C015B
:10307000005F1F4F2F4F3F4F84E0369527951795E0
:1030800007958A95D1F703C000E010E09801B801D8
:10309000C901DF91CF911F910F91FF90EF90DF90C9
:1030A000CF90BF90AF907F906F905F904F900895BA
:1030B0000895FC01A681B7819D012F5F3F4F848158
:1030C000958140855185840F951F2817390740F455
:1030D0006C933783268311961C9221E030E002C066
:1030E00020E030E0C9010895FC01A481B581B783D7
:1030F000A68380859185892B09F01C9208950895F7
:103100002F923F924F925F926F927F928F929F92F7
:10311000AF92BF92CF92DF92EF92FF920F931F93E5
:10312000CF93DF93CDB7DEB72A970FB6F894DEBF03
:103130000FBECDBF9A878987DC01D6968C918823F4
:1031400009F4F9C00E94E71569837A838B839C8315
:10315000E985FA8580A191A129813A81281B390B43
:1031600084A595A5281739070CF4E5C0028CF38DCA
:10317000E02DC080D180E280F380A985BA855E967B
:10318000ED91FC915F97A701960160817181828129
:1031900093810E94CD406D837E838F839887E985DC
:1031A000FA8520893189428953890E94A243A985E1
:1031B000BA8594962D913D914D915C9197970E947F
:1031C000CE401B012C01862F932DA42DB52DE98512
:1031D000FA8584A395A3A6A3B7A362A873A804A99C
:1031E00015A9262D372D402F512F622D732D842D9B
:1031F000952D0E94974318165CF4862D972DA02FCD
:10320000B12FE985FA8584A395A3A6A3B7A318C017
:10321000A985BA859E968D909D90AD90BC90D197D2
:10322000A5019401622D732D842D952D0E9494414A
:1032300087FF06C0E985FA8584A295A2A6A2B7A257
:10324000A985BA851C962D913D914D915C911F9752
:10325000BD81AE81BF80A8846B2F7A2F8B2D9A2DD4
:103260000E94A243E985FA8524A135A146A157A170
:103270000E94CE404B015C01A985BA8598962D919C
:103280003D914D915C919B97C701B6010E94CD4045
:10329000E985FA8524893589468957890E94A243A0
:1032A0009B01AC01C501B4010E94CD404B015C0102
:1032B000262D372D402F512F682D792D8A2D9B2DAE
:1032C0000E9497431816DCF0A985BA859E966C90EB
:1032D0009E979F967C909F97D0960C91D097D19671
:1032E0001C91262D372D402F512F682D792D8A2D99
:1032F0009B2D0E94944187FD02C034018501A98560
:10330000BA855C96ED91FC915D97862D972DA02F47
:10331000B12F80839183A283B383E985FA85C0A608
:10332000D1A6E2A6F3A689819A81AB81BC8180A354
:1033300091A3A2A3B3A32A960FB6F894DEBF0FBE43
:10334000CDBFDF91CF911F910F91FF90EF90DF9054
:10335000CF90BF90AF909F908F907F906F905F9035
:103360004F903F902F9008952F923F924F925F92EF
:103370006F927F928F929F92AF92BF92CF92DF9285
:10338000EF92FF920F931F93CF93DF93EC014A01CB
:103390005B012801390120E030E0A901C501B40139
:1033A0000E94944187FD80C020E030E0A901C30164
:1033B000B2010E94944187FD77C020E030E0A9016E
:1033C000C701B6010E94944187FD6EC08882998230
:1033D000AA82BB824C825D826E827F82C886D98639
:1033E000EA86FB866CA57DA5882777FD8095982FBA
:1033F0000E94364220E030E04AE754E40E949B41BC
:103400001B018C018C869D86AE86BF86762F272F6A
:10341000332D402F512FC301B2010E94A2432B0133
:103420003C01862F952DA62DB72D888B998BAA8BC5
:10343000BB8B222D332D402F512FC701B6010E9487
:103440009B417B018C01862F9F2DA02FB12F8C8B50
:103450009D8BAE8BBF8B888D998D019729F5A5012A
:10346000940160E070E0CB010E94CD406C877D87C5
:103470008E879F87242D352D462D572D60E070E0D7
:10348000CB010E94CD40688B798B8A8B9B8B2E2D34
:103490003F2D402F512F60E070E0CB010E94CD40C6
:1034A0006C8B7D8B8E8B9F8BDF91CF911F910F91BA
:1034B000FF90EF90DF90CF90BF90AF909F908F9054
:1034C0007F906F905F904F903F902F900895CF9294
:1034D000DF92EF92FF920F931F93CF93DF93EC0154
:1034E0008B0116161706BCF5882777FD8095982F57
:1034F0000E9436426B017C016CA57DA5882777FD73
:103500008095982F0E9436429B01AC01C701B601FD
:103510000E949B416B017C01762F272F3D2D4E2D64
:103520005F2D688979898A899B890E94A243688B6B
:10353000798B8A8B9B8B2C2D3D2D4E2D5F2D6C898D
:103540007D898E899F890E949B416C8B7D8B8E8BA0
:103550009F8B1DA70CA7DF91CF911F910F91FF901B
:10356000EF90DF90CF9008954F925F926F927F928D
:103570008F929F92AF92BF92CF92DF92EF92FF9283
:103580000F931F93CF93DF93EC016A017B01280116
:103590003901A9019801C701B6010E94974387FF2D
:1035A0004FC0CEA6DFA6E8AAF9AA4AAA5BAA6CAACF
:1035B0007DAA8EA9882309F443C00C8D1D8DF801C6
:1035C00080809180A280B380A3019201C501B401E3
:1035D0000E949743181634F4F801408251826282A7
:1035E00073820DC0A7019601C501B4010E949441E8
:1035F00087FF05C0F801C082D182E282F3824CA02D
:103600005DA06EA07FA0CAA8DBA8ECA8FDA8A701BA
:103610009601C301B2010E94974318160CF40CC026
:10362000CEA4DFA4E8A8F9A8A7019601C301B201BE
:103630000E94944187FF04C0CCA2DDA2EEA2FFA2AB
:10364000DF91CF911F910F91FF90EF90DF90CF907E
:10365000BF90AF909F908F907F906F905F904F90B2
:1036600008958F929F92AF92BF92CF92DF92EF9286
:10367000FF92CF93DF93EC01EC8DFD8DC080D18064
:10368000E280F380CCA2DDA2EEA2FFA2EA8DFB8D48
:1036900080819181A281B38188A799A7AAA7BBA79E
:1036A0008AA89BA8ACA8BDA8A5019401C701B60132
:1036B0000E94974318160CF40CC08EA49FA4A8A8CF
:1036C000B9A8A5019401C701B6010E94944187FFE2
:1036D00004C08CA29DA2AEA2BFA2DF91CF91FF90A9
:1036E000EF90DF90CF90BF90AF909F908F90089514
:1036F0001F93CF93DF93EC0111E06130710509F066
:1037000010E08EA991E08927181303C0CE010E9412
:10371000311B1EABDF91CF911F9108950F931F9323
:10372000CF93DF93EC018B018EA9882361F1888D03
:10373000998D6817790739F12C853D854E855F8510
:1037400060E070E0CB010E94CD406C877D878E8762
:103750009F87288939894A895B8960E070E0CB01BD
:103760000E94CD40688B798B8A8B9B8B2C893D89FD
:103770004E895F8960E070E0CB010E94CD406C8B88
:103780007D8B8E8B9F8B198F088FDF91CF911F912F
:103790000F9108952F923F924F925F926F927F9276
:1037A0008F929F92AF92BF92CF92DF92EF92FF9251
:1037B0000F931F93CF93DF93CDB7DEB728970FB644
:1037C000F894DEBF0FBECDBF4C017A8369831A0126
:1037D0003C832B8327013801AD82BE82CF82D886FD
:1037E00000E010E02FE733E440E050E0BA010E942F
:1037F000B41A84E690E0F40195A784A76AA17BA19E
:10380000C4010E948E1BCE8CDF8CE8A0F9A00D8134
:103810001E812F813885B301A201C4010E94B41911
:103820000E94E715F40144A455A4662457FC609453
:10383000762C641975098609970960A371A382A380
:1038400093A316AA358E248E89819A81938F828FB5
:103850008B819C81978F868F28960FB6F894DEBF58
:103860000FBECDBFDF91CF911F910F91FF90EF90D1
:10387000DF90CF90BF90AF909F908F907F906F9090
:103880005F904F903F902F9008950F931F93CF9389
:10389000DF93FC017183608312821382148215828C
:1038A00086E5868317821086118612861386148613
:1038B000158616861786108A118A128A138A148A28
:1038C000158A168ADF01A754BF4F1D921C92DF0193
:1038D000A55ABE4F1D921C92DF01A15ABE4F1D92E8
:1038E0001C92DF01AF59BE4F1D921C92DF01AD59F2
:1038F000BE4F1D921C92178ADF01A954BF4F1D9223
:103900001C92EF010EE110E08FE090E00E9487131F
:10391000FE01E15EFE4F808391838FE090E00E9484
:103920008713FC01DE01A558BF4F8D939C93108235
:103930000150110922960115110531F7DF91CF9140
:103940001F910F910895FC0152814381348125819B
:10395000652F742F832F922F0895FC01868108957F
:10396000FC015781408531852285652F742F832F77
:10397000922F0895FC015385448535852685652F52
:10398000742F832F922F0895CF92DF92EF92FF92A0
:103990006A017B01FC012785308941895289C70171
:1039A000B6010E94A243FF90EF90DF90CF90089560
:1039B000FC015389448935892689652F742F832F0B
:1039C000922F08959C01295E3F4FC9010895660F0B
:1039D000771F680F791FFB01E558FF4F80819181A8
:1039E00008954F925F926F927F928F929F92AF92C3
:1039F000BF92CF92DF92EF92FF920F931F93CF93DC
:103A0000DF93FB011081C1E0D0E01D3221F01B32B9
:103A100011F0C0E0D0E0C60FD71F412C3DEC832E43
:103A20004CEC742E5CEC652E6DE3562E912CA12C83
:103A3000B12C00E0C12CD12C76014AC0EE3209F441
:103A400045C0FF27E7FDF095411015C0AAE0B0E0A2
:103A5000A70196010E946C446B017C01BF01605379
:103A60007109CB01AA2797FDA095BA2FC80ED91EC0
:103A7000EA1EFB1E2DC0BF0160537109882777FD28
:103A80008095982F0E9436429B01AC01682D772DBE
:103A9000862D952D0E94A2439B01AC01692D7A2DA4
:103AA0008B2D902F0E94CE40962EA72EB82E092F38
:103AB00020E030E040E251E4682D772D862D952DF1
:103AC0000E949B41862E772E682E592E44244394C3
:103AD000E991E111B3CFC701B6010E9436429B01C3
:103AE000AC01692D7A2D8B2D902F0E94CE401D3276
:103AF00049F4262F372F482F592F60E070E0CB0173
:103B00000E94CD40DF91CF911F910F91FF90EF90D8
:103B1000DF90CF90BF90AF909F908F907F906F90ED
:103B20005F904F9008958F929F92AF92BF92CF92E5
:103B3000DF92EF92FF920F931F93CF93DF93EC01ED
:103B4000FC01E55AFE4F808191818436910584F411
:103B5000FE01E754FF4F208131812E31310544F4BD
:103B6000FE01ED59FE4F208131812F3031052CF0BF
:103B7000FE01E15AFE4F118210828E01015A1E4F42
:103B80006A3011F06D3019F4D8011D921C92643224
:103B900011F5FE01E35AFE4F11821082FE01EF592A
:103BA000FE4F11821082FE01E754FF4F11821082F6
:103BB000FE01ED59FE4F11821082FE01E554FF4FC8
:103BC0006083FE01E55AFE4F81E090E0918380839F
:103BD000C15ADE4FE0C0F80120813181213031052A
:103BE00071F024F4232B09F48BC286C222303105F4
:103BF00009F48BC02330310509F07EC2CFC0873075
:103C000091057CF4FC01E45FFD4F2081621309C043
:103C1000FE01E35AFE4F208131812F5F3F4F3183F8
:103C20002083FE01E80FF91FE554FF4F6083FE017A
:103C3000E55AFE4F0196918380838E0107541F4FF2
:103C4000FE01ED59FE4F6A3219F16C32E1F5D801EF
:103C50002D913C91C901880F991F8C0F9D1F815E8A
:103C60009E4FDC018D919C9140815181840F951F65
:103C7000DC011C922F5F3F4FD8012D933C931182A2
:103C80001082CF59DE4F88819981BCE28B2783C097
:103C9000D8012D913C91C901880F991F8C0F9D1F50
:103CA000815E9E4FDC018D919C9140815181840FFA
:103CB000951FDC011C922F5F3F4FD8012D933C9341
:103CC0001182108263C020813181D8018D919C9135
:103CD000880F991F8C0F9D1FDC01A15EBE4F0D90B8
:103CE000BC91A02DA20FB31F6C932F5F3F4F318368
:103CF0002083CF59DE4F772767FD709588819981A2
:103D00006827792779836883FBC1FE01E80FF91FD3
:103D1000E554FF4F6083FE01E55AFE4F0196918303
:103D20008083DE01AD59BE4F2D913C911197FE016C
:103D3000E754FF4F80819181880F991F8C0F9D1F41
:103D4000FC01E15EFE4F0190F081E02DE20FF31FD8
:103D500060832F5F3F4F2D933C93FE01EF59FE4F41
:103D600040815181862F992787FD9095613414F009
:103D7000C79701C0C0979C01A4E0220F331FAA95EA
:103D8000E1F7CA01821B930B91838083C15ADE4FF6
:103D900088819981019699838883B2C19E01280FF9
:103DA000391FD901A554BF4F6C93D901A454BF4FFB
:103DB0001C92DE01A55ABE4F02968D939C939E01E4
:103DC0002D593E4FF90140815181DE01A754BF4F6B
:103DD0008D919C911197880F991F8C0F9D1F815E6B
:103DE0009E4FFC0180819181840F951FFC016083AF
:103DF0004F5F5F4FF901518340832D913C911197A3
:103E0000C901880F991F8C0F9D1F815E9E4FFC0179
:103E100080819181840F951FFC0110822F5F3F4F9D
:103E20002D933C93D8011D921C92FE01EF59FE4F39
:103E300080819181262F332727FD309561341CF036
:103E40002753310902C020533109821B930B918300
:103E50008083892B09F054C188819981892B39F499
:103E6000FE01E55AFE4F20813181C90110C0FE01DB
:103E7000E35AFE4F80819181069791F341C1FE0183
:103E8000E80FF91FDF01A554BF4F4C91478B0197F5
:103E900097FFF5CFA90141505109C90137FF02C071
:103EA00080E090E0FE01E55AFE4F9A01281B390B95
:103EB000318320838E0109541F4FD8011D921C921B
:103EC000B8017E01B9EBEB0EF11CDE01AD59BE4F1E
:103ED00031C011961C921E9208C040838D919C9116
:103EE0001197019611969C938E93FB01808191818D
:103EF0002D913C911197880F991F8C0F9D1FAC013C
:103F0000415E5E4FFA0140815181420F531FFA0119
:103F1000408185589F4FFC0180819181820F931FC2
:103F2000FC014111DACF1082F80180819181019664
:103F300091838083FB0120813181F7018081918110
:103F40002817390734F2FE01E35AFE4F8081918130
:103F5000069709F0D8C0FE01EF5DFE4F60817181C8
:103F6000CE010E94F11C6A837B838C839D83FE01BA
:103F7000ED5DFE4F0190F081E02D80818E83FE018A
:103F8000EB5DFE4F60817181CE010E94F11C20E04B
:103F900030E048EC52E40E949B416B017C017D2D96
:103FA0009F2D0E9471424B015C01FE01EB59FE4FB7
:103FB00060837183828393839B01AC016C2D7D2D83
:103FC0008E2D9F2D0E94CD4020E030E048EC52E441
:103FD0000E94A24320E030E040E752E40E949B416F
:103FE000A50194010E94CE409B01462F532F682FBC
:103FF000792F4F83588769877A87FE01E95DFE4FE5
:104000000190F081E02D4081433559F4482F592F1C
:1040100060E070E0CB010E94CD406F837887898794
:104020009A87FE01E75DFE4F60817181CE010E949B
:10403000F11C20E030E048EC52E40E949B416B010F
:104040007C017D2D9F2D0E9471424B015C01FE0180
:10405000EB59FE4F60837183828393839B01AC0194
:104060006C2D7D2D8E2D9F2D0E94CD4020E030E0C7
:1040700048EC52E40E94A24320E030E040E752E4E2
:104080000E949B41A50194010E94CE409B01462FB6
:10409000532F682F792F4B875C876D877E87FE01B2
:1040A000E55DFE4F0190F081E02D4081473559F4E8
:1040B000482F592F60E070E0CB010E94CD406B8704
:1040C0007C878D879E87FE01E35DFE4F6081718155
:1040D000CE010E94F11C6F87788B898B9A8BFE0131
:1040E000E15DFE4F60817181CE010E94F11C6B8BFE
:1040F0007C8B8D8B9E8B07C0C15ADE4F1982188234
:1041000020E030E002C021E030E0C901DF91CF9132
:104110001F910F91FF90EF90DF90CF90BF90AF90E5
:104120009F908F900895CF92DF92EF92FF920F931E
:104130001F936B017C01CA01B901C114D104E104D0
:10414000F10421F4C12CD12C7601C394C092D7097B
:10415000D092D809E092D909F092DA091093D609E1
:104160000093D509209170002E7F2093700020913C
:10417000B0002C7F2093B0002091B100277F2093C6
:10418000B1002091B6002F7D2093B60020917000E1
:104190002D7F209370002091B10024602093B10006
:1041A0002091B1002C7F2093B10020E034E244E75D
:1041B0005BE40E94A24320E030E040E85CE30E9420
:1041C000A2430E94034280E091E0861B970B9093EC
:1041D000CF098093CE091F910F91FF90EF90DF9050
:1041E000CF9008950F931F938A012FE632E143E8A1
:1041F0005AE30E9493201F910F9108951092D109C4
:104200001092D2091092D3091092D4091092D009B9
:104210008091CE099091CF098093B200E0E7F0E061
:1042200080818160808308958091D1099091D20925
:10423000A091D309B091D4090196A11DB11D80931D
:10424000D1099093D209A093D309B093D409809156
:10425000D1099091D209A091D309B091D40940918C
:10426000D7095091D8096091D9097091DA0984175A
:104270009507A607B70710F18091D00981111EC0DC
:1042800081E08093D0098091D1099091D209A091C9
:10429000D309B091D409841B950BA60BB70B80935F
:1042A000D1099093D209A093D309B093D409E09196
:1042B000D509F091D60919951092D00908951F9249
:1042C0000F920FB60F9211240BB60F922F933F93BC
:1042D0004F935F936F937F938F939F93AF93BF930E
:1042E000EF93FF938091CE099091CF098093B20014
:1042F0000E941421FF91EF91BF91AF919F918F91F7
:104300007F916F915F914F913F912F910F900BBED5
:104310000F900FBE0F901F901895CB010C94BA46CA
:10432000CB01642F0C94C2469091800A80917F0A41
:10433000981769F08F5F803508F080E0E82FF0E093
:10434000E15DF54F208180937F0A30E002C02FEFBE
:104350003FEFC90108958091800AE0917F0A8E178E
:1043600031F0F0E0E15DF54F208130E002C02FEF49
:104370003FEFC90108955091800A40917F0A252F8F
:1043800030E0842F90E0541708F002C0205B3F4FCC
:10439000281B390BC90108959B01AC012D3A8BE113
:1043A00038074105510530F4109273001092200136
:1043B00081E812C063E056954795379527956A9531
:1043C000D1F72D3A8BE1380741055105B0F5109230
:1043D00073001092200182E8809321013093840AB7
:1043E0002093830AA5E2B0E00E946C4422E09695F7
:1043F0008795779567952A95D1F77093860A60938C
:10440000850A62E080E30E94231761E08EE20E9449
:104410005B1761E08EE20E9423171092810A1092CE
:10442000800A10927F0A10922E0A10922D0A109282
:104430002C0A80E28ABB80937300089590912D0A24
:104440009F5F943408F090E020912C0A2917E1F343
:104450002FB7F89430912E0A332341F0E92FF0E082
:10446000E452F64F808390932D0A1DC091E0909303
:104470002E0A8093870A1092880A82E08ABB809174
:104480007300826080937300809120018F73806835
:104490008093200180912401909125014096909372
:1044A0002901809328012FBF0895862F0E941E2284
:1044B00081E090E008951F920F920FB60F921124A1
:1044C0000BB60F922F933F934F935F936F937F930E
:1044D0008F939F93EF93FF9340912E0A5091870AF9
:1044E00080912801909129012091830A3091840ABA
:1044F0007091880A1DC0820F931F652F61705695B9
:104500004F5F6717A9F020912001662311F0206CFE
:1045100002C02F732068209320019093290180937B
:1045200028016093880A5093870A40932E0A3FC05F
:10453000493008F3493039F42AE020932E0A2091BB
:104540002001206C28C020912D0AE0912C0A2E1306
:104550000DC010922E0A809120018F73809320014C
:10456000809173008D7F8093730021C021E02093A0
:104570002E0AEF5FE43408F0E0E0E0932C0AF0E06C
:10458000E452F64F20812093870A1092880A2091E6
:1045900020012F732068209320012091830A3091FD
:1045A000840A280F391F3093290120932801FF9195
:1045B000EF919F918F917F916F915F914F913F917B
:1045C0002F910F900BBE0F900FBE0F901F9018955C
:1045D00080912E0A8111FCCF08950C94E8221F923D
:1045E0000F920FB60F9211240BB60F922F933F9399
:1045F0004F938F939F93EF93FF9380912601909118
:1046000027014091810A2091210140FF04C02F7BA6
:10461000209321011BC0206420932101411116C069
:104620002091850A3091860A280F391F30932B017B
:1046300020932A0124E02ABB209173002460209358
:10464000730090938A0A8093890A0AC04A3040F422
:10465000E42FF0E0EE0FFF1FE757F54F91838083C3
:104660004F5F4093810A2091240130912501281B3E
:10467000390B8091830A9091840A8217930718F46A
:1046800081E08093820AFF91EF919F918F914F91EA
:104690003F912F910F900BBE0F900FBE0F901F9068
:1046A00018951F920F920FB60F9211240BB60F920E
:1046B000AF92BF92CF92DF92EF92FF920F931F9330
:1046C0002F933F934F935F936F937F938F939F931A
:1046D000AF93BF93CF93DF93EF93FF9380917300DA
:1046E0008B7F80937300809121018F7B80932101C8
:1046F0001091800A1F5F103508F010E080917F0A4A
:104700001817E9F1C12FD0E00091810A0B3008F0B1
:104710000AE06091890A70918A0A2091830A309197
:10472000840AC90196958795820F931F40E050E057
:10473000E12CDD24D394FF24FA94EBE8FAE0CC24B6
:10474000C39415C0A191B1915D01A61AB70A4A0D93
:104750005B1D08C0E11003C06D2D6095F622DD0CD5
:10476000820F931F48175907A8F7EC24BD01015089
:1047700049F7FE01E15DF54FF0821093800A109237
:10478000810AFF91EF91DF91CF91BF91AF919F91FE
:104790008F917F916F915F914F913F912F911F91D9
:1047A0000F91FF90EF90DF90CF90BF90AF900F9060
:1047B0000BBE0F900FBE0F901F90189580917F0A2F
:1047C0008093800A0895CF93DF93C3E7D0E0888178
:1047D0008B7F888388818F7D88830E94DE230E945F
:1047E000E82288818D7F8883DF91CF91089528E228
:1047F00032E0FC0131832083089528E232E0FC019D
:10480000318320830C948915FC01CB0128E232E02E
:104810003183208373836283148240E050E0BA01C5
:104820000E94DC2E61E088E10E94231761E08AE1AA
:104830000E94231761E08CE10E94231761E08EE162
:104840000C942317CF92DF92EF92FF92CF93DF93D6
:10485000EC018A819B810E94F62F882371F08A8166
:104860009B810E948D2C6B017C010E94E71521E049
:10487000C616D706E806F90608F020E0822FDF9179
:10488000CF91FF90EF90DF90CF900895CF92DF927D
:10489000EF92FF92CF93DF93EC010E9422248823B2
:1048A000A9F10E94E7156B017C018A819B810E941E
:1048B000872CC61AD70AE80AF90A89EEC81683E0D7
:1048C000D806E104F104C0F16C8188E10E945B1715
:1048D0006C818AE10E945B176C818CE10E945B17FE
:1048E0006C818EE10E945B178C8191E089278C831B
:1048F0000E94E715AB01BC018A819B81DF91CF91BA
:10490000FF90EF90DF90CF900C94DC2E60E088E178
:104910000E945B1760E08AE10E945B1760E08CE117
:104920000E945B1760E08EE1DF91CF91FF90EF90E6
:10493000DF90CF900C945B17DF91CF91FF90EF90B9
:10494000DF90CF900895CF92DF92EF92FF92CF93B6
:10495000DF93EC018A819B810E94D72E882311F17D
:104960008A819B810E94A32E18161906DCF48A8185
:104970009B810E94AF2E6B017C018A819B810E94EA
:10498000A32EBC01882777FD8095982F0E94364280
:104990009B01AC01C701B6010E949743181614F49D
:1049A00061E001C060E08A819B81DF91CF91FF903F
:1049B000EF90DF90CF900C942B3020E332E0FC019D
:1049C00031832083089520E332E0FC01318320838A
:1049D0000C9489152F923F924F925F926F927F9223
:1049E0008F929F92AF92BF92CF92DF92EF92FF92FF
:1049F0000F931F93CF93DF9300D000D0CDB7DEB7D6
:104A00009E838D834A015B0168017901DC01129666
:104A10008D919C9113970E94DF2C9B01AC01C501E5
:104A2000B4010E94CE40362E472E582E692EED81BD
:104A3000FE81828193810E94DF2C9B01AC01C50124
:104A4000B4010E94CD40762E872E982EA92EAD81DE
:104A5000BE8112968D919C9113970E94DF2C9B0131
:104A6000AC01C701B6010E94CE40B62E072F182F09
:104A7000292EED81FE81828193810E94DF2C9B0192
:104A8000AC01C701B6010E94CD4069837A838B8354
:104A90009C83AD81BE8112968D919C9113970E944B
:104AA000E92C6B017C0124E83AEB4CE358E3632DDD
:104AB000742D852D962D0E94CD40A70196010E9450
:104AC0009743181684F4ED81FE81828193810E94C0
:104AD000C92C9B01AC01632D742D852D962D0E9450
:104AE000944187FD88C0AD81BE8112968D919C91C5
:104AF00013970E94C92C6B017C0124E83AEB4CE32C
:104B000058E3672D782D892D9A2D0E94CE40A7015C
:104B100096010E94944187FF11C0ED81FE81828140
:104B200093810E94E92C9B01AC01672D782D892D82
:104B30009A2D0E94974318160CF46AC0AD81BE816D
:104B400012968D919C9113970E94F32C6B017C011E
:104B500024E83AEB4CE358E36B2D702F812F922D14
:104B60000E94CD40A70196010E949743181684F435
:104B7000ED81FE81828193810E949D2C9B01AC017D
:104B80006B2D702F812F922D0E94944187FD4BC079
:104B9000AD81BE8112968D919C9113970E949D2CA0
:104BA0006B017C0124E83AEB4CE358E3F981EA819C
:104BB0001B810C816F2F7E2F812F902F0E94CE4062
:104BC000A70196010E94944187FF60C0ED81FE819C
:104BD000828193810E94F32C9B01AC01B981AA814F
:104BE0001B810C816B2F7A2F812F902F0E9497436E
:104BF000181634F14BC0432D542D652D762DAD8103
:104C0000BE8112968D919C9113970E94122F6BCFAB
:104C1000472D582D692D7A2DED81FE81828193815A
:104C20000E94262F8BCF4B2D502F612F722DAD81DF
:104C3000BE8112968D919C9113970E94F62EA8CF5B
:104C400039812A819B818C81432F522F692F782FA4
:104C5000ED81FE818281938126960FB6F894DEBFA6
:104C60000FBECDBFDF91CF911F910F91FF90EF90BD
:104C7000DF90CF90BF90AF909F908F907F906F907C
:104C80005F904F903F902F900C942C2F26960FB64C
:104C9000F894DEBF0FBECDBFDF91CF911F910F9172
:104CA000FF90EF90DF90CF90BF90AF909F908F904C
:104CB0007F906F905F904F903F902F9008958F92CC
:104CC0009F92AF92BF92CF92DF92EF92FF920F939B
:104CD0001F93CF93DF93EC016A017B0148015901D7
:104CE00040E050E064EB72E48A819B810E94122FC5
:104CF00040E050E064EB72EC8A819B810E94262F99
:104D000040E050E064E373E48A819B810E94F62EC8
:104D100040E050E064E373EC8A819B810E942C2F79
:104D20008A819B810E94D32C2DE93BEF46E157E31A
:104D30000E94A243AB01BC018A819B810E94202F6B
:104D400095018401B701A601CE010E94EA24DF91FA
:104D5000CF911F910F91FF90EF90DF90CF90BF9078
:104D6000AF909F908F900895CF92DF92EF92FF9235
:104D70000F931F93CF93DF93EC018B0180E392E0BD
:104D8000998388837B836A83CB010E94B32C6B0158
:104D90007C01C8010E94A72CAB01BC0197018601D0
:104DA000CE010E945F26DF91CF911F910F91FF905E
:104DB000EF90DF90CF9008954F925F926F927F9225
:104DC0008F929F92AF92BF92CF92DF92EF92FF921B
:104DD0000F931F93CF93DF9300D01F92CDB7DEB711
:104DE0004C01FC01828193810E94CD2E882309F41D
:104DF000D3C00E94E7152B013C01F401828193810D
:104E00000E94582E461A570A680A790AF1EE4F1680
:104E1000F3E95F06F4E06F06710438F0F401828173
:104E200093810E94CD2E811184C0F40182819381EF
:104E30000E94842E882309F4AFC0F40182819381FB
:104E40000E946C2E5B016C01F401828193810E94AF
:104E5000602E2B013C01F401828193810E94B32CCE
:104E60009B01AC01F4018281938129833A834B83B6
:104E70005C830E94A72C8301720129813A814B81B6
:104E80005C810E948F36AB01BC01F4018281938169
:104E90000E94F02EF401828193810E94932C2B01B9
:104EA0003C01F401828193810E94BF2C9B01AC01E3
:104EB000C301B2010E949743181664F4F401828181
:104EC00093810E94932CAB01BC01F40182819381F8
:104ED0000E940C2FF401828193810E946C2E2B0181
:104EE0003C01F401828193810E94602EAB01BC01E0
:104EF00093018201C4010E94EA24F401828193811A
:104F00000E94CD2E882371F1F401828193810E9449
:104F1000932C2B013C01F401828193810E94D32CBC
:104F20009B01AC01C301B2010E949743181684F0A3
:104F300019C040E050E0BA01F401828193810E94DF
:104F4000E22E61E0F401828193810E94ED2E6DCF0B
:104F500040E050E0BA01F401828193810E94E22E88
:104F600061E001C060E0F401828193810F900F90B5
:104F70000F900F90DF91CF911F910F91FF90EF90C5
:104F8000DF90CF90BF90AF909F908F907F906F9069
:104F90005F904F900C94ED2E0F900F900F900F900C
:104FA000DF91CF911F910F91FF90EF90DF90CF9005
:104FB000BF90AF909F908F907F906F905F904F9039
:104FC0000895CF93DF93EC018A819B810E94602E2C
:104FD000AB01BC018A819B810E94FC2E8A819B814E
:104FE0000E946C2EAB01BC018A819B810E94042F20
:104FF00040E050E0BA018A819B81DF91CF910C940F
:105000000C2F6F927F928F929F92AF92BF92CF920E
:10501000DF92EF92FF920F931F93CF93DF93CDB761
:10502000DEB7E7970FB6F894DEBF0FBECDBF4C01D9
:105030008B013C0183E1680E711CC3010E947F1843
:10504000F401128B018BC8010E94072D20E030E093
:1050500044E354E40E94CE406B017C01982F4C2D18
:105060005D2D692F7F2DF40140835183628373830B
:10507000C8010E94252D9B01AC016C2D7D2D8E2D2C
:105080009F2D0E94CE40F4016483758386839783AD
:10509000C8010E94FD2CF401608771878287938785
:1050A00081E0808BA401485F5F4FB4016C5F7F4F4C
:1050B0001F928F938FE38F9385E08F938EE18F9371
:1050C00088EB8F938AE0A82E87EDB82E83EAC82E4E
:1050D0008DE3D82E16E6E12EFE2C06EE1EE394019B
:1050E000CE0101960E94CA1B87E3FE013196D301CF
:1050F00001900D928A95E1F700E010E024E832E497
:1051000040E050E0BA01C3010E94B41A64E670E0C6
:10511000C3010E94671A0F900F900F900F900F908D
:105120000F90E7960FB6F894DEBF0FBECDBFDF91AC
:10513000CF911F910F91FF90EF90DF90CF90BF9094
:10514000AF909F908F907F906F90089508958F9269
:105150009F92AF92BF92CF92DF92EF92FF920F9306
:105160001F93CF93DF93EC0189899A890E941530B0
:105170008E010D5E1F4F882309F4CDC061E070E001
:10518000C8010E94781B89899A890E94072D20E016
:1051900030E044E354E40E94CE406B017C01982F40
:1051A0004C2D5D2D692F7F2D488359836A837B8326
:1051B00089899A890E94252D9B01AC016C2D7D2D3A
:1051C0008E2D9F2D0E94CE406C837D838E839F8386
:1051D000C8010E9480182C853D854E855F856885B5
:1051E00079858A859B850E94CD40B62FA72F462FB3
:1051F000572F682F792F4A015B0120E030E0A90189
:105200006B2F7A2F0E949743181624F0B7FAB094A8
:10521000B7F8B09489899A890E944C2EBC018827DE
:1052200077FD8095982F0E9436429B01AC01C50105
:10523000B4010E94974318160CF07EC08889C88478
:10524000D984EA84FB848C849D84AE84BF84A501C8
:105250009401882311F1C701B6010E9497431816E3
:105260000CF421C0A5019401C701B6010E9494412C
:1052700087FF3DC0188A89899A890E94522EBC01F5
:10528000882777FD8095982F0E9436429B01AC01BC
:10529000C701B6010E94CD4026C0C701B6010E94D9
:1052A000944187FF05C0CC86DD86EE86FF861FC051
:1052B000A5019401C701B6010E9497431816BCF4DA
:1052C00081E0888B89899A890E94522EBC018827A7
:1052D00077FD8095982F0E9436429B01AC01C70153
:1052E000B6010E94CE406C877D878E879F874C8554
:1052F0005D856E857F8589899A89DF91CF911F9120
:105300000F91FF90EF90DF90CF90BF90AF909F9064
:105310008F900C94612F60E070E0C801DF91CF9115
:105320001F910F91FF90EF90DF90CF90BF90AF90C3
:105330009F908F900C94781BDF91CF911F910F91CC
:10534000FF90EF90DF90CF90BF90AF909F908F90A5
:105350000895CF93DF93FC01108211821282138291
:105360001482158216821782108A118A128A138A71
:10537000148A158A168A178A108E118E128E138E31
:10538000148E80E090E0A4EBB2E4858F968FA78F17
:10539000B0A380E090E0A4EBB2EC81A392A3A3A31E
:1053A000B4A380E090E0A4E3B3E485A396A3A7A30D
:1053B000B0A780E090E0A4E3B3EC81A792A7A3A7F5
:1053C000B4A715A683E482AB13AA14AA15AA16AA39
:1053D00080E090E0A4E0B2E487AB90AFA1AFB2AFC1
:1053E00013AE80E090E0A8ECB2E484AF95AFA6AF36
:1053F000B7AFDF01A05CBF4F40E050E060E271E476
:105400004D935D936D937C931397DF01AC5BBF4F1E
:105410004D935D936D937C9313971086118612863E
:1054200013861486158616861786DF01A85BBF4F84
:105430001C92DF01A75BBF4F1D921D921D921C9213
:105440001397DF01A35BBF4F1D921D921D921C920B
:105450001397DF01AF5ABF4F86E58C93DF01AE5A39
:10546000BF4F1D921D921D921C921397DF01AA5AE5
:10547000BF4F1D921D921D921C921397DF01A65AD9
:10548000BF4F1D921D921D921C921397DF01A25ACD
:10549000BF4F1D921D921D921C921397DF01AE59B2
:1054A000BF4F1C92DF01AD59BF4F1C92DF01AC59B9
:1054B000BF4F1C92DF01AB59BF4F1D921D921D9231
:1054C0001C921397DF01A759BF4F1D921D921D9289
:1054D0001C921397DF01A359BF4F1D921C92DF014D
:1054E000A159BF4F1D921C92DF01AF58BF4F1D92B3
:1054F0001C92DF01AD58BF4F1C92DF01AC58BF4F6B
:105500001D921D921D921C921397DF01A858BF4F48
:105510001D921D921D921C921397EF01C458DF4FEC
:1055200080E090E0A0E2B2E488839983AA83BB8301
:10553000DF01A058BF4F1C92DF01AF57BF4F1C9235
:10554000DF01AE57BF4F1D921C92DF01AC57BF4F1A
:105550001D921C92EF01CA57DF4F80E090E0A0E857
:10556000BFE388839983AA83BB83DF01A657BF4F1C
:105570001C92EF01C557DF4F80EE93E9A4E0B0E045
:1055800088839983AA83BB83DF01A157BF4F1C92F5
:10559000DF01A057BF4F1C92DF01AF56BF4F83E61C
:1055A00090E08D939C93DF01AD56BF4F1C92EF01AD
:1055B000CC56DF4F80E090E4ACE1B6E48883998379
:1055C000AA83BB83DF01A856BF4F1D921C92DF0147
:1055D000A656BF4F81E090E08D939C93DF01A456C7
:1055E000BF4F40E056E960E070E04D935D936D93EE
:1055F0007C931397DF01A056BF4F4D935D936D933E
:105600007C931397DF01AC55BF4F40E855E260E053
:1056100070E04D935D936D937C931397DF01A855D4
:10562000BF4F4D935D936D937C931397DF01A4550A
:10563000BF4F1C92E355FF4F87E090E0918380833A
:10564000DF91CF9108950F931F93CF93DF93EC01D8
:105650008B0164E372E0C8010E9499066FE372E077
:10566000C8010E9499066DE472E0C8010E94990683
:10567000FE01E856FF4F608171814AE050E0C801A9
:105680000E94410863E572E0C8010E949906FE018C
:10569000E656FF4F608171814AE050E0C8010E94E8
:1056A000410869E572E0C8010E949906FE01E456CE
:1056B000FF4F40815181628173812AE030E0C8014F
:1056C0000E94E1076FE572E0C8010E949906FE01A1
:1056D000E056FF4F40815181628173812AE030E0C2
:1056E000C8010E94E10765E672E0C8010E949906C0
:1056F000FE01EC55FF4F40815181628173812AE0A8
:1057000030E0C8010E94E1076BE672E0C8010E9428
:105710009906FE01E855FF4F4081518162817381F6
:105720002AE030E0C8010E94E10761E772E0C801A9
:105730000E949906C455DF4F68814AE050E070E04E
:10574000C8010E9441086AE875E0C8010E94EA06A3
:1057500080E090E0DF91CF911F910F910895FC01BF
:10576000DB0112968D919C911397938382831496FB
:105770004D915D916D917C9117974483558366831C
:10578000778318964D915D916D917C911B97408721
:1057900051876287738780EF96E0918380831C96A0
:1057A0008D919C911D97958784871E968D919C91D4
:1057B0001F979787868750968D919C915197918BD3
:1057C000808B52968D919C915397938B828B54969C
:1057D0008D919C915597958B848B56968D919C912C
:1057E0005797978B868B58968D919C915997918F4F
:1057F000808F5A968D919C915B97938F828F5C9648
:105800008C915C97848F5D968C915D97858F5E9669
:105810008C915E97868F5F968C915F97878F90961D
:105820008C91909780A391968C9181A308950F936A
:105830001F93CF93DF93EC01FC01E355FF4F4081B1
:1058400060E070E08BED99E00E949021FE01E2554E
:10585000FF4F408161E070E08BED99E00E94902164
:10586000CC58DF4F64E070E049918B010F5F1F4F10
:105870008BED99E00E949021B8010D331105A1F73D
:10588000DF91CF911F910F910895EF92FF920F93A7
:105890001F93CF93DF931F921F92CDB7DEB78C017A
:1058A00060E070E08BED99E00E948D21898361E0DA
:1058B00070E08BED99E00E948D218A83F801E35519
:1058C000FF4F29813A81808191812817390719F08A
:1058D000C8010E94172C0C581F4F64E070E07B0138
:1058E0008FEFE81AF80A8BED99E00E948D21F801FC
:1058F00081938F01B7016D33710589F70F900F9078
:10590000DF91CF911F910F91FF90EF900895FC01CF
:1059100060817181828193810895FC016481758128
:10592000868197810895FC015489458936892789A4
:10593000652F742F832F922F0895FC0155A146A146
:1059400037A120A5652F742F832F922F0895FC0176
:10595000EC58FF4F5081418132812381652F742F94
:10596000832F922F0895FC01E858FF4F5081418109
:1059700032812381652F742F832F922F0895FC018C
:10598000508D418D328D238D652F742F832F922F53
:105990000895FC01558D468D378D20A1652F742FFC
:1059A000832F922F0895FC01E458FF4F50814181CD
:1059B00032812381652F742F832F922F0895FC014C
:1059C0005089418932892389652F742F832F922F23
:1059D0000895FC0151A142A133A124A1652F742F88
:1059E000832F922F0895FC0151A542A533A524A52C
:1059F000652F742F832F922F0895FC0157A940AD76
:105A000031AD22AD652F742F832F922F0895FC01A5
:105A100053A944A935A926A9652F742F832F922F46
:105A20000895FC0182A9873559F4E159FF4F60813F
:105A30007181882777FD8095982F0E94364204C097
:105A400060857185828593850895EF92FF920F930B
:105A50001F93CF93DF93EC010E94112D9B01AC01AA
:105A60006BA97CA98DA99EA90E94CD407B018C01C8
:105A700020E030E044E353E47F2D912F0E949743D0
:105A800018168CF020E030E044E353EC6E2D7F2DAF
:105A9000802F912F0E94944187FF0AC020E030E0C0
:105AA00044EB53E408C020E030E044EB53EC03C087
:105AB00020E030E0A9016E2D7F2D802F912F0E94D4
:105AC000CE409B01462F532F682F792F4EA75FA7FB
:105AD00068AB79AB622F732FDF91CF911F910F913C
