:100000000C948D010C94590A0C948A0A0C94BB0A26
:100010000C94EC0A0C941D0B0C944E0B0C947F0B5F
:100020000C94B00B0C94BE010C94BE010C94BE0158
:100030000C94BE010C94BE010C94BE010C945B2F79
:100040000C94BE010C94BE010C94BE010C94BE0134
:100050000C94BE010C94BE010C94BE010C94E615E8
:100060000C94BE010C94C2020C94B2030C94BE0119
:100070000C94BE010C94BE010C94BE010C94BE0104
:100080000C94BE010C94BE010C94BE010C94BE01F4
:100090000C94F6020C94F1030C94BE010C94BE0176
:1000A0000C94BE010C94BE010C94BE010C94BE01D4
:1000B0000C94BE010C94BE010C94EB300C945730A0
:1000C0000C944D310C94BE010C94BE010C942A0387
:1000D0000C9430040C94BE010C945E030C946F04D9
:1000E0000C94BE01084AD73B3BCE016E84BCBFFDD9
:1000F000C12F3D6C74319ABD56833DDA3D00C77FF8
:1001000011BED9E4BB4C3E916BAAAABE0000008090
:100110003F05A84CCDB2D44EB93836A9020C50B91F
:10012000918688083CA6AAAA2ABE000000803F0744
:10013000634236B79BD8A71A39685618AEBAAB5582
:100140008C1D3CB7CC5763BD6DEDFD753EF6177247
:1001500031BF000000803F08000000BE9224491219
:100160003EABAAAA2ABECDCCCC4C3E00000080BE3D
:10017000ABAAAAAA3E00000000BF000000803F001A
:1001800000000000084178D3BB4387D1133D190E0E
:100190003CC3BD4282AD2B3E68EC8276BED98FE176
:1001A000A93E4C80EFFFBE01C4FF7F3F000000006E
:1001B000000000090A02080B0C0D070603040100E9
:1001C000000000000000000000000000000000002F
:1001D0000000000000000000000000000011100FEF
:1001E000000000000000000000000000000000000F
:1001F000000000000000000102102020080810206C
:1002000040102040800201020108040201010204A2
:100210000810204080804020100804020180040261
:1002200001804020100804020108040201010204B8
:1002300008102040800102040810204080050505B8
:1002400005070508080808020202020A0A0808044D
:10025000040404010101010101010103030303037B
:10026000030303040707070C0C0C0C0C0C0C0C020A
:1002700002020206060606060606060B0B0B0B0B11
:100280000B0B0B000020002300260029002C002F60
:1002900000320000010000030106010901000022F4
:1002A00000250028002B002E003100340002010040
:1002B00000050108010B0100002100240027002A8D
:1002C000002D003000330001010000040107010A85
:1002D00001494E46494E4954594E414E0000204175
:1002E0000000C84200401C4620BCBE4CCA1B0E5A2F
:1002F000AEC59D74CDCCCC3D0AD7233C17B7D138C1
:1003000077CC2B329595E6241FB14F0ACE385A464A
:10031000E84AFA502151E238DE4611241FBECFEFE1
:10032000D1E2DEBFCDBF00E00CBF18E0A0E0B2E03C
:10033000E2E4FCEB00E00BBF02C007900D92AA388C
:10034000B107D9F718E1AAE8B8E001C01D92AD35B0
:10035000B107E1F713E0C6E1D3E000E006C0229761
:100360000109FE010BBF0E94DD57CC30D10780E0B0
:100370000807A9F70E946D520C940F5E0C940000C0
:10038000FC0184859585FC01E058FF4F2081318177
:10039000FC01EE57FF4F80819181281B390B2F778D
:1003A0003327C9010895FC0186859785FC01E05833
:1003B000FF4F20813181FC01EE57FF4F4081518179
:1003C0002F5F3F4F2F77332781E02417350709F43C
:1003D00080E00895FC0184859585FC01E058FF4F7D
:1003E00040815181FC01EE57FF4F2081318142173E
:1003F000530741F00190F081E02DE80FF91F2081B3
:1004000030E002C02FEF3FEFC9010895FC01848561
:100410009585FC01E058FF4F40815181FC01EE576A
:10042000FF4F208131814217530781F0A081B181B4
:10043000A80FB91F8C91208131812F5F3F4F2F77FB
:10044000332731832083282F30E002C02FEF3FEF86
:10045000C9010895FC0181A1882329F0A489B589E7
:100460008C9186FFFBCF11A20895CF93DF93FC01FF
:1004700026853785D901A058BF4F8D919C91119742
:1004800001968F779927E901CE57DF4F488159812F
:1004900084179507D9F30D90BC91A02DA20FB31F1F
:1004A0006C93A685B785A058BF4F11969C938E93E9
:1004B000A689B7892C9181E090E0078C02C0880F53
:1004C000991F0A94E2F7282B2C9381E081A30488DA
:1004D000F589E02D80818064808381E090E0DF9168
:1004E000CF910895EF92FF920F931F93CF93DF93D5
:1004F000FC0126853785D901A058BF4F8D919C916D
:10050000119701968F77992789010E571F4FE801A0
:10051000E880F9808E159F05D1F30D90BC91A02D38
:10052000A20FB31F6C93A685B785A058BF4F119635
:100530009C938E93A689B7898C91442311F0816096
:1005400001C08E7F8C93A689B7892C9181E090E0C1
:10055000078C02C0880F991F0A94E2F7282B2C936E
:1005600081E081A30488F589E02D80818064808307
:1005700081E090E0DF91CF911F910F91FF90EF907C
:10058000089508951F920F920FB60F9211240BB683
:100590000F922F933F934F935F936F937F938F931C
:1005A0009F93AF93BF93EF93FF938091C00082FD21
:1005B00007C08091C6006EEA7CE00E94085102C02C
:1005C0008091C600FF91EF91BF91AF919F918F9164
:1005D0007F916F915F914F913F912F910F900BBE43
:1005E0000F900FBE0F901F90189508951F920F92B5
:1005F0000FB60F9211240BB60F922F933F934F9388
:100600005F936F937F938F939F93AF93BF93EF937A
:10061000FF938091C80082FD07C08091CE0066EAFA
:100620007BE00E94085102C08091CE00FF91EF91C3
:10063000BF91AF919F918F917F916F915F914F91FA
:100640003F912F910F900BBE0F900FBE0F901F90F8
:10065000189508951F920F920FB60F9211240BB6A2
:100660000F922F933F934F935F936F937F938F934B
:100670009F93AF93BF93EF93FF938091D00082FD40
:1006800007C08091D6006EE97AE00E94085102C04E
:100690008091D600FF91EF91BF91AF919F918F9183
:1006A0007F916F915F914F913F912F910F900BBE72
:1006B0000F900FBE0F901F90189508951F920F92E4
:1006C0000FB60F9211240BB60F922F933F934F93B7
:1006D0005F936F937F938F939F93AF93BF93EF93AA
:1006E000FF938091300182FD07C08091360166E959
:1006F00079E00E94085102C080913601FF91EF918C
:10070000BF91AF919F918F917F916F915F914F9129
:100710003F912F910F900BBE0F900FBE0F901F9027
:10072000189580EF98E00E94C001892B11F00E947B
:10073000E0458EEC98E00E94C001892B11F00E94E8
:100740004B428CEA98E00E94C001892B11F00E9474
:1007500072428AE898E00E94C001892B11F00C9443
:100760009F4208951F920F920FB60F9211240BB65D
:100770000F922F933F938F939F93EF93FF9320912B
:10078000AA0C3091AB0C8091AC0C9091AD0C281759
:10079000390731F48091C1008F7D8093C10014C06E
:1007A000E091AC0CF091AD0CE65DF34F20818091AF
:1007B000AC0C9091AD0C01968F7799279093AD0C6E
:1007C0008093AC0C2093C600FF91EF919F918F9185
:1007D0003F912F910F900BBE0F900FBE0F901F9067
:1007E00018951F920F920FB60F9211240BB60F920D
:1007F0002F933F938F939F93EF93FF932091A20B9F
:100800003091A30B8091A40B9091A50B2817390769
:1008100031F48091C9008F7D8093C90014C0E091AC
:10082000A40BF091A50BEE5DF44F20818091A40BF9
:100830009091A50B01968F7799279093A50B8093A4
:10084000A40B2093CE00FF91EF919F918F913F9148
:100850002F910F900BBE0F900FBE0F901F90189509
:100860001F920F920FB60F9211240BB60F922F9377
:100870003F938F939F93EF93FF9320919A0A309128
:100880009B0A80919C0A90919D0A2817390731F4A0
:100890008091D1008F7D8093D10014C0E0919C0A9B
:1008A000F0919D0AE65EF54F208180919C0A90911F
:1008B0009D0A01968F77992790939D0A80939C0AB1
:1008C0002093D600FF91EF919F918F913F912F91AF
:1008D0000F900BBE0F900FBE0F901F9018951F9298
:1008E0000F920FB60F9211240BB60F922F933F93D6
:1008F0008F939F93EF93FF932091920930919309E7
:1009000080919409909195092817390731F48091C5
:1009100031018F7D8093310114C0E0919409F091F1
:100920009509EE5EF64F208180919409909195098A
:1009300001968F7799279093950980939409209336
:100940003601FF91EF919F918F913F912F910F90E1
:100950000BBE0F900FBE0F901F9018958F929F9215
:10096000AF92BF92CF92DF92EF92FF920F931F93BD
:10097000CF93DF93CDB7DEB7FC011382128288EEEE
:1009800093E0A0E0B0E084839583A683B7838DE6EF
:1009900098E0918380837587648757874687318B7A
:1009A000208B138B028BF58AE48AD78AC68AB18E94
:1009B000A08E938E828E8889848F8989858F8A897B
:1009C000868F8B89878F8C8980A3DF91CF911F9130
:1009D0000F91FF90EF90DF90CF90BF90AF909F90DE
:1009E0008F900895CF92DF92EF92FF92CF93DF9393
:1009F000EC016A017B01411581EE58076105710523
:100A0000F9F0EC89FD8981E090E008A002C0880F30
:100A1000991F0A94E2F7808360E079E08DE390E02B
:100A2000A70196010E947F572150310941095109C0
:100A30005695479537952795211580E1380798F009
:100A4000EC89FD89108260E874E88EE190E0A701EE
:100A500096010E947F57215031094109510956954D
:100A6000479537952795E889F9893083EA89FB8985
:100A7000208319A2EE89FF89408181E090E09C01EA
:100A80000C8C02C0220F331F0A94E2F7422B4083E2
:100A9000EE89FF8940819C010D8C02C0220F331F1B
:100AA0000A94E2F7422B4083EE89FF8940819C0142
:100AB0000E8C02C0220F331F0A94E2F7422B4083B0
:100AC000EE89FF8920810F8C02C0880F991F0A943C
:100AD000E2F7809582238083DF91CF91FF90EF90A2
:100AE000DF90CF900895BF92CF92DF92EF92FF9266
:100AF000CF93DF93EC016A017B01B22E411581EEA9
:100B0000580761057105F9F0EC89FD8981E090E0F5
:100B100008A002C0880F991F0A94E2F7808360E062
:100B200079E08DE390E0A70196010E947F57215064
:100B30003109410951095695479537952795211552
:100B400080E1380798F0EC89FD89108260E874E84C
:100B50008EE190E0A70196010E947F572150310954
:100B6000410951095695479537952795E889F9899F
:100B70003083EA89FB89208387E0B8120AC0E88DB8
:100B8000F98D86E08083EE89FF898081846080838F
:100B900008C0EE89FF89808184708083E88DF98D9B
:100BA000B082EE89FF89408181E090E09C010C8C4D
:100BB00002C0220F331F0A94E2F7422B4083EE89D2
:100BC000FF8940819C010D8C02C0220F331F0A94C3
:100BD000E2F7422B4083EE89FF8940819C010E8C15
:100BE00002C0220F331F0A94E2F7422B4083EE89A2
:100BF000FF8920810F8C02C0880F991F0A94E2F7A9
:100C0000809582238083DF91CF91FF90EF90DF90DA
:100C1000CF90BF900895CF93DF93FC018685978591
:100C2000DC01A058BF4FEC01CE57DF4F4D915C91D6
:100C300011972881398142175307C1F7A689B789CF
:100C40004C9181E090E09C01048C02C0220F331F84
:100C50000A94E2F7209524232C93A689B7894C9116
:100C60009C01058C02C0220F331F0A94E2F72095E5
:100C700024232C93A689B7894C919C01068C02C031
:100C8000220F331F0A94E2F7209524232C93A68980
:100C9000B7892C91078C02C0880F991F0A94E2F73C
:100CA000809582238C9384859585FC01EE57FF4FB8
:100CB00020813181FC01E058FF4F31832083DF9197
:100CC000CF91089581E00895CF92DF92EF92FF9245
:100CD0000F931F93CF93DF936C01EB017A01E60E24
:100CE000F71E00E010E00BC06991D601ED91FC9178
:100CF0000190F081E02DC6011995080F191FCE153E
:100D0000DF0591F7C801DF91CF911F910F91FF90FF
:100D1000EF90DF90CF900895EF92FF920F931F9383
:100D2000CF93DF937C01EB0100E010E0FE01219600
:100D30006491662351F0F701A081B181ED91FC919E
:100D4000C7011995080F191FF1CFC801DF91CF9185
:100D50001F910F91FF90EF900895AF92BF92CF92A5
:100D6000DF92EF92FF920F931F93CF93DF937C015B
:100D70006B0100E010E0C0E0D0E011C0D701ED91C0
:100D8000FC91A080B180B801C6010E94B910682F03
:100D9000C701F5011995C80FD91F0F5F1F4FD60165
:100DA00014968D919C9115970817190738F3CE0169
:100DB000DF91CF911F910F91FF90EF90DF90CF9037
:100DC000BF90AF9008950C945752DC01ED91FC91C7
:100DD0000190F081E02D1994DB01ED91FC911197C8
:100DE0000190F081E02DBC01CD0119940F931F9368
:100DF000CF93DF93EC016DE00E94E5068C016AE081
:100E0000CE010E94E5069C01200F311FC901DF9130
:100E1000CF911F910F9108950F931F93CF93DF935D
:100E2000EC010E948C068C01CE010E94F6069C010A
:100E3000200F311FC901DF91CF911F910F910895AC
:100E40000F931F93CF93DF93EC010E94AD068C01AB
:100E5000CE010E94F6069C01200F311FC901DF91CF
:100E6000CF911F910F9108950F931F93CF93DF930D
:100E7000EC010E9457528C01CE010E94F6069801A7
:100E8000280F391FC901DF91CF911F910F9108954C
:100E90000F931F93CF93DF93EC010E94E5068C0123
:100EA000CE010E94F6069C01200F311FC901DF917F
:100EB000CF911F910F9108950F931F93CF93DF93BD
:100EC000EC010E94EC068C01CE010E94F6069C010A
:100ED000200F311FC901DF91CF911F910F9108950C
:100EE0004F925F926F927F929F92AF92BF92CF92FA
:100EF000DF92EF92FF920F931F93CF93DF93CDB7C3
:100F0000DEB7A1970FB6F894DEBF0FBECDBF5C0170
:100F10006A017B01922E19A281E0821710F08AE00B
:100F2000982E8E010F5D1F4F492C512C612C712C76
:100F3000C701B601A30192010E947F578C2D929E9A
:100F400080191124015011098A3010F4805D01C00C
:100F5000895CF801808369017A01C114D104E1043C
:100F6000F10431F7B801C5010E945752A1960FB69E
:100F7000F894DEBF0FBECDBFDF91CF911F910F91CF
:100F8000FF90EF90DF90CF90BF90AF909F907F90B9
:100F90006F905F904F9008952115310541F4DC0169
:100FA000ED91FC910190F081E02D642F19940C9447
:100FB00070070F931F93CF93DF93EC010E94CC0730
:100FC0008C01CE010E94F6069C01200F311FC90141
:100FD000DF91CF911F910F9108959A01AB0160E0CD
:100FE00070E00C94CC070F931F93CF93DF93EC0129
:100FF0009A01AB0160E070E00E94CC078C01CE0149
:101000000E94F6069801280F391FC901DF91CF9180
:101010001F910F9108959A01462F50E060E070E013
:101020000C94CC070F931F93CF93DF93EC019A019D
:10103000462F50E060E070E00E94CC078C01CE01AA
:101040000E94F6069801280F391FC901DF91CF9140
:101050001F910F910895CF92DF92EF92FF920F931D
:101060001F93CF93DF93EC016A017B0121153105BA
:1010700079F4E881F9810190F081E02D642FDF910E
:10108000CF911F910F91FF90EF90DF90CF90199427
:101090002A30310519F477FD0EC02AE0B701A60108
:1010A000CE01DF91CF911F910F91FF90EF90DF90D4
:1010B000CF900C9470076DE20E94E5068C014427E6
:1010C0005527BA014C195D096E097F092AE0CE0146
:1010D0000E947007080F191FC801DF91CF911F915F
:1010E0000F91FF90EF90DF90CF9008950F931F9393
:1010F000CF93DF93EC010E942B088C01CE010E945C
:10110000F6069C01200F311FC901DF91CF911F917D
:101110000F9108959A01AB01662757FD6095762FD0
:101120000C942B080F931F93CF93DF93EC019A013C
:10113000AB01662757FD6095762F0E942B088C0126
:10114000CE010E94F6069801280F391FC901DF91D0
:10115000CF911F910F9108957F928F929F92AF929E
:10116000BF92CF92DF92EF92FF920F931F93CF9394
:10117000DF93EC016A017B01122F9A01AB01C701D9
:10118000B6010E944956882319F06DE778E032C015
:1011900046015701E894B7F82FEF3FEF4FE75FE7BD
:1011A000C501B4010E94495681110DC02FEF3FEFD8
:1011B0004FE75FE7C501B4010E94415318161CF4C4
:1011C00061E878E017C02FEF3FEF4FE75FE4C7011A
:1011D000B6010E94445518160CF40AC02FEF3FEFD9
:1011E0004FE75FECC701B6010E94415387FF12C071
:1011F00065E878E0CE01DF91CF911F910F91FF90CC
:10120000EF90DF90CF90BF90AF909F908F907F90A6
:101210000C94575220E030E0A901C701B6010E94AA
:10122000415387FF0AC06DE2CE010E94E5065C01D2
:10123000F7FAF094F7F8F09402C0A12CB12C00E07A
:1012400060E070E080E09FE307C020E030E040E233
:1012500051E40E9448530F5F0113F7CF262F372F19
:10126000482F592FC701B6010E947B52762E872E38
:10127000982EC92E0E94B553D62EE72EF82E092F90
:101280000E94E1539B01AC01672D782D892D9C2D87
:101290000E947A52C62E972E882E792E2AE04D2D46
:1012A0005E2D6F2D702FCE010E9470077C01EA0C1D
:1012B000FB1C1123B9F16BEF75E0CE010E94575270
:1012C000E80EF91E2FC020E030E040E251E46C2D22
:1012D000792D882D972D0E944F55762E072F6C0162
:1012E0009D2D0E94B0534B01AA2497FCA094BA2CC8
:1012F0002AE030E0B501A401CE010E942B08E80EDF
:10130000F91EC501B4010E94E3539B01AC01672D96
:10131000702F8C2D9D2D0E947A52C62E972E882ECE
:10132000792E11501111CFCFC701DF91CF911F91AD
:101330000F91FF90EF90DF90CF90BF90AF909F9074
:101340008F907F9008950C94AC080F931F93CF93C8
:10135000DF93EC010E94AC088C01CE010E94F606DE
:101360009801280F391FC901DF91CF911F910F916B
:101370000895883008F073C0E82FF0E0EE0FFF1FEB
:10138000EE5CF24F71836083843011F130F482306F
:1013900059F090F48130B1F53DC0863009F446C073
:1013A00020F1873079F54FC0809169008C7F842BC4
:1013B00080936900E89A089580916900440F551F51
:1013C000440F551F837F842B80936900E99A089509
:1013D0008091690074E0440F551F7A95E1F78F7C86
:1013E000842B80936900EA9A08958091690066E0F1
:1013F000440F551F6A95E1F78F73842B8093690022
:10140000EB9A089580916A008C7F842B80936A0008
:10141000EC9A089580916A00440F551F440F551FA0
:10142000837F842B80936A00ED9A089580916A00EF
:1014300024E0440F551F2A95E1F78F7C842B80937D
:101440006A00EE9A089580916A0096E0440F551F55
:101450009A95E1F78F73842B80936A00EF9A089531
:10146000883030F5843089F030F4823051F058F40F
:10147000813079F410C0863081F048F0873049F42B
:101480000EC0E8980DC0E9980BC0EA9809C0EB9827
:1014900007C0EC9805C0ED9803C0EE9801C0EF9826
:1014A000E82FF0E0EE0FFF1FEE5CF24F118210828A
:1014B00008951F920F920FB60F9211240BB60F9240
:1014C0002F933F934F935F936F937F938F939F934C
:1014D000AF93BF93EF93FF938091360D9091370DAB
:1014E000892B29F0E091360DF091370D1995FF9178
:1014F000EF91BF91AF919F918F917F916F915F918C
:101500004F913F912F910F900BBE0F900FBE0F90F8
:101510001F9018951F920F920FB60F9211240BB6C1
:101520000F922F933F934F935F936F937F938F937C
:101530009F93AF93BF93EF93FF938091380D90915A
:10154000390D892B29F0E091380DF091390D19955D
:10155000FF91EF91BF91AF919F918F917F916F918B
:101560005F914F913F912F910F900BBE0F900FBE47
:101570000F901F9018951F920F920FB60F92112483
:101580000BB60F922F933F934F935F936F937F937D
:101590008F939F93AF93BF93EF93FF9380913A0DF7
:1015A00090913B0D892B29F0E0913A0DF0913B0D84
:1015B0001995FF91EF91BF91AF919F918F917F917D
:1015C0006F915F914F913F912F910F900BBE0F90B4
:1015D0000FBE0F901F9018951F920F920FB60F928B
:1015E00011240BB60F922F933F934F935F936F93FA
:1015F0007F938F939F93AF93BF93EF93FF938091CC
:101600003C0D90913D0D892B29F0E0913C0DF0911E
:101610003D0D1995FF91EF91BF91AF919F918F91E2
:101620007F916F915F914F913F912F910F900BBEE2
:101630000F900FBE0F901F9018951F920F920FB62C
:101640000F9211240BB60F922F933F934F935F93FA
:101650006F937F938F939F93AF93BF93EF93FF937A
:101660008091320D9091330D892B29F0E091320D4C
:10167000F091330D1995FF91EF91BF91AF919F912B
:101680008F917F916F915F914F913F912F910F902B
:101690000BBE0F900FBE0F901F9018951F920F92C8
:1016A0000FB60F9211240BB60F922F933F934F93C7
:1016B0005F936F937F938F939F93AF93BF93EF93BA
:1016C000FF938091340D9091350D892B29F0E09195
:1016D000340DF091350D1995FF91EF91BF91AF91B8
:1016E0009F918F917F916F915F914F913F912F913A
:1016F0000F900BBE0F900FBE0F901F9018951F926A
:101700000F920FB60F9211240BB60F922F933F93A7
:101710004F935F936F937F938F939F93AF93BF93F9
:10172000EF93FF9380913E0D90913F0D892B29F00F
:10173000E0913E0DF0913F0D1995FF91EF91BF9112
:10174000AF919F918F917F916F915F914F913F9159
:101750002F910F900BBE0F900FBE0F901F901895FA
:101760001F920F920FB60F9211240BB60F922F9368
:101770003F934F935F936F937F938F939F93AF9319
:10178000BF93EF93FF938091400D9091410D892B72
:1017900029F0E091400DF091410D1995FF91EF91E5
:1017A000BF91AF919F918F917F916F915F914F9179
:1017B0003F912F910F900BBE0F900FBE0F901F9077
:1017C0001895FC01808191810C945114CF93DF9383
:1017D000EC0188819981009711F00E9451141982BF
:1017E00018821D821C821B821A82DF91CF9108957C
:1017F0000F931F93CF93DF93EC018B016F5F7F4FAC
:10180000888199810E94F014009731F09983888330
:101810001B830A8381E001C080E0DF91CF911F919B
:101820000F910895CF93DF93EC0188819981892BE3
:1018300031F08A819B818617970708F00CC0CE0192
:101840000E94F80B882349F08C819D81892B19F423
:10185000E881F981108281E001C080E0DF91CF91C1
:101860000895EF92FF920F931F93CF93DF93EC01B4
:101870007B018A01BA010E94120C811104C0CE01C1
:101880000E94E60B07C01D830C83B70188819981F4
:101890000E947558CE01DF91CF911F910F91FF905B
:1018A000EF900895DC0111961C921E9213961C92E3
:1018B0001E92129715961C921E92149716961C92C1
:1018C0006115710559F0DB010D900020E9F7AD01BC
:1018D00041505109461B570B0C94310C0895CF937E
:1018E000DF93EC01FB018617970761F0608171813E
:1018F0006115710529F0448155810E94310C02C0A7
:101900000E94E60BCE01DF91CF910895FC01118278
:101910001082138212821582148216820C946F0C2C
:10192000CF93DF93D82FC92F6115710561F0DB01CB
:101930000D900020E9F7AD0141505109461B570BAE
:101940000E94310C02C00E94E60B8D2F9C2FDF916C
:10195000CF9108950F931F93CF93DF93CDB7DEB749
:10196000A1970FB6F894DEBF0FBECDBF8C01CB019F
:10197000BA01F80111821082138212821582148238
:10198000168230E0AE014F5F5F4F0E945759BE0193
:101990006F5F7F4FC8010E94900CA1960FB6F8941C
:1019A000DEBF0FBECDBFDF91CF911F910F91089584
:1019B0000F931F93CF93DF93CDB7DEB7A2970FB6E8
:1019C000F894DEBF0FBECDBF8C01CB01BA01F80188
:1019D000118210821382128215821482168230E0E4
:1019E000AE014F5F5F4F0E940659BE016F5F7F4F90
:1019F000C8010E94900CA2960FB6F894DEBF0FBEED
:101A0000CDBFDF91CF911F910F9108950F931F9339
:101A1000CF93DF93CDB7DEB761970FB6F894DEBFF3
:101A20000FBECDBF8C01CB01F80111821082138251
:101A3000128215821482168250E0BE016F5F7F4FC2
:101A40000E947C59BE016F5F7F4FC8010E94900CBD
:101A500061960FB6F894DEBF0FBECDBFDF91CF9178
:101A60001F910F9108950F931F93CF93DF93CDB7DD
:101A7000DEB762970FB6F894DEBF0FBECDBF8C0104
:101A8000CB01F80111821082138212821582148216
:101A9000168250E0BE016F5F7F4F0E94E558BE0185
:101AA0006F5F7F4FC8010E94900C62960FB6F8944A
:101AB000DEBF0FBECDBFDF91CF911F910F91089573
:101AC0000F931F93CF93DF93CDB7DEB729970FB650
:101AD000F894DEBF0FBECDBF8C01862FF8011182B6
:101AE00010821382128215821482168250E0BE0187
:101AF0006F5F7F4F90E00E947C59BE016F5F7F4F08
:101B0000C8010E94900C29960FB6F894DEBF0FBE54
:101B1000CDBFDF91CF911F910F910895CF93DF93A8
:101B20001F921F92CDB7DEB7FC0111821082138283
:101B3000128215821482168269831A82BE016F5F37
:101B40007F4F0E94900C0F900F90DF91CF910895DE
:101B5000EF92FF920F931F93CF93DF93EC017B01E2
:101B60000C811D816115710511F480E016C04115CD
:101B7000510591F0040F151FB8010E94120C882323
:101B8000A1F3288139818C819D81B701820F931F38
:101B90000E9475581D830C8381E0DF91CF911F91C6
:101BA0000F91FF90EF900895FB0144815581608172
:101BB00071810C94A80D6115710559F0DB010D9030
:101BC0000020E9F7AD0141505109461B570B0C9419
:101BD000A80D80E00895CF93DF931F921F92CDB799
:101BE000DEB769831A8241E050E0BE016F5F7F4F2C
:101BF0000E94A80D0F900F90DF91CF910895EF9262
:101C0000FF920F931F93CF93DF9300D01F92CDB716
:101C1000DEB77C01862F4AE050E08E010F5F1F4F38
:101C2000B80190E00E94E558F80101900020E9F722
:101C3000AF0141505109401B510BB801C7010E942F
:101C4000A80D0F900F900F900F90DF91CF911F91E3
:101C50000F91FF90EF900895EF92FF920F931F93D3
:101C6000CF93DF93CDB7DEB727970FB6F894DEBFDB
:101C70000FBECDBF7C01CB014AE050E08E010F5F6B
:101C80001F4FB8010E94E558F80101900020E9F7C4
:101C9000AF0141505109401B510BB801C7010E94CF
:101CA000A80D27960FB6F894DEBF0FBECDBFDF910B
:101CB000CF911F910F91FF90EF900895EF92FF92B7
:101CC0000F931F93CF93DF9300D000D0CDB7DEB733
:101CD0007C01CB014AE050E08E010F5F1F4FB8013D
:101CE0000E947C59F80101900020E9F7AF014150B2
:101CF0005109401B510BB801C7010E94A80D26963F
:101D00000FB6F894DEBF0FBECDBFDF91CF911F910C
:101D10000F91FF90EF900895EF92FF920F931F9312
:101D2000CF93DF93CDB7DEB72C970FB6F894DEBF15
:101D30000FBECDBF7C01CB01BA012AE030E08E019D
:101D40000F5F1F4FA8010E940659F8010190002063
:101D5000E9F7AF0141505109401B510BB801C701D0
:101D60000E94A80D2C960FB6F894DEBF0FBECDBF13
:101D7000DF91CF911F910F91FF90EF900895EF9217
:101D8000FF920F931F93CF93DF93CDB7DEB72B97BF
:101D90000FB6F894DEBF0FBECDBF7C01CB01BA01F8
:101DA0002AE030E08E010F5F1F4FA8010E945759B3
:101DB000F80101900020E9F7AF0141505109401BA3
:101DC000510BB801C7010E94A80D2B960FB6F894CD
:101DD000DEBF0FBECDBFDF91CF911F910F91FF905E
:101DE000EF900895CF93DF93D82FC92FFB01448143
:101DF0005581608171810E94A80D811104C08D2FD1
:101E00009C2F0E94E60B8D2F9C2FDF91CF91089580
:101E1000CF93DF93D82FC92F6115710569F0DB01CE
:101E20000D900020E9F7AD0141505109461B570BB9
:101E30000E94A80D811104C08D2F9C2F0E94E60BDB
:101E40008D2F9C2FDF91CF910895CF93DF93D82FC3
:101E5000C92F0E94EB0D811104C08D2F9C2F0E9471
:101E6000E60B8D2F9C2FDF91CF910895CF93DF93B9
:101E7000D82FC92F0E94FF0D811104C08D2F9C2FD8
:101E80000E94E60B8D2F9C2FDF91CF910895CF9369
:101E9000DF93D82FC92F0E942C0E811104C08D2FE3
:101EA0009C2F0E94E60B8D2F9C2FDF91CF910895E0
:101EB000CF93DF93D82FC92F0E945E0E811104C0EB
:101EC0008D2F9C2F0E94E60B8D2F9C2FDF91CF91A1
:101ED0000895CF93DF93D82FC92F0E948C0E8111C4
:101EE00004C08D2F9C2F0E94E60B8D2F9C2FDF911D
:101EF000CF910895CF93DF93D82FC92F0E94BF0EA3
:101F0000811104C08D2F9C2F0E94E60B8D2F9C2FDA
:101F1000DF91CF910895CF93DF93DC01ED91FC9198
:101F2000EB01A881B981309711F01097C9F410978F
:101F300059F0EB012C813D81232B31F02C9130E0C5
:101F400031952195310914C0309781F0DC01149648
:101F50008D919C911597892B49F0208130E008C024
:101F6000BD01CF01DF91CF910C946C5820E030E09F
:101F7000C901DF91CF910895FC0144815581FB0196
:101F8000248135814217530729F40E948B0F21E0E9
:101F9000892B09F020E0822F0895DC0114962D9101
:101FA0003C911597232B39F481E06115710511F0EF
:101FB000FB0108C00895DC01ED91FC9161157105EC
:101FC00029F481E09081992349F007C0CF010E9454
:101FD0006C589C0181E0232B09F080E008950E9459
:101FE0008B0F892F881F8827881F08950E948B0FC9
:101FF00021E0181619060CF020E0822F08950E94A7
:102000008B0F21E0181619060CF420E0822F08959A
:102010000E948B0F892F8095881F8827881F08951D
:10202000EF92FF920F931F93CF93DF93861797073B
:1020300009F1FC0124813581FB014481558124177C
:102040003507D1F4232BB1F0C081D181FC0100818F
:1020500011810BC090E00E9432587C01899190E080
:102060000E943258E816F90639F4F80181918F017F
:102070008111F0CF81E001C080E0DF91CF911F910D
:102080000F91FF90EF900895FA01DB0114964D91A6
:102090005C911597DC0114962D913C911597241BAA
:1020A000350B2E173F0790F08D919C91009771F0A2
:1020B000DB016D917C916115710541F08E0F9F1FC1
:1020C0000E947C589C0181E0232B09F080E0089558
:1020D000FC0144815581FB0124813581421753075E
:1020E00020F040E050E00C94441080E00895FC01A2
:1020F00084819581DB0114964D915C91159784172D
:102100009507A0F0208131812115310579F06D917D
:102110007C916115710551F0841B950B820F931F03
:102120000E946C589C0181E0232B09F080E0089507
:10213000DC0114962D913C9115976217730728F4D2
:10214000ED91FC91E60FF71F40830895FC01248177
:1021500035816217730720F480819181009729F4FB
:102160001092420D62E47DE002C0680F791FCB013E
:102170000895FC01248135816217730748F480813A
:102180009181009729F0FC01E60FF71F80810895E7
:1021900080E008950C94B9100F931F93CF93DF93B1
:1021A000EB0141155105E9F02097D9F0FC010481BC
:1021B00015812017310708F013C041505109021B47
:1021C000130B4017510708F48A01FC0160817181EB
:1021D000620F731FA801CE010E948A58C00FD11F41
:1021E0001882DF91CF911F910F910895CF93DF93C4
:1021F000FC01848195814817590770F4C081D18111
:1022000070E0CE01840F951F0E946158009721F065
:102210009C012C1B3D0B02C02FEF3FEFC901DF914A
:10222000CF91089540E050E00C94F610CF93DF93E7
:10223000FC01848195814817590780F4C081D181C0
:10224000FB0160817181CE01840F951F0E94A4580B
:10225000009721F09C012C1B3D0B02C02FEF3FEF9C
:10226000C901DF91CF91089540E050E00C94161120
:10227000DF92EF92FF920F931F93CF93DF93EC01C6
:102280008C819D814817590718F02FEF3FEF1BC035
:102290008A010F5F1F4FE881F981E00FF11FD080A5
:1022A0001082E880F98070E0C7010E949958F70118
:1022B000E00FF11FD082009741F328813981AC01F2
:1022C000421B530B9A01C901DF91CF911F910F91CE
:1022D000FF90EF90DF900895FC01448155814150BB
:1022E00051090C943811AF92BF92CF92DF92EF92C6
:1022F000FF920F931F93CF93DF936B018A01FB0132
:10230000448155814115510569F1FC0124813581D4
:102310002115310539F12417350720F1021713076C
:1023200018F0890101501109FC01E080F180C7011A
:10233000CFEFDFEF5701A00EB11E10C0F601608194
:1023400071810E94A458009779F09C012E193F09D1
:102350000217130708F49E010196E901A816B906B1
:1023600068F702C0CFEFDFEFCE01DF91CF911F9171
:102370000F91FF90EF90DF90CF90BF90AF900895B6
:10238000FC0144815581FB0124813581421B530BA3
:102390000C947311BF92CF92DF92EF92FF920F9342
:1023A0001F93CF93DF936C017B01EA01890124170E
:1023B000350720F48D2FE901042F182F64EE75E006
:1023C000C6010E94520CD70114968D919C911597CD
:1023D0008C179D07C8F08017910708F48C01D7016E
:1023E000ED91FC911197E00FF11FB08010826D917B
:1023F0007C916C0F7D1FC6010E94900CD701ED915E
:10240000FC91E00FF11FB082C601DF91CF911F91C7
:102410000F91FF90EF90DF90CF90BF900895CF93F2
:10242000DF93EC01FB01248135810E94CA11CE01AA
:10243000DF91CF910895DC01ED91FC91309729F463
:102440000895861301C04083319680818111F9CFB0
:1024500008952F923F924F925F926F927F928F9248
:102460009F92AF92BF92CF92DF92EF92FF920F9323
:102470001F93CF93DF938C015B017A01DC011496EB
:102480004D905C9015974114510409F4E1C0FB0193
:10249000648075806114710409F4DAC0DA0114965D
:1024A000CD90DC901597C618D708FC01C081D1816A
:1024B000C114D104E1F411C0D7016C9111967C9143
:1024C000119714964D915C911597C8010E9446583A
:1024D000F701C481D581C00FD11FD5016D917C91C9
:1024E000CE010E94A4588C01009731F7B1C0D7FEED
:1024F00002C04E012EC0FB012080318042014DC040
:1025000032016C1A7D0AA301BE01C4010E94465823
:10251000680C791CD7016C9111967C9111971496D7
:102520004D915C911597C3010E944658F701848034
:102530009580860C971CD5011496CD91DC9115974A
:10254000C40DD51DF801848195818C0D9D1D958349
:102550008483D5016D917C91CE010E94A4582C01F9
:10256000009771F6BE01C401DF91CF911F910F91C9
:10257000FF90EF90DF90CF90BF90AF909F908F90A3
:102580007F906F905F904F903F902F900C94755874
:10259000EC01C60DD71D8C0C9D1CB101CE010E9413
:1025A000A4580097A9F78414950409F451C0F801C0
:1025B000828193818815990598F4B401C8010E941D
:1025C000F80B882309F444C00BC097FD41C0AC014F
:1025D000B501C8010E947311EC0197FF07C038C014
:1025E000D80114968D919C91159730C0F801808187
:1025F0009181D50114962D913C9115972C0F3D1F7B
:10260000820F931F44815581421B530BBC018C0DDB
:102610009D1D0E944F58F801848195818C0D9D1D50
:10262000958384830190F081E02DE80FF91F1082DB
:10263000D8012D913C912C0F3D1FF70160817181D4
:1026400044815581C9010E944658CE010197BDCFF2
:10265000DF91CF911F910F91FF90EF90DF90CF907E
:10266000BF90AF909F908F907F906F905F904F90B2
:102670003F902F900895CF93DF93FC01C081D181CB
:10268000209729F407C090E00E94325889938881EE
:102690008111F9CFDF91CF910895CF93DF93FC01A2
:1026A000C081D181209729F407C090E00E943A5858
:1026B000899388818111F9CFDF91CF910895AF92ED
:1026C000BF92CF92DF92EF92FF920F931F93CF931F
:1026D000DF936C01DC01ED90FC901197E114F104A3
:1026E00009F442C014960D911C911597011511051E
:1026F000D9F15701E501BFEFAB1ABB0A888190E021
:102700000E942A58892BB1F7015011090E0D1F1D87
:10271000F801808190E00E942A58892B69F40F5FAC
:102720001F4F0C1B1D0BD60115961C930E9314976F
:10273000EC16FD0650F404C00C171D0790F4EFCF03
:10274000A801BE01C7010E944658D601ED91FC9137
:10275000119714968D919C911597E80FF91F10828F
:1027600003C001501109D4CFDF91CF911F910F9178
:10277000FF90EF90DF90CF90BF90AF900895FC0155
:1027800080819181009711F00C94035860E070E013
:1027900080E090E008950F931F93CF93DF938230F2
:1027A000910510F482E090E0E0915918F0915A18E8
:1027B00020E030E0C0E0D0E023C0408151814817E4
:1027C0005907A8F04817590761F48281938120972F
:1027D00019F09B838A832EC090935A1880935918BE
:1027E00029C02115310529F04217530710F0A9011E
:1027F00002C0BE01DF0102811381EF019A01F801DD
:102800003097D9F62115310509F1281B390B2430F1
:10281000310590F412968D919C9113976115710575
:1028200021F0FB019383828304C090935A18809314
:102830005918FD0132962FC0FD01E20FF31F81935D
:102840009193225031092D933C9325C04DB75EB72B
:1028500048575109E0910202F0910302E417F5078D
:10286000C0F44E1B5F0B4817590798F09C012E5F70
:102870003F4F4217530768F02E0F3F1F309303025C
:1028800020930202309301022093000281939193DE
:1028900002C0E0E0F0E0CF01DF91CF911F910F91F6
:1028A0000895EF92FF920F931F93CF93DF930097BA
:1028B00009F48FC0DC01129713961C921E92129796
:1028C000E0905918F0905A18E114F10489F42D9110
:1028D0003C911197280F391F8091020290910302B9
:1028E0008217930789F5B0930302A093020271C087
:1028F000E70120E030E001C0EA01CA17DB0738F445
:102900004A815B819E0141155105B1F722C0BC018E
:1029100062507109FB01D383C28300811181AC0134
:10292000400F511F4C175D0761F448815981400FDA
:10293000511F4E5F5F4F518340834A815B815383B8
:1029400042832115310529F4B0935A18A0935918E0
:1029500040C0F901B383A283E90169917991C60F5F
:10296000D71FAC17BD0779F4DC015E914E91460F7D
:10297000571F4E5F5F4F5183408312968D919C91FC
:10298000139793838283A0E0B0E002C0D7017C015B
:10299000F701828193810097C9F7C70102962081D0
:1029A0003181820F931F2091020230910302281778
:1029B000390779F4109729F410925A18109259187F
:1029C00004C013961C921E921297F0920302E0929A
:1029D0000202DF91CF911F910F91FF90EF90089528
:1029E0008F929F92AF92BF92CF92DF92EF92FF921F
:1029F0000F931F93CF93DF93EC01009779F4CB01F2
:102A0000DF91CF911F910F91FF90EF90DF90CF90CA
:102A1000BF90AF909F908F900C94CB13DC01A60FCA
:102A2000B71FFC013297AE17BF0718F4C0E0D0E023
:102A3000A7C00081118106171707B0F005301105F6
:102A400008F49EC0C80104978617970708F498C039
:102A500002501109061B170B0D931D9371836083A0
:102A6000CD010E9451148CC07B01E01AF10A5C0177
:102A7000A00EB11EE0915918F0915A18812C912C9A
:102A800080E090E04CC0EA15FB05F1F540815181F2
:102A90006A0122E0C20ED11CCE14DF04A8F19A0113
:102AA0002E193F097901690132E0C30ED11C2EEFC6
:102AB000A22EBB24BA94AC0EBD1E25E0C216D104D2
:102AC00078F04281538113965C934E93129711963E
:102AD000FC92EE92F501718360833A2F2B2F09C08F
:102AE0000E5F1F4F040F151FD5010D931C933281EC
:102AF0002381009721F0FC013283238341C030936E
:102B0000591820935A183CC08081918188169906E3
:102B100008F44C0152814381CF01E52FF42F309707
:102B200009F0B1CF80910202909103028A159B05B2
:102B3000C1F486169706A8F48DB79EB788579109F9
:102B4000A817B90708F072CFB0930302A09302024E
:102B5000B0930102A0930002FE013297718360835B
:102B60000FC0CB010E94CB137C01009709F45ECF0C
:102B7000A801BE010E944658CE010E945114E701EF
:102B8000CE01DF91CF911F910F91FF90EF90DF90D9
:102B9000CF90BF90AF909F908F9008950C94CB13DF
:102BA0000C94CB130C9451140C94511421E030E08C
:102BB000FC018081882311F020E030E0C9010895F4
:102BC00021E0FC0120830895089508951F920F923B
:102BD0000FB60F9211242F933F938F939F93AF9330
:102BE000BF938091430D9091440DA091450DB091FC
:102BF000460D30914B0D232F2D5F2D3720F401967C
:102C0000A11DB11D05C0232F2A570296A11DB11D7C
:102C100020934B0D8093430D9093440DA093450D4D
:102C2000B093460D8091470D9091480DA091490DAC
:102C3000B0914A0D0196A11DB11D8093470D90934F
:102C4000480DA093490DB0934A0DBF91AF919F914C
:102C50008F913F912F910F900FBE0F901F9018955D
:102C60000F931F938FB7F8940091430D1091440D6B
:102C70002091450D3091460D8FBFB801C9011F91BC
:102C80000F9108950F931F939FB7F8940091470DEC
:102C90001091480D2091490D30914A0D86B5A89BA1
:102CA00006C08F3F21F00F5F1F4F2F4F3F4F9FBF39
:102CB000322F212F102F0027080F111D211D311D2C
:102CC00042E0000F111F221F331F4A95D1F7B801B0
:102CD000C9011F910F910895CF92DF92EF92FF9259
:102CE000CF93DF936B017C010E944216EB0110C071
:102CF0000E94A1190E9442166C1B7D0B683E734016
:102D000038F081E0C81AD108E108F108C851DC4F59
:102D1000C114D104E104F10459F7DF91CF91FF9080
:102D2000EF90DF90CF900895019739F0880F991FA9
:102D3000880F991F02970197F1F70895789484B549
:102D4000826084BD84B5816084BD85B5826085BDA7
:102D500085B5816085BDEEE6F0E08081816080838D
:102D6000E1E8F0E010828081826080838081816070
:102D70008083E0E8F0E0808181608083E1EBF0E037
:102D8000808184608083E0EBF0E0808181608083DB
:102D9000E1E9F0E0808182608083808181608083CE
:102DA000E0E9F0E0808181608083E1EAF0E0808109
:102DB00082608083808181608083E0EAF0E08081AE
:102DC00081608083E1E2F1E08081826080838081A4
:102DD00081608083E0E2F1E0808181608083EAE7C6
:102DE000F0E0808184608083808182608083808144
:102DF000816080838081806880831092C100089503
:102E0000809304020895863308F0865320917B0056
:102E1000982F9870277F922B90937B00877020913A
:102E2000040240E4249F90011124822B80937C00B3
:102E300080917A00806480937A0080917A0086FD88
:102E4000FCCF2091780030917900932F80E0AC0185
:102E5000422B9A01C90108951F93CF93DF93182F36
:102E6000EB0161E00E947418209711F460E004C047
:102E7000CF3FD10539F461E0812FDF91CF911F91D0
:102E80000C94AC18E12FF0E0EF54FE4FE491E930E0
:102E900009F460C098F4E430C9F138F4E23039F153
:102EA00058F5E13009F0ABC01DC0E73009F440C06F
:102EB00008F046C0E63009F0A2C032C0ED3009F497
:102EC00076C030F4EB3009F459C008F066C04CC04D
:102ED000E03109F480C0E13109F487C0EF3009F036
:102EE0008EC06FC084B5806884BDC7BD8DC084B5F9
:102EF000806284BDC8BD88C0809180008068809356
:102F00008000D0938900C09388007EC080918000AB
:102F1000806280938000D0938B00C0938A0074C03D
:102F20008091B00080688093B000C093B3006CC003
:102F30008091B00080628093B000C093B40064C000
:102F400080919000806880939000D0939900C09306
:102F500098005AC080919000806280939000D09336
:102F60009B00C0939A0050C080919000886080932D
:102F70009000D0939D00C0939C0046C08091A0001B
:102F800080688093A0008091A0008F7B8093A00038
:102F9000D093A900C093A80037C08091A0008062A0
:102FA0008093A000D093AB00C093AA002DC0809165
:102FB000A00088608093A000D093AD00C093AC00C7
:102FC00023C080912001806880932001D093290143
:102FD000C093280119C08091200180628093200154
:102FE000D0932B01C0932A010FC0809120018860EB
:102FF00080932001D0932D01C0932C0105C0C038CF
:10300000D1050CF038CF32CFDF91CF911F910895C9
:10301000893009F443C088F4843029F138F48230CF
:1030200059F1E8F4813009F05EC023C0873061F1C6
:1030300088F5863009F057C023C08D3009F440C0B0
:1030400020F48B30A9F1C0F52DC0803109F442C0C5
:10305000813109F443C08F3009F045C037C08091F9
:1030600080008F7703C0809180008F7D80938000E7
:10307000089584B58F7702C084B58F7D84BD08958F
:103080008091B0008F7703C08091B0008F7D8093D6
:10309000B0000895809190008F7707C080919000D4
:1030A0008F7D03C080919000877F8093900008956A
:1030B0008091A0008F7707C08091A0008F7D03C012
:1030C0008091A000877F8093A000089580912001C7
:1030D0008F7707C0809120018F7D03C080912001F0
:1030E000877F809320010895CF93DF9390E0FC01C8
:1030F000E950FE4F4491FC01E35CFD4F849188232D
:1031000041F190E0880F991FFC01E954FD4F259192
:103110003491D90183569D4FFC0185919491C82F1C
:10312000D92F9FB7F8948C91611106C040958423E4
:103130008C938881842308C0623041F4242F209529
:1031400082238C938881842B888302C0842B8C9368
:103150009FBFDF91CF9108950F931F93CF93DF937C
:103160001F92CDB7DEB7282F30E0F901EF54FE4FA4
:103170008491F901E950FE4F1491F901E35CFD4F90
:1031800004910023D1F0882321F069830E9408185C
:103190006981E02FF0E0EE0FFF1FE356FD4F8591B0
:1031A0009491DC019FB7F8948C91611103C0109544
:1031B000812301C0812B8C939FBF0F90DF91CF9112
:1031C0001F910F910895CF93DF93282F30E0F901DD
:1031D000EF54FE4F8491F901E950FE4FD491F9016B
:1031E000E35CFD4FC491CC2389F081110E94081843
:1031F000EC2FF0E0EE0FFF1FED57FD4F85919491FE
:10320000DC018C918D2321E030E011F420E030E0EE
:10321000C901DF91CF9108958F929F92AF92BF9293
:10322000CF92DF92EF92FF920F931F93CF93DF9392
:1032300090E0FC01E950FE4FD491FC01E35CFD4FAE
:103240007491611102C0C0E001C0CD2FDA01C90143
:10325000BF70672F70E0660F771F6D577D4F812C11
:10326000912C5401FB010591149110C0C12CD12C5B
:103270007601C394C80CD91CEA1CFB1C881699065D
:10328000AA06BB0609F44BC046015701F801E081CC
:10329000ED23EC1759F310C0C12CD12C7601C39447
:1032A000C80CD91CEA1CFB1C88169906AA06BB068A
:1032B000B1F14601570103C0FB0105911491F801DA
:1032C000E081ED23EC13E8CF88199909AA09BB091D
:1032D00020E030E0A901FB016591749109C0281735
:1032E00039074A075B07D9F02F5F3F4F4F4F5F4FBA
:1032F000FB01E081ED23EC1791F3A5E1B0E00E9422
:1033000044578B019C01005F1F4F2F4F3F4F84E0BC
:1033100036952795179507958A95D1F703C000E054
:1033200010E09801B801C901DF91CF911F910F9171
:10333000FF90EF90DF90CF90BF90AF909F908F90D5
:103340000895089561E085E30E94AC1861E085E38B
:103350000E9474188CB580618CBD8CB580648CBD66
:1033600061E084E30E94741861E083E30C947418B4
:10337000811103C08CB5806202C08CB58F7D8CBD7D
:1033800008959CB5937F982B9CBD08952CB5982FDC
:1033900093702C7F922B9CBD9DB582FB882780F972
:1033A0009E7F982B9DBD0895FC01A681B7819D014C
:1033B0002F5F3F4F8481958140855185840F951FF4
:1033C0002817390740F46C933783268311961C9293
:1033D00021E030E002C020E030E0C9010895FC01A6
:1033E000A481B581B783A68380859185892B09F057
:1033F0001C92089508952F923F924F925F926F9280
:103400007F928F929F92AF92BF92CF92DF92EF9274
:10341000FF920F931F93CF93DF93CDB7DEB72A9719
:103420000FB6F894DEBF0FBECDBF9A878987DC0147
:10343000D6968C91882309F4F9C00E9430166983CE
:103440007A838B839C83E985FA8580A191A1298168
:103450003A81281B390B84A595A5281739070CF448
:10346000E5C0028CF38DE02DC080D180E280F38036
:10347000A985BA855E96ED91FC915F97A7019601AB
:1034800060817181828193810E947A526D837E83F3
:103490008F839887E985FA85208931894289538904
:1034A0000E944F55A985BA8594962D913D914D91D5
:1034B0005C9197970E947B521B012C01862F932DC4
:1034C000A42DB52DE985FA8584A395A3A6A3B7A35A
:1034D00062A873A804A915A9262D372D402F512FB6
:1034E000622D732D842D952D0E94445518165CF481
:1034F000862D972DA02FB12FE985FA8584A395A35A
:10350000A6A3B7A318C0A985BA859E968D909D9055
:10351000AD90BC90D197A5019401622D732D842D9F
:10352000952D0E94415387FF06C0E985FA8584A244
:1035300095A2A6A2B7A2A985BA851C962D913D9108
:103540004D915C911F97BD81AE81BF80A8846B2F88
:103550007A2F8B2D9A2D0E944F55E985FA8524A14B
:1035600035A146A157A10E947B524B015C01A98560
:10357000BA8598962D913D914D915C919B97C7018D
:10358000B6010E947A52E985FA85248935894689EF
:1035900057890E944F559B01AC01C501B4010E949F
:1035A0007A524B015C01262D372D402F512F682D6B
:1035B000792D8A2D9B2D0E9444551816DCF0A98583
:1035C000BA859E966C909E979F967C909F97D0967A
:1035D0000C91D097D1961C91262D372D402F512F2D
:1035E000682D792D8A2D9B2D0E94415387FD02C0A5
:1035F00034018501A985BA855C96ED91FC915D97B2
:10360000862D972DA02FB12F80839183A283B38322
:10361000E985FA85C0A6D1A6E2A6F3A689819A819A
:10362000AB81BC8180A391A3A2A3B3A32A960FB6BA
:10363000F894DEBF0FBECDBFDF91CF911F910F91E8
:10364000FF90EF90DF90CF90BF90AF909F908F90C2
:103650007F906F905F904F903F902F9008952F92A2
:103660003F924F925F926F927F928F929F92AF9212
:10367000BF92CF92DF92EF92FF920F931F93CF935F
:10368000DF93EC014A015B012801390120E030E0C1
:10369000A901C501B4010E94415387FD80C020E00B
:1036A00030E0A901C301B2010E94415387FD77C0F8
:1036B00020E030E0A901C701B6010E94415387FD17
:1036C0006EC088829982AA82BB824C825D826E82A1
:1036D0007F82C886D986EA86FB866CA57DA5882769
:1036E00077FD8095982F0E94E35320E030E04AE771
:1036F00054E40E9448531B018C018C869D86AE8643
:10370000BF86762F272F332D402F512FC301B201B3
:103710000E944F552B013C01862F952DA62DB72DCC
:10372000888B998BAA8BBB8B222D332D402F512F49
:10373000C701B6010E9448537B018C01862F9F2D43
:10374000A02FB12F8C8B9D8BAE8BBF8B888D998DCD
:10375000019729F5A501940160E070E0CB010E947A
:103760007A526C877D878E879F87242D352D462D35
:10377000572D60E070E0CB010E947A52688B798B04
:103780008A8B9B8B2E2D3F2D402F512F60E070E0B8
:10379000CB010E947A526C8B7D8B8E8B9F8BDF913D
:1037A000CF911F910F91FF90EF90DF90CF90BF903E
:1037B000AF909F908F907F906F905F904F903F90D1
:1037C0002F900895CF92DF92EF92FF920F931F9365
:1037D000CF93DF93EC018B0116161706BCF58827F3
:1037E00077FD8095982F0E94E3536B017C016CA5B7
:1037F0007DA5882777FD8095982F0E94E3539B0134
:10380000AC01C701B6010E9448536B017C01762FC1
:10381000272F3D2D4E2D5F2D688979898A899B89B7
:103820000E944F55688B798B8A8B9B8B2C2D3D2D5D
:103830004E2D5F2D6C897D898E899F890E9448530A
:103840006C8B7D8B8E8B9F8B1DA70CA7DF91CF91EF
:103850001F910F91FF90EF90DF90CF9008954F92BE
:103860005F926F927F928F929F92AF92BF92CF9210
:10387000DF92EF92FF920F931F93CF93DF93EC01B0
:103880006A017B0128013901A9019801C701B6012C
:103890000E94445587FF4FC0CEA6DFA6E8AAF9AA2A
:1038A0004AAA5BAA6CAA7DAA8EA9882309F443C000
:1038B0000C8D1D8DF80180809180A280B380A301C2
:1038C0009201C501B4010E944455181634F4F80160
:1038D00040825182628273820DC0A7019601C501A8
:1038E000B4010E94415387FF05C0F801C082D18214
:1038F000E282F3824CA05DA06EA07FA0CAA8DBA8E4
:10390000ECA8FDA8A7019601C301B2010E9444558D
:1039100018160CF40CC0CEA4DFA4E8A8F9A8A701DF
:103920009601C301B2010E94415387FF04C0CCA29B
:10393000DDA2EEA2FFA2DF91CF911F910F91FF9028
:10394000EF90DF90CF90BF90AF909F908F907F903F
:103950006F905F904F9008958F929F92AF92BF9219
:10396000CF92DF92EF92FF92CF93DF93EC01EC8D39
:10397000FD8DC080D180E280F380CCA2DDA2EEA2DA
:10398000FFA2EA8DFB8D80819181A281B38188A7FE
:1039900099A7AAA7BBA78AA89BA8ACA8BDA8A50160
:1039A0009401C701B6010E94445518160CF40CC0CE
:1039B0008EA49FA4A8A8B9A8A5019401C701B60127
:1039C0000E94415387FF04C08CA29DA2AEA2BFA259
:1039D000DF91CF91FF90EF90DF90CF90BF90AF90AD
:1039E0009F908F9008951F93CF93DF93EC0111E088
:1039F0006130710509F010E08EA991E08927181354
:103A000003C0CE010E94AC1C1EABDF91CF911F9171
:103A100008950F931F93CF93DF93EC018B018EA931
:103A2000882361F1888D998D6817790739F12C8584
:103A30003D854E855F8560E070E0CB010E947A5243
:103A40006C877D878E879F87288939894A895B891A
:103A500060E070E0CB010E947A52688B798B8A8B90
:103A60009B8B2C893D894E895F8960E070E0CB019A
:103A70000E947A526C8B7D8B8E8B9F8B198F088F57
:103A8000DF91CF911F910F9108952F923F924F9206
:103A90005F926F927F928F929F92AF92BF92CF92DE
:103AA000DF92EF92FF920F931F93CF93DF93CDB7E7
:103AB000DEB728970FB6F894DEBF0FBECDBF4C011E
:103AC0007A8369831A013C832B8327013801AD82F5
:103AD000BE82CF82D88600E010E02FE733E440E0DA
:103AE00050E0BA010E942F1C84E690E0F40195A7F3
:103AF00084A76AA17BA1C4010E94091DCE8CDF8C22
:103B0000E8A0F9A00D811E812F813885B301A201A3
:103B1000C4010E942F1B0E943016F40144A455A436
:103B2000662457FC6094762C6419750986099709F8
:103B300060A371A382A393A316AA358E248E8981D4
:103B40009A81938F828F8B819C81978F868F289605
:103B50000FB6F894DEBF0FBECDBFDF91CF911F919E
:103B60000F91FF90EF90DF90CF90BF90AF909F901C
:103B70008F907F906F905F904F903F902F9008951F
:103B80000F931F93CF93DF93FC01718360831282A5
:103B900013821482158286E5868317821086118629
:103BA000128613861486158616861786108A118A41
:103BB000128A138A148A158A168ADF01A754BF4F06
:103BC0001D921C92DF01A55ABE4F1D921C92DF016F
:103BD000A15ABE4F1D921C92DF01AF59BE4F1D92DC
:103BE0001C92DF01AD59BE4F1D921C92178ADF0156
:103BF000A954BF4F1D921C92EF010EE110E08FE01F
:103C000090E00E94CB13FE01E15EFE4F8083918322
:103C10008FE090E00E94CB13FC01DE01A558BF4F5E
:103C20008D939C9310820150110922960115110564
:103C300031F7DF91CF911F910F910895FC015281CF
:103C4000438134812581652F742F832F922F08950E
:103C5000FC0186810895FC015781408531852285CC
:103C6000652F742F832F922F0895FC01538544856F
:103C700035852685652F742F832F922F0895CF9237
:103C8000DF92EF92FF926A017B01FC012785308968
:103C900041895289C701B6010E944F55FF90EF90AC
:103CA000DF90CF900895FC01538944893589268996
:103CB000652F742F832F922F08959C01295E3F4F0B
:103CC000C9010895660F771F680F791FFB01E5583A
:103CD000FF4F8081918108954F925F926F927F9202
:103CE0008F929F92AF92BF92CF92DF92EF92FF920C
:103CF0000F931F93CF93DF93FB011081C1E0D0E0BE
:103D00001D3221F01B3211F0C0E0D0E0C60FD71FEA
:103D1000412C3DEC832E4CEC742E5CEC652E6DE357
:103D2000562E912CA12CB12C00E0C12CD12C760167
:103D30004AC0EE3209F445C0FF27E7FDF095411077
:103D400015C0AAE0B0E0A70196010E9444576B019C
:103D50007C01BF0160537109CB01AA2797FDA09593
:103D6000BA2FC80ED91EEA1EFB1E2DC0BF0160531C
:103D70007109882777FD8095982F0E94E3539B0156
:103D8000AC01682D772D862D952D0E944F559B01F6
:103D9000AC01692D7A2D8B2D902F0E947B52962E8F
:103DA000A72EB82E092F20E030E040E251E4682D24
:103DB000772D862D952D0E944853862E772E682EBE
:103DC000592E44244394E991E111B3CFC701B601C0
:103DD0000E94E3539B01AC01692D7A2D8B2D902F0E
:103DE0000E947B521D3249F4262F372F482F592F1E
:103DF00060E070E0CB010E947A52DF91CF911F9179
:103E00000F91FF90EF90DF90CF90BF90AF909F9079
:103E10008F907F906F905F904F9008958F929F92B8
:103E2000AF92BF92CF92DF92EF92FF920F931F93C8
:103E3000CF93DF93EC01FC01E55AFE4F8081918125
:103E40008436910584F4FE01E754FF4F20813181CF
:103E50002E31310544F4FE01ED59FE4F20813181B0
:103E60002F3031052CF0FE01E15AFE4F11821082F5
:103E70008E01015A1E4F6A3011F06D3019F4D801CD
:103E80001D921C92643211F5FE01E35AFE4F11821D
:103E90001082FE01EF59FE4F11821082FE01E7549D
:103EA000FF4F11821082FE01ED59FE4F11821082E8
:103EB000FE01E554FF4F6083FE01E55AFE4F81E0AD
:103EC00090E091838083C15ADE4FE0C0F8012081E9
:103ED00031812130310571F024F4232B09F48BC298
:103EE00086C22230310509F48BC02330310509F038
:103EF0007EC2CFC0873091057CF4FC01ED5EFD4FA2
:103F00002081621309C0FE01E35AFE4F20813181F6
:103F10002F5F3F4F31832083FE01E80FF91FE554E7
:103F2000FF4F6083FE01E55AFE4F01969183808327
:103F30008E0107541F4FFE01ED59FE4F6A3219F1F1
:103F40006C32E1F5D8012D913C91C901880F991F80
:103F50008C0F9D1F815E9E4FDC018D919C91408155
:103F60005181840F951FDC011C922F5F3F4FD801B8
:103F70002D933C9311821082CF59DE4F8881998115
:103F8000BCE28B2783C0D8012D913C91C901880FD9
:103F9000991F8C0F9D1F815E9E4FDC018D919C911E
:103FA00040815181840F951FDC011C922F5F3F4F90
:103FB000D8012D933C931182108263C020813181FE
:103FC000D8018D919C91880F991F8C0F9D1FDC014A
:103FD000A15EBE4F0D90BC91A02DA20FB31F6C939C
:103FE0002F5F3F4F31832083CF59DE4F772767FD07
:103FF0007095888199816827792779836883FBC1C7
:10400000FE01E80FF91FE554FF4F6083FE01E55AFA
:10401000FE4F019691838083DE01AD59BE4F2D91F5
:104020003C911197FE01E754FF4F80819181880FE9
:10403000991F8C0F9D1FFC01E15EFE4F0190F081E6
:10404000E02DE20FF31F60832F5F3F4F2D933C93D2
:10405000FE01EF59FE4F40815181862F992787FD40
:104060009095613414F0C79701C0C0979C01A4E0FB
:10407000220F331FAA95E1F7CA01821B930B91838C
:104080008083C15ADE4F8881998101969983888304
:10409000B2C19E01280F391FD901A554BF4F6C939F
:1040A000D901A454BF4F1C92DE01A55ABE4F0296FF
:1040B0008D939C939E012D593E4FF9014081518172
:1040C000DE01A754BF4F8D919C911197880F991FC6
:1040D0008C0F9D1F815E9E4FFC0180819181840F1A
:1040E000951FFC0160834F5F5F4FF901518340834F
:1040F0002D913C911197C901880F991F8C0F9D1F1D
:10410000815E9E4FFC0180819181840F951FFC018F
:1041100010822F5F3F4F2D933C93D8011D921C922C
:10412000FE01EF59FE4F80819181262F332727FD15
:10413000309561341CF02753310902C020533109F6
:10414000821B930B91838083892B09F054C1888152
:104150009981892B39F4FE01E55AFE4F2081318186
:10416000C90110C0FE01E35AFE4F8081918106977C
:1041700091F341C1FE01E80FF91FDF01A554BF4FC4
:104180004C91478B019797FFF5CFA90141505109F9
:10419000C90137FF02C080E090E0FE01E55AFE4F02
:1041A0009A01281B390B318320838E0109541F4F3C
:1041B000D8011D921C92B8017E01B9EBEB0EF11CE7
:1041C000DE01AD59BE4F31C011961C921E9208C03F
:1041D00040838D919C911197019611969C938E939B
:1041E000FB01808191812D913C911197880F991F3E
:1041F0008C0F9D1FAC01415E5E4FFA0140815181E1
:10420000420F531FFA01408185589F4FFC01808166
:104210009181820F931FFC014111DACF1082F801C6
:1042200080819181019691838083FB01208131817E
:10423000F701808191812817390734F2FE01E35A92
:10424000FE4F80819181069709F0D8C0FE01EF5D95
:10425000FE4F60817181CE010E946C1E6A837B8358
:104260008C839D83FE01ED5DFE4F0190F081E02D7A
:1042700080818E83FE01EB5DFE4F60817181CE01F6
:104280000E946C1E20E030E048EC52E40E9448534B
:104290006B017C017D2D9F2D0E941E544B015C0102
:1042A000FE01EB59FE4F60837183828393839B01F0
:1042B000AC016C2D7D2D8E2D9F2D0E947A5220E019
:1042C00030E048EC52E40E944F5520E030E040E7F7
:1042D00052E40E944853A50194010E947B529B0125
:1042E000462F532F682F792F4F83588769877A87F6
:1042F000FE01E95DFE4F0190F081E02D40814335E4
:1043000059F4482F592F60E070E0CB010E947A5297
:104310006F83788789879A87FE01E75DFE4F60810A
:104320007181CE010E946C1E20E030E048EC52E426
:104330000E9448536B017C017D2D9F2D0E941E54CD
:104340004B015C01FE01EB59FE4F60837183828358
:1043500093839B01AC016C2D7D2D8E2D9F2D0E9492
:104360007A5220E030E048EC52E40E944F5520E0C1
:1043700030E040E752E40E944853A50194010E94B6
:104380007B529B01462F532F682F792F4B875C87D9
:104390006D877E87FE01E55DFE4F0190F081E02D87
:1043A0004081473559F4482F592F60E070E0CB0128
:1043B0000E947A526B877C878D879E87FE01E35D22
:1043C000FE4F60817181CE010E946C1E6F87788BD9
:1043D000898B9A8BFE01E15DFE4F60817181CE0178
:1043E0000E946C1E6B8B7C8B8D8B9E8B07C0C15A81
:1043F000DE4F1982188220E030E002C021E030E078
:10440000C901DF91CF911F910F91FF90EF90DF9045
:10441000CF90BF90AF909F908F9008958EBD0DB4B8
:1044200007FEFDCF8EB508950F931F93FC011382F5
:10443000128208EE13E020E030E004831583268327
:1044400037838DE492E091838083648745871F9151
:104450000F910895EF92FF921F93CF93DF931F92D6
:10446000CDB7DEB77C01162F60E0FC01848549835F
:104470000E94AC18F8E01F9FB0011124F701858558
:10448000880F862B0E940E224981842F0E940E22C3
:1044900062E070E080E090E00E946C1661E0F7015D
:1044A00084850F90DF91CF911F91FF90EF900C9436
:1044B000AC1846E062E00C942A22462F60E00E948D
:1044C0002A2281E090E00895CF92DF92EF92FF924E
:1044D0000F931F93CF93DF931F92CDB7DEB78C015D
:1044E000F42EE22E60E0FC01848559830E94AC1812
:1044F000CF2C5981D52E05C0F60181916F010E9404
:104500000E228C2D8F198E15B8F362E070E080E0DA
:1045100090E00E946C1661E0F80184850F90DF91B5
:10452000CF911F910F91FF90EF90DF90CF900C945F
:10453000AC18242FAB0160E00C9464221F93CF933E
:10454000DF93EC01162F60E08C850E94AC1862E0CE
:1045500070E080E090E00E946C1688E0189FB00147
:1045600011248D85880F862B80680E940E2280E0A2
:104570000E940E22182F62E070E080E090E00E941E
:104580006C1661E08C850E94AC18812FDF91CF9171
:104590001F9108951F93CF93DF93EC01162F63E0D3
:1045A0000E949E22482F4C7F612F65506370462BDE
:1045B00063E0CE01DF91CF911F910C942A228F925C
:1045C0009F92AF92BF92CF92DF92EF92FF920F93A2
:1045D0001F93CF93DF93EC016A017B0148015901DE
:1045E0006BE172E080EF98E00E9434070E94A2190C
:1045F0006AE070E080E090E00E946C1681E00E942A
:10460000B81981E00E94C61980E00E94C1196EE2CB
:1046100072E080EF98E00E9434078091050290914B
:104620000602019749F448E06EE0CE010E942A227A
:1046300010920602109205026AE372E080EF98E0A1
:104640000E94340764E670E080E090E00E946C16FF
:1046500040E863E0CE010E942A22C701B60123E0B0
:10466000660F771F881F991F2A95D1F7680D791D4E
:104670008A1D9B1DA7019601E4E0220F331F441FF2
:10468000551FEA95D1F70E947F5769017A01422FA1
:1046900060E0CE010E942A224D2D552761E0CE0117
:1046A0000E942A2240E063E0CE010E942A2268E0B4
:1046B000CE010E94CA2247E062E0CE01DF91CF9195
:1046C0001F910F91FF90EF90DF90CF90BF90AF9030
:1046D0009F908F900C942A220F931F9300E010E874
:1046E00020E730E00E94DF221F910F91089569E0DA
:1046F0000E949E228FEF9FEF089569E00E949E2204
:1047000090E0089560E00E949E2290E00895FC01F0
:104710006F778081918186279183808347E0208114
:104720003181C9019695879520FF04C020EF82272B
:1047300022E2922791838083415089F70895EF9276
:10474000FF920F931F93CF93DF937C018A01EB01BC
:10475000060F171F04C06991C7010E948723C01765
:10476000D107C9F7DF91CF911F910F91FF90EF9083
:104770000895CF93DF931F921F92CDB7DEB7AB01A1
:104780002FEF3FE33A832983BC01CE0101960E94BB
:104790009F2329813A8120958FE33827C9010F9003
:1047A0000F90DF91CF9108950F931F93CF93DF93D5
:1047B0001F92CDB7DEB78C01FC017183608312823A
:1047C00023831486158616861786108A4596498394
:1047D0000E94BE28F801178E10A24981842F8156AD
:1047E0008A3108F44052842F81548A3118F08F5E48
:1047F0008A3010F4F801428344E650E060E070E053
:10480000F80144835583668377834FEF5FEFBA01E6
:10481000408751876287738711A20F90DF91CF91F4
:104820001F910F91089508957F928F929F92AF925A
:10483000BF92CF92DF92EF92FF920F931F93CF938D
:10484000DF93CDB7DEB7E1970FB6F894DEBF0FBEAA
:10485000CDBF5C017B01742E4901DB0114964D91A3
:104860005D916D917C9117976E01BAE2CB0ED11CD0
:10487000C6010E94B829C6010E948E29689484F856
:10488000C8010E946829882321F0C5010E94C02820
:104890006AC0C6010E9468298823A1F1C6010E944E
:1048A000AC29F70184858F5F87FD81E0D7011C96D5
:1048B0008C93CE0101960E94EE26F7016281CE0113
:1048C00001960E94F226682DCE0101960E94F226E2
:1048D000D7011C966C91CE0101960E94F226672D9D
:1048E000CE0101960E94F226D701ED91FC9111971D
:1048F00063A174A123E230E013964C91CE0101969E
:104900000E94CE27F701808191810E9497288823F9
:1049100009F4B6CFD701ED91FC91119793811396CD
:104920008C919813ADCF8481833409F0A9CF408155
:10493000518145505109BF016A5F7F4FCE0180967A
:104940000E94382988A1882309F49ACF9BA1F701F6
:104950008485981395CF8AE0FE01B096D501019029
:104960000D928A95E1F7C501E1960FB6F894DEBF86
:104970000FBECDBFDF91CF911F910F91FF90EF90B0
:10498000DF90CF90BF90AF909F908F907F900895D1
:104990009F92AF92BF92CF92DF92EF92FF920F93CE
:1049A0001F93CF93DF93CDB7DEB76F970FB6F89411
:1049B000DEBF0FBECDBF8C015B017A01922EDC0100
:1049C000ED91FC91C3A0D4A0CE0101960E94EE26E9
:1049D000F8016281CE0101960E94F226692DCE0176
:1049E00001960E94F22696FE07C0D8015F966C9150
:1049F000CE0101960E94F226F70142815381B70150
:104A00006C5F7F4FCE0101960E94FE269501D80172
:104A100013964C91B601CE0101960E94CE276F9657
:104A20000FB6F894DEBF0FBECDBFDF91CF911F91BF
:104A30000F91FF90EF90DF90CF90BF90AF909F903D
:104A40000895CF92DF92EF92FF920F931F93CF932F
:104A5000DF93CDB7DEB72A970FB6F894DEBF0FBE4F
:104A6000CDBF7C016A01FC0180A1811123C08B01B3
:104A700020E430E041E050E0B701CE0101960E9411
:104A800014248AE0FE013196D60101900D928A9598
:104A9000E1F7F601828180FF04C08681978197FD4E
:104AA00007C0F6018481F701878F81E080A302C0EF
:104AB00081E001C080E02A960FB6F894DEBF0FBEF9
:104AC000CDBFDF91CF911F910F91FF90EF90DF90BD
:104AD000CF900895DF92EF92FF920F931F93CF93A1
:104AE000DF93CDB7DEB72A970FB6F894DEBF0FBEBF
:104AF000CDBF7C01D42EFC012389348941895289A0
:104B00008B01BC01CE0101960E9414248AE0FE01B3
:104B10003196D701559601900D928A95E1F7F701EC
:104B2000878980FF04C0838D948D97FD0BC0F701AA
:104B3000818D978D891731F0811106C081E0D110E8
:104B400004C002C081E001C080E02A960FB6F8944C
:104B5000DEBF0FBECDBFDF91CF911F910F91FF90B0
:104B6000EF90DF9008958F929F92AF92BF92CF9275
:104B7000DF92EF92FF920F931F93CF93DF93CDB706
:104B8000DEB764970FB6F894DEBF0FBECDBF7C01D1
:104B90006B015A014901FC012585368547855089FD
:104BA0002F5F3F4F4F4F5F4F258736874787508B8B
:104BB000BC01CE010F960E94DE27F70181A1882358
:104BC00039F09401A501B601C7010E94C82430C084
:104BD000F7014085518562857385CE0101960E945B
:104BE000B829A7014B5E5F4FBE016F5F7F4FC701C2
:104BF0000E94212581111CC0689486F8F701128B50
:104C0000018B948A838A878D8F5F87FD81E0F7010E
:104C1000878F9401A501B601C7010E94C82440E016
:104C2000BE016F5F7F4FC7010E946A25882389F309
:104C300086E0FE013F96DE01199601900D928A955D
:104C4000E1F729853A854B855C856D857E8580E019
:104C500090E064960FB6F894DEBF0FBECDBFDF9133
:104C6000CF911F910F91FF90EF90DF90CF90BF9069
:104C7000AF909F908F9008958F929F92AF92BF9226
:104C8000CF92DF92EF92FF920F931F93CF93DF9318
:104C9000CDB7DEB7E0970FB6F894DEBF0FBECDBF3D
:104CA0004C01CE0101962DA73EA74FA758AB6CA78C
:104CB0000E94EE266CA5CE0101960E94F2262DA53B
:104CC0003EA54FA558A9BA01A901CE0101960E949F
:104CD0001727F7FC0BC0602FCE0101960E94F22629
:104CE000B701A601CE0101960E94172701E010E04E
:104CF0009501AE014F5F5F4F64E270E0C4010E9416
:104D0000B3252EA33FA348A759A76AA77BA786E090
:104D1000FE01B696DE01909601900D928A95E1F71C
:104D200028A139A14AA15BA16CA17DA180E090E0FE
:104D3000E0960FB6F894DEBF0FBECDBFDF91CF91E6
:104D40001F910F91FF90EF90DF90CF90BF90AF90A9
:104D50009F908F900895AF92BF92CF92DF92EF9283
:104D6000FF920F931F93CF93DF93CDB7DEB72C97AE
:104D70000FB6F894DEBF0FBECDBF570168017901B1
:104D800002E09A01AB0161E00E943C262F83388744
:104D900049875A876B877C8786E0FE013796DE015C
:104DA000119601900D928A95E1F729813A814B8104
:104DB0005C816D817E8180E090E02C960FB6F89446
:104DC000DEBF0FBECDBFDF91CF911F910F91FF903E
:104DD000EF90DF90CF90BF90AF900895FC011382C9
:104DE00012820895FC0122813381E20FF31F648354
:104DF0002F5F3F4FFC01338322830895FB01460F51
:104E0000571F11C06191DC0112962D913C911397AF
:104E1000A20FB31F14966C932F5F3F4FDC011396C4
:104E20003C932E931297E417F50761F708950F93BB
:104E30001F9341305105610520EE72077CF08A0115
:104E40009B0101151105210540E2340724F00FEF05
:104E50001FEF2FEF3FE137FF12C004C001E010E069
:104E600020E030EE30952095109501951F4F2F4F83
:104E70003F4F000F111F221F331F016004C0000F9E
:104E8000111F221F331FFC0142815381702F7F733A
:104E9000003411052105310510F060E401C060E027
:104EA000FC01E40FF51F672B64834F5F5F4F66E0E3
:104EB00036952795179507956A95D1F70115110530
:104EC0002105310519F7FC01538342831F910F918E
:104ED0000895EF92FF920F931F93CF93DF93EC010E
:104EE000688349830A83F901DC011396C901800FA5
:104EF000911F02C021912D93E817F907D9F7780186
:104F000083E0E80EF11CB701CE010E94B923FE0137
:104F1000EE0DFF1D9C012F7733272083C00FD11F7B
:104F2000880F892F881F990B91958F7799278C83EC
:104F30000B5F1F4FC801DF91CF911F910F91FF9021
:104F4000EF900895EF92FF920F931F93CF93DF930B
:104F5000CDB7DEB7A0970FB6F894DEBF0FBECDBFBA
:104F60007C01CE0101960E946927D701ED91FC9149
:104F70000280F381E02DAC01BE016F5F7F4FC7015E
:104F80001995A0960FB6F894DEBF0FBECDBFDF9186
:104F9000CF911F910F91FF90EF9008950F931F9362
:104FA000FC01CB01642FA901028113819F012C5FB9
:104FB0003F4F0E94A2271F910F910895FC0171831A
:104FC000608322833383448355830895FC01718376
:104FD0006083460F571F538342830895FC01A081CD
:104FE000B18182819381A817B90739F08D91B1837E
:104FF000A083FB01808381E0089580E00895AF9253
:10500000BF92CF92DF92EF92FF920F931F93CF93B5
:10501000DF931F92CDB7DEB75C0100E010E0C12C3A
:10502000D12C7601BE016F5F7F4FC5010E94EE2734
:105030008823C9F02981822F8F7390E0A0E0B0E02F
:10504000002E04C0880F991FAA1FBB1F0A94D2F715
:10505000C82AD92AEA2AFB2A26FF05C00A5F1F4F61
:105060000E311105F9F697018601369527951795AA
:105070000795C0FE07C030952095109501951F4FEC
:105080002F4F3F4FB801C9010F90DF91CF911F9172
:105090000F91FF90EF90DF90CF90BF90AF90089569
:1050A000FC011182108212820895CF93DF93EC01EC
:1050B00067FD03C08A81882319F0198218821A8239
:1050C000888199818032910538F4FE01E80FF91F3B
:1050D000638301969983888368817981653071053E
:1050E000A0F08B8187FF11C09B01255031098D8174
:1050F00090E02817390749F4CE0103960E94B9239E
:105100008E37904311F481E08A83DF91CF91089527
:105110000F931F93CF93DF93EC018B010E945028D4
:105120001CA30BA3DF91CF911F910F910895CF93F3
:10513000DF93EC018BA19CA1DC01ED91FC91068039
:10514000F781E02D199597FD09C0682FCE010E94C7
:1051500055288A81882371F381E001C080E0DF91C6
:10516000CF910895FC01108215821482138212825D
:105170001182168217821086118608950C94B22827
:10518000CF93DF93EC010E94B22881E088838A8369
:105190004EEF5FEF6FEF7FEF4E835F836887798716
:1051A000CE01DF91CF9108950F931F93CF93DF939B
:1051B00000D01F92CDB7DEB78C01CE0101960E94C0
:1051C000E627B8016F5F7F4FCE0101960E94EE2760
:1051D000811102C080E043C0B8016E5F7F4FCE01F5
:1051E00001960E94EE278823A9F3F801828184FDAD
:1051F00005C0F801828186FD15C00AC0B8016D5F47
:105200007F4FCE0101960E94EE278111F2CFE2CFAF
:10521000B8016B5F7F4FCE0101960E94EE27882375
:10522000C9F20AC0B8016C5F7F4FCE0101960E949F
:10523000EE278111EDCFCECFCE0101960E94FF2740
:10524000F8016683778380879187228120FF06C0DB
:1052500016161706180619060CF0BCCF81E00F9041
:105260000F900F900F90DF91CF911F910F910895A4
:105270000F931F93CF93DF9300D01F92CDB7DEB76C
:105280008C014B835C8369837A830E94B2284B81B3
:105290005C8169817A81C8010E94D428882321F029
:1052A00081E0F80180830BC0C8010F900F900F9030
:1052B0000F90DF91CF911F910F910C94B2280F9016
:1052C0000F900F900F90DF91CF911F910F91089544
:1052D0000F931F93CF93DF93EC018C819D81AE815F
:1052E000BF81B7FD14C00E943016088119812A8140
:1052F0003B81601B710B820B930B41E00C811D8184
:105300002E813F81601771078207930708F440E000
:10531000842FDF91CF911F910F9108950F931F93C9
:10532000CF93DF93EC018C819D81AE81BF81B7FD6E
:105330000EC00E9430160C811D812E813F81601BA2
:10534000710B820B930B688379838A839B83DF9134
:10535000CF911F910F910895CF93DF93EC010E949D
:105360003016688379838A839B83DF91CF91089578
:10537000FC0144835583668377830C94AC290F9397
:105380001F93CF93DF93EC018C859D850E94511470
:105390008A859B850E9451148E859F850E94511499
:1053A00000E010E00BC0F801EE0FFF1FE80FF91F3F
:1053B000808191810E9451140F5F1F4F2A893B8980
:1053C0008A819B810217130774F3DF91CF911F919C
:1053D0000F910C94511422E632E0FC0131832083BA
:1053E0000C94BF29CF93DF93EC010E94EB29CE01EF
:1053F000DF91CF910C94D215CF92DF92EF92FF9272
:105400000F931F93CF93DF93EC01888D998D0E94AA
:10541000CB138E879F878C899D890E94CB138A87A7
:105420009B878E899F890E94CB13FC019D878C8767
:105430001F821E82198618861082EA85FB851082DB
:10544000EE85FF8510828A899B89880F991F0E94AB
:10545000CB138A839B8300E010E018C06801CC0C5A
:10546000DD1CEA80FB80EC0CFD1C81E090E00E94DA
:10547000CB13F70180839183EA81FB81EC0DFD1D45
:105480000190F081E02D10820F5F1F4F8A899B8968
:10549000081719071CF3DF91CF911F910F91FF900F
:1054A000EF90DF90CF900895EF92FF920F931F93AC
:1054B000FC0182E692E09183808385E090E0958311
:1054C0008483718B608B538B428B358B248B178B32
:1054D000068BF18EE08E128E148E138ECF011F91EB
:1054E0000F91FF90EF900C94FC29CF93DF93DA019A
:1054F0000D900020E9F71197A41BB50BC62FD72FED
:10550000FE0101900020E9F73197EC1BFD0BAE176F
:10551000BF0771F4FB01EA01AE0FBF1F04C09191F8
:105520008991981305C0EA17FB07C9F781E001C00C
:1055300080E0DF91CF910895AF92BF92CF92DF923A
:10554000EF92FF920F931F93CF93DF93EC01D62E30
:10555000C72EAA88BB8800E010E038C07801EE0CA6
:10556000FF1C4E855F85E889F989EE0DFF1D60817E
:105570007181CE010E94752A882331F1ED2DFC2D19
:10558000DF010D900020E9F7BD010A811B810E0D9E
:105590001F1D6E1B7F0BF801808191810E94F0140A
:1055A000D8018C9311969C93EA81FB81EE0DFF1D2F
:1055B0006D2D7C2D808191810E9475588B8D9C8DE5
:1055C00001969C8F8B8F05C00F5F1F4F0A151B051F
:1055D0002CF2DF91CF911F910F91FF90EF90DF9010
:1055E000CF90BF90AF900895FC0186859785FC0110
:1055F00001900020E9F73197E81BF90B79F009C019
:10560000DC01AE0FBF1F2C912E3231F020532A3017
:1056100028F43197F7FFF4CF81E0089580E00895F2
:105620005F926F927F928F929F92AF92BF92CF9232
:10563000DF92EF92FF920F931F93CF93DF93FC01C2
:1056400006851785E80109900020E9F72197C01B1E
:10565000D10B0E94F42A882309F448C02197E12C39
:10566000F12CA12CB12C40C0F801EC0FFD1F508093
:10567000FEE25F16F1F1B701882777FD8095982F3C
:105680000E94E3539B01AC0160E070E080E291E492
:105690000E94B2553B016C01B501882777FD8095CA
:1056A000982F0E94E3534B015C01652D772767FD1E
:1056B000709560537109882777FD8095982F0E9417
:1056C000E353262D372D4C2D5D2D0E944F559B0108
:1056D000AC01C501B4010E947B520E94B0535B0132
:1056E00021978FEFE81AF80AD7FFBECFAA24AA9411
:1056F000BA2CC501DF91CF911F910F91FF90EF90D0
:10570000DF90CF90BF90AF909F908F907F906F90E1
:105710005F900895EF92FF920F931F93CF93DF93C3
:1057200000D01F921F92CDB7DEB78C010E94102BC4
:105730008F3F2FEF920709F461C0D8011E96EC91BC
:105740001E971F96FC91DF010D900020E9F77D0167
:1057500021E0E21AF108EE1AFF0A01969F938F9357
:105760008BE592E09F938F93CE0101969F938F9349
:105770000E94925931E0E31AF1080F900F900F90B8
:105780000F900F900F9038C0D8011E96ED91FC91AC
:105790001F97EE0DFF1D80818E3259F5B2E0EB0EA2
:1057A000F11C80E090E0AE014F5F5F4F17C0F80141
:1057B000208D318DE216F30668F4FA01E80FF91F27
:1057C0002081D8011E96ED91FC911F97EE0DFF1DD3
:1057D000319720830196BFEFEB1AFB0AFA01019083
:1057E0000020E9F73197E41BF50BE817F907F8F605
:1057F00005C0E1E0EE1AF108F7FEC6CF0F900F905A
:105800000F900F900F90DF91CF911F910F91FF900C
:10581000EF900895EF92FF920F931F93CF93DF9332
:105820008C017B01EA0168817981FC014481558109
:10583000640F751FC7010E94F014692F282F392F9C
:105840002115310559F048815981F80184819581EC
:10585000480F591F59834883E22EF62EC701DF9166
:10586000CF911F910F91FF90EF900895CF93DF9309
:10587000DA010D900020E9F71197A41BB50BC62F94
:10588000D72FFE0101900020E9F73197EC1BFD0BAB
:10589000EA17FB0770F0FB01EA01AE0FBF1F04C05F
:1058A00091918991981305C0EA17FB07C9F781E028
:1058B00001C080E0DF91CF910895CF92DF92EF9207
:1058C000FF920F931F93CF93DF938C016B01DC0149
:1058D0005296ED90FC905397C0E0D0E013C0CE01FB
:1058E000880F991FD8015096ED91FC915197E80FC0
:1058F000F91F60817181A601C8010E94362C8111B7
:1059000006C02196CE15DF0554F380E001C081E08A
:10591000DF91CF911F910F91FF90EF90DF90CF908B
:105920000895CF93DF93EC014E855F85FA010190D6
:105930000020E9F7E41BF50B32970AC0CA018E0F6D
:105940009F1FDC012C912E3211F41C9205C031975F
:10595000F7FFF4CFFA0110826E857F85CE010E9499
:105960005D2C91E098279A8FDF91CF910895FB01EC
:1059700001900020E9F73197E61BF70BE217F307D8
:1059800034F4E60FF71F4083118281E0089580E030
:1059900008951F93CF93DF93EC01162F6A857B85C3
:1059A000FB01DF010D900020E9F7AE1BBF0B8C89D6
:1059B0009D898A179B0740F4AE014C5E5F4FCE0174
:1059C0000E940A2C9B878A872C893D896A857B8562
:1059D000412FCE01DF91CF911F910C94B72C1F93D3
:1059E000CF93DF93EC01162F6C857D85FB01DF01E2
:1059F0000D900020E9F7AE1BBF0B8E899F898A1797
:105A00009B0740F4AE014A5E5F4FCE010E940A2C14
:105A10009D878C872E893F896C857D85412FCE019E
:105A2000DF91CF911F910C94B72C1F93CF93DF93ED
:105A3000EC01162F6E857F85FB01DF010D900020A4
:105A4000E9F7AE1BBF0B888D998D8A179B0740F431
:105A5000AE01485E5F4FCE010E940A2C9F878E8761
:105A6000288D398D6E857F85412FCE01DF91CF91B5
:105A70001F910C94B72CEF92FF920F931F93CF932B
:105A8000DF93EC018B01FB018081882381F1AE85DE
:105A9000BF85FD0101900020E9F73197EA1BFB0B60
:105AA0001E161F0614F078010DC06EE2CE010E9492
:105AB000152D8111F8CF1BC0F70161917F01CE0137
:105AC0000E94152DF80101900020E9F73197E01BA5
:105AD000F10BC701801B910B8E179F0768F36E8532
