:100000000C944A010C94160A0C94470A0C94780A32
:100010000C94A90A0C94DA0A0C940B0B0C943C0B6C
:100020000C946D0B0C947B010C947B010C947B0164
:100030000C947B010C947B010C947B010C945D214E
:100040000C947B010C947B010C947B010C947B0140
:100050000C947B010C947B010C947B010C94A315F4
:100060000C947B010C947F020C946F030C947B0125
:100070000C947B010C947B010C947B010C947B0110
:100080000C947B010C947B010C947B010C947B0100
:100090000C94B3020C94AE030C947B010C947B0182
:1000A0000C947B010C947B010C947B010C947B01E0
:1000B0000C947B010C947B010C94ED220C9459223E
:1000C0000C944F230C947B010C947B010C94E7025D
:1000D0000C94ED030C947B010C941B030C942C04E6
:1000E0000C947B01084AD73B3BCE016E84BCBFFD1C
:1000F000C12F3D6C74319ABD56833DDA3D00C77FF8
:1001000011BED9E4BB4C3E916BAAAABE0000008090
:100110003F05A84CCDB2D44EB93836A9020C50B91F
:10012000918688083CA6AAAA2ABE000000803F004B
:1001300000090A02080B0C0D070603040100000069
:1001400000000000000000000000000000000000AF
:10015000000000000000000000000011100F00006F
:10016000000000000000000000000000000000008F
:10017000000000000001021020200808102040109C
:10018000204080020102010804020101020408105B
:100190002040808040201008040201800402018079
:1001A00040201008040201080402010102040810A2
:1001B0002040800102040810204080050505050745
:1001C0000508080808020202020A0A0808040404D2
:1001D00004010101010101010103030303030303FE
:1001E00003040707070C0C0C0C0C0C0C0C0202028D
:1001F0000206060606060606060B0B0B0B0B0B0B80
:100200000B000020002300260029002C002F0032C4
:100210000000010000030106010901000022002581
:100220000028002B002E00310034000201000005E0
:100230000108010B0100002100240027002A002DE5
:10024000003000330001010000040107010A0149E8
:100250004E46494E4954594E414E0000204100003F
:10026000C84200401C4620BCBE4CCA1B0E5AAEC53C
:100270009D74CDCCCC3D0AD7233C17B7D13877CC71
:100280002B329595E6241FB14F0AEE345E39703F4C
:10029000973F543511241FBECFEFD1E2DEBFCDBF53
:1002A00000E00CBF17E0A0E0B2E0EAE2F1E900E014
:1002B0000BBF02C007900D92A233B107D9F714E12A
:1002C000A2E3B7E001C01D92A93CB107E1F712E03B
:1002D000C2E9D2E000E006C022970109FE010BBF8F
:1002E0000E942845CA38D10780E00807A9F70E9474
:1002F000E3400C9483480C940000FC0184859585B0
:10030000FC01E058FF4F20813181FC01EE57FF4F87
:1003100080819181281B390B2F773327C9010895DC
:10032000FC0186859785FC01E058FF4F20813181D3
:10033000FC01EE57FF4F408151812F5F3F4F2F77D8
:10034000332781E02417350709F480E00895FC0184
:1003500084859585FC01E058FF4F40815181FC0167
:10036000EE57FF4F208131814217530741F0019032
:10037000F081E02DE80FF91F208130E002C02FEF5F
:100380003FEFC9010895FC0184859585FC01E05883
:10039000FF4F40815181FC01EE57FF4F2081318199
:1003A0004217530781F0A081B181A80FB91F8C912A
:1003B000208131812F5F3F4F2F7733273183208377
:1003C000282F30E002C02FEF3FEFC9010895FC0154
:1003D00081A1882329F0A489B5898C9186FFFBCF60
:1003E00011A20895CF93DF93FC0126853785D901AB
:1003F000A058BF4F8D919C91119701968F779927A7
:10040000E901CE57DF4F4881598184179507D9F309
:100410000D90BC91A02DA20FB31F6C93A685B7853C
:10042000A058BF4F11969C938E93A689B7892C91A3
:1004300081E090E0078C02C0880F991F0A94E2F7D0
:10044000282B2C9381E081A30488F589E02D8081FD
:100450008064808381E090E0DF91CF910895EF92F6
:10046000FF920F931F93CF93DF93FC01268537856F
:10047000D901A058BF4F8D919C91119701968F770C
:10048000992789010E571F4FE801E880F9808E15E2
:100490009F05D1F30D90BC91A02DA20FB31F6C93BB
:1004A000A685B785A058BF4F11969C938E93A689B9
:1004B000B7898C91442311F0816001C08E7F8C93A9
:1004C000A689B7892C9181E090E0078C02C0880F43
:1004D000991F0A94E2F7282B2C9381E081A30488CA
:1004E000F589E02D80818064808381E090E0DF9158
:1004F000CF911F910F91FF90EF90089508951F9253
:100500000F920FB60F9211240BB60F922F933F93B9
:100510004F935F936F937F938F939F93AF93BF930B
:10052000EF93FF938091C00082FD07C08091C600C9
:1005300066E57BE00E947E3F02C08091C600FF918D
:10054000EF91BF91AF919F918F917F916F915F914B
:100550004F913F912F910F900BBE0F900FBE0F90B8
:100560001F90189508951F920F920FB60F921124A5
:100570000BB60F922F933F934F935F936F937F939D
:100580008F939F93AF93BF93EF93FF938091C80096
:1005900082FD07C08091CE006EE47AE00E947E3F2B
:1005A00002C08091CE00FF91EF91BF91AF919F91DA
:1005B0008F917F916F915F914F913F912F910F900C
:1005C0000BBE0F900FBE0F901F90189508951F92AD
:1005D0000F920FB60F9211240BB60F922F933F93E9
:1005E0004F935F936F937F938F939F93AF93BF933B
:1005F000EF93FF938091D00082FD07C08091D600D9
:1006000066E479E00E947E3F02C08091D600FF91AF
:10061000EF91BF91AF919F918F917F916F915F917A
:100620004F913F912F910F900BBE0F900FBE0F90E7
:100630001F90189508951F920F920FB60F921124D4
:100640000BB60F922F933F934F935F936F937F93CC
:100650008F939F93AF93BF93EF93FF93809130015C
:1006600082FD07C0809136016EE378E00E947E3FF4
:1006700002C080913601FF91EF91BF91AF919F91A0
:100680008F917F916F915F914F913F912F910F903B
:100690000BBE0F900FBE0F901F90189588E997E042
:1006A0000E947D01892B11F00E949D3486E797E01E
:1006B0000E947D01892B11F00E94803184E597E032
:1006C0000E947D01892B11F00E94A73182E397E0FF
:1006D0000E947D01892B11F00C94D43108951F9252
:1006E0000F920FB60F9211240BB60F922F933F93D8
:1006F0008F939F93EF93FF932091520B3091530B65
:100700008091540B9091550B2817390731F4809143
:10071000C1008F7D8093C10014C0E091540BF09113
:10072000550BEE52F54F20818091540B9091550B53
:1007300001968F7799279093550B8093540B2093B4
:10074000C600FF91EF919F918F913F912F910F9054
:100750000BBE0F900FBE0F901F9018951F920F9217
:100760000FB60F9211240BB60F922F933F938F93D6
:100770009F93EF93FF9320914A0A30914B0A809107
:100780004C0A90914D0A2817390731F48091C9001D
:100790008F7D8093C90014C0E0914C0AF0914D0AFE
:1007A000E653F64F208180914C0A90914D0A0196B4
:1007B0008F77992790934D0A80934C0A2093CE000F
:1007C000FF91EF919F918F913F912F910F900BBED1
:1007D0000F900FBE0F901F9018951F920F920FB69B
:1007E0000F9211240BB60F922F933F938F939F93E9
:1007F000EF93FF932091420930914309809144097E
:10080000909145092817390731F48091D1008F7DE7
:100810008093D10014C0E0914409F0914509EE5352
:10082000F74F2081809144099091450901968F7777
:10083000992790934509809344092093D600FF910E
:10084000EF919F918F913F912F910F900BBE0F9041
:100850000FBE0F901F9018951F920F920FB60F9218
:1008600011240BB60F922F933F938F939F93EF9387
:10087000FF9320913A0830913B0880913C08909179
:100880003D082817390731F4809131018F7D80931D
:10089000310114C0E0913C08F0913D08E654F84F56
:1008A000208180913C0890913D0801968F7799278F
:1008B00090933D0880933C0820933601FF91EF917F
:1008C0009F918F913F912F910F900BBE0F900FBE74
:1008D0000F901F9018958F929F92AF92BF92CF92D8
:1008E000DF92EF92FF920F931F93CF93DF93CDB7D9
:1008F000DEB7FC011382128288EE93E0A0E0B0E044
:1009000084839583A683B78386E197E09183808370
:100910007587648757874687318B208B138B028BB3
:10092000F58AE48AD78AC68AB18EA08E938E828E8B
:100930008889848F8989858F8A89868F8B89878F1B
:100940008C8980A3DF91CF911F910F91FF90EF9041
:10095000DF90CF90BF90AF909F908F900895CF92EF
:10096000DF92EF92FF92CF93DF93EC016A017B015C
:10097000411581EE580761057105F9F0EC89FD8993
:1009800081E090E008A002C0880F991F0A94E2F766
:10099000808360E079E08DE390E0A70196010E94FA
:1009A000CA44215031094109510956954795379557
:1009B0002795211580E1380798F0EC89FD89108290
:1009C00060E874E88EE190E0A70196010E94CA44B5
:1009D0002150310941095109569547953795279579
:1009E000E889F9893083EA89FB89208319A2EE8995
:1009F000FF89408181E090E09C010C8C02C0220FB5
:100A0000331F0A94E2F7422B4083EE89FF8940812D
:100A10009C010D8C02C0220F331F0A94E2F7422B77
:100A20004083EE89FF8940819C010E8C02C0220F19
:100A3000331F0A94E2F7422B4083EE89FF8920811D
:100A40000F8C02C0880F991F0A94E2F780958223C9
:100A50008083DF91CF91FF90EF90DF90CF9008954A
:100A6000BF92CF92DF92EF92FF92CF93DF93EC0190
:100A70006A017B01B22E411581EE580761057105AF
:100A8000F9F0EC89FD8981E090E008A002C0880FB0
:100A9000991F0A94E2F7808360E079E08DE390E0AB
:100AA000A70196010E94CA44215031094109510908
:100AB0005695479537952795211580E1380798F089
:100AC000EC89FD89108260E874E88EE190E0A7016E
:100AD00096010E94CA442150310941095109569595
:100AE000479537952795E889F9893083EA89FB8905
:100AF000208387E0B8120AC0E88DF98D86E08083F4
:100B0000EE89FF8980818460808308C0EE89FF8937
:100B1000808184708083E88DF98DB082EE89FF89B1
:100B2000408181E090E09C010C8C02C0220F331FB9
:100B30000A94E2F7422B4083EE89FF8940819C01B1
:100B40000D8C02C0220F331F0A94E2F7422B408320
:100B5000EE89FF8940819C010E8C02C0220F331F59
:100B60000A94E2F7422B4083EE89FF8920810F8CA3
:100B700002C0880F991F0A94E2F780958223808330
:100B8000DF91CF91FF90EF90DF90CF90BF900895CD
:100B9000CF93DF93FC0186859785DC01A058BF4F7A
:100BA000EC01CE57DF4F4D915C911197288139812F
:100BB00042175307C1F7A689B7894C9181E090E0AD
:100BC0009C01048C02C0220F331F0A94E2F7209587
:100BD00024232C93A689B7894C919C01058C02C0D3
:100BE000220F331F0A94E2F7209524232C93A68921
:100BF000B7894C919C01068C02C0220F331F0A94C6
:100C0000E2F7209524232C93A689B7892C91078C91
:100C100002C0880F991F0A94E2F7809582238C9373
:100C200084859585FC01EE57FF4F20813181FC01C1
:100C3000E058FF4F31832083DF91CF91089581E009
:100C40000895CF92DF92EF92FF920F931F93CF936D
:100C5000DF936C01EB017A01E60EF71E00E010E075
:100C60000BC06991D601ED91FC910190F081E02DCE
:100C7000C6011995080F191FCE15DF0591F7C80198
:100C8000DF91CF911F910F91FF90EF90DF90CF9068
:100C90000895EF92FF920F931F93CF93DF937C0100
:100CA000EB0100E010E0FE0121966491662351F013
:100CB000F701A081B181ED91FC91C7011995080F51
:100CC000191FF1CFC801DF91CF911F910F91FF90B4
:100CD000EF900895AF92BF92CF92DF92EF92FF9282
:100CE0000F931F93CF93DF937C016B0100E010E023
:100CF000C0E0D0E011C0D701ED91FC91A080B1809F
:100D0000B801C6010E947610682FC701F501199538
:100D1000C80FD91F0F5F1F4FD60114968D919C915C
:100D200015970817190738F3CE01DF91CF911F915E
:100D30000F91FF90EF90DF90CF90BF90AF9008950C
:100D40000C94CD40DC01ED91FC910190F081E02DFF
:100D50001994DB01ED91FC9111970190F081E02D48
:100D6000BC01CD0119940F931F93CF93DF93EC0136
:100D70006DE00E94A2068C016AE0CE010E94A206EC
:100D80009C01200F311FC901DF91CF911F910F915D
:100D900008950F931F93CF93DF93EC010E944906B0
:100DA0008C01CE010E94B3069C01200F311FC901A6
:100DB000DF91CF911F910F9108950F931F93CF93C0
:100DC000DF93EC010E946A068C01CE010E94B306FB
:100DD0009C01200F311FC901DF91CF911F910F910D
:100DE00008950F931F93CF93DF93EC010E94CD40A2
:100DF0008C01CE010E94B3069801280F391FC9014A
:100E0000DF91CF911F910F9108950F931F93CF936F
:100E1000DF93EC010E94A2068C01CE010E94B30672
:100E20009C01200F311FC901DF91CF911F910F91BC
:100E300008950F931F93CF93DF93EC010E94A906AF
:100E40008C01CE010E94B3069C01200F311FC90105
:100E5000DF91CF911F910F9108954F925F926F9202
:100E60007F929F92AF92BF92CF92DF92EF92FF92CA
:100E70000F931F93CF93DF93CDB7DEB7A1970FB634
:100E8000F894DEBF0FBECDBF5C016A017B01922EDC
:100E900019A281E0821710F08AE0982E8E010F5D72
:100EA0001F4F492C512C612C712CC701B601A30195
:100EB00092010E94CA448C2D929E801911240150E7
:100EC00011098A3010F4805D01C0895CF8018083CB
:100ED00069017A01C114D104E104F10431F7B801C8
:100EE000C5010E94CD40A1960FB6F894DEBF0FBE9B
:100EF000CDBFDF91CF911F910F91FF90EF90DF90C9
:100F0000CF90BF90AF909F907F906F905F904F90E9
:100F100008952115310541F4DC01ED91FC9101901A
:100F2000F081E02D642F19940C942D070F931F93DB
:100F3000CF93DF93EC010E9489078C01CE010E94C0
:100F4000B3069C01200F311FC901DF91CF911F9182
:100F50000F9108959A01AB0160E070E00C9489074D
:100F60000F931F93CF93DF93EC019A01AB0160E0E5
:100F700070E00E9489078C01CE010E94B30698019F
:100F8000280F391FC901DF91CF911F910F9108954B
:100F90009A01462F50E060E070E00C9489070F93AF
:100FA0001F93CF93DF93EC019A01462F50E060E04E
:100FB00070E00E9489078C01CE010E94B30698015F
:100FC000280F391FC901DF91CF911F910F9108950B
:100FD000CF92DF92EF92FF920F931F93CF93DF9305
:100FE000EC016A017B012115310579F4E881F98171
:100FF0000190F081E02D642FDF91CF911F910F912F
:10100000FF90EF90DF90CF9019942A30310519F4BA
:1010100077FD0EC02AE0B701A601CE01DF91CF9186
:101020001F910F91FF90EF90DF90CF900C942D07C0
:101030006DE20E94A2068C0144275527BA014C1983
:101040005D096E097F092AE0CE010E942D07080F75
:10105000191FC801DF91CF911F910F91FF90EF9061
:10106000DF90CF9008950F931F93CF93DF93EC0100
:101070000E94E8078C01CE010E94B3069C01200F5C
:10108000311FC901DF91CF911F910F9108959A01EE
:10109000AB01662757FD6095762F0C94E8070F93F8
:1010A0001F93CF93DF93EC019A01AB01662757FDA5
:1010B0006095762F0E94E8078C01CE010E94B3064E
:1010C0009801280F391FC901DF91CF911F910F910E
:1010D00008957F928F929F92AF92BF92CF92DF92AC
:1010E000EF92FF920F931F93CF93DF93EC016A016E
:1010F0007B01122F9A01AB01C701B6010E94734414
:10110000882319F066E277E032C046015701E8947F
:10111000B7F82FEF3FEF4FE75FE7C501B4010E943B
:10112000734481110DC02FEF3FEF4FE75FE7C5011B
:10113000B4010E94B74118161CF46AE277E017C0A8
:101140002FEF3FEF4FE75FE4C701B6010E94BA43BC
:1011500018160CF40AC02FEF3FEF4FE75FECC70102
:10116000B6010E94B74187FF12C06EE277E0CE0160
:10117000DF91CF911F910F91FF90EF90DF90CF9073
:10118000BF90AF909F908F907F900C94CD4020E0C7
:1011900030E0A901C701B6010E94B74187FF0AC02C
:1011A0006DE2CE010E94A2065C01F7FAF094F7F816
:1011B000F09402C0A12CB12C00E060E070E080E06F
:1011C0009FE307C020E030E040E251E40E94BE41CE
:1011D0000F5F0113F7CF262F372F482F592FC70145
:1011E000B6010E94F140762E872E982EC92E0E94BD
:1011F0002B42D62EE72EF82E092F0E9457429B0134
:10120000AC01672D782D892D9C2D0E94F040C62EB3
:10121000972E882E792E2AE04D2D5E2D6F2D702F62
:10122000CE010E942D077C01EA0CFB1C1123B9F1B1
:1012300064EA74E0CE010E94CD40E80EF91E2FC092
:1012400020E030E040E251E46C2D792D882D972D7F
:101250000E94C543762E072F6C019D2D0E942642C9
:101260004B01AA2497FCA094BA2C2AE030E0B501E7
:10127000A401CE010E94E807E80EF91EC501B401E1
:101280000E9459429B01AC01672D702F8C2D9D2D22
:101290000E94F040C62E972E882E792E11501111E3
:1012A000CFCFC701DF91CF911F910F91FF90EF90AA
:1012B000DF90CF90BF90AF909F908F907F900895D8
:1012C0000C9469080F931F93CF93DF93EC010E9456
:1012D00069088C01CE010E94B3069801280F391FBE
:1012E000C901DF91CF911F910F910895883008F0C7
:1012F00073C0E82FF0E0EE0FFF1FE652F44F71834A
:101300006083843011F130F4823059F090F48130F0
:10131000B1F53DC0863009F446C020F1873079F53B
:101320004FC0809169008C7F842B80936900E89A7C
:10133000089580916900440F551F440F551F837F06
:10134000842B80936900E99A08958091690074E084
:10135000440F551F7A95E1F78F7C842B80936900A9
:10136000EA9A08958091690066E0440F551F6A95D6
:10137000E1F78F73842B80936900EB9A0895809135
:101380006A008C7F842B80936A00EC9A0895809188
:101390006A00440F551F440F551F837F842B809391
:1013A0006A00ED9A089580916A0024E0440F551F69
:1013B0002A95E1F78F7C842B80936A00EE9A08953A
:1013C00080916A0096E0440F551F9A95E1F78F735C
:1013D000842B80936A00EF9A0895883030F584302A
:1013E00089F030F4823051F058F4813079F410C033
:1013F000863081F048F0873049F40EC0E8980DC07F
:10140000E9980BC0EA9809C0EB9807C0EC9805C0B2
:10141000ED9803C0EE9801C0EF98E82FF0E0EE0FD2
:10142000FF1FE652F44F1182108208951F920F920F
:101430000FB60F9211240BB60F922F933F934F9339
:101440005F936F937F938F939F93AF93BF93EF932C
:10145000FF938091DE0B9091DF0B892B29F0E091B7
:10146000DE0BF091DF0B1995FF91EF91BF91AF91DA
:101470009F918F917F916F915F914F913F912F91AC
:101480000F900BBE0F900FBE0F901F9018951F92DC
:101490000F920FB60F9211240BB60F922F933F931A
:1014A0004F935F936F937F938F939F93AF93BF936C
:1014B000EF93FF938091E00B9091E10B892B29F042
:1014C000E091E00BF091E10B1995FF91EF91BF9145
:1014D000AF919F918F917F916F915F914F913F91CC
:1014E0002F910F900BBE0F900FBE0F901F9018956D
:1014F0001F920F920FB60F9211240BB60F922F93DB
:101500003F934F935F936F937F938F939F93AF938B
:10151000BF93EF93FF938091E20B9091E30B892BA4
:1015200029F0E091E20BF091E30B1995FF91EF9117
:10153000BF91AF919F918F917F916F915F914F91EB
:101540003F912F910F900BBE0F900FBE0F901F90E9
:1015500018951F920F920FB60F9211240BB60F928F
:101560002F933F934F935F936F937F938F939F93AB
:10157000AF93BF93EF93FF938091E40B9091E50BB2
:10158000892B29F0E091E40BF091E50B1995FF917F
:10159000EF91BF91AF919F918F917F916F915F91EB
:1015A0004F913F912F910F900BBE0F900FBE0F9058
:1015B0001F9018951F920F920FB60F9211240BB621
:1015C0000F922F933F934F935F936F937F938F93DC
:1015D0009F93AF93BF93EF93FF938091DA0B90911A
:1015E000DB0B892B29F0E091DA0BF091DB0B1995DD
:1015F000FF91EF91BF91AF919F918F917F916F91EB
:101600005F914F913F912F910F900BBE0F900FBEA6
:101610000F901F9018951F920F920FB60F921124E2
:101620000BB60F922F933F934F935F936F937F93DC
:101630008F939F93AF93BF93EF93FF938091DC0BB6
:101640009091DD0B892B29F0E091DC0BF091DD0B03
:101650001995FF91EF91BF91AF919F918F917F91DC
:101660006F915F914F913F912F910F900BBE0F9013
:101670000FBE0F901F9018951F920F920FB60F92EA
:1016800011240BB60F922F933F934F935F936F9359
:101690007F938F939F93AF93BF93EF93FF9380912B
:1016A000E60B9091E70B892B29F0E091E60BF09186
:1016B000E70B1995FF91EF91BF91AF919F918F919A
:1016C0007F916F915F914F913F912F910F900BBE42
:1016D0000F900FBE0F901F9018951F920F920FB68C
:1016E0000F9211240BB60F922F933F934F935F935A
:1016F0006F937F938F939F93AF93BF93EF93FF93DA
:101700008091E80B9091E90B892B29F0E091E80B8F
:10171000F091E90B1995FF91EF91BF91AF919F91D6
:101720008F917F916F915F914F913F912F910F908A
:101730000BBE0F900FBE0F901F901895FC0180817B
:1017400091810C940E14CF93DF93EC0188819981E1
:10175000009711F00E940E14198218821D821C82BB
:101760001B821A82DF91CF9108950F931F93CF931D
:10177000DF93EC018B016F5F7F4F888199810E941D
:10178000AD14009731F0998388831B830A8381E02D
:1017900001C080E0DF91CF911F910F910895CF9309
:1017A000DF93EC0188819981892B31F08A819B81BB
:1017B0008617970708F00CC0CE010E94B50B88234E
:1017C00049F08C819D81892B19F4E881F98110827F
:1017D00081E001C080E0DF91CF910895EF92FF9208
:1017E0000F931F93CF93DF93EC017B018A01BA0122
:1017F0000E94CF0B811104C0CE010E94A30B07C031
:101800001D830C83B701888199810E94C045CE0158
:10181000DF91CF911F910F91FF90EF900895DC0120
:1018200011961C921E9213961C921E921297159658
:101830001C921E92149716961C926115710559F010
:10184000DB010D900020E9F7AD0141505109461B25
:10185000570B0C94EE0B0895CF93DF93EC01FB0133
:101860008617970761F0608171816115710529F014
:10187000448155810E94EE0B02C00E94A30BCE0151
:10188000DF91CF910895FC011182108213821282A0
:101890001582148216820C942C0CCF93DF93D82FD0
:1018A000C92F6115710561F0DB010D900020E9F78A
:1018B000AD0141505109461B570B0E94EE0B02C06F
:1018C0000E94A30B8D2F9C2FDF91CF9108950F9332
:1018D0001F93CF93DF93CDB7DEB7A1970FB6F894E0
:1018E000DEBF0FBECDBF8C01CB01BA01F801118262
:1018F00010821382128215821482168230E0AE01A9
:101900004F5F5F4F0E94A246BE016F5F7F4FC801CD
:101910000E944D0CA1960FB6F894DEBF0FBECDBF4E
:10192000DF91CF911F910F9108950F931F93CF9344
:10193000DF93CDB7DEB7A2970FB6F894DEBF0FBE28
:10194000CDBF8C01CB01BA01F80111821082138244
:10195000128215821482168230E0AE014F5F5F4F13
:101960000E945146BE016F5F7F4FC8010E944D0C1F
:10197000A2960FB6F894DEBF0FBECDBFDF91CF9118
:101980001F910F9108950F931F93CF93DF93CDB7BE
:10199000DEB761970FB6F894DEBF0FBECDBF8C01E6
:1019A000CB01F801118210821382128215821482F7
:1019B000168250E0BE016F5F7F4F0E94C746BE0196
:1019C0006F5F7F4FC8010E944D0C61960FB6F8946F
:1019D000DEBF0FBECDBFDF91CF911F910F91089554
:1019E0000F931F93CF93DF93CDB7DEB762970FB6F8
:1019F000F894DEBF0FBECDBF8C01CB01F801118280
:101A000010821382128215821482168250E0BE0167
:101A10006F5F7F4F0E943046BE016F5F7F4FC801EE
:101A20000E944D0C62960FB6F894DEBF0FBECDBF7C
:101A3000DF91CF911F910F9108950F931F93CF9333
:101A4000DF93CDB7DEB729970FB6F894DEBF0FBE90
:101A5000CDBF8C01862FF801118210821382128271
:101A600015821482168250E0BE016F5F7F4F90E0B6
:101A70000E94C746BE016F5F7F4FC8010E944D0C98
:101A800029960FB6F894DEBF0FBECDBFDF91CF9180
:101A90001F910F910895CF93DF931F921F92CDB79F
:101AA000DEB7FC0111821082138212821582148229
:101AB000168269831A82BE016F5F7F4F0E944D0CB0
:101AC0000F900F90DF91CF910895EF92FF920F93B7
:101AD0001F93CF93DF93EC017B010C811D81611576
:101AE000710511F480E016C04115510591F0040F05
:101AF000151FB8010E94CF0B8823A1F328813981DB
:101B00008C819D81B701820F931F0E94C0451D8368
:101B10000C8381E0DF91CF911F910F91FF90EF90A7
:101B20000895FB0144815581608171810C94650D9C
:101B30006115710559F0DB010D900020E9F7AD0149
:101B400041505109461B570B0C94650D80E00895D8
:101B5000CF93DF931F921F92CDB7DEB769831A82AE
:101B600041E050E0BE016F5F7F4F0E94650D0F9016
:101B70000F90DF91CF910895EF92FF920F931F93F3
:101B8000CF93DF9300D01F92CDB7DEB77C01862FB5
:101B90004AE050E08E010F5F1F4FB80190E00E94B5
:101BA0003046F80101900020E9F7AF01415051099A
:101BB000401B510BB801C7010E94650D0F900F909B
:101BC0000F900F90DF91CF911F910F91FF90EF90A9
:101BD0000895EF92FF920F931F93CF93DF93CDB7AA
:101BE000DEB727970FB6F894DEBF0FBECDBF7C01DE
:101BF000CB014AE050E08E010F5F1F4FB8010E94F9
:101C00003046F80101900020E9F7AF014150510939
:101C1000401B510BB801C7010E94650D27960FB6F6
:101C2000F894DEBF0FBECDBFDF91CF911F910F9112
:101C3000FF90EF900895EF92FF920F931F93CF9331
:101C4000DF9300D000D0CDB7DEB77C01CB014AE0F6
:101C500050E08E010F5F1F4FB8010E94C746F80188
:101C600001900020E9F7AF0141505109401B510B91
:101C7000B801C7010E94650D26960FB6F894DEBF25
:101C80000FBECDBFDF91CF911F910F91FF90EF90CD
:101C90000895EF92FF920F931F93CF93DF93CDB7E9
:101CA000DEB72C970FB6F894DEBF0FBECDBF7C0118
:101CB000CB01BA012AE030E08E010F5F1F4FA8016F
:101CC0000E945146F80101900020E9F7AF01415010
:101CD0005109401B510BB801C7010E94650D2C969C
:101CE0000FB6F894DEBF0FBECDBFDF91CF911F912D
:101CF0000F91FF90EF900895EF92FF920F931F9333
:101D0000CF93DF93CDB7DEB72B970FB6F894DEBF36
:101D10000FBECDBF7C01CB01BA012AE030E08E01BD
:101D20000F5F1F4FA8010E94A246F80101900020FA
:101D3000E9F7AF0141505109401B510BB801C701F0
:101D40000E94650D2B960FB6F894DEBF0FBECDBF77
:101D5000DF91CF911F910F91FF90EF900895CF9356
:101D6000DF93D82FC92FFB01448155816081718198
:101D70000E94650D811104C08D2F9C2F0E94A30B22
:101D80008D2F9C2FDF91CF910895CF93DF93D82F84
:101D9000C92F6115710569F0DB010D900020E9F78D
:101DA000AD0141505109461B570B0E94650D811131
:101DB00004C08D2F9C2F0E94A30B8D2F9C2FDF9191
:101DC000CF910895CF93DF93D82FC92F0E94A80DEC
:101DD000811104C08D2F9C2F0E94A30B8D2F9C2F4F
:101DE000DF91CF910895CF93DF93D82FC92F0E9411
:101DF000BC0D811104C08D2F9C2F0E94A30B8D2F31
:101E00009C2FDF91CF910895CF93DF93D82FC92FC7
:101E10000E94E90D811104C08D2F9C2F0E94A30BFD
:101E20008D2F9C2FDF91CF910895CF93DF93D82FE3
:101E3000C92F0E941B0E811104C08D2F9C2F0E9460
:101E4000A30B8D2F9C2FDF91CF910895CF93DF931C
:101E5000D82FC92F0E94490E811104C08D2F9C2FAD
:101E60000E94A30B8D2F9C2FDF91CF910895CF93CC
:101E7000DF93D82FC92F0E947C0E811104C08D2FB3
:101E80009C2F0E94A30B8D2F9C2FDF91CF91089543
:101E9000CF93DF93DC01ED91FC91EB01A881B98137
:101EA000309711F01097C9F4109759F0EB012C817D
:101EB0003D81232B31F02C9130E031952195310972
:101EC00014C0309781F0DC0114968D919C91159788
:101ED000892B49F0208130E008C0BD01CF01DF919E
:101EE000CF910C94B74520E030E0C901DF91CF914C
:101EF0000895FC0144815581FB01248135814217FD
:101F0000530729F40E94480F21E0892B09F020E0B3
:101F1000822F0895DC0114962D913C911597232B67
:101F200039F481E06115710511F0FB0108C00895D5
:101F3000DC01ED91FC916115710529F481E090813E
:101F4000992349F007C0CF010E94B7459C0181E069
:101F5000232B09F080E008950E94480F892F881FE5
:101F60008827881F08950E94480F21E01816190637
:101F70000CF020E0822F08950E94480F21E01816EF
:101F800019060CF420E0822F08950E94480F892F33
:101F90008095881F8827881F0895EF92FF920F93DE
:101FA0001F93CF93DF938617970709F1FC012481D4
:101FB0003581FB014481558124173507D1F4232B4A
:101FC000B1F0C081D181FC01008111810BC090E092
:101FD0000E947D457C01899190E00E947D45E81634
:101FE000F90639F4F80181918F018111F0CF81E078
:101FF00001C080E0DF91CF911F910F91FF90EF9092
:102000000895FA01DB0114964D915C911597DC015E
:1020100014962D913C911597241B350B2E173F07D5
:1020200090F08D919C91009771F0DB016D917C9106
:102030006115710541F08E0F9F1F0E94C7459C01DD
:1020400081E0232B09F080E00895FC014481558153
:10205000FB01248135814217530720F040E050E016
:102060000C94011080E00895FC0184819581DB01CE
:1020700014964D915C91159784179507A0F02081D7
:1020800031812115310579F06D917C9161157105D2
:1020900051F0841B950B820F931F0E94B7459C0142
:1020A00081E0232B09F080E00895DC0114962D9146
:1020B0003C9115976217730728F4ED91FC91E60F98
:1020C000F71F40830895FC0124813581621773074F
:1020D00020F480819181009729F41092EA0B6AEE36
:1020E0007BE002C0680F791FCB010895FC012481B9
:1020F00035816217730748F480819181009729F038
:10210000FC01E60FF71F8081089580E008950C948C
:1021100076100F931F93CF93DF93EB014115510579
:10212000E9F02097D9F0FC010481158120173107CF
:1021300008F013C041505109021B130B40175107FF
:1021400008F48A01FC0160817181620F731FA8018C
:10215000CE010E94D545C00FD11F1882DF91CF91CB
:102160001F910F910895CF93DF93FC018481958196
:102170004817590770F4C081D18170E0CE01840FF7
:10218000951F0E94AC45009721F09C012C1B3D0B34
:1021900002C02FEF3FEFC901DF91CF91089540E0DA
:1021A00050E00C94B310CF93DF93FC0184819581B0
:1021B0004817590780F4C081D181FB01608171818A
:1021C000CE01840F951F0E94EF45009721F09C01DE
:1021D0002C1B3D0B02C02FEF3FEFC901DF91CF91C8
:1021E000089540E050E00C94D310DF92EF92FF92FC
:1021F0000F931F93CF93DF93EC018C819D81481740
:10220000590718F02FEF3FEF1BC08A010F5F1F4FD8
:10221000E881F981E00FF11FD0801082E880F98019
:1022200070E0C7010E94E445F701E00FF11FD08282
:10223000009741F328813981AC01421B530B9A016D
:10224000C901DF91CF911F910F91FF90EF90DF9027
:102250000895FC0144815581415051090C94F510B9
:10226000AF92BF92CF92DF92EF92FF920F931F93A4
:10227000CF93DF936B018A01FB01448155814115A6
:10228000510569F1FC01248135812115310539F1B0
:102290002417350720F10217130718F089010150A0
:1022A0001109FC01E080F180C701CFEFDFEF57019A
:1022B000A00EB11E10C0F601608171810E94EF4531
:1022C000009779F09C012E193F090217130708F4B3
:1022D0009E010196E901A816B90668F702C0CFEF82
:1022E000DFEFCE01DF91CF911F910F91FF90EF9023
:1022F000DF90CF90BF90AF900895FC01448155814D
:10230000FB0124813581421B530B0C943011BF9289
:10231000CF92DF92EF92FF920F931F93CF93DF93B1
:102320006C017B01EA0189012417350720F48D2F08
:10233000E901042F182F6DE874E0C6010E940F0C0C
:10234000D70114968D919C9115978C179D07C8F015
:102350008017910708F48C01D701ED91FC9111973A
:10236000E00FF11FB08010826D917C916C0F7D1F8A
:10237000C6010E944D0CD701ED91FC91E00FF11FB9
:10238000B082C601DF91CF911F910F91FF90EF9026
:10239000DF90CF90BF900895CF93DF93EC01FB01C6
:1023A000248135810E948711CE01DF91CF9108955C
:1023B000DC01ED91FC91309729F40895861301C05A
:1023C0004083319680818111F9CF08952F923F92F9
:1023D0004F925F926F927F928F929F92AF92BF9235
:1023E000CF92DF92EF92FF920F931F93CF93DF93E1
:1023F0008C015B017A01DC0114964D905C9015977D
:102400004114510409F4E1C0FB016480758061143A
:10241000710409F4DAC0DA011496CD90DC901597B6
:10242000C618D708FC01C081D181C114D104E1F4E0
:1024300011C0D7016C9111967C91119714964D9112
:102440005C911597C8010E949145F701C481D5811F
:10245000C00FD11FD5016D917C91CE010E94EF4537
:102460008C01009731F7B1C0D7FE02C04E012EC0DB
:10247000FB012080318042014DC032016C1A7D0A7F
:10248000A301BE01C4010E949145680C791CD701CB
:102490006C9111967C91119714964D915C911597C2
:1024A000C3010E949145F70184809580860C971C9A
:1024B000D5011496CD91DC911597C40DD51DF80169
:1024C000848195818C0D9D1D95838483D5016D91AB
:1024D0007C91CE010E94EF452C01009771F6BE0160
:1024E000C401DF91CF911F910F91FF90EF90DF908A
:1024F000CF90BF90AF909F908F907F906F905F90A4
:102500004F903F902F900C94C045EC01C60DD71D05
:102510008C0C9D1CB101CE010E94EF450097A9F7DC
:102520008414950409F451C0F801828193818815BF
:10253000990598F4B401C8010E94B50B882309F4E9
:1025400044C00BC097FD41C0AC01B501C8010E9459
:102550003011EC0197FF07C038C0D80114968D9157
:102560009C91159730C0F80180819181D501149616
:102570002D913C9115972C0F3D1F820F931F448185
:102580005581421B530BBC018C0D9D1D0E949A4529
:10259000F801848195818C0D9D1D95838483019024
:1025A000F081E02DE80FF91F1082D8012D913C91A8
:1025B0002C0F3D1FF7016081718144815581C90154
:1025C0000E949145CE010197BDCFDF91CF911F9120
:1025D0000F91FF90EF90DF90CF90BF90AF909F90C2
:1025E0008F907F906F905F904F903F902F900895C5
:1025F000CF93DF93FC01C081D181209729F407C0DC
:1026000090E00E947D45899388818111F9CFDF9107
:10261000CF910895CF93DF93FC01C081D1812097A2
:1026200029F407C090E00E94854589938881811133
:10263000F9CFDF91CF910895AF92BF92CF92DF9201
:10264000EF92FF920F931F93CF93DF936C01DC0106
:10265000ED90FC901197E114F10409F442C0149636
:102660000D911C91159701151105D9F15701E5013F
:10267000BFEFAB1ABB0A888190E00E947545892B99
:10268000B1F7015011090E0D1F1DF801808190E076
:102690000E947545892B69F40F5F1F4F0C1B1D0BA2
:1026A000D60115961C930E931497EC16FD0650F464
:1026B00004C00C171D0790F4EFCFA801BE01C7019D
:1026C0000E949145D601ED91FC91119714968D9140
:1026D0009C911597E80FF91F108203C00150110952
:1026E000D4CFDF91CF911F910F91FF90EF90DF90AA
:1026F000CF90BF90AF900895FC01808191810097A9
:1027000011F00C944E4560E070E080E090E0089598
:102710000F931F93CF93DF938230910510F482E0E3
:1027200090E0E091C514F091C61420E030E0C0E0E4
:10273000D0E023C04081518148175907A8F04817BD
:10274000590761F482819381209719F09B838A83D2
:102750002EC09093C6148093C51429C0211531054D
:1027600029F04217530710F0A90102C0BE01DF0192
:1027700002811381EF019A01F8013097D9F62115F2
:10278000310509F1281B390B2430310590F41296DC
:102790008D919C9113976115710521F0FB01938335
:1027A000828304C09093C6148093C514FD013296B1
:1027B0002FC0FD01E20FF31F819391932250310945
:1027C0002D933C9325C04DB75EB748575109E09112
:1027D0000202F0910302E417F507C0F44E1B5F0BF1
:1027E0004817590798F09C012E5F3F4F4217530737
:1027F00068F02E0F3F1F30930302209302023093A4
:102800000102209300028193919302C0E0E0F0E086
:10281000CF01DF91CF911F910F910895EF92FF9219
:102820000F931F93CF93DF93009709F48FC0DC01C0
:10283000129713961C921E921297E090C514F09076
:10284000C614E114F10489F42D913C911197280FDD
:10285000391F80910202909103028217930789F534
:10286000B0930302A093020271C0E70120E030E0C0
:1028700001C0EA01CA17DB0738F44A815B819E0177
:1028800041155105B1F722C0BC0162507109FB012D
:10289000D383C28300811181AC01400F511F4C17BB
:1028A0005D0761F448815981400F511F4E5F5F4FB2
:1028B000518340834A815B815383428321153105D3
:1028C00029F4B093C614A093C51440C0F901B38392
:1028D000A283E90169917991C60FD71FAC17BD0793
:1028E00079F4DC015E914E91460F571F4E5F5F4FAA
:1028F0005183408312968D919C9113979383828389
:10290000A0E0B0E002C0D7017C01F7018281938191
:102910000097C9F7C701029620813181820F931F6A
:1029200020910202309103022817390779F4109799
:1029300029F41092C6141092C51404C013961C9268
:102940001E921297F0920302E0920202DF91CF9161
:102950001F910F91FF90EF9008958F929F92AF92E9
:10296000BF92CF92DF92EF92FF920F931F93CF937C
:10297000DF93EC01009779F4CB01DF91CF911F91A8
:102980000F91FF90EF90DF90CF90BF90AF909F900E
:102990008F900C948813DC01A60FB71FFC013297AF
:1029A000AE17BF0718F4C0E0D0E0A7C000811181C6
:1029B00006171707B0F00530110508F49EC0C801CE
:1029C00004978617970708F498C002501109061B50
:1029D000170B0D931D9371836083CD010E940E141C
:1029E0008CC07B01E01AF10A5C01A00EB11EE091DF
:1029F000C514F091C614812C912C80E090E04CC05D
:102A0000EA15FB05F1F5408151816A0122E0C20E11
:102A1000D11CCE14DF04A8F19A012E193F097901C7
:102A2000690132E0C30ED11C2EEFA22EBB24BA9452
:102A3000AC0EBD1E25E0C216D10478F04281538150
:102A400013965C934E9312971196FC92EE92F501B9
:102A5000718360833A2F2B2F09C00E5F1F4F040F25
:102A6000151FD5010D931C9332812381009721F00E
:102A7000FC013283238341C03093C5142093C614D4
:102A80003CC0808191818816990608F44C015281DE
:102A90004381CF01E52FF42F309709F0B1CF80911A
:102AA0000202909103028A159B05C1F486169706CF
:102AB000A8F48DB79EB788579109A817B90708F0F1
:102AC00072CFB0930302A0930202B0930102A093CD
:102AD0000002FE013297718360830FC0CB010E9418
:102AE00088137C01009709F45ECFA801BE010E9403
:102AF0009145CE010E940E14E701CE01DF91CF91E6
:102B00001F910F91FF90EF90DF90CF90BF90AF900B
:102B10009F908F9008950C9488130C9488130C94B4
:102B20000E140C940E1421E030E0FC018081882307
:102B300011F020E030E0C901089521E0FC0120837C
:102B40000895089508951F920F920FB60F921124C1
:102B50002F933F938F939F93AF93BF938091EB0BF2
:102B60009091EC0BA091ED0BB091EE0B3091F30B2B
:102B7000232F2D5F2D3720F40196A11DB11D05C017
:102B8000232F2A570296A11DB11D2093F30B80938A
:102B9000EB0B9093EC0BA093ED0BB093EE0B8091AD
:102BA000EF0B9091F00BA091F10BB091F20B01960D
:102BB000A11DB11D8093EF0B9093F00BA093F10B2F
:102BC000B093F20BBF91AF919F918F913F912F9155
:102BD0000F900FBE0F901F9018950F931F938FB7F4
:102BE000F8940091EB0B1091EC0B2091ED0B3091D0
:102BF000EE0B8FBFB801C9011F910F9108950F937C
:102C00001F939FB7F8940091EF0B1091F00B209158
:102C1000F10B3091F20B86B5A89B06C08F3F21F0D7
:102C20000F5F1F4F2F4F3F4F9FBF322F212F102F6E
:102C30000027080F111D211D311D42E0000F111F3B
:102C4000221F331F4A95D1F7B801C9011F910F9177
:102C50000895CF92DF92EF92FF92CF93DF936B01B3
:102C60007C010E94FF15EB0110C00E9456180E94C3
:102C7000FF156C1B7D0B683E734038F081E0C81A6D
:102C8000D108E108F108C851DC4FC114D104E104B6
:102C9000F10459F7DF91CF91FF90EF90DF90CF9043
:102CA0000895019739F0880F991F880F991F02978F
:102CB0000197F1F70895789484B5826084BD84B556
:102CC000816084BD85B5826085BD85B5816085BD27
:102CD000EEE6F0E0808181608083E1E8F0E0108240
:102CE000808182608083808181608083E0E8F0E081
:102CF000808181608083E1EBF0E08081846080836B
:102D0000E0EBF0E0808181608083E1E9F0E08081A8
:102D100082608083808181608083E0E9F0E080814F
:102D200081608083E1EAF0E080818260808380813D
:102D300081608083E0EAF0E0808181608083E1E26D
:102D4000F1E0808182608083808181608083E0E225
:102D5000F1E0808181608083EAE7F0E08081846037
:102D60008083808182608083808181608083808194
:102D7000806880831092C1000895893009F443C0AF
:102D800088F4843029F138F4823059F1E8F4813044
:102D900009F05EC023C0873061F188F5863009F004
:102DA00057C023C08D3009F440C020F48B30A9F106
:102DB000C0F52DC0803109F442C0813109F443C00F
:102DC0008F3009F045C037C0809180008F7703C0F5
:102DD000809180008F7D80938000089584B58F77E7
:102DE00002C084B58F7D84BD08958091B0008F7737
:102DF00003C08091B0008F7D8093B00008958091D2
:102E000090008F7707C0809190008F7D03C08091E4
:102E10009000877F8093900008958091A0008F7725
:102E200007C08091A0008F7D03C08091A000877FA4
:102E30008093A0000895809120018F7707C0809132
:102E400020018F7D03C080912001877F8093200126
:102E50000895CF93DF9390E0FC01EB58FE4F44912F
:102E6000FC01E554FE4F8491882341F190E0880FE6
:102E7000991FFC01EB5CFD4F25913491D901855ED2
:102E80009D4FFC0185919491C82FD92F9FB7F8943D
:102E90008C91611106C0409584238C938881842392
:102EA00008C0623041F4242F209582238C938881BE
:102EB000842B888302C0842B8C939FBFDF91CF919A
:102EC00008950F931F93CF93DF931F92CDB7DEB773
:102ED000282F30E0F901E15DFE4F8491F901EB58B4
:102EE000FE4F1491F901E554FE4F04910023D1F0F7
:102EF000882321F069830E94BD166981E02FF0E0EC
:102F0000EE0FFF1FE55EFD4F85919491DC019FB7A9
:102F1000F8948C91611103C01095812301C0812B1D
:102F20008C939FBF0F90DF91CF911F910F910895C8
:102F3000CF93DF93282F30E0F901E15DFE4F8491BC
:102F4000F901EB58FE4FD491F901E554FE4FC491BD
:102F5000CC2389F081110E94BD16EC2FF0E0EE0F1A
:102F6000FF1FEF5FFD4F85919491DC018C918D23C4
:102F700021E030E011F420E030E0C901DF91CF9191
:102F800008958F929F92AF92BF92CF92DF92EF926D
:102F9000FF920F931F93CF93DF9390E0FC01EB58C8
:102FA000FE4FD491FC01E554FE4F7491611102C0B3
:102FB000C0E001C0CD2FDA01C901BF70672F70E0FA
:102FC000660F771F6F5F7D4F812C912C5401FB01A1
:102FD0000591149110C0C12CD12C7601C394C80C5A
:102FE000D91CEA1CFB1C88169906AA06BB0609F424
:102FF0004BC046015701F801E081ED23EC1759F36E
:1030000010C0C12CD12C7601C394C80CD91CEA1C69
:10301000FB1C88169906AA06BB06B1F146015701AA
:1030200003C0FB0105911491F801E081ED23EC133D
:10303000E8CF88199909AA09BB0920E030E0A90165
:10304000FB016591749109C0281739074A075B078E
:10305000D9F02F5F3F4F4F4F5F4FFB01E081ED23D2
:10306000EC1791F3A5E1B0E00E948F448B019C0125
:10307000005F1F4F2F4F3F4F84E0369527951795E0
:1030800007958A95D1F703C000E010E09801B801D8
:10309000C901DF91CF911F910F91FF90EF90DF90C9
:1030A000CF90BF90AF909F908F9008950895FC01AE
:1030B000A681B7819D012F5F3F4F84819581408517
:1030C0005185840F951F2817390740F46C93378377
:1030D000268311961C9221E030E002C020E030E00F
:1030E000C9010895FC01A481B581B783A6838085B9
:1030F0009185892B09F01C92089508952F923F9293
:103100004F925F926F927F928F929F92AF92BF92F7
:10311000CF92DF92EF92FF920F931F93CF93DF93A3
:10312000CDB7DEB72A970FB6F894DEBF0FBECDBF7E
:103130009A878987DC01D6968C91882309F4F9C097
:103140000E94ED1569837A838B839C83E985FA85D8
:1031500080A191A129813A81281B390B84A595A5CD
:10316000281739070CF4E5C0028CF38DE02DC080E0
:10317000D180E280F380A985BA855E96ED91FC91BD
:103180005F97A701960160817181828193810E947E
:10319000F0406D837E838F839887E985FA85208947
:1031A0003189428953890E94C543A985BA8594967D
:1031B0002D913D914D915C9197970E94F1401B019B
:1031C0002C01862F932DA42DB52DE985FA8584A396
:1031D00095A3A6A3B7A362A873A804A915A9262D31
:1031E000372D402F512F622D732D842D952D0E9448
:1031F000BA4318165CF4862D972DA02FB12FE985C0
:10320000FA8584A395A3A6A3B7A318C0A985BA85F8
:103210009E968D909D90AD90BC90D197A501940104
:10322000622D732D842D952D0E94B74187FF06C016
:10323000E985FA8584A295A2A6A2B7A2A985BA8536
:103240001C962D913D914D915C911F97BD81AE8152
:10325000BF80A8846B2F7A2F8B2D9A2D0E94C54397
:10326000E985FA8524A135A146A157A10E94F14024
:103270004B015C01A985BA8598962D913D914D91A0
:103280005C919B97C701B6010E94F040E985FA85E1
:1032900024893589468957890E94C5439B01AC0121
:1032A000C501B4010E94F0404B015C01262D372D71
:1032B000402F512F682D792D8A2D9B2D0E94BA43C6
:1032C0001816DCF0A985BA859E966C909E979F96FD
:1032D0007C909F97D0960C91D097D1961C91262DDB
:1032E000372D402F512F682D792D8A2D9B2D0E942F
:1032F000B74187FD02C034018501A985BA855C9676
:10330000ED91FC915D97862D972DA02FB12F808395
:103310009183A283B383E985FA85C0A6D1A6E2A6EC
:10332000F3A689819A81AB81BC8180A391A3A2A3DA
:10333000B3A32A960FB6F894DEBF0FBECDBFDF91C0
:10334000CF911F910F91FF90EF90DF90CF90BF90A2
:10335000AF909F908F907F906F905F904F903F9035
:103360002F9008952F923F924F925F926F927F928B
:103370008F929F92AF92BF92CF92DF92EF92FF9285
:103380000F931F93CF93DF93EC014A015B01280158
:10339000390120E030E0A901C501B4010E94B74124
:1033A00087FD80C020E030E0A901C301B2010E9486
:1033B000B74187FD77C020E030E0A901C701B60121
:1033C0000E94B74187FD6EC088829982AA82BB8223
:1033D0004C825D826E827F82C886D986EA86FB86B1
:1033E0006CA57DA5882777FD8095982F0E9459426E
:1033F00020E030E04AE754E40E94BE411B018C010A
:103400008C869D86AE86BF86762F272F332D402F44
:10341000512FC301B2010E94C5432B013C01862FED
:10342000952DA62DB72D888B998BAA8BBB8B222D22
:10343000332D402F512FC701B6010E94BE417B01A1
:103440008C01862F9F2DA02FB12F8C8B9D8BAE8B47
:10345000BF8B888D998D019729F5A501940160E0B6
:1034600070E0CB010E94F0406C877D878E879F873C
:10347000242D352D462D572D60E070E0CB010E94A4
:10348000F040688B798B8A8B9B8B2E2D3F2D402FA4
:10349000512F60E070E0CB010E94F0406C8B7D8B7F
:1034A0008E8B9F8BDF91CF911F910F91FF90EF90AB
:1034B000DF90CF90BF90AF909F908F907F906F9054
:1034C0005F904F903F902F900895CF92DF92EF92B0
:1034D000FF920F931F93CF93DF93EC018B0116168E
:1034E0001706BCF5882777FD8095982F0E945942D2
:1034F0006B017C016CA57DA5882777FD8095982FB1
:103500000E9459429B01AC01C701B6010E94BE4115
:103510006B017C01762F272F3D2D4E2D5F2D688965
:1035200079898A899B890E94C543688B798B8A8BAC
:103530009B8B2C2D3D2D4E2D5F2D6C897D898E8989
:103540009F890E94BE416C8B7D8B8E8B9F8B1DA7AC
:103550000CA7DF91CF911F910F91FF90EF90DF901B
:10356000CF9008954F925F926F927F928F929F9229
:10357000AF92BF92CF92DF92EF92FF920F931F9381
:10358000CF93DF93EC016A017B0128013901A90186
:103590009801C701B6010E94BA4387FF4FC0CEA66B
:1035A000DFA6E8AAF9AA4AAA5BAA6CAA7DAA8EA9F4
:1035B000882309F443C00C8D1D8DF8018080918013
:1035C000A280B380A3019201C501B4010E94BA4355
:1035D000181634F4F80140825182628273820DC061
:1035E000A7019601C501B4010E94B74187FF05C03C
:1035F000F801C082D182E282F3824CA05DA06EA06D
:103600007FA0CAA8DBA8ECA8FDA8A7019601C3016A
:10361000B2010E94BA4318160CF40CC0CEA4DFA469
:10362000E8A8F9A8A7019601C301B2010E94B74119
:1036300087FF04C0CCA2DDA2EEA2FFA2DF91CF9152
:103640001F910F91FF90EF90DF90CF90BF90AF90C0
:103650009F908F907F906F905F904F9008958F9282
:103660009F92AF92BF92CF92DF92EF92FF92CF9351
:10367000DF93EC01EC8DFD8DC080D180E280F38082
:10368000CCA2DDA2EEA2FFA2EA8DFB8D808191810A
:10369000A281B38188A799A7AAA7BBA78AA89BA83C
:1036A000ACA8BDA8A5019401C701B6010E94BA4308
:1036B00018160CF40CC08EA49FA4A8A8B9A8A50144
:1036C0009401C701B6010E94B74187FF04C08CA2D4
:1036D0009DA2AEA2BFA2DF91CF91FF90EF90DF90AD
:1036E000CF90BF90AF909F908F9008951F93CF93EE
:1036F000DF93EC0111E06130710509F010E08EA953
:1037000091E08927181303C0CE010E942F1B1EAB26
:10371000DF91CF911F9108950F931F93CF93DF9364
:10372000EC018B018EA9882361F1888D998D681732
:10373000790739F12C853D854E855F8560E070E025
:10374000CB010E94F0406C877D878E879F872889F8
:1037500039894A895B8960E070E0CB010E94F040C2
:10376000688B798B8A8B9B8B2C893D894E895F89ED
:1037700060E070E0CB010E94F0406C8B7D8B8E8B03
:103780009F8B198F088FDF91CF911F910F91089513
:103790002F923F924F925F926F927F928F929F9261
:1037A000AF92BF92CF92DF92EF92FF920F931F934F
:1037B000CF93DF93CDB7DEB728970FB6F894DEBF6F
:1037C0000FBECDBF4C017A8369831A013C832B83E2
:1037D00027013801AD82BE82CF82D88600E010E09A
:1037E0002FE733E440E050E0BA010E94B21A84E6C9
:1037F00090E0F40195A784A76AA17BA1C4010E946F
:103800008C1BCE8CDF8CE8A0F9A00D811E812F814E
:103810003885B301A201C4010E94B2190E94ED15BE
:10382000F40144A455A4662457FC6094762C6419D2
:1038300075098609970960A371A382A393A316AAA9
:10384000358E248E89819A81938F828F8B819C8182
:10385000978F868F28960FB6F894DEBF0FBECDBF28
:10386000DF91CF911F910F91FF90EF90DF90CF905C
:10387000BF90AF909F908F907F906F905F904F9090
:103880003F902F9008950F931F93CF93DF93FC01E8
:1038900071836083128213821482158286E5868387
:1038A0001782108611861286138614861586168650
:1038B0001786108A118A128A138A148A158A168A20
:1038C000DF01A754BF4F1D921C92DF01A55ABE4FC6
:1038D0001D921C92DF01A15ABE4F1D921C92DF0166
:1038E000AF59BE4F1D921C92DF01AD59BE4F1D92C4
:1038F0001C92178ADF01A954BF4F1D921C92EF0141
:103900000EE110E08FE090E00E948813FE01E15E7E
:10391000FE4F808391838FE090E00E948813FC012A
:10392000DE01A558BF4F8D939C9310820150110961
:1039300022960115110531F7DF91CF911F910F915B
:103940000895FC015281438134812581652F742FB4
:10395000832F922F0895FC0186810895FC015781E1
:10396000408531852285652F742F832F922F0895EE
:10397000FC015385448535852685652F742F832F5B
:10398000922F0895CF92DF92EF92FF926A017B010E
:10399000FC012785308941895289C701B6010E94FF
:1039A000C543FF90EF90DF90CF900895FC015389BD
:1039B000448935892689652F742F832F922F089586
:1039C0009C01295E3F4FC9010895660F771F680F5C
:1039D000791FFB01E558FF4F8081918108954F9237
:1039E0005F926F927F928F929F92AF92BF92CF928F
:1039F000DF92EF92FF920F931F93CF93DF93FB0120
:103A00001081C1E0D0E01D3221F01B3211F0C0E086
:103A1000D0E0C60FD71F412C3DEC832E4CEC742E0A
:103A20005CEC652E6DE3562E912CA12CB12C00E0A0
:103A3000C12CD12C76014AC0EE3209F445C0FF27D3
:103A4000E7FDF095411015C0AAE0B0E0A70196018E
:103A50000E948F446B017C01BF0160537109CB014F
:103A6000AA2797FDA095BA2FC80ED91EEA1EFB1EE5
:103A70002DC0BF0160537109882777FD8095982F6D
:103A80000E9459429B01AC01682D772D862D952D02
:103A90000E94C5439B01AC01692D7A2D8B2D902F7F
:103AA0000E94F140962EA72EB82E092F20E030E07C
:103AB00040E251E4682D772D862D952D0E94BE4160
:103AC000862E772E682E592E44244394E991E111D5
:103AD000B3CFC701B6010E9459429B01AC01692DC9
:103AE0007A2D8B2D902F0E94F1401D3249F4262F04
:103AF000372F482F592F60E070E0CB010E94F04033
:103B0000DF91CF911F910F91FF90EF90DF90CF90B9
:103B1000BF90AF909F908F907F906F905F904F90ED
:103B200008958F929F92AF92BF92CF92DF92EF92C1
:103B3000FF920F931F93CF93DF93EC01FC01E55AA3
:103B4000FE4F808191818436910584F4FE01E75413
:103B5000FF4F208131812E31310544F4FE01ED59B2
:103B6000FE4F208131812F3031052CF0FE01E15ACA
:103B7000FE4F118210828E01015A1E4F6A3011F0E1
:103B80006D3019F4D8011D921C92643211F5FE01BA
:103B9000E35AFE4F11821082FE01EF59FE4F11824F
:103BA0001082FE01E754FF4F11821082FE01ED5991
:103BB000FE4F11821082FE01E554FF4F6083FE012B
:103BC000E55AFE4F81E090E091838083C15ADE4F39
:103BD000E0C0F801208131812130310571F024F4F9
:103BE000232B09F48BC286C22230310509F48BC025
:103BF0002330310509F07EC2CFC0873091057CF4B7
:103C0000FC01E45FFD4F2081621309C0FE01E35A0D
:103C1000FE4F208131812F5F3F4F31832083FE0192
:103C2000E80FF91FE554FF4F6083FE01E55AFE4F90
:103C30000196918380838E0107541F4FFE01ED5939
:103C4000FE4F6A3219F16C32E1F5D8012D913C91A9
:103C5000C901880F991F8C0F9D1F815E9E4FDC014B
:103C60008D919C9140815181840F951FDC011C92A4
:103C70002F5F3F4FD8012D933C9311821082CF5973
:103C8000DE4F88819981BCE28B2783C0D8012D91BA
:103C90003C91C901880F991F8C0F9D1F815E9E4F1B
:103CA000DC018D919C9140815181840F951FDC0135
:103CB0001C922F5F3F4FD8012D933C9311821082AD
:103CC00063C020813181D8018D919C91880F991F0B
:103CD0008C0F9D1FDC01A15EBE4F0D90BC91A02DED
:103CE000A20FB31F6C932F5F3F4F31832083CF59B7
:103CF000DE4F772767FD709588819981682779273E
:103D000079836883FBC1FE01E80FF91FE554FF4F7B
:103D10006083FE01E55AFE4F019691838083DE01A8
:103D2000AD59BE4F2D913C911197FE01E754FF4FC5
:103D300080819181880F991F8C0F9D1FFC01E15E8E
:103D4000FE4F0190F081E02DE20FF31F60832F5FA3
:103D50003F4F2D933C93FE01EF59FE4F408151811F
:103D6000862F992787FD9095613414F0C79701C07D
:103D7000C0979C01A4E0220F331FAA95E1F7CA0166
:103D8000821B930B91838083C15ADE4F8881998176
:103D9000019699838883B2C19E01280F391FD901EA
:103DA000A554BF4F6C93D901A454BF4F1C92DE01A0
:103DB000A55ABE4F02968D939C939E012D593E4F5E
:103DC000F90140815181DE01A754BF4F8D919C9133
:103DD0001197880F991F8C0F9D1F815E9E4FFC01CC
:103DE00080819181840F951FFC0160834F5F5F4F3D
:103DF000F901518340832D913C911197C901880F9E
:103E0000991F8C0F9D1F815E9E4FFC0180819181C7
:103E1000840F951FFC0110822F5F3F4F2D933C9321
:103E2000D8011D921C92FE01EF59FE4F80819181B5
:103E3000262F332727FD309561341CF02753310995
:103E400002C020533109821B930B91838083892BFD
:103E500009F054C188819981892B39F4FE01E55A12
:103E6000FE4F20813181C90110C0FE01E35AFE4F8F
:103E700080819181069791F341C1FE01E80FF91FFE
:103E8000DF01A554BF4F4C91478B019797FFF5CFAA
:103E9000A90141505109C90137FF02C080E090E0FB
:103EA000FE01E55AFE4F9A01281B390B318320830E
:103EB0008E0109541F4FD8011D921C92B8017E013A
:103EC000B9EBEB0EF11CDE01AD59BE4F31C01196BE
:103ED0001C921E9208C040838D919C91119701966F
:103EE00011969C938E93FB01808191812D913C9141
:103EF0001197880F991F8C0F9D1FAC01415E5E4F7B
:103F0000FA0140815181420F531FFA0140818558C7
:103F10009F4FFC0180819181820F931FFC01411111
:103F2000DACF1082F801808191810196918380839C
:103F3000FB0120813181F7018081918128173907A8
:103F400034F2FE01E35AFE4F80819181069709F019
:103F5000D8C0FE01EF5DFE4F60817181CE010E94ED
:103F6000EF1C6A837B838C839D83FE01ED5DFE4F96
:103F70000190F081E02D80818E83FE01EB5DFE4F8C
:103F800060817181CE010E94EF1C20E030E048EC9E
:103F900052E40E94BE416B017C017D2D9F2D0E9449
:103FA00094424B015C01FE01EB59FE4F608371832B
:103FB000828393839B01AC016C2D7D2D8E2D9F2DD3
:103FC0000E94F04020E030E048EC52E40E94C543FB
:103FD00020E030E040E752E40E94BE41A501940198
:103FE0000E94F1409B01462F532F682F792F4F835A
:103FF000588769877A87FE01E95DFE4F0190F0815D
:10400000E02D4081433559F4482F592F60E070E08E
:10401000CB010E94F0406F83788789879A87FE01E1
:10402000E75DFE4F60817181CE010E94EF1C20E0B0
:1040300030E048EC52E40E94BE416B017C017D2DD2
:104040009F2D0E9494424B015C01FE01EB59FE4FF3
:1040500060837183828393839B01AC016C2D7D2DE2
:104060008E2D9F2D0E94F04020E030E048EC52E47D
:104070000E94C54320E030E040E752E40E94BE4188
:10408000A50194010E94F1409B01462F532F682FF8
:10409000792F4B875C876D877E87FE01E55DFE4F3C
:1040A0000190F081E02D4081473559F4482F592F78
:1040B00060E070E0CB010E94F0406B877C878D87C9
:1040C0009E87FE01E35DFE4F60817181CE010E94FB
:1040D000EF1C6F87788B898B9A8BFE01E15DFE4F19
:1040E00060817181CE010E94EF1C6B8B7C8B8D8B6C
:1040F0009E8B07C0C15ADE4F1982188220E030E043
:1041000002C021E030E0C901DF91CF911F910F91F2
:10411000FF90EF90DF90CF90BF90AF909F908F90E7
:104120000895CF92DF92EF92FF920F931F936B014E
:104130007C01CA01B901C114D104E104F10421F4E4
:10414000C12CD12C7601C394C092FF0BD092000CED
:10415000E092010CF092020C1093FE0B0093FD0B09
:10416000209170002E7F209370002091B0002C7F52
:104170002093B0002091B100277F2093B1002091BF
:10418000B6002F7D2093B600209170002D7F2093E4
:1041900070002091B10024602093B1002091B10003
:1041A0002C7F2093B10020E034E244E75BE40E94DE
:1041B000C54320E030E040E85CE30E94C5430E9434
:1041C000264280E091E0861B970B9093F70B80933B
:1041D000F60B1F910F91FF90EF90DF90CF90089515
:1041E0000F931F938A012FE632E143E85AE30E94BE
:1041F00091201F910F9108951092F90B1092FA0BD4
:104200001092FB0B1092FC0B1092F80B8091F60BA6
:104210009091F70B8093B200E0E7F0E0808181603D
:10422000808308958091F90B9091FA0BA091FB0B7C
:10423000B091FC0B0196A11DB11D8093F90B9093D9
:10424000FA0BA093FB0BB093FC0B8091F90B9091B0
:10425000FA0BA091FB0BB091FC0B4091FF0B50911E
:10426000000C6091010C7091020C84179507A60751
:10427000B70710F18091F80B81111EC081E0809387
:10428000F80B8091F90B9091FA0BA091FB0BB09178
:10429000FC0B841B950BA60BB70B8093F90B90932B
:1042A000FA0BA093FB0BB093FC0BE091FD0BF0918C
:1042B000FE0B19951092F80B08951F920F920FB6EE
:1042C0000F9211240BB60F922F933F934F935F934E
:1042D0006F937F938F939F93AF93BF93EF93FF93CE
:1042E0008091F60B9091F70B8093B2000E941221FF
:1042F000FF91EF91BF91AF919F918F917F916F91BE
:104300005F914F913F912F910F900BBE0F900FBE79
:104310000F901F901895CB010C94DD46CB01642FB4
:104320000C94E5469091A80C8091A70C981769F021
:104330008F5F803508F080E0E82FF0E0E95AF34F16
:1043400020818093A70C30E002C02FEF3FEFC9011E
:1043500008958091A80CE091A70C8E1731F0F0E041
:10436000E95AF34F208130E002C02FEF3FEFC9013F
:1043700008955091A80C4091A70C252F30E0842F70
:1043800090E0541708F002C0205B3F4F281B390B08
:10439000C90108959B01AC012D3A8BE13807410515
:1043A000510530F4109273001092200181E812C080
:1043B00063E056954795379527956A95D1F72D3A3D
:1043C0008BE1380741055105B0F51092730010924A
:1043D000200182E8809321013093AC0C2093AB0C38
:1043E000A5E2B0E00E948F4422E0969587957795EC
:1043F00067952A95D1F77093AE0C6093AD0C62E08F
:1044000080E30E94291761E08EE20E94611761E05B
:104410008EE20E9429171092A90C1092A80C1092FB
:10442000A70C1092560C1092550C1092540C80E26E
:104430008ABB8093730008959091550C9F5F9434CC
:1044400008F090E02091540C2917E1F32FB7F8946D
:104450003091560C332341F0E92FF0E0EC5FF34F3D
:1044600080839093550C1DC091E09093560C8093DF
:10447000AF0C1092B00C82E08ABB80917300826016
:1044800080937300809120018F7380688093200156
:104490008091240190912501409690932901809369
:1044A00028012FBF0895862F0E941C2281E090E0F2
:1044B00008951F920F920FB60F9211240BB60F9210
:1044C0002F933F934F935F936F937F938F939F931C
:1044D000EF93FF934091560C5091AF0C80912801BF
:1044E000909129012091AB0C3091AC0C7091B00CE3
:1044F0001DC0820F931F652F617056954F5F671720
:10450000A9F020912001662311F0206C02C02F73C6
:1045100020682093200190932901809328016093C3
:10452000B00C5093AF0C4093560C3FC0493008F389
:10453000493039F42AE02093560C20912001206C58
:1045400028C02091550CE091540C2E130DC01092F0
:10455000560C809120018F7380932001809173000D
:104560008D7F8093730021C021E02093560CEF5F74
:10457000E43408F0E0E0E093540CF0E0EC5FF34F3B
:1045800020812093AF0C1092B00C209120012F734A
:104590002068209320012091AB0C3091AC0C280FA7
:1045A000391F3093290120932801FF91EF919F91AA
:1045B0008F917F916F915F914F913F912F910F90CC
:1045C0000BBE0F900FBE0F901F9018958091560C48
:1045D0008111FCCF08950C94E6221F920F920FB622
:1045E0000F9211240BB60F922F933F934F938F93FB
:1045F0009F93EF93FF938091260190912701409123
:10460000A90C2091210140FF04C02F7B20932101A0
:104610001BC0206420932101411116C02091AD0CD4
:104620003091AE0C280F391F30932B0120932A01B3
:1046300024E02ABB209173002460209373009093A0
:10464000B20C8093B10C0AC04A3040F4E42FF0E081
:10465000EE0FFF1FEF54F34F918380834F5F409322
:10466000A90C2091240130912501281B390B809140
:10467000AB0C9091AC0C8217930718F481E08093F7
:10468000AA0CFF91EF919F918F914F913F912F91A4
:104690000F900BBE0F900FBE0F901F9018951F929A
:1046A0000F920FB60F9211240BB60F92AF92BF92DA
:1046B000CF92DF92EF92FF920F931F932F933F932E
:1046C0004F935F936F937F938F939F93AF93BF931A
:1046D000CF93DF93EF93FF93809173008B7F809351
:1046E0007300809121018F7B809321011091A80C90
:1046F0001F5F103508F010E08091A70C1817E9F142
:10470000C12FD0E00091A90C0B3008F00AE06091B5
:10471000B10C7091B20C2091AB0C3091AC0CC90172
:1047200096958795820F931F40E050E0E12CDD24A1
:10473000D394FF24FA94E3EBFCE0CC24C39415C09B
:10474000A191B1915D01A61AB70A4A0D5B1D08C07F
:10475000E11003C06D2D6095F622DD0C820F931FD2
:1047600048175907A8F7EC24BD01015049F7FE018D
:10477000E95AF34FF0821093A80C1092A90CFF9104
:10478000EF91DF91CF91BF91AF919F918F917F91E9
:104790006F915F914F913F912F911F910F91FF90DA
:1047A000EF90DF90CF90BF90AF900F900BBE0F9027
:1047B0000FBE0F901F9018958091A70C8093A80CA6
:1047C0000895CF93DF93C3E7D0E088818B7F888300
:1047D00088818F7D88830E94DC230E94E622888165
:1047E0008D7F8883DF91CF91089528E232E0FC012C
:1047F00031832083089528E232E0FC013183208355
:104800000C948F15FC01CB0128E232E03183208328
:1048100073836283148240E050E0BA010E94DA2E72
:1048200061E088E10E94291761E08AE10E9429176E
:1048300061E08CE10E94291761E08EE10C94291758
:10484000CF92DF92EF92FF92CF93DF93EC018A81B8
:104850009B810E94F42F882371F08A819B810E94A2
:104860008B2C6B017C010E94ED1521E0C616D7064A
:10487000E806F90608F020E0822FDF91CF91FF9043
:10488000EF90DF90CF900895CF92DF92EF92FF925A
:10489000CF93DF93EC010E9420248823A9F10E948A
:1048A000ED156B017C018A819B810E94852CC61AC3
:1048B000D70AE80AF90A89EEC81683E0D806E104A7
:1048C000F104C0F16C8188E10E9461176C818AE17A
:1048D0000E9461176C818CE10E9461176C818EE1EE
:1048E0000E9461178C8191E089278C830E94ED15CD
:1048F000AB01BC018A819B81DF91CF91FF90EF904A
:10490000DF90CF900C94DA2E60E088E10E9461176E
:1049100060E08AE10E94611760E08CE10E9461170B
:1049200060E08EE1DF91CF91FF90EF90DF90CF902C
:104930000C946117DF91CF91FF90EF90DF90CF90B3
:104940000895CF92DF92EF92FF92CF93DF93EC0125
:104950008A819B810E94D52E882311F18A819B81B7
:104960000E94A12E18161906DCF48A819B810E94F0
:10497000AD2E6B017C018A819B810E94A12EBC011E
:10498000882777FD8095982F0E9459429B01AC01A2
:10499000C701B6010E94BA43181614F461E001C0C1
:1049A00060E08A819B81DF91CF91FF90EF90DF9053
:1049B000CF900C94293020E332E0FC013183208336
:1049C000089520E332E0FC01318320830C948F159D
:1049D0002F923F924F925F926F927F928F929F920F
:1049E000AF92BF92CF92DF92EF92FF920F931F93FD
:1049F000CF93DF9300D000D0CDB7DEB79E838D83F9
:104A00004A015B0168017901DC0112968D919C914C
:104A100013970E94DD2C9B01AC01C501B4010E94DB
:104A2000F140362E472E582E692EED81FE8182816F
:104A300093810E94DD2C9B01AC01C501B4010E9451
:104A4000F040762E872E982EA92EAD81BE8112962B
:104A50008D919C9113970E94DD2C9B01AC01C701A5
:104A6000B6010E94F140B62E072F182F292EED8196
:104A7000FE81828193810E94DD2C9B01AC01C701E4
:104A8000B6010E94F04069837A838B839C83AD8159
:104A9000BE8112968D919C9113970E94E72C6B0119
:104AA0007C0124E83AEB4CE358E3632D742D852D0B
:104AB000962D0E94F040A70196010E94BA43181655
:104AC00084F4ED81FE81828193810E94C72C9B0139
:104AD000AC01632D742D852D962D0E94B74187FD65
:104AE00088C0AD81BE8112968D919C9113970E94D2
:104AF000C72C6B017C0124E83AEB4CE358E3672DAB
:104B0000782D892D9A2D0E94F140A70196010E94CF
:104B1000B74187FF11C0ED81FE81828193810E94A0
:104B2000E72C9B01AC01672D782D892D9A2D0E94D1
:104B3000BA4318160CF46AC0AD81BE8112968D91ED
:104B40009C9113970E94F12C6B017C0124E83AEBB5
:104B50004CE358E36B2D702F812F922D0E94F04073
:104B6000A70196010E94BA43181684F4ED81FE81D4
:104B7000828193810E949B2C9B01AC016B2D702F35
:104B8000812F922D0E94B74187FD4BC0AD81BE8120
:104B900012968D919C9113970E949B2C6B017C0126
:104BA00024E83AEB4CE358E3F981EA811B810C815C
:104BB0006F2F7E2F812F902F0E94F140A701960129
:104BC0000E94B74187FF60C0ED81FE8182819381A1
:104BD0000E94F12C9B01AC01B981AA811B810C813F
:104BE0006B2F7A2F812F902F0E94BA43181634F121
:104BF0004BC0432D542D652D762DAD81BE8112966F
:104C00008D919C9113970E94102F6BCF472D582D9B
:104C1000692D7A2DED81FE81828193810E94242F5E
:104C20008BCF4B2D502F612F722DAD81BE811296EF
:104C30008D919C9113970E94F42EA8CF39812A81DF
:104C40009B818C81432F522F692F782FED81FE811C
:104C50008281938126960FB6F894DEBF0FBECDBF3A
:104C6000DF91CF911F910F91FF90EF90DF90CF9048
:104C7000BF90AF909F908F907F906F905F904F907C
:104C80003F902F900C942A2F26960FB6F894DEBFF3
:104C90000FBECDBFDF91CF911F910F91FF90EF908D
:104CA000DF90CF90BF90AF909F908F907F906F904C
:104CB0005F904F903F902F9008958F929F92AF9268
:104CC000BF92CF92DF92EF92FF920F931F93CF93F9
:104CD000DF93EC016A017B014801590140E050E09B
:104CE00064EB72E48A819B810E94102F40E050E0C7
:104CF00064EB72EC8A819B810E94242F40E050E09B
:104D000064E373E48A819B810E94F42E40E050E0CA
:104D100064E373EC8A819B810E942A2F8A819B81A4
:104D20000E94D12C2DE93BEF46E157E30E94C54399
:104D3000AB01BC018A819B810E941E2F95018401D9
:104D4000B701A601CE010E94E824DF91CF911F9107
:104D50000F91FF90EF90DF90CF90BF90AF909F901A
:104D60008F900895CF92DF92EF92FF920F931F934F
:104D7000CF93DF93EC018B0180E392E099838883EA
:104D80007B836A83CB010E94B12C6B017C01C8013B
:104D90000E94A52CAB01BC0197018601CE010E94A7
:104DA0005D26DF91CF911F910F91FF90EF90DF90E3
:104DB000CF9008954F925F926F927F928F929F92C1
:104DC000AF92BF92CF92DF92EF92FF920F931F9319
:104DD000CF93DF9300D01F92CDB7DEB74C01FC011B
:104DE000828193810E94CB2E882309F4D3C00E9434
:104DF000ED152B013C01F401828193810E94562E16
:104E0000461A570A680A790AF1EE4F16F3E95F0667
:104E1000F4E06F06710438F0F401828193810E94FE
:104E2000CB2E811184C0F401828193810E94822E55
:104E3000882309F4AFC0F401828193810E946A2E15
:104E40005B016C01F401828193810E945E2E2B0133
:104E50003C01F401828193810E94B12C9B01AC0141
:104E6000F4018281938129833A834B835C830E947E
:104E7000A52C8301720129813A814B815C810E94BA
:104E80008D36AB01BC01F401828193810E94EE2E2C
:104E9000F401828193810E94912C2B013C01F40149
:104EA000828193810E94BD2C9B01AC01C301B201A0
:104EB0000E94BA43181664F4F401828193810E941F
:104EC000912CAB01BC01F401828193810E940A2FD5
:104ED000F401828193810E946A2E2B013C01F4012E
:104EE000828193810E945E2EAB01BC0193018201FD
:104EF000C4010E94E824F401828193810E94CB2E98
:104F0000882371F1F401828193810E94912C2B01FD
:104F10003C01F401828193810E94D12C9B01AC0160
:104F2000C301B2010E94BA43181684F019C040E0D0
:104F300050E0BA01F401828193810E94E02E61E089
:104F4000F401828193810E94EB2E6DCF40E050E00E
:104F5000BA01F401828193810E94E02E61E001C0D8
:104F600060E0F401828193810F900F900F900F9079
:104F7000DF91CF911F910F91FF90EF90DF90CF9035
:104F8000BF90AF909F908F907F906F905F904F9069
:104F90000C94EB2E0F900F900F900F90DF91CF910C
:104FA0001F910F91FF90EF90DF90CF90BF90AF9047
:104FB0009F908F907F906F905F904F900895CF93C8
:104FC000DF93EC018A819B810E945E2EAB01BC01C4
:104FD0008A819B810E94FA2E8A819B810E946A2E7F
:104FE000AB01BC018A819B810E94022F40E050E00E
:104FF000BA018A819B81DF91CF910C940A2F6F9225
:105000007F928F929F92AF92BF92CF92DF92EF9258
:10501000FF920F931F93CF93DF93CDB7DEB7E79740
:105020000FB6F894DEBF0FBECDBF4C018B013C0123
:1050300083E1680E711CC3010E947D18F401128B7C
:10504000018BC8010E94052D20E030E044E354E4C8
:105050000E94F1406B017C01982F4C2D5D2D692F32
:105060007F2DF4014083518362837383C8010E94C2
:10507000232D9B01AC016C2D7D2D8E2D9F2D0E942B
:10508000F140F4016483758386839783C8010E948D
:10509000FB2CF401608771878287938781E0808B86
:1050A000A401485F5F4FB4016C5F7F4F1F928F93E5
:1050B0008FE38F9385E08F938EE18F9388EB8F93AF
:1050C0008AE0A82E87EDB82E83EAC82E8DE3D82E6D
:1050D00016E6E12EFE2C06EE1EE39401CE010196AB
:1050E0000E94C81B87E3FE013196D30101900D9207
:1050F0008A95E1F700E010E024E832E440E050E077
:10510000BA01C3010E94B21A64E670E0C3010E94B2
:10511000651A0F900F900F900F900F900F90E796D9
:105120000FB6F894DEBF0FBECDBFDF91CF911F91B8
:105130000F91FF90EF90DF90CF90BF90AF909F9036
:105140008F907F906F90089508958F929F92AF9265
:10515000BF92CF92DF92EF92FF920F931F93CF9364
:10516000DF93EC0189899A890E9413308E010D5ECC
:105170001F4F882309F4CDC061E070E0C8010E9490
:10518000761B89899A890E94052D20E030E044E34E
:1051900054E40E94F1406B017C01982F4C2D5D2D51
:1051A000692F7F2D488359836A837B8389899A89F4
:1051B0000E94232D9B01AC016C2D7D2D8E2D9F2DEA
:1051C0000E94F1406C837D838E839F83C8010E947F
:1051D0007E182C853D854E855F85688579858A8515
:1051E0009B850E94F040B62FA72F462F572F682F80
:1051F000792F4A015B0120E030E0A9016B2F7A2F63
:105200000E94BA43181624F0B7FAB094B7F8B094D5
:1052100089899A890E944A2EBC01882777FD80954A
:10522000982F0E9459429B01AC01C501B4010E9414
:10523000BA4318160CF07EC08889C884D984EA84E1
:10524000FB848C849D84AE84BF84A5019401882353
:1052500011F1C701B6010E94BA4318160CF421C01F
:10526000A5019401C701B6010E94B74187FF3DC067
:10527000188A89899A890E94502EBC01882777FD57
:105280008095982F0E9459429B01AC01C701B6013D
:105290000E94F04026C0C701B6010E94B74187FFB7
:1052A00005C0CC86DD86EE86FF861FC0A501940171
:1052B000C701B6010E94BA431816BCF481E0888B7E
:1052C00089899A890E94502EBC01882777FD809594
:1052D000982F0E9459429B01AC01C701B6010E9460
:1052E000F1406C877D878E879F874C855D856E85B5
:1052F0007F8589899A89DF91CF911F910F91FF90C6
:10530000EF90DF90CF90BF90AF909F908F900C94D4
:105310005F2F60E070E0C801DF91CF911F910F9186
:10532000FF90EF90DF90CF90BF90AF909F908F90C5
:105330000C94761BDF91CF911F910F91FF90EF900E
:10534000DF90CF90BF90AF909F908F900895CF93B4
:10535000DF93FC0110821182128213821482158263
:1053600016821782108A118A128A138A148A158A61
:10537000168A178A108E118E128E138E148E80E06C
:1053800090E0A4EBB2E4858F968FA78FB0A380E066
:1053900090E0A4EBB2EC81A392A3A3A3B4A380E01A
:1053A00090E0A4E3B3E485A396A3A7A3B0A780E00D
:1053B00090E0A4E3B3EC81A792A7A3A7B4A715A696
:1053C00083E482AB13AA14AA15AA16AA80E090E07F
:1053D000A4E0B2E487AB90AFA1AFB2AF13AE80E070
:1053E00090E0A8ECB2E484AF95AFA6AFB7AFDF0111
:1053F000A05CBF4F40E050E060E271E44D935D93EC
:105400006D937C931397DF01AC5BBF4F4D935D931E
:105410006D937C93139710861186128613861486DB
:10542000158616861786DF01A85BBF4F1C92DF0129
:10543000A75BBF4F1D921D921D921C921397DF0117
:10544000A35BBF4F1D921D921D921C921397DF010B
:10545000AF5ABF4F86E58C93DF01AE5ABF4F1D9206
:105460001D921D921C921397DF01AA5ABF4F1D92E5
:105470001D921D921C921397DF01A65ABF4F1D92D9
:105480001D921D921C921397DF01A25ABF4F1D92CD
:105490001D921D921C921397DF01AE59BF4F1C92B3
:1054A000DF01AD59BF4F1C92DF01AC59BF4F1C92B9
:1054B000DF01AB59BF4F1D921D921D921C92139795
:1054C000DF01A759BF4F1D921D921D921C92139789
:1054D000DF01A359BF4F1D921C92DF01A159BF4F9D
:1054E0001D921C92DF01AF58BF4F1D921C92DF012D
:1054F000AD58BF4F1C92DF01AC58BF4F1D921D929B
:105500001D921C921397DF01A858BF4F1D921D9248
:105510001D921C921397EF01C458DF4F80E090E07A
:10552000A0E2B2E488839983AA83BB83DF01A058F9
:10553000BF4F1C92DF01AF57BF4F1C92DF01AE5728
:10554000BF4F1D921C92DF01AC57BF4F1D921C92A2
:10555000EF01CA57DF4F80E090E0A0E8BFE3888307
:105560009983AA83BB83DF01A657BF4F1C92EF012B
:10557000C557DF4F80EE93E9A4E0B0E088839983BC
:10558000AA83BB83DF01A157BF4F1C92DF01A05745
:10559000BF4F1C92DF01AF56BF4F83E690E08D9363
:1055A0009C93DF01AD56BF4F1C92EF01CC56DF4FED
:1055B00080E090E4ACE1B6E488839983AA83BB835E
:1055C000DF01A856BF4F1D921C92DF01A656BF4FA8
:1055D00081E090E08D939C93DF01A456BF4F40E0A3
:1055E00056E960E070E04D935D936D937C93139763
:1055F000DF01A056BF4F4D935D936D937C9313973E
:10560000DF01AC55BF4F40E855E260E070E04D93DC
:105610005D936D937C931397DF01A855BF4F4D9316
:105620005D936D937C931397DF01A455BF4F1C923C
:10563000E355FF4F87E090E091838083DF91CF9126
:1056400008950F931F93CF93DF93EC018B0164E3D5
:1056500072E0C8010E94A0066FE372E0C8010E94D8
:10566000A0066DE472E0C8010E94A006FE01E856A3
:10567000FF4F608171814AE050E0C8010E944708F5
:1056800063E572E0C8010E94A006FE01E656FF4FE6
:10569000608171814AE050E0C8010E94470869E5D5
:1056A00072E0C8010E94A006FE01E456FF4F40814F
:1056B0005181628173812AE030E0C8010E94E807CD
:1056C0006FE572E0C8010E94A006FE01E056FF4FA0
:1056D00040815181628173812AE030E0C8010E94DB
:1056E000E80765E672E0C8010E94A006FE01EC55DD
:1056F000FF4F40815181628173812AE030E0C8010F
:105700000E94E8076BE672E0C8010E94A006FE0155
:10571000E855FF4F40815181628173812AE030E07A
:10572000C8010E94E80761E772E0C8010E94A00674
:10573000C455DF4F68814AE050E070E0C8010E9424
:1057400047086AE875E0C8010E94F10680E090E031
:10575000DF91CF911F910F910895FC01DB0112960B
:105760008D919C9113979383828314964D915D91B3
:105770006D917C9117974483558366837783189640
:105780004D915D916D917C911B9740875187628708
:10579000738786E197E0918380831C968D919C911D
:1057A0001D97958784871E968D919C911F9797874B
:1057B000868750968D919C915197918B808B5296B4
:1057C0008D919C915397938B828B54968D919C9144
:1057D0005597958B848B56968D919C915797978B67
:1057E000868B58968D919C915997918F808F5A9660
:1057F0008D919C915B97938F828F5C968C915C9737
:10580000848F5D968C915D97858F5E968C915E9767
:10581000868F5F968C915F97878F90968C919097EB
:1058200080A391968C9181A308950F931F93CF939A
:10583000DF93EC01FC01E355FF4F408160E070E035
:1058400083E09CE00E948E21FE01E255FF4F4081E3
:1058500061E070E083E09CE00E948E21CC58DF4F35
:1058600064E070E049918B010F5F1F4F83E09CE083
:105870000E948E21B8010D331105A1F7DF91CF9160
:105880001F910F910895EF92FF920F931F93CF9363
:10589000DF931F921F92CDB7DEB78C0160E070E0FE
:1058A00083E09CE00E948B21898361E070E083E0CB
:1058B0009CE00E948B218A83F801E355FF4F2981E8
:1058C0003A81808191812817390719F0C8010E9417
:1058D000152C0C581F4F64E070E07B018FEFE81A25
:1058E000F80A83E09CE00E948B21F80181938F01EC
:1058F000B7016D33710589F70F900F90DF91CF914C
:105900001F910F91FF90EF900895FC0160817181CC
:10591000828193810895FC016481758186819781DC
:105920000895FC015489458936892789652F742F8C
:10593000832F922F0895FC0155A146A137A120A5E0
:10594000652F742F832F922F0895FC01EC58FF4F81
:105950005081418132812381652F742F832F922FB3
:105960000895FC01E858FF4F508141813281238125
:10597000652F742F832F922F0895FC01508D418D38
:10598000328D238D652F742F832F922F0895FC0164
:10599000558D468D378D20A1652F742F832F922F23
:1059A0000895FC01E458FF4F5081418132812381E9
:1059B000652F742F832F922F0895FC015089418900
:1059C00032892389652F742F832F922F0895FC012C
:1059D00051A142A133A124A1652F742F832F922FAF
:1059E0000895FC0151A542A533A524A5652F742F68
:1059F000832F922F0895FC0157A940AD31AD22AD00
:105A0000652F742F832F922F0895FC0153A944A969
:105A100035A926A9652F742F832F922F0895FC0195
:105A200082A9873559F4E159FF4F60817181882738
:105A300077FD8095982F0E94594204C0608571853A
:105A4000828593850895EF92FF920F931F93CF93D2
:105A5000DF93EC010E940F2D9B01AC016BA97CA987
:105A60008DA99EA90E94F0407B018C0120E030E0CE
:105A700044E353E47F2D912F0E94BA4318168CF013
:105A800020E030E044E353EC6E2D7F2D802F912FEA
:105A90000E94B74187FF0AC020E030E044EB53E4A6
:105AA00008C020E030E044EB53EC03C020E030E0DD
:105AB000A9016E2D7F2D802F912F0E94F1409B0117
:105AC000462F532F682F792F4EA75FA768AB79AB6E
:105AD000622F732FDF91CF911F910F91FF90EF9065
