:100000000C944D010C94100A0C94420A0C94740A3E
:100010000C94A60A0C94D80A0C940A0B0C943C0B72
:100020000C946E0B0C947E010C947E010C943A1887
:100030000C947E010C947E010C947E010C944A2158
:100040000C947E010C947E010C947E010C947E0134
:100050000C947E010C947E010C947E010C94A015EE
:100060000C947E010C9469020C945D030C947E0147
:100070000C947E010C947E010C947E010C947E0104
:100080000C947E010C947E010C947E010C947E01F4
:100090000C949E020C949D030C947E010C947E01A2
:1000A0000C947E010C947E010C947E010C947E01D4
:1000B0000C947E010C947E010C94F4220C945F222B
:1000C0000C9457230C947E010C947E010C94D30263
:1000D0000C94DD030C947E010C9408030C941D0415
:1000E0000C947E01084AD73B3BCE016E84BCBFFD19
:1000F000C12F3D6C74319ABD56833DDA3D00C77FF8
:1001000011BED9E4BB4C3E916BAAAABE0000008090
:100110003F05A84CCDB2D44EB93836A9020C50B91F
:10012000918688083CA6AAAA2ABE000000803F004B
:1001300000090A02080B0C0D070603040100000069
:1001400000000000000000000000000000000000AF
:10015000000000000000000000000011100F00006F
:10016000000000000000000000000000000000008F
:10017000000000000001021020200808102040109C
:10018000204080020102010804020101020408105B
:100190002040808040201008040201800402018079
:1001A00040201008040201080402010102040810A2
:1001B0002040800102040810204080050505050745
:1001C0000508080808020202020A0A0808040404D2
:1001D00004010101010101010103030303030303FE
:1001E00003040707070C0C0C0C0C0C0C0C0202028D
:1001F0000206060606060606060B0B0B0B0B0B0B80
:100200000B000020002300260029002C002F0032C4
:100210000000010000030106010901000022002581
:100220000028002B002E00310034000201000005E0
:100230000108010B0100002100240027002A002DE5
:10024000003000330001010000040107010A0149E8
:100250004E46494E4954594E414E0000204100003F
:10026000C84200401C4620BCBE4CCA1B0E5AAEC53C
:100270009D74CDCCCC3D0AD7233C17B7D13877CC71
:100280002B329595E6241FB14F0A63188C218D32CD
:10029000C335A63AD93A6718F33211241FBECFEFFF
:1002A000D1E2DEBFCDBF00E00CBF14E0A0E0B2E0C1
:1002B000E2E6F7E800E00BBF02C007900D92AA3F0C
:1002C000B107D9F710E1AAEFB4E001C01D92A3363F
:1002D000B107E1F712E0C6E9D2E000E006C02297DC
:1002E0000109FE010BBF0E945A40CA38D10780E0C5
:1002F0000807A9F70E94253C0C949F430C9400002A
:10030000FC0184859585FC01E05CFF4F20813181F3
:10031000FC01EE5BFF4F80819181281B390B2F730D
:100320003327C9010895FC0184859585FC01E05CB3
:10033000FF4F40815181FC01EE5BFF4F20813181F5
:100340004217530741F00190F081E02DE80FF91FAB
:10035000208130E002C02FEF3FEFC9010895FC017A
:1003600084859585FC01E05CFF4F40815181FC0153
:10037000EE5BFF4F208131814217530771F0A0815E
:10038000B181A80FB91F2C918081918101968F7343
:1003900099279183808330E002C02FEF3FEFC9019E
:1003A0000895FC0181A1882329F0A489B5898C9145
:1003B00086FFFBCF11A20895CF93DF93FC01268522
:1003C0003785D901A05CBF4F8D919C911197019603
:1003D0008F739927E901CE5BDF4F488159818417DC
:1003E0009507D9F30D90BC91A02DA20FB31F6C936C
:1003F000A685B785A05CBF4F11969C938E93A68966
:10040000B7892C9181E090E0078C02C0880F991F7A
:100410000A94E2F7282B2C9381E081A30488F589C4
:10042000E02D80818064808381E090E0DF91CF9136
:100430000895EF92FF920F931F93CF93DF93FC01E8
:1004400026853785D901A05CBF4F8D919C9111976E
:1004500001968F73992789010E5B1F4FE801E88091
:10046000F9808E159F05D1F30D90BC91A02DA20FA0
:10047000B31F6C93A685B785A05CBF4F11969C9364
:100480008E93A689B7898C91442311F0816001C0B5
:100490008E7F8C93A689B7892C9181E090E0078CA0
:1004A00002C0880F991F0A94E2F7282B2C9381E051
:1004B00081A30488F589E02D80818064808381E0B8
:1004C00090E0DF91CF911F910F91FF90EF900895F1
:1004D00008951F920F920FB60F9211240BB60F9230
:1004E0001BBE2F933F934F935F936F937F938F9395
:1004F0009F93AF93BF93EF93FF938091C00082FDD2
:1005000007C08091C6006EE577E00E94C03A02C045
:100510008091C600FF91EF91BF91AF919F918F9114
:100520007F916F915F914F913F912F910F900BBEF3
:100530000F900FBE0F901F90189508951F920F9265
:100540000FB60F9211240BB60F921BBE2F933F9341
:100550004F935F936F937F938F939F93AF93BF93CB
:10056000EF93FF938091C80082FD07C08091CE0079
:1005700066ED76E00E94C03A02C08091CE00FF9105
:10058000EF91BF91AF919F918F917F916F915F910B
:100590004F913F912F910F900BBE0F900FBE0F9078
:1005A0001F90189508951F920F920FB60F92112465
:1005B0000BB60F921BBE2F933F934F935F936F9396
:1005C0007F938F939F93AF93BF93EF93FF9380910C
:1005D000D00082FD07C08091D6006EE476E00E94D4
:1005E000C03A02C08091D600FF91EF91BF91AF91C8
:1005F0009F918F917F916F915F914F913F912F913B
:100600000F900BBE0F900FBE0F901F90189508957E
:100610001F920F920FB60F9211240BB60F921BBEB2
:100620002F933F934F935F936F937F938F939F93FA
:10063000AF93BF93EF93FF938091300182FD07C08A
:100640008091360166EC75E00E94C03A02C080914C
:100650003601FF91EF91BF91AF919F918F917F9163
:100660006F915F914F913F912F910F900BBE0F9023
:100670000FBE0F901F90189580E695E00E948001B4
:10068000892B11F00E9433328EE395E00E948001A5
:10069000892B11F00E94C72F8CE195E00E94800108
:1006A000892B11F00E94EE2F8AEF94E00E948001C6
:1006B000892B11F00C94FF2F08951F920F920FB603
:1006C0000F9211240BB60F921BBE2F933F938F9363
:1006D0009F93EF93FF9320915A0730915B0780918E
:1006E0005C0790915D072817390731F48091C100AC
:1006F0008F7D8093C10014C0E0915C07F0915D078D
:10070000E65EF84F208180915C0790915D0701962D
:100710008F73992790935D0780935C072093C600A1
:10072000FF91EF919F918F913F912F910F900BBE71
:100730000F900FBE0F901F9018951F920F920FB63B
:100740000F9211240BB60F921BBE2F933F938F93E2
:100750009F93EF93FF932091D2063091D30680911F
:10076000D4069091D5062817390731F48091C90035
:100770008F7D8093C90014C0E091D406F091D50616
:10078000EE56F94F20818091D4069091D5060196BE
:100790008F7399279093D5068093D4062093CE002B
:1007A000FF91EF919F918F913F912F910F900BBEF1
:1007B0000F900FBE0F901F9018951F920F920FB6BB
:1007C0000F9211240BB60F921BBE2F933F938F9362
:1007D0009F93EF93FF9320914A0630914B068091AF
:1007E0004C0690914D062817390731F48091D100BD
:1007F0008F7D8093D10014C0E0914C06F0914D069E
:10080000E65FF94F208180914C0690914D0601964C
:100810008F73992790934D0680934C062093D600B2
:10082000FF91EF919F918F913F912F910F900BBE70
:100830000F900FBE0F901F9018951F920F920FB63A
:100840000F9211240BB60F921BBE2F933F938F93E1
:100850009F93EF93FF932091C2053091C305809140
:10086000C4059091C5052817390731F480913101ED
:100870008F7D8093310114C0E091C405F091C505CE
:10088000EE57FA4F20818091C4059091C5050196DD
:100890008F7399279093C5058093C40520933601E3
:1008A000FF91EF919F918F913F912F910F900BBEF0
:1008B0000F900FBE0F901F9018954F925F926F92FE
:1008C0007F928F929F92AF92BF92CF92DF92EF92E0
:1008D000FF920F931F93CF93DF93CDB7DEB7FC0149
:1008E0001382128288EE482E83E0582E612C712CE0
:1008F000448255826682778280EE94E09183808381
:100900007587648757874687318B208B138B028BC3
:10091000F58AE48AD78AC68AB18EA08E938E828E9B
:100920008C89848F8D89858F8E89868F8F89878F1B
:10093000888D80A3DF91CF911F910F91FF90EF9051
:10094000DF90CF90BF90AF909F908F907F906F90EF
:100950005F904F900895CF92DF92EF92FF92CF93E6
:10096000DF93EC016A017B01411581EE58076105B7
:100970007105F9F0EC89FD8981E090E008A002C0E2
:10098000880F991F0A94E2F7808360E079E08DE395
:1009900090E0A70196010E94FC3F215031094109D6
:1009A00051095695479537952795211580E13807C8
:1009B00098F0EC89FD89108260E874E88EE190E09F
:1009C000A70196010E94FC3F2150310941095109BC
:1009D0005695479537952795E889F9893083EA89AF
:1009E000FB89208319A2EE89FF89408181E090E094
:1009F0009C010C8C02C0220F331F0A94E2F7422B99
:100A00004083EE89FF8940819C010D8C02C0220F3A
:100A1000331F0A94E2F7422B4083EE89FF8940811D
:100A20009C010E8C02C0220F331F0A94E2F7422B66
:100A30004083EE89FF8920810F8C02C0880F991FA7
:100A40000A94E2F7809582238083DF91CF91FF9013
:100A5000EF90DF90CF900895BF92CF92DF92EF9208
:100A6000FF92CF93DF93EC016A017B01B22E411517
:100A700081EE580761057105F9F0EC89FD8981E087
:100A800090E008A002C0880F991F0A94E2F78083C3
:100A900060E079E08DE390E0A70196010E94FC3FC1
:100AA00021503109410951095695479537952795A8
:100AB000211580E1380798F0EC89FD89108260E803
:100AC00074E88EE190E0A70196010E94FC3F21505E
:100AD0003109410951095695479537952795E88978
:100AE000F9893083EA89FB89208387E0B8120AC03C
:100AF000E88DF98D86E08083EE89FF8980818460AE
:100B0000808308C0EE89FF89808184708083E88DAE
:100B1000F98DB082EE89FF89408181E090E09C01EF
:100B20000C8C02C0220F331F0A94E2F7422B408341
:100B3000EE89FF8940819C010D8C02C0220F331F7A
:100B40000A94E2F7422B4083EE89FF8940819C01A1
:100B50000E8C02C0220F331F0A94E2F7422B40830F
:100B6000EE89FF8920810F8C02C0880F991F0A949B
:100B7000E2F7809582238083DF91CF91FF90EF9001
:100B8000DF90CF90BF900895CF93DF93FC018685CF
:100B90009785DC01A05CBF4FEC01CE5BDF4F4D9130
:100BA0005C9111972881398142175307C1F7A689B3
:100BB000B7894C9181E090E09C01048C02C0220F27
:100BC000331F0A94E2F7209524232C93A689B78932
:100BD0004C919C01058C02C0220F331F0A94E2F74E
:100BE000209524232C93A689B7894C919C01068CCF
:100BF00002C0220F331F0A94E2F7209524232C937E
:100C0000A689B7892C91078C02C0880F991F0A9476
:100C1000E2F7809582238C9384859585FC01EE5BB9
:100C2000FF4F20813181FC01E05CFF4F3183208345
:100C3000DF91CF91089581E00895CF92DF92EF92F6
:100C4000FF920F931F93CF93DF936C01EB017A0117
:100C5000E60EF71E00E010E00BC06991D601ED91A1
:100C6000FC910190F081E02DC6011995080F191F24
:100C7000CE15DF0591F7C801DF91CF911F910F913C
:100C8000FF90EF90DF90CF900895EF92FF920F9337
:100C90001F93CF93DF937C01EB0100E010E0FE0196
:100CA00021966491662351F0F701A081B181ED9105
:100CB000FC91C7011995080F191FF1CFC801DF91E9
:100CC000CF911F910F91FF90EF900895AF92BF9237
:100CD000CF92DF92EF92FF920F931F93CF93DF9308
:100CE0007C016B0100E010E0C0E0D0E011C0D70152
:100CF000ED91FC91A080B180B801C6010E947810EE
:100D0000682FC701F5011995C80FD91F0F5F1F4F35
:100D1000D60114968D919C9115970817190738F3F1
:100D2000CE01DF91CF911F910F91FF90EF90DF9057
:100D3000CF90BF90AF9008950C940F3CDC01ED91E3
:100D4000FC910190F081E02D1994DB01ED91FC9173
:100D500011970190F081E02DBC01CD0119940F9302
:100D60001F93CF93DF93EC016DE00E949E068C01F0
:100D70006AE0CE010E949E069C01200F311FC9012E
:100D8000DF91CF911F910F9108950F931F93CF93F0
:100D9000DF93EC010E9445068C01CE010E94AF0654
:100DA0009C01200F311FC901DF91CF911F910F913D
:100DB00008950F931F93CF93DF93EC010E94660673
:100DC0008C01CE010E94AF069C01200F311FC9018A
:100DD000DF91CF911F910F9108950F931F93CF93A0
:100DE000DF93EC010E940F3C8C01CE010E94AF0604
:100DF0009801280F391FC901DF91CF911F910F91E1
:100E000008950F931F93CF93DF93EC010E949E06EA
:100E10008C01CE010E94AF069C01200F311FC90139
:100E2000DF91CF911F910F9108950F931F93CF934F
:100E3000DF93EC010E94A5068C01CE010E94AF0653
:100E40009C01200F311FC901DF91CF911F910F919C
:100E500008955F926F927F928F929F92AF92BF920E
:100E6000CF92DF92EF92FF920F931F93CF93DF9376
:100E7000CDB7DEB7A1970FB6F894DEBF0FBECDBFDA
:100E80003C016A017B01522E19A281E0821710F009
:100E90008AE0582E8E010F5D1F4F852C912CA12CBE
:100EA000B12CC701B601A50194010E94FC3F8C2D15
:100EB000529E80191124015011098A3010F4805D6E
:100EC00001C0895CF801808369017A01C114D104F1
:100ED000E104F10431F7B801C3010E940F3CA1966F
:100EE0000FB6F894DEBF0FBECDBFDF91CF911F913B
:100EF0000F91FF90EF90DF90CF90BF90AF909F90B9
:100F00008F907F906F905F9008952115310541F487
:100F1000DC01ED91FC910190F081E02D642F19949A
:100F20000C9429070F931F93CF93DF93EC010E943A
:100F300085078C01CE010E94AF069C01200F311F56
:100F4000C901DF91CF911F910F9108959A01AB01D3
:100F500060E070E00C9485070F931F93CF93DF93AD
:100F6000EC019A01AB0160E070E00E9485078C0102
:100F7000CE010E94AF069801280F391FC901DF91E9
:100F8000CF911F910F9108959A01462F50E060E094
:100F900070E00C9485070F931F93CF93DF93EC01C0
:100FA0009A01462F50E060E070E00E9485078C01B6
:100FB000CE010E94AF069801280F391FC901DF91A9
:100FC000CF911F910F910895CF92DF92EF92FF92F0
:100FD0000F931F93CF93DF93EC016A017B012115DF
:100FE000310579F4E881F9810190F081E02D642FD9
:100FF000DF91CF911F910F91FF90EF90DF90CF90F5
:1010000019942A30310519F477FD0EC02AE0B70192
:10101000A601CE01DF91CF911F910F91FF90EF902C
:10102000DF90CF900C9429076DE20E949E068C0100
:1010300044275527BA014C195D096E097F092AE03A
:10104000CE010E9429079C01200F311FC901DF91A9
:10105000CF911F910F91FF90EF90DF90CF90089567
:101060000F931F93CF93DF93EC010E94E4078C0151
:10107000CE010E94AF069C01200F311FC901DF91F4
:10108000CF911F910F9108959A01AB01662757FDEB
:101090006095762F0C94E4070F931F93CF93DF9303
:1010A000EC019A01AB01662757FD6095762F0E94EF
:1010B000E4078C01CE010E94AF069801280F391F6A
:1010C000C901DF91CF911F910F9108956F927F9287
:1010D0008F929F92AF92BF92CF92DF92EF92FF9248
:1010E0000F931F93CF938C016A017B01C22F9A014A
:1010F000AB01C701B6010E94B53F882319F06EEE1F
:1011000074E032C046015701E894B7F82FEF3FEF83
:101110004FE75FE7C501B4010E94B53F81110DC0E3
:101120002FEF3FEF4FE75FE7C501B4010E94F93CA5
:1011300018161CF462EF74E017C02FEF3FEF4FE773
:101140005FE4C701B6010E94FC3E18160CF40AC009
:101150002FEF3FEF4FE75FECC701B6010E94F93C6C
:1011600087FF12C066EF74E0C801CF911F910F9105
:10117000FF90EF90DF90CF90BF90AF909F908F90B7
:101180007F906F900C940F3C20E030E0A901C701E4
:10119000B6010E94F93C87FF0AC06DE2C8010E94B7
:1011A0009E063C01F7FAF094F7F8F09402C0612C27
:1011B000712CB12C60E070E080E09FE307C020E07C
:1011C00030E040E251E40E94003DB394BC12F7CFFE
:1011D000262F372F482F592FC701B6010E94333CC5
:1011E0004B015C01792D9B2D0E946D3D6B017C01B3
:1011F0000E94993D9B01AC01682D792D8A2D9B2D74
:101200000E94323CB62EA72E982E892E2AE0A601E7
:10121000B701C8010E942907680E791ECC23C9F1C5
:1012200064EC73E0C8010E940F3C680E791E31C067
:1012300020E030E040E251E4D501F4016B2F7A2D3B
:101240008F2F982D0E94073F4B015C01792D9B2D1C
:101250000E94683D6B01EE24D7FCE094FE2C2AE04E
:1012600030E0B701A601C8010E94E407680E791EAC
:10127000C701B6010E949B3D9B01AC01682D792DF1
:101280008A2D9B2D0E94323CB62EA72E982E892E99
:10129000C150C111CDCFC301CF911F910F91FF90CC
:1012A000EF90DF90CF90BF90AF909F908F907F9006
:1012B0006F9008950C9466080F931F93CF93DF935C
:1012C000EC010E9466088C01CE010E94AF069801D5
:1012D000280F391FC901DF91CF911F910F910895F8
:1012E000883008F073C0E82FF0E0EE0FFF1FEE55D6
:1012F000F84F71836083843011F130F4823059F0FB
:1013000090F48130B1F53DC0863009F446C020F13B
:10131000873079F54FC0809169008C7F842B809352
:101320006900E89A089580916900440F551F440FA1
:10133000551F837F842B80936900E99A08958091DB
:10134000690074E0440F551F7A95E1F78F7C842B78
:1013500080936900EA9A08958091690066E0440FDD
:10136000551F6A95E1F78F73842B80936900EB9A80
:10137000089580916A008C7F842B80936A00EC9A98
:10138000089580916A00440F551F440F551F837FB5
:10139000842B80936A00ED9A089580916A0024E07E
:1013A000440F551F2A95E1F78F7C842B80936A00A8
:1013B000EE9A089580916A0096E0440F551F9A9521
:1013C000E1F78F73842B80936A00EF9A0895883039
:1013D00030F5843089F030F4823051F058F48130A7
:1013E00079F410C0863081F048F0873049F40EC09F
:1013F000E8980DC0E9980BC0EA9809C0EB9807C0BF
:10140000EC9805C0ED9803C0EE9801C0EF98E82F66
:10141000F0E0EE0FFF1FEE55F84F11821082089595
:101420001F920F920FB60F9211240BB60F921BBE94
:101430002F933F934F935F936F937F938F939F93DC
:10144000AF93BF93EF93FF938091A6079091A70767
:10145000892B29F0E091A607F091A7071995FF9134
:10146000EF91BF91AF919F918F917F916F915F911C
:101470004F913F912F910F900BBE0F900FBE0F9089
:101480001F9018951F920F920FB60F9211240BB652
:101490000F921BBE2F933F934F935F936F937F9356
:1014A0008F939F93AF93BF93EF93FF938091A80780
:1014B0009091A907892B29F0E091A807F091A9073D
:1014C0001995FF91EF91BF91AF919F918F917F916E
:1014D0006F915F914F913F912F910F900BBE0F90A5
:1014E0000FBE0F901F9018951F920F920FB60F927C
:1014F00011240BB60F921BBE2F933F934F935F9314
:101500006F937F938F939F93AF93BF93EF93FF93CB
:101510008091AA079091AB07892B29F0E091AA0747
:10152000F091AB071995FF91EF91BF91AF919F910A
:101530008F917F916F915F914F913F912F910F907C
:101540000BBE0F900FBE0F901F9018951F920F9219
:101550000FB60F9211240BB60F921BBE2F933F9321
:101560004F935F936F937F938F939F93AF93BF93AB
:10157000EF93FF938091AC079091AD07892B29F0F1
:10158000E091AC07F091AD071995FF91EF91BF91F4
:10159000AF919F918F917F916F915F914F913F910B
:1015A0002F910F900BBE0F900FBE0F901F901895AC
:1015B0001F920F920FB60F9211240BB60F921BBE03
:1015C0002F933F934F935F936F937F938F939F934B
:1015D000AF93BF93EF93FF938091A2079091A307DE
:1015E000892B29F0E091A207F091A3071995FF91AB
:1015F000EF91BF91AF919F918F917F916F915F918B
:101600004F913F912F910F900BBE0F900FBE0F90F7
:101610001F9018951F920F920FB60F9211240BB6C0
:101620000F921BBE2F933F934F935F936F937F93C4
:101630008F939F93AF93BF93EF93FF938091A407F2
:101640009091A507892B29F0E091A407F091A507B7
:101650001995FF91EF91BF91AF919F918F917F91DC
:101660006F915F914F913F912F910F900BBE0F9013
:101670000FBE0F901F9018951F920F920FB60F92EA
:1016800011240BB60F921BBE2F933F934F935F9382
:101690006F937F938F939F93AF93BF93EF93FF933A
:1016A0008091AE079091AF07892B29F0E091AE07AA
:1016B000F091AF071995FF91EF91BF91AF919F9175
:1016C0008F917F916F915F914F913F912F910F90EB
:1016D0000BBE0F900FBE0F901F9018951F920F9288
:1016E0000FB60F9211240BB60F921BBE2F933F9390
:1016F0004F935F936F937F938F939F93AF93BF931A
:10170000EF93FF938091B0079091B107892B29F057
:10171000E091B007F091B1071995FF91EF91BF915A
:10172000AF919F918F917F916F915F914F913F9179
:101730002F910F900BBE0F900FBE0F901F9018951A
:10174000FC01808191810C941014CF93DF93EC0104
:1017500088819981009711F00E94101419821882D3
:101760001D821C821B821A82DF91CF9108950F93F4
:101770001F93CF93DF93EC018B016F5F7F4F8881C5
:1017800099810E94AE14009731F0998388831B835E
:101790000A8381E001C080E0DF91CF911F910F911A
:1017A0000895CF93DF93EC0188819981892B31F0E3
:1017B0008A819B818617970708F00CC0CE010E9492
:1017C000B70B882349F08C819D81892B19F4E8811E
:1017D000F981108281E001C080E0DF91CF9108950E
:1017E000EF92FF920F931F93CF93DF93EC017B0156
:1017F0008A01BA010E94D10B811104C0CE010E945E
:10180000A50B07C01D830C83B701888199810E94B5
:10181000F240CE01DF91CF911F910F91FF90EF9099
:101820000895DC0111961C921E9213961C921E9232
:10183000129715961C921E92149716961C9261157B
:10184000710559F0DB010D900020E9F7AD01415021
:101850005109461B570B0C94F00B0895CF93DF935F
:10186000EC01FB018617970761F0608171816115BA
:10187000710529F0448155810E94F00B02C00E943D
:10188000A50BCE01DF91CF910895FC01118210824A
:10189000138212821582148216820C942E0CCF931E
:1018A000DF93D82FC92F6115710561F0DB010D9011
:1018B0000020E9F7AD0141505109461B570B0E942A
:1018C000F00B02C00E94A50B8D2F9C2FDF91CF91B2
:1018D00008950F931F93CF93DF93CDB7DEB7A197F2
:1018E0000FB6F894DEBF0FBECDBF8C01CB01BA019D
:1018F000F8011182108213821282158214821682DC
:1019000030E0AE014F5F5F4F0E94D441BE016F5F78
:101910007F4FC8010E944F0CA1960FB6F894DEBF0E
:101920000FBECDBFDF91CF911F910F9108950F93FF
:101930001F93CF93DF93CDB7DEB7A2970FB6F8947E
:10194000DEBF0FBECDBF8C01CB01BA01F801118201
:1019500010821382128215821482168230E0AE0148
:101960004F5F5F4F0E948341BE016F5F7F4FC80191
:101970000E944F0CA2960FB6F894DEBF0FBECDBFEB
:10198000DF91CF911F910F9108950F931F93CF93E4
:10199000DF93CDB7DEB761970FB6F894DEBF0FBE09
:1019A000CDBF8C01CB01F80111821082138212820B
:1019B00015821482168250E0BE016F5F7F4F0E9435
:1019C000F941BE016F5F7F4FC8010E944F0C6196C5
:1019D0000FB6F894DEBF0FBECDBFDF91CF911F9140
:1019E0000F9108950F931F93CF93DF93CDB7DEB779
:1019F00062970FB6F894DEBF0FBECDBF8C01CB014E
:101A0000F8011182108213821282158214821682CA
:101A100050E0BE016F5F7F4F0E946241BE016F5F69
:101A20007F4FC8010E944F0C62960FB6F894DEBF3C
:101A30000FBECDBFDF91CF911F910F9108950F93EE
:101A40001F93CF93DF93CDB7DEB729970FB6F894E6
:101A5000DEBF0FBECDBF8C01862FF8011182108230
:101A60001382128215821482168250E0BE016F5FCB
:101A70007F4F90E00E94F941BE016F5F7F4FC80128
:101A80000E944F0C29960FB6F894DEBF0FBECDBF53
:101A9000DF91CF911F910F910895CF93DF931F9204
:101AA0001F92CDB7DEB7FC01118210821382128221
:101AB00015821482168269831A82BE016F5F7F4F7E
:101AC0000E944F0C0F900F90DF91CF910895EF92ED
:101AD000FF920F931F93CF93DF93EC017B010C8157
:101AE0001D816115710511F480E016C04115510585
:101AF00091F0040F151FB8010E94D10B8823A1F3A8
:101B0000288139818C819D81B701820F931F0E94AA
:101B1000F2401D830C8381E0DF91CF911F910F91E3
:101B2000FF90EF900895FB014481558160817181A0
:101B30000C94670D6115710559F0DB010D900020C3
:101B4000E9F7AD0141505109461B570B0C94670D45
:101B500080E00895CF93DF931F921F92CDB7DEB739
:101B600069831A8241E050E0BE016F5F7F4F0E949F
:101B7000670D0F900F90DF91CF910895EF92FF9234
:101B80000F931F93CF93DF9300D01F92CDB7DEB793
:101B90007C01862F4AE050E08E010F5F1F4FB80195
:101BA00090E00E946241F80101900020E9F7AF0146
:101BB00041505109401B510BB801C7010E94670DEC
:101BC0000F900F900F900F90DF91CF911F910F9179
:101BD000FF90EF900895EF92FF920F931F93CF9392
:101BE000DF93CDB7DEB727970FB6F894DEBF0FBEF1
:101BF000CDBF7C01CB014AE050E08E010F5F1F4F4B
:101C0000B8010E946241F80101900020E9F7AF019C
:101C100041505109401B510BB801C7010E94670D8B
:101C200027960FB6F894DEBF0FBECDBFDF91CF91E0
:101C30001F910F91FF90EF900895EF92FF920F93F5
:101C40001F93CF93DF9300D000D0CDB7DEB77C01D8
:101C5000CB014AE050E08E010F5F1F4FB8010E9498
:101C6000F941F80101900020E9F7AF014150510915
:101C7000401B510BB801C7010E94670D26960FB695
:101C8000F894DEBF0FBECDBFDF91CF911F910F91B2
:101C9000FF90EF900895EF92FF920F931F93CF93D1
:101CA000DF93CDB7DEB72C970FB6F894DEBF0FBE2B
:101CB000CDBF7C01CB01BA012AE030E08E010F5F7D
:101CC0001F4FA8010E948341F80101900020E9F70D
:101CD000AF0141505109401B510BB801C7010E948F
:101CE000670D2C960FB6F894DEBF0FBECDBFDF9107
:101CF000CF911F910F91FF90EF900895EF92FF9277
:101D00000F931F93CF93DF93CDB7DEB72B970FB60B
:101D1000F894DEBF0FBECDBF7C01CB01BA012AE033
:101D200030E08E010F5F1F4FA8010E94D441F801DF
:101D300001900020E9F7AF0141505109401B510BC0
:101D4000B801C7010E94670D2B960FB6F894DEBF4D
:101D50000FBECDBFDF91CF911F910F91FF90EF90FC
:101D60000895CF93DF93D82FC92FFB01448155816C
:101D7000608171810E94670D811104C08D2F9C2F9D
:101D80000E94A50B8D2F9C2FDF91CF910895CF93AB
:101D9000DF93D82FC92F6115710569F0DB010D9014
:101DA0000020E9F7AD0141505109461B570B0E9435
:101DB000670D811104C08D2F9C2F0E94A50B8D2FC4
:101DC0009C2FDF91CF910895CF93DF93D82FC92F08
:101DD0000E94AA0D811104C08D2F9C2F0E94A50B7B
:101DE0008D2F9C2FDF91CF910895CF93DF93D82F24
:101DF000C92F0E94BE0D811104C08D2F9C2F0E94FF
:101E0000A50B8D2F9C2FDF91CF910895CF93DF935A
:101E1000D82FC92F0E94EB0D811104C08D2F9C2F4C
:101E20000E94A50B8D2F9C2FDF91CF910895CF930A
:101E3000DF93D82FC92F0E941D0E811104C08D2F52
:101E40009C2F0E94A50B8D2F9C2FDF91CF91089581
:101E5000CF93DF93D82FC92F0E944B0E811104C05E
:101E60008D2F9C2F0E94A50B8D2F9C2FDF91CF9142
:101E70000895CF93DF93D82FC92F0E947E0E811132
:101E800004C08D2F9C2F0E94A50B8D2F9C2FDF91BE
:101E9000CF910895CF93DF93DC01ED91FC91EB019D
:101EA000A881B981309711F01097C9F4109759F0B3
:101EB000EB012C813D81232B31F02C9130E03195C9
:101EC0002195310914C0309781F0DC0114968D9171
:101ED0009C911597892B49F0208130E008C0BD0105
:101EE000CF01DF91CF910C94E94020E030E0C901AF
:101EF000DF91CF910895FC0144815581FB0124813C
:101F000035814217530729F40E944A0F21E0892B9B
:101F100009F020E0822F0895DC0114962D913C9168
:101F20001597232B39F481E06115710511F0FB0140
:101F300008C00895DC01ED91FC916115710529F44B
:101F400081E09081992349F007C0CF010E94E940C8
:101F50009C0181E0232B09F080E008950E944A0F44
:101F6000892F881F8827881F08950E944A0F21E023
:101F7000181619060CF020E0822F08950E944A0FCF
:101F800021E0181619060CF420E0822F08950E9413
:101F90004A0F892F8095881F8827881F0895EF9200
:101FA000FF920F931F93CF93DF938617970709F143
:101FB000FC0124813581FB014481558124173507BB
:101FC000D1F4232BB1F0C081D181FC0100811181BA
:101FD0000BC090E00E94AF407C01899190E00E948C
:101FE000AF40E816F90639F4F80181918F018111AB
:101FF000F0CF81E001C080E0DF91CF911F910F9180
:10200000FF90EF900895FA01DB0114964D915C91D9
:102010001597DC0114962D913C911597241B350BD7
:102020002E173F0790F08D919C91009771F0DB0186
:102030006D917C916115710541F08E0F9F1F0E947B
:10204000F9409C0181E0232B09F080E00895FC0118
:1020500044815581FB01248135814217530720F0CB
:1020600040E050E00C94031080E00895FC0184816E
:102070009581DB0114964D915C9115978417950716
:10208000A0F0208131812115310579F06D917C918D
:102090006115710551F0841B950B820F931F0E94EF
:1020A000E9409C0181E0232B09F080E00895DC01E8
:1020B00014962D913C9115976217730728F4ED91B2
:1020C000FC91E60FF71F40830895FC0124813581C0
:1020D0006217730720F480819181009729F4109290
:1020E000B20762EB77E002C0680F791FCB01089559
:1020F000FC01248135816217730748F48081918146
:10210000009729F0FC01E60FF71F8081089580E019
:1021100008950C9478100F931F93CF93DF93EB01E6
:1021200041155105E9F02097D9F0FC010481158192
:102130002017310708F013C041505109021B130B3F
:102140004017510708F48A01FC0160817181620F18
:10215000731FA801CE010E940741C00FD11F188232
:10216000DF91CF911F910F910895CF93DF93FC01E1
:10217000848195814817590770F4C081D18170E03E
:10218000CE01840F951F0E94DE40009721F09C0134
:102190002C1B3D0B02C02FEF3FEFC901DF91CF9108
:1021A000089540E050E00C94B510CF93DF93FC010C
:1021B000848195814817590780F4C081D181FB0142
:1021C00060817181CE01840F951F0E94214100978B
:1021D00021F09C012C1B3D0B02C02FEF3FEFC901EA
:1021E000DF91CF91089540E050E00C94D510DF923C
:1021F000EF92FF920F931F93CF93DF93EC018C81AB
:102200009D814817590718F02FEF3FEF1BC08A0137
:102210000F5F1F4FE881F981E00FF11FD08010821E
:10222000E880F98070E0C7010E941641F701E00FD5
:10223000F11FD082009741F328813981AC01421B04
:10224000530B9A01C901DF91CF911F910F91FF901C
:10225000EF90DF900895FC01448155814150510970
:102260000C94F710AF92BF92CF92DF92EF92FF9251
:102270000F931F93CF93DF936B018A01FB0144817E
:1022800055814115510569F1FC01248135812115E4
:10229000310539F12417350720F10217130718F01B
:1022A000890101501109FC01E080F180C701CFEFE5
:1022B000DFEF5701A00EB11E10C0F60160817181E1
:1022C0000E942141009779F09C012E193F090217C5
:1022D000130708F49E010196E901A816B90668F7EC
:1022E00002C0CFEFDFEFCE01DF91CF911F910F91B1
:1022F000FF90EF90DF90CF90BF90AF900895FC01DA
:1023000044815581FB0124813581421B530B0C9480
:102310003211BF92CF92DF92EF92FF920F931F93F1
:10232000CF93DF936C017B01EA0189012417350704
:1023300020F48D2FE901042F182F68E474E0C60102
:102340000E94110CD70114968D919C9115978C17B2
:102350009D07C8F08017910708F48C01D701ED9113
:10236000FC911197E00FF11FB08010826D917C916C
:102370006C0F7D1FC6010E944F0CD701ED91FC919F
:10238000E00FF11FB082C601DF91CF911F910F9135
:10239000FF90EF90DF90CF90BF900895CF93DF93A1
:1023A000EC01FB01248135810E948911CE01DF916E
:1023B000CF910895DC01ED91FC91309729F40895B7
:1023C000861301C04083319680818111F9CF089531
:1023D0002F923F924F925F926F927F928F929F9235
:1023E000AF92BF92CF92DF92EF92FF920F931F9323
:1023F000CF93DF938C015B017A01DC0114966D9021
:102400007C9015976114710409F4E1C0FB014480CC
:1024100055804114510409F4DAC0DA011496CD90C4
:10242000DC901597C418D508FC01C081D181C11476
:10243000D104E1F411C0D7016C9111967C911197F0
:1024400014964D915C911597C8010E94C340F70105
:10245000C481D581C00FD11FD5016D917C91CE0172
:102460000E9421418C01009731F7B1C0D7FE02C014
:102470004E012FC0FB012080318043014EC023015B
:102480004C1A5D0AA201BE01C4010E94C340E401CE
:10249000C40DD51DD7016C9111967C91119714969E
:1024A0004D915C911597CE010E94C340F701848045
:1024B00095808C0E9D1ED5011496CD91DC911597BB
:1024C000C60DD71DF801848195818C0D9D1D9583C6
:1024D0008483D5016D917C91CE010E9421413C0104
:1024E000009769F6BE01C401DF91CF911F910F9152
:1024F000FF90EF90DF90CF90BF90AF909F908F9024
:102500007F906F905F904F903F902F900C94F2408F
:10251000EC01C40DD51D8C0C9D1CB101CE010E9497
:1025200021410097A9F78614970409F450C0F801D7
:10253000828193818815990598F4B401C8010E949D
:10254000B70B882309F443C00BC0D7FD40C0AE01D0
:10255000B501C8010E943211EC0197FF07C037C0D6
:10256000D8011496CD91DC9115972FC0F801808188
:102570009181D50114962D913C9115972C0F3D1FFB
:10258000820F931F44815581421B530BBC018C0D5C
:102590009D1D0E94CC40F801848195818C0D9D1D6C
:1025A000958384830190F081E02DE80FF91F10825C
:1025B000D8012D913C912C0F3D1FF7016081718155
:1025C00044815581C9010E94C3402197BECFDF914C
:1025D000CF911F910F91FF90EF90DF90CF90BF9020
:1025E000AF909F908F907F906F905F904F903F90B3
:1025F0002F900895CF93DF93FC01C081D181209764
:1026000029F407C090E00E94AF408993888181112E
:10261000F9CFDF91CF910895CF93DF93FC01C08173
:10262000D181209729F407C090E00E94B740899398
:1026300088818111F9CFDF91CF910895AF92BF9238
:10264000CF92DF92EF92FF920F931F93CF93DF937E
:102650006C01DC01ED90FC901197E114F10409F498
:1026600042C014960D911C91159701151105D9F1D1
:102670005701E501BFEFAB1ABB0A888190E00E94C9
:10268000A740892BB1F7015011090E0D1F1DF8014C
:10269000808190E00E94A740892B69F40F5F1F4F53
:1026A0000C1B1D0BD60115961C930E931497EC165C
:1026B000FD0650F404C00C171D0790F4EFCFA801DD
:1026C000BE01C7010E94C340D601ED91FC91119754
:1026D00014968D919C911597E80FF91F108203C0F5
:1026E00001501109D4CFDF91CF911F910F91FF902D
:1026F000EF90DF90CF90BF90AF900895FC01808164
:102700009181009711F00C94804060E070E080E0CF
:1027100090E008950F931F93CF93DF93823091053C
:1027200010F482E090E0E0915F10F091601020E002
:1027300030E0C0E0D0E023C0408151814817590704
:10274000A8F04817590761F482819381209719F006
:102750009B838A832EC09093601080935F1029C062
:102760002115310529F04217530710F0A90102C0C5
:10277000BE01DF0102811381EF019A01F801309758
:10278000D9F62115310509F1281B390B2430310503
:1027900090F412968D919C9113976115710521F01B
:1027A000FB019383828304C09093601080935F1039
:1027B000FD0132962FC0FD01E20FF31F819391932B
:1027C000225031092D933C9325C04DB75EB7485731
:1027D0005109E0910202F0910302E417F507C0F4F9
:1027E0004E1B5F0B4817590798F09C012E5F3F4F17
:1027F0004217530768F02E0F3F1F309303022093B8
:10280000020230930102209300028193919302C04F
:10281000E0E0F0E0CF01DF91CF911F910F9108959B
:10282000EF92FF920F931F93CF93DF93009709F4DA
:102830008EC0DC01129713961C921E921297E090A4
:102840005F10F0906010E114F10489F42D913C9137
:102850001197280F391F809102029091030282176D
:10286000930789F5B0930302A093020270C0E701B9
:1028700020E030E001C0EA01CA17DB0738F44A81E2
:102880005B819E0141155105B1F722C0AC01425058
:102890005109FA01D383C28300811181BC01600F09
:1028A000711F6C177D0761F468817981600F711F5A
:1028B0006E5F7F4F718360836A817B8173836283E4
:1028C0002115310529F4B0936010A0935F103FC02B
:1028D000F901B383A283E90149915991C40FD51F2E
:1028E000AC17BD0771F4DC019E918E91840F951F8A
:1028F00002969183808312968D919C911397938376
:102900008283A0E0B0E002C0D7017C01F7018281A0
:1029100093810097C9F7C701029620813181820F08
:10292000931F20910202309103022817390779F48E
:10293000109729F41092601010925F1004C0139643
:102940001C921E921297F0920302E0920202DF9113
:10295000CF911F910F91FF90EF9008958F929F92CA
:10296000AF92BF92CF92DF92EF92FF920F931F939D
:10297000CF93DF93EC01009779F4CB01DF91CF91F6
:102980001F910F91FF90EF90DF90CF90BF90AF908D
:102990009F908F900C948A13DC01A60FB71FFC0147
:1029A0003297AE17BF0718F4C0E0D0E0A3C0008193
:1029B000118106171707B0F00530110508F49AC009
:1029C000C80104978617970708F494C002501109AC
:1029D000061B170B0D931D9371836083CD010E941D
:1029E000101488C06B01C01AD10A7C01E00EF11EE0
:1029F000E0915F10F091601020E030E080E090E026
:102A000048C0EE15FF05D1F580809180540142E069
:102A1000A40EB11CAC14BD0488F17401EC18FD08BF
:102A2000670122E0C20ED11C9E012250310945E00F
:102A3000C416D10478F04281538113965C934E936F
:102A400012971196FC92EE92F901718360833A2FEE
:102A50002B2F09C00E5F1F4F080D191DD9010D93B3
:102A60001C9332812381009721F0FC013283238360
:102A700041C030935F10209360103CC080819181F1
:102A80002817390708F49C0152814381CF01E52FB3
:102A9000F42F309709F0B5CF809102029091030294
:102AA0008E159F05C1F426173707A8F48DB79EB77A
:102AB00088579109A817B90708F076CFB093030299
:102AC000A0930202B0930102A0930002FE0132978C
:102AD000718360830FC0CB010E948A137C01009731
:102AE00009F462CFA801BE010E94C340CE010E943A
:102AF0001014E701CE01DF91CF911F910F91FF904C
:102B0000EF90DF90CF90BF90AF909F908F900895FF
:102B10000C948A130C948A130C9410140C941014B3
:102B200021E030E0FC018081882311F020E030E0DA
:102B3000C901089521E0FC012083089508950895B6
:102B40001F920F920FB60F9211242F933F938F93E2
:102B50009F93AF93BF938091B3079091B407A091D7
:102B6000B507B091B6073091BB07232F2D5F2D37E6
:102B700020F40196A11DB11D05C0232F2A570296EE
:102B8000A11DB11D2093BB078093B3079093B40799
:102B9000A093B507B093B6078091B7079091B80797
:102BA000A091B907B091BA070196A11DB11D8093FC
:102BB000B7079093B807A093B907B093BA07BF912E
:102BC000AF919F918F913F912F910F900FBE0F90DA
:102BD0001F9018950F931F938FB7F8940091B30728
:102BE0001091B4072091B5073091B6078FBFB80197
:102BF000C9011F910F9108950F931F939FB7F894E8
:102C00000091B7071091B8072091B9073091BA0722
:102C100086B5A89B06C08F3F21F00F5F1F4F2F4F37
:102C20003F4F9FBF322F212F102F0027080F111D5C
:102C3000211D311D42E0000F111F221F331F4A9535
:102C4000D1F7B801C9011F910F910895CF92DF927A
:102C5000EF92FF92CF93DF936B017C010E94FC15F2
:102C6000EB0110C00E94BE170E94FC156C1B7D0B6F
:102C7000683E734038F081E0C81AD108E108F108D5
:102C8000C851DC4FC114D104E104F10459F7DF91BC
:102C9000CF91FF90EF90DF90CF900895019739F09A
:102CA000880F991F880F991F02970197F1F70895D0
:102CB000789484B5826084BD84B5816084BD85B517
:102CC000826085BD85B5816085BDEEE6F0E08081DE
:102CD00081608083E1E8F0E01082808182608083FF
:102CE000808181608083E0E8F0E080818160808382
:102CF000E1EBF0E0808184608083E0EBF0E08081B4
:102D000081608083E1E9F0E080818260808380815E
:102D100081608083E0E9F0E0808181608083E1EA86
:102D2000F0E0808182608083808181608083E0EA3E
:102D3000F0E0808181608083E1E2F1E08081826067
:102D40008083808181608083E0E2F1E08081816026
:102D50008083EAE7F0E08081846080838081826004
:102D600080838081816080838081806880831092ED
:102D7000C1000895893009F443C088F4843029F1F2
:102D800038F4823059F1E8F4813009F05EC023C094
:102D9000873061F188F5863009F057C023C08D3047
:102DA00009F440C020F48B30A9F1C0F52DC080316A
:102DB00009F442C0813109F443C08F3009F045C0A5
:102DC00037C0809180008F7703C0809180008F7D15
:102DD00080938000089584B58F7702C084B58F7D7D
:102DE00084BD08958091B0008F7703C08091B000BA
:102DF0008F7D8093B0000895809190008F7707C0F9
:102E0000809190008F7D03C080919000877F809398
:102E1000900008958091A0008F7707C08091A00056
:102E20008F7D03C08091A000877F8093A0000895CC
:102E3000809120018F7707C0809120018F7D03C092
:102E400080912001877F809320010895CF93DF93A5
:102E500090E0FC01EB58FE4F4491FC01E554FE4F1D
:102E60008491882341F190E0880F991FFC01EB5C6D
:102E7000FD4F25913491D901855E9D4FFC018591CF
:102E80009491C82FD92F9FB7F8948C91611106C0E7
:102E9000409584238C938881842308C0623041F458
:102EA000242F209582238C938881842B888302C0D1
:102EB000842B8C939FBFDF91CF9108950F931F9325
:102EC000CF93DF931F92CDB7DEB7282F30E0F90103
:102ED000E15DFE4F8491F901EB58FE4F1491F90129
:102EE000E554FE4F04910023D1F0882321F069833B
:102EF0000E94BA166981E02FF0E0EE0FFF1FE55E39
:102F0000FD4F85919491DC019FB7F8948C916111EC
:102F100003C01095812301C0812B8C939FBF0F901C
:102F2000DF91CF911F910F910895CF93DF93282FB9
:102F300030E0F901E15DFE4F8491F901EB58FE4F5D
:102F4000D491F901E554FE4FC491CC2389F081114D
:102F50000E94BA16EC2FF0E0EE0FFF1FEF5FFD4F5F
:102F600085919491DC018C918D2321E030E011F466
:102F700020E030E0C901DF91CF9108950895CF930B
:102F8000DF93DC01E1E0F2E025913491C9019196F3
:102F90003C932E939097E3E1F2E025913491C22F78
:102FA000D32F9396DC93CE939297E7E1F2E02591AD
:102FB000349195963C932E939497FC01808196963C
:102FC0008C939697888197968C939797F901808137
:102FD00098968C93989799961C9299979A961C928A
:102FE0009A979B961C929B9780E11D928A95E9F790
:102FF000DF91CF9108951092680010926B001092AB
:103000006C0010926D000895FF920F931F93CF9361
:10301000DF93EC01ECA1FDA1008118A510278BA581
:10302000182308A7EEE3FE2E19C010FF14C0EF2DE1
:10303000F0E0F697EE0FFF1FEC0FFD1F80819181EE
:10304000DC01ED91FC91402F41700190F081E02D69
:103050006F2D70E0199516950695F3941111E5CF33
:10306000DF91CF911F910F91FF9008958EEB97E024
:103070000C9404181F920F920FB60F9211240BB6E6
:103080000F921BBE2F933F934F935F936F937F934A
:103090008F939F93AF93BF93EF93FF930E94361844
:1030A000FF91EF91BF91AF919F918F917F916F9120
:1030B0005F914F913F912F910F900BBE0F900FBEDC
:1030C0000F901F9018958EEB97E00C94BF178EEB26
:1030D00097E00C94FB17FC01A681B7819D012F5F3F
:1030E0003F4F8481958140855185840F951F281716
:1030F000390740F46C933783268311961C9221E0A4
:1031000030E002C020E030E0C9010895FC01A48154
:10311000B581B783A68380859185892B09F01C92A0
:10312000089508952F923F924F925F926F927F92EF
:103130008F929F92AF92BF92CF92DF92EF92FF92C7
:103140000F931F93CF93DF93CDB7DEB72A970FB6B8
:10315000F894DEBF0FBECDBF9A878987DC01D69673
:103160008C91882309F4FAC00E94EA1569837A8356
:103170008B839C83E985FA8580A191A129813A817D
:10318000281B390B84A595A5281739070CF4E6C030
:10319000028CF38DE02DC080D180E280F380A98580
:1031A000BA855E96ED91FC915F97A70196016081CB
:1031B0007181828193810E94323C6D837E838F83F3
:1031C0009887E985FA8520893189428953890E9447
:1031D000073FA985BA8594962D913D914D915C91BB
:1031E00097970E94333C562E672E782E092F982FE2
:1031F000452D562D692F702FE985FA8544A355A3D7
:1032000066A377A322A813A934A845A8222D312F9D
:10321000432D542D652D762D872D902F0E94FC3E39
:1032200018166CF4422D512F632D742DA985BA8583
:1032300094964D935D936D937C93979718C0E98511
:10324000FA8586A497A4A0A8B1A8A5019401652D2C
:10325000762D872D902F0E94F93C87FF08C0A98505
:10326000BA8594968D929D92AD92BC929797E9857E
:10327000FA852485358546855785BD81AE810F81C8
:10328000B8846B2F7A2F802F9B2D0E94073FA98532
:10329000BA8594962D913D914D915C9197970E949E
:1032A000333C4B015C01E985FA8520A531A542A597
:1032B00053A5C701B6010E94323CA985BA85549630
:1032C0002D913D914D915C9157970E94073F9B0135
:1032D000AC01C501B4010E94323C962EA72EB82E37
:1032E000092F222D312F432D542D692D7A2D8B2D11
:1032F000902F0E94FC3E1816B4F0E985FA8526A4AA
:1033000017A530A841A8222D312F432D542D692D0A
:103310007A2D8B2D902F0E94F93C87FD04C0292C1B
:103320001A2D3B2C402EA985BA855C96ED91FC9117
:103330005D97422D512F632D742D408351836283FD
:103340007383FD01C0A6D1A6E2A6F3A689819A8166
:10335000AB81BC8180A391A3A2A3B3A32A960FB68D
:10336000F894DEBF0FBECDBFDF91CF911F910F91BB
:10337000FF90EF90DF90CF90BF90AF909F908F9095
:103380007F906F905F904F903F902F9008952F9275
:103390003F924F925F926F927F928F929F92AF92E5
:1033A000BF92CF92DF92EF92FF920F931F93CF9332
:1033B000DF931C014A015B012801390120E030E064
:1033C000A901C501B4010E94F93C87FD8EC020E02F
:1033D00030E0A901C301B2010E94F93C87FD85C01C
:1033E00020E030E0A901C701B6010E94F93C87FD49
:1033F0007CC0F10180829182A282B3824482558294
:1034000066827782C086D186E286F38664A575A53A
:10341000882777FD8095982F0E949B3D20E030E023
:103420004AE754E40E94003DD62FC72F8C01F101DA
:1034300084869586A686B786BE01982F272F362FBD
:10344000492F512FC301B2010E94073F2B013C01BC
:10345000982F442D552D692F772DF101408B518BDD
:10346000628B738BBE01272F362F402F512FC70140
:10347000B6010E94003D7B01D82FC92FCE010E2D31
:103480001F2D292F382FF101048B158B268B378B9D
:10349000808D918D019749F5A501940160E070E060
:1034A000CB010E94323CF10164877587868797873C
:1034B000242D352D462D572D60E070E0CB010E9464
:1034C000323CF101608B718B828B938BCE01202F6C
:1034D000312F492F582F60E070E0CB010E94323C21
:1034E000F101648B758B868B978BDF91CF911F9148
:1034F0000F91FF90EF90DF90CF90BF90AF909F9093
:103500008F907F906F905F904F903F902F90089595
:10351000CF92DF92EF92FF920F931F93CF93DF939F
:10352000EC018B0116161706BCF5882777FD8095F0
:10353000982F0E949B3D6B017C016CA57DA588277F
:1035400077FD8095982F0E949B3D9B01AC01C701A0
:10355000B6010E94003D6B017C01762F272F3D2D87
:103560004E2D5F2D688979898A899B890E94073F42
:10357000688B798B8A8B9B8B2C2D3D2D4E2D5F2D4F
:103580006C897D898E899F890E94003D6C8B7D8B23
:103590008E8B9F8B1DA70CA7DF91CF911F910F9151
:1035A000FF90EF90DF90CF9008954F925F926F92CF
:1035B0007F928F929F92AF92BF92CF92DF92EF92C3
:1035C000FF920F931F93CF93DF93EC016A017B016E
:1035D00048015901A9019801C701B6010E94FC3EAA
:1035E00087FF4FC0CEA6DFA6E8AAF9AA8AAA9BAA9F
:1035F000ACAABDAA8EA9882309F443C00C8D1D8DE9
:10360000F8014080518062807380A5019401C3015C
:10361000B2010E94FC3E181634F4F80180829182B7
:10362000A282B3820DC0A7019601C301B2010E941C
:10363000F93C87FF05C0F801C082D182E282F382A3
:103640008CA09DA0AEA0BFA0CAA8DBA8ECA8FDA836
:10365000A7019601C501B4010E94FC3E18160CF4A6
:103660000CC0CEA4DFA4E8A8F9A8A7019601C50163
:10367000B4010E94F93C87FF04C0CCA2DDA2EEA2F7
:10368000FFA2DF91CF911F910F91FF90EF90DF90FC
:10369000CF90BF90AF909F908F907F906F905F90F2
:1036A0004F9008958F929F92AF92BF92CF92DF92E8
:1036B000EF92FF92CF93DF93EC01EC8DFD8DC080F4
:1036C000D180E280F380CCA2DDA2EEA2FFA2EA8D3F
:1036D000FB8D408151816281738148A759A76AA7F8
:1036E0007BA78AA89BA8ACA8BDA8A5019401C70187
:1036F000B6010E94FC3E18160CF40CC08EA49FA4C8
:10370000A8A8B9A8A5019401C701B6010E94F93C77
:1037100087FF04C08CA29DA2AEA2BFA2DF91CF9171
:10372000FF90EF90DF90CF90BF90AF909F908F90E1
:1037300008951F93CF93DF93EC0111E06130710581
:1037400009F010E08EA991E08927181303C0CE017B
:103750000E94521B1EABDF91CF911F9108950F93D2
:103760001F93CF93DF93EC018B018EA9882361F126
:10377000888D998D6817790739F12C853D854E859F
:103780005F8560E070E0CB010E94323C6C877D87F2
:103790008E879F87288939894A895B8960E070E034
:1037A000CB010E94323C688B798B8A8B9B8B2C8956
:1037B0003D894E895F8960E070E0CB010E94323C18
:1037C0006C8B7D8B8E8B9F8B198F088FDF91CF91A8
:1037D0001F910F9108952F923F924F925F926F9297
:1037E0007F928F929F92AF92BF92CF92DF92EF9291
:1037F000FF920F931F93CF93DF9300D000D0CDB7EC
:10380000DEB71C017A8369835C834B833E832D83FF
:10381000270138014501560100E010E02FE733E4AD
:1038200040E050E0BA010E94D51A84E690E0F10130
:1038300095A784A768A179A1C1010E94AF1BCC8C78
:10384000DD8CEE8CFF8C95018401B301A201C101D6
:103850000E94C7190E94EA15F10184A495A4AA2424
:1038600097FCA094BA2C681979098A099B0960A36E
:1038700071A382A393A316AA8B819C81958F848FB9
:1038800089819A81938F828F8D819E81978F868F78
:1038900026960FB6F894DEBF0FBECDBFDF91CF9155
:1038A0001F910F91FF90EF90DF90CF90BF90AF905E
:1038B0009F908F907F906F905F904F903F902F9050
:1038C00008950F931F93CF93DF93FC01718360835F
:1038D000128213821482158286E5868317821086EF
:1038E0001186128613861486158616861786108A08
:1038F000118A128A138A148A158A168ADF01A7543C
:10390000BF4F1D921C92DF01A55ABE4F1D921C9203
:10391000DF01A15ABE4F1D921C92DF01AF59BE4F6D
:103920001D921C92DF01AD59BE4F1D921C92178A49
:10393000DF01A954BF4F1D921C92EF010EE110E070
:103940008FE090E00E948A13FE01E15EFE4F8083CB
:1039500091838FE090E00E948A13FC01DE01A5585C
:10396000BF4F8D939C93108201501109229601152F
:10397000110531F7DF91CF911F910F910895FC014F
:103980005281438134812581652F742F832F922F9B
:103990000895FC0186810895FC0157814085318599
:1039A0002285652F742F832F922F0895FC01538554
:1039B000448535852685652F742F832F922F089592
:1039C000CF92DF92EF92FF926A017B01FC01278583
:1039D000308941895289C701B6010E94073FFF9093
:1039E000EF90DF90CF900895FC0153894489358989
:1039F0002689652F742F832F922F08959C01295EAD
:103A00003F4FC9010895660F771F680F791FFB01AB
:103A1000E558FF4F8081918108954F925F926F9298
:103A20007F928F929F92AF92BF92CF92DF92EF924E
:103A3000FF920F931F93CF93DF93DB01CC9181E033
:103A400090E0CD3221F0CB3211F080E090E02B01FC
:103A5000480E591E612C3DECA32E4CEC942E5CECD0
:103A6000852E6DE3762EB12C00E010E0D0E0C12C65
:103A7000D12C76014AC0EE3209F445C0FF27E7FD9C
:103A8000F095611015C0AAE0B0E0A70196010E9470
:103A9000D13F6B017C01BF0160537109CB01AA27A3
:103AA00097FDA095BA2FC80ED91EEA1EFB1E2DC089
:103AB000BF0160537109882777FD8095982F0E9478
:103AC0009B3D9B01AC016A2D792D882D972D0E947D
:103AD000073F9B01AC016B2D702F812F9D2F0E9402
:103AE000333CB62E072F182FD92F20E030E040E2CC
:103AF00051E46A2D792D882D972D0E94003DA62E28
:103B0000972E882E792E66246394D201ED912D0193
:103B1000E111B1CFC701B6010E949B3D9B01AC01F1
:103B20006B2D702F812F9D2F0E94333CCD3249F495
:103B3000262F372F482F592F60E070E0CB010E94CD
:103B4000323CDF91CF911F910F91FF90EF90DF906A
:103B5000CF90BF90AF909F908F907F906F905F902D
:103B60004F9008958F929F92AF92BF92EF92FF92E3
:103B70000F931F93CF93DF93EC01FC01E55AFE4FA7
:103B8000808191818436910584F4FE01E754FF4FD2
:103B9000208131812E31310544F4FE01ED59FE4F73
:103BA000208131812F3031052CF0FE01E15AFE4F8A
:103BB000118210828E01015A1E4F6A3011F06D3051
:103BC00019F4D8011D921C92643211F5FE01E35ADA
:103BD000FE4F11821082FE01EF59FE4F11821082BA
:103BE000FE01E754FF4F11821082FE01ED59FE4F96
:103BF00011821082FE01E554FF4F6083FE01E55AF9
:103C0000FE4F81E090E091838083C15ADE4FE0C097
:103C1000F801208131812130310571F024F4232B0A
:103C200009F48DC288C22230310509F48BC02330DB
:103C3000310509F080C2CFC0873091057CF4FC01CA
:103C4000E45FFD4F2081621309C0FE01E35AFE4F7D
:103C5000208131812F5F3F4F31832083FE01E80FA8
:103C6000F91FE554FF4F6083FE01E55AFE4F0196B0
:103C7000918380838E0107541F4FFE01ED59FE4F43
:103C80006A3219F16C32E1F5D8012D913C91C901EC
:103C9000880F991F8C0F9D1F815E9E4FDC018D91B7
:103CA0009C9140815181840F951FDC011C922F5FF4
:103CB0003F4FD8012D933C9311821082CF59DE4F94
:103CC00088819981BCE28B2783C0D8012D913C91DA
:103CD000C901880F991F8C0F9D1F815E9E4FDC01CB
:103CE0008D919C9140815181840F951FDC011C9224
:103CF0002F5F3F4FD8012D933C931182108263C0F8
:103D000020813181D8018D919C91880F991F8C0F52
:103D10009D1FDC01A15EBE4F0D90BC91A02DA20F96
:103D2000B31F6C932F5F3F4F31832083CF59DE4FFA
:103D3000772767FD7095888199816827792779832E
:103D40006883FDC1FE01E80FF91FE554FF4F608352
:103D5000FE01E55AFE4F019691838083DE01AD5945
:103D6000BE4F2D913C911197FE01E754FF4F80818A
:103D70009181880F991F8C0F9D1FFC01E15EFE4F02
:103D80000190F081E02DE20FF31F60832F5F3F4F22
:103D90002D933C93FE01EF59FE4F40815181862FB8
:103DA000992787FD9095613414F0C79701C0C0979B
:103DB0009C01A4E0220F331FAA95E1F7CA01821BE0
:103DC000930B91838083C15ADE4F8881998101963C
:103DD00099838883B4C19E01280F391FD901A55446
:103DE000BF4F6C93D901A454BF4F1C92DE01A55A5A
:103DF000BE4F02968D939C939E012D593E4FF90123
:103E000040815181DE01A754BF4F8D919C91119744
:103E1000880F991F8C0F9D1F815E9E4FFC01808132
:103E20009181840F951FFC0160834F5F5F4FF90103
:103E3000518340832D913C911197C901880F991F9F
:103E40008C0F9D1F815E9E4FFC0180819181840FAC
:103E5000951FFC0110822F5F3F4F2D933C93D8019B
:103E60001D921C92FE01EF59FE4F80819181262FF9
:103E7000332727FD309561341CF02753310902C0E8
:103E800020533109821B930B91838083892B09F086
:103E900056C188819981892B39F4FE01E55AFE4F7C
:103EA00020813181C90110C0FE01E35AFE4F80819B
:103EB0009181069791F343C1FE01E80FF91FDF01DD
:103EC000A554BF4F4C91478B019797FFF5CFA901A0
:103ED00041505109C90137FF02C080E090E0FE0166
:103EE000E55AFE4F9A01281B390B318320837E014E
:103EF00037EBE30EF11CD7011D921C92B7018E0126
:103F000007541F4FDE01AD59BE4F31C011961C92B0
:103F10001E9208C040838D919C9111970196119635
:103F20009C938E93FB01808191812D913C911197FF
:103F3000880F991F8C0F9D1FAC01415E5E4FFA01E7
:103F400040815181420F531FFA01408185589F4F94
:103F5000FC0180819181820F931FFC014111DACF16
:103F60001082F70180819181019691838083FB010A
:103F700020813181F801808191812817390734F23D
:103F8000FE01E35AFE4F80819181069709F0DAC065
:103F9000FE01EF5DFE4F60817181CE010E940D1D1B
:103FA0006A837B838C839D83FE01ED5DFE4F0190D0
:103FB000F081E02D80818E83FE01EB5DFE4F6081FC
:103FC0007181CE010E940D1D20E030E048EC52E4EA
:103FD0000E94003D7B018C017F2D802F912F0E943C
:103FE000D63D4B015C01FE01EB59FE4F60837183AE
:103FF000828393839B01AC016E2D7F2D802F912FA7
:104000000E94323C20E030E048EC52E40E94073F3E
:1040100020E030E040E752E40E94003DA501940119
:104020000E94333C9B01462F532F682F792F4F83DB
:10403000588769877A87FE01E95DFE4F0190F0811C
:10404000E02D4081433559F4482F592F60E070E04E
:10405000CB010E94323C6F83788789879A87FE0163
:10406000E75DFE4F60817181CE010E940D1D20E051
:1040700030E048EC52E40E94003D7B018C017F2D32
:10408000802F912F0E94D63D4B015C01FE01EB5920
:10409000FE4F60837183828393839B01AC016E2DFD
:1040A0007F2D802F912F0E94323C20E030E048ECA1
:1040B00052E40E94073F20E030E040E752E40E94D3
:1040C000003DA50194010E94333C9B01462F532FD4
:1040D000682F792F4B875C876D877E87FE01E55DB2
:1040E000FE4F0190F081E02D4081473559F4482F73
:1040F000592F60E070E0CB010E94323C6B877C87D7
:104100008D879E87FE01E35DFE4F60817181CE0148
:104110000E940D1D6F87788B898B9A8BFE01E15D64
:10412000FE4F60817181CE010E940D1D6B8B7C8BD7
:104130008D8B9E8B07C0C15ADE4F1982188220E0FA
:1041400030E002C021E030E0C901DF91CF911F9142
:104150000F91FF90EF90BF90AF909F908F90089538
:10416000CF92DF92EF92FF920F931F936B017C012E
:10417000CA01B90120E034E244E75BE40E94073F52
:1041800020E030E0A9010E94003D0E94683D80E0EF
:1041900091E0861B970B9093EB078093EA07C1147D
:1041A000D104E104F10469F481E090E0A0E0B0E022
:1041B0008093F3079093F407A093F507B093F60765
:1041C00008C0C092F307D092F407E092F507F0928E
:1041D000F6071093F2070093F1071F910F91FF90DC
:1041E000EF90DF90CF9008950F931F938A012FE6F1
:1041F00032E143E85AE30E94B0201F910F910895E5
:104200001092ED071092EE071092EF071092F00750
:104210001092EC0708958091ED079091EE07A09120
:10422000EF07B091F0070196A11DB11D8093ED0736
:104230009093EE07A093EF07B093F0074091ED073E
:104240005091EE076091EF077091F0078091F307AE
:104250009091F407A091F507B091F6074817590718
:104260006A077B07B0F08091EC07811112C081E0F2
:104270008093EC071092ED071092EE071092EF0773
:104280001092F007E091F107F091F2071995109262
:10429000EC0708951F920F920FB60F9211240BB6E0
:1042A0000F921BBE2F933F934F935F936F937F9318
:1042B0008F939F93AF93BF93EF93FF930E940B2134
:1042C000FF91EF91BF91AF919F918F917F916F91EE
:1042D0005F914F913F912F910F900BBE0F900FBEAA
:1042E0000F901F901895FC0115821682178280E0AE
:1042F00090E0DF01A80FB91F18961C92019680323A
:104300009105B9F710A612A611A605A8F6A9E02DE9
:10431000309709F01994089580E695E09093F80796
:104320008093F7071092F90787EF97E00C947321B9
:104330009091D6088091D508981769F08F5F8035E5
:1043400008F080E0E82FF0E0EB57F74F20818093F2
:10435000D50830E002C02FEF3FEFC90108958091EA
:10436000D608E091D5088E1731F0F0E0EB57F74F03
:10437000208130E002C02FEF3FEFC9010895509136
:10438000D6084091D508252F30E0842F90E05417AF
:1043900008F002C0205B3F4F281B390BC90108956C
:1043A0009B01AC012D3A8BE138074105510530F4F2
:1043B000109273001092200181E812C063E05695BC
:1043C0004795379527956A95D1F72D3A8BE13807B0
:1043D00041055105B0F5109273001092200182E85A
:1043E000809321013093DA082093D908A5E2B0E048
:1043F0000E94D13F22E096958795779567952A95FB
:10440000D1F77093DC086093DB0862E080E30E94E0
:10441000261761E08EE20E945E1761E08EE20E9444
:1044200026171092D7081092D6081092D50810922D
:104430008408109283081092820880E28ABB8093DD
:1044400073000895909183089F5F943408F090E082
:10445000209182082917E1F32FB7F894309184084E
:10446000332341F0E92FF0E0EE5CF74F8083909327
:1044700083081DC091E0909384088093DD0810921A
:10448000DE0882E08ABB80917300826080937300B3
:10449000809120018F738068809320018091240196
:1044A00090912501409690932901809328012FBF78
:1044B0000895862F0E94222281E090E008951F92A5
:1044C0000F920FB60F9211240BB60F921BBE2F93B3
:1044D0003F934F935F936F937F938F939F93EF934C
:1044E000FF93409184085091DD08809128019091BC
:1044F00029012091D9083091DA087091DE081DC099
:10450000820F931F652F617056954F5F6717A9F053
:1045100020912001662311F0206C02C02F732068C7
:104520002093200190932901809328016093DE0855
:104530005093DD08409384083FC0493008F3493068
:1045400039F42AE02093840820912001206C28C0AF
:1045500020918308E09182082E130DC010928408E8
:10456000809120018F7380932001809173008D7F53
:104570008093730021C021E020938408EF5FE4342E
:1045800008F0E0E0E0938208F0E0EE5CF74F208175
:104590002093DD081092DE08209120012F732068FF
:1045A000209320012091D9083091DA08280F391F73
:1045B0003093290120932801FF91EF919F918F91D2
:1045C0007F916F915F914F913F912F910F900BBE13
:1045D0000F900FBE0F901F90189580918408811145
:1045E000FCCF08950C94ED221F920F920FB60F92FC
:1045F00011240BB60F921BBE2F933F934F938F93B3
:104600009F93EF93FF938091260190912701409112
:10461000D7082091210140FF04C02F7B2093210166
:104620001BC0206420932101411116C02091DB089A
:104630003091DC08280F391F30932B0120932A0179
:1046400024E02ABB20917300246020937300909390
:10465000E0088093DF080AC04A3040F4E42FF0E01D
:10466000EE0FFF1FE152F74F918380834F5F40931E
:10467000D7082091240130912501281B390B809106
:10468000D9089091DA088217930718F481E0809393
:10469000D808FF91EF919F918F914F913F912F916A
:1046A0000F900BBE0F900FBE0F901F9018951F928A
:1046B0000F920FB60F9211240BB60F921BBEAF9242
:1046C000BF92CF92DF92EF92FF920F931F932F939F
:1046D0003F934F935F936F937F938F939F93AF938A
:1046E000BF93CF93DF93EF93FF93809173008B7F02
:1046F00080937300809121018F7B80932101109121
:10470000D6081F5F103508F010E08091D508181703
:10471000E9F1C12FD0E00091D7080B3008F00AE092
:104720006091DF087091E0082091D9083091DA0893
:10473000C90196958795820F931F40E050E0E12CC8
:10474000DD24D394FF24FA94E1EEF8E0CC24C39462
:1047500015C0A191B1915D01A61AB70A4A0D5B1D62
:1047600008C0E11003C06D2D6095F622DD0C820FAC
:10477000931F48175907A8F7EC24BD01015049F7CA
:10478000FE01EB57F74FF0821093D6081092D7082E
:10479000FF91EF91DF91CF91BF91AF919F918F9159
:1047A0007F916F915F914F913F912F911F910F9149
:1047B000FF90EF90DF90CF90BF90AF900F900BBE27
:1047C0000F900FBE0F901F9018958091D508809381
:1047D000D6080895CF93DF93C3E7D0E088818B7F1D
:1047E000888388818F7D88830E94E5230E94ED2243
:1047F00088818D7F8883DF91CF91089528E232E010
:10480000FC0131832083089528E232E0FC013183EA
:1048100020830C948C15FC01CB0128E232E031831B
:10482000208373836283148240E050E0BA010E94C7
:10483000C32D61E086E10E94261761E087E10E94B6
:10484000261761E088E10E94261761E089E10C9457
:104850002617CF92DF92EF92FF92CF93DF93EC0176
:104860008A819B810E94BE2D882311F18A819B81C0
:104870000E948A2D18161906DCF48A819B810E94F9
:10488000962D6B017C018A819B810E948A2DBC013F
:10489000882777FD8095982F0E949B3D9B01AC0156
:1048A000C701B6010E94FC3E181614F461E001C075
:1048B00060E08A819B81DF91CF91FF90EF90DF9044
:1048C000CF900C94F32E20E332E0FC01318320835F
:1048D000089520E332E0FC01318320830C948C1591
:1048E0002F923F924F925F926F927F928F929F9200
:1048F000AF92BF92CF92DF92EF92FF920F931F93EE
:10490000CF93DF9300D000D0CDB7DEB79E838D83E9
:104910004A015B0168017901FC01828193810E9457
:10492000192B9B01AC01C501B4010E94333C698382
:104930007A831C01ED81FE81828193810E94192B73
:104940009B01AC01C501B4010E94323C2B013C012A
:10495000ED81FE81828193810E94192B9B01AC0124
:10496000C701B6010E94333C4B015C01ED81FE8121
:10497000828193810E94192B9B01AC01C701B60172
:104980000E94323C162F7B838C83092FED81FE81A0
:10499000828193810E94232B6B017C0124E83AEBF6
:1049A0004CE358E3B981AA816B2F7A2F822D932D86
:1049B0000E94323CA70196010E94FC3E181694F416
:1049C000ED81FE81828193810E94032B9B01AC01CA
:1049D000B981AA816B2F7A2F822D932D0E94F93CE9
:1049E00087FD7EC0ED81FE81828193810E94032B31
:1049F0006B017C0124E83AEB4CE358E3642D752D00
:104A0000862D972D0E94333CA70196010E94F93C08
:104A100087FF11C0ED81FE81828193810E94232B4B
:104A20009B01AC01642D752D862D972D0E94FC3EB7
:104A300018160CF462C0ED81FE81828193810E9480
:104A40002D2B2B013C0124E83AEB4CE358E3682D75
:104A5000792D8A2D9B2D0E94323CA30192010E9448
:104A6000FC3E181684F4ED81FE81828193810E94C0
:104A7000D72A9B01AC01682D792D8A2D9B2D0E9490
:104A8000F93C87FD45C0ED81FE81828193810E94C2
:104A9000D72A4B015C0124E83AEB4CE358E3AB81A5
:104AA000FC80612F7A2F8F2D902F0E94333CA5011F
:104AB00094010E94F93C87FF5AC0ED81FE818281FA
:104AC00093810E942D2B9B01AC01AB81FC80612F57
:104AD0007A2F8F2D902F0E94FC3E181624F147C08C
:104AE00039812A81432F522F622D732DED81FE8152
:104AF000828193810E94F92D75CF442D552D662D0D
:104B0000772DED81FE81828193810E940D2E93CFBE
:104B1000482D592D6A2D7B2DED81FE818281938157
:104B20000E94DD2DB0CF2B819C81412F522F692F08
:104B3000702FED81FE818281938126960FB6F894C5
:104B4000DEBF0FBECDBFDF91CF911F910F91FF90C0
:104B5000EF90DF90CF90BF90AF909F908F907F901D
:104B60006F905F904F903F902F900C94132E26964D
:104B70000FB6F894DEBF0FBECDBFDF91CF911F916E
:104B80000F91FF90EF90DF90CF90BF90AF909F90EC
:104B90008F907F906F905F904F903F902F900895EF
:104BA0008F929F92AF92BF92CF92DF92EF92FF923D
:104BB0000F931F93CF93DF93EC016A017B014801B0
:104BC000590140E050E064EB72E48A819B810E94CD
:104BD000F92D40E050E064EB72EC8A819B810E94E9
:104BE0000D2E40E050E064E373E48A819B810E94D3
:104BF000DD2D40E050E064E373EC8A819B810E94EC
:104C0000132E8A819B810E940D2B2DE93BEF46E1FB
:104C100057E30E94073FAB01BC018A819B810E9440
:104C2000072E95018401B701A601CE010E947024D0
:104C3000DF91CF911F910F91FF90EF90DF90CF9078
:104C4000BF90AF909F908F900895CF92DF92EF9298
:104C5000FF920F931F93CF93DF931F921F92CDB7B5
:104C6000DEB76C017B0180E392E0F60191838083E3
:104C700073836283CB010E94ED2A8B019C01C701E3
:104C800029833A830E94E12AAB01BC0129813A8140
:104C9000C6010E94D0250F900F90DF91CF911F91F8
:104CA0000F91FF90EF90DF90CF9008958F929F9299
:104CB000AF92BF92CF92DF92EF92FF920F931F932A
:104CC000CF93DF9300D01F92CDB7DEB74C01FC012C
:104CD000828193810E94B42D882309F4CFC00E9461
:104CE000EA156B017C01F401828193810E94532DAE
:104CF000C61AD70AE80AF90AF1EECF16F3E9DF0679
:104D0000F4E0EF06F10438F0F401828193810E940F
:104D1000B42D811184C0F401828193810E947F2D82
:104D2000882309F4ABC0F401828193810E94672D2E
:104D30005B016C01F401828193810E945B2D7B01F8
:104D40008C01F401828193810E94ED2A9B01AC01C8
:104D5000F401828193812B833C8349835A830E948F
:104D6000E12A2B813C8149815A810E940434AB01A4
:104D7000BC01F401828193810E94D72DF4018281CC
:104D800093810E94CD2A6B017C01F4018281938181
:104D90000E94F92A9B01AC01C701B6010E94FC3EAA
:104DA000181664F4F401828193810E94CD2AAB012C
:104DB000BC01F401828193810E94F32DF401828170
:104DC00093810E94672D8B019C01F4018281938164
:104DD0002B833C830E945B2DAB01BC012B813C816A
:104DE000C4010E947024F401828193810E94B42D39
:104DF000882371F1F401828193810E94CD2A6B0195
:104E00007C01F401828193810E940D2B9B01AC01F6
:104E1000C701B6010E94FC3E181684F019C040E09C
:104E200050E0BA01F401828193810E94C92D61E0B2
:104E3000F401828193810E94D42D6DCF40E050E037
:104E4000BA01F401828193810E94C92D61E001C001
:104E500060E0F401828193810F900F900F900F908A
:104E6000DF91CF911F910F91FF90EF90DF90CF9046
:104E7000BF90AF909F908F900C94D42D0F900F9077
:104E80000F900F90DF91CF911F910F91FF90EF90B6
:104E9000DF90CF90BF90AF909F908F900895CF9369
:104EA000DF93EC018A819B810E945B2DAB01BC01E9
:104EB0008A819B810E94E32D8A819B810E94672DBC
:104EC000AB01BC018A819B810E94EB2D40E050E048
:104ED000BA018A819B81DF91CF910C94F32D6F925F
:104EE0007F928F929F92AF92BF92CF92DF92EF927A
:104EF000FF920F931F93CF93DF93CDB7DEB7E79762
:104F00000FB6F894DEBF0FBECDBF4C018B013C0144
:104F100083E1680E711CC3010E949118F401128B89
:104F2000018BC8010E94412B20E030E044E354E4AF
:104F30000E94333C6B017C01982F4C2D5D2D692F15
:104F40007F2DF4014083518362837383C8010E94E3
:104F50005F2B9B01AC016C2D7D2D8E2D9F2D0E9412
:104F6000333CF4016483758386839783C8010E9470
:104F7000372BF401608771878287938781E0808B6C
:104F8000A401485F5F4FB4016C5F7F4F1F928F9306
:104F90008FE38F9385E08F938EE18F9388EB8F93D0
:104FA0008AE0A82E87EDB82E83EAC82E8DE3D82E8E
:104FB00016E6E12EFE2C06EE1EE39401CE010196CC
:104FC0000E94EB1B87E3FE013196D30101900D9205
:104FD0008A95E1F700E010E024E832E440E050E098
:104FE000BA01C3010E94D51A64E670E0C3010E94B1
:104FF000881A0F900F900F900F900F900F90E796D8
:105000000FB6F894DEBF0FBECDBFDF91CF911F91D9
:105010000F91FF90EF90DF90CF90BF90AF909F9057
:105020008F907F906F90089508958F929F92AF9286
:10503000BF92CF92DF92EF92FF920F931F93CF9385
:10504000DF93EC0189899A890E94DD2E8E010D5E25
:105050001F4F882309F4CDC061E070E0C8010E94B1
:10506000991B89899A890E94412B20E030E044E312
:1050700054E40E94333C6B017C01982F4C2D5D2D34
:10508000692F7F2D488359836A837B8389899A8915
:105090000E945F2B9B01AC016C2D7D2D8E2D9F2DD1
:1050A0000E94333C6C837D838E839F83C8010E9462
:1050B00092182C853D854E855F85688579858A8522
:1050C0009B850E94323CB62FA72F462F572F682F63
:1050D000792F4A015B0120E030E0A9016B2F7A2F84
:1050E0000E94FC3E181624F0B7FAB094B7F8B094BA
:1050F00089899A890E94472DBC01882777FD809570
:10510000982F0E949B3D9B01AC01C501B4010E94F8
:10511000FC3E18160CF07EC08889C884D984EA84C5
:10512000FB848C849D84AE84BF84A5019401882374
:1051300011F1C701B6010E94FC3E18160CF421C003
:10514000A5019401C701B6010E94F93C87FF3DC04B
:10515000188A89899A890E944D2DBC01882777FD7C
:105160008095982F0E949B3D9B01AC01C701B60121
:105170000E94323C26C0C701B6010E94F93C87FF5D
:1051800005C0CC86DD86EE86FF861FC0A501940192
:10519000C701B6010E94FC3E1816BCF481E0888B62
:1051A00089899A890E944D2DBC01882777FD8095B9
:1051B000982F0E949B3D9B01AC01C701B6010E9444
:1051C000333C6C877D878E879F874C855D856E8598
:1051D0007F8589899A89DF91CF911F910F91FF90E7
:1051E000EF90DF90CF90BF90AF909F908F900C94F6
:1051F000482E60E070E0C801DF91CF911F910F91C0
:10520000FF90EF90DF90CF90BF90AF909F908F90E6
:105210000C94991BDF91CF911F910F91FF90EF900C
:10522000DF90CF90BF90AF909F908F900895DC015A
:10523000ED91FC910190F081E02D19940F931F9353
:10524000FC0110821182128213821482158216824E
:105250001782108A118A128A138A148A158A168A6A
:10526000178A108E118E128E138E148E40E050E02D
:1052700064EB72E4458F568F678F70A340E050E077
:1052800064EB72EC41A352A363A374A340E050E02B
:1052900064E373E445A356A367A370A740E050E01E
:1052A00064E373EC41A752A763A774A715A683E430
:1052B00082AB13AA14AA15AA16AA40E050E064E033
:1052C00072E447AB50AF61AF72AF13AE40E050E055
:1052D00068EC72E444AF55AF66AF77AFDF01A05C16
:1052E000BF4F40E050E060E271E44D935D936D93F9
:1052F0007C931397DF01AC5BBF4F4D935D936D9330
:105300007C93139710861186128613861486158651
:1053100016861786DF01A85BBF4F1C92DF01A75BD3
:10532000BF4F1D921D921D921C921397DF01A35B2C
:10533000BF4F1D921D921D921C921397DF01AF5A11
:10534000BF4F86E58C93DF01AE5ABF4F1D921D9271
:105350001D921C921397DF01AA5ABF4F1D921D92F6
:105360001D921C921397DF01A65ABF4F1D921D92EA
:105370001D921C921397DF01A25ABF4F1D921D92DE
:105380001D921C921397DF01AE59BF4F1C92DF0193
:10539000AD59BF4F1C92DF01AC59BF4F1C92DF01CA
:1053A000AB59BF4F1D921D921D921C921397DF01A6
:1053B000A759BF4F1D921D921D921C921397DF019A
:1053C000A359BF4F1D921C92DF01A159BF4F1D92DF
:1053D0001C92DF01AF58BF4F1D921C92DF01AD58E8
:1053E000BF4F1C92DF01AC58BF4F1D921D921D9202
:1053F0001C921397DF01A858BF4F1D921D921D925A
:105400001C921397DF01A458BF4F40E050E060E2C8
:1054100072E44D935D936D937C931397DF01A058D5
:10542000BF4F1C92DF01AF57BF4F1C92DF01AE5739
:10543000BF4F1D921C92DF01AC57BF4F1D921C92B3
:10544000DF01AA57BF4F40E050E060E87FE34D9393
:105450005D936D937C931397DF01A657BF4F1C920A
:10546000DF01A557BF4F00EE13E924E030E00D93B4
:105470001D932D933C931397DF01A157BF4F1C92AF
:10548000DF01A057BF4F1C92DF01AF56BF4F83E62D
:1054900090E08D939C93DF01AD56BF4F1C92DF01CE
:1054A000AC56BF4F4D935D936D937C931397DF0183
:1054B000A856BF4F1D921C92E656FF4F85E090E024
:1054C000918380831F910F910895FC01DB01129657
:1054D0008D919C9113979383828314964D915D9146
:1054E0006D917C91179744835583668377831896D3
:1054F0004D915D916D917C911B974087518762879B
:10550000738780EE94E0918380831C968D919C91AB
:105510001D97958784871E968D919C911F979787DD
:10552000868750968D919C915197918B808B529646
:105530008D919C915397938B828B54968D919C91D6
:105540005597958B848B56968D919C915797978BF9
:10555000868B58968D919C915997918F808F5A96F2
:105560008D919C915B97938F828F5C968C915C97C9
:10557000848F5D968C915D97858F5E968C915E97FA
:10558000868F5F968C915F97878F90968C9190977E
:1055900080A391968C9181A30895FC01548945893B
:1055A00036892789652F742F832F922F0895FC0148
:1055B00055A146A137A120A5652F742F832F922FC7
:1055C0000895FC01EC58FF4F5081418132812381C5
:1055D000652F742F832F922F0895FC01E858FF4FF9
:1055E0005081418132812381652F742F832F922F27
:1055F0000895FC01508D418D328D238D652F742FC0
:10560000832F922F0895FC01558D468D378D20A153
:10561000652F742F832F922F0895FC01E458FF4FBC
:105620005081418132812381652F742F832F922FE6
:105630000895FC015089418932892389652F742F8F
:10564000832F922F0895FC0151A142A133A124A1DF
:10565000652F742F832F922F0895FC0151A542A529
:1056600033A524A5652F742F832F922F0895FC0155
:1056700057A940AD31AD22AD652F742F832F922FE6
:105680000895FC0153A944A935A926A9652F742FB3
:10569000832F922F0895FC0182A9873559F4E1598F
:1056A000FF4F60817181882777FD8095982F0E9438
:1056B0009B3D04C060857185828593850895EF9236
:1056C000FF920F931F93CF93DF93EC010E944B2B1C
:1056D0009B01AC016BA97CA98DA99EA90E94323CBB
:1056E0007B018C0120E030E044E353E47F2D912FD7
:1056F0000E94FC3E18168CF020E030E044E353ECAE
:105700006E2D7F2D802F912F0E94F93C87FF0AC0BC
:1057100020E030E044EB53E408C020E030E044EB0C
:1057200053EC03C020E030E0A9016E2D7F2D802FC7
:10573000912F0E94333C9B01462F532F682F792FC6
:105740004EA75FA768AB79AB622F732FDF91CF9124
:105750001F910F91FF90EF900895EF92FF920F939A
:105760001F93CF93DF938C01D62FC72F64E572E090
:105770008D2F9C2F0E949C066FE572E08D2F9C2F31
:105780000E949C06F80165A54AE050E070E08D2F6C
:105790009C2F0E9444086DE672E08D2F9C2F0E9482
:1057A0009C06F80162A98D2F9C2F0E949E06F8018D
:1057B00085A58823D9F163E772E08D2F9C2F0E9485
:1057C0009C06F80143A954A965A976A922E030E016
:1057D0008D2F9C2F0E945A0969E772E08D2F9C2F14
:1057E0000E949C06C8010E944B2BAB01BC0122E029
:1057F00030E08D2F9C2F0E945A096FE772E08D2FA9
:105800009C2F0E949C0620E030E044E052E4F80126
:1058100067A970AD81AD92AD0E94323CAB01BC0175
:1058200022E030E08D2F9C2F0E945A0965E872E03B
:105830008D2F9C2F0E949C067801F0E8EF0EF11C42
:10584000F70160814AE050E070E08D2F9C2F0E94AC
:1058500044086BE872E08D2F9C2F0E949C06F80193
:10586000E458FF4F408151816281738122E030E032
:105870008D2F9C2F0E945A09F70180818823B9F14E
:1058800061E972E08D2F9C2F0E949C06F801EC5874
:10589000FF4F408151816281738122E030E08D2F82
:1058A0009C2F0E945A0967E972E08D2F9C2F0E945D
:1058B0009C06F801E858FF4F408151816281738155
:1058C00022E030E08D2F9C2F0E945A096DE972E092
:1058D0008D2F9C2F0E949C06F8014489558966896A
:1058E000778922E030E08D2F9C2F0E945A0963EACD
:1058F00072E08D2F9C2F0E949C06F801ED56FF4F01
:1059000060814AE050E070E08D2F9C2F0E94440897
:1059100069EA72E08D2F9C2F0E949C06F801EF56D9
:10592000FF4F608171814AE050E08D2F9C2F0E94D3
:1059300044086DE572E08D2F9C2F0E94ED0680E0FB
:1059400090E0DF91CF911F910F91FF90EF9008951C
:10595000BF92CF92DF92EF92FF920F931F93CF935C
:10596000DF93CDB7DEB7A2970FB6F894DEBF0FBEB8
:10597000CDBF7C014334A1F56C0184E7C80ED11C76
:105980008E010F5F1F4FC8010E94652A60E470E01E
:10599000C8010E94172963E470E0C8010E9417291A
:1059A000EAE9EE0EF11C30E3B32EF60161916F01CE
:1059B000C8010E94DC01F6018081B826CE14DF0404
:1059C000A1F76B2D772767FD7095C8010E941729F5
:1059D0006AE070E0C8010E94172926E230E046C064
:1059E0004434A1F56C01F8E4CF0ED11C8E010F5F99
:1059F0001F4FC8010E94652A60E470E0C8010E9440
:105A0000172964E470E0C8010E94172983E6E80EB4
:105A1000F11C20E3B22EF60161916F01C8010E94D2
:105A2000DC01F6018081B826CE14DF04A1F76B2DCE
:105A3000772767FD7095C8010E9417296AE070E01A
:105A4000C8010E9417292BE130E010C0433561F4F2
:105A5000CE0101960E94652ABE016F5F7F4FC7018C
:105A60000E94AD2B9C0102C02FEF3FEFC901A2960F
:105A70000FB6F894DEBF0FBECDBFDF91CF911F915F
:105A80000F91FF90EF90DF90CF90BF900895FC01B1
:105A9000EE57FF4F808191810895FC01EC57FF4F35
:105AA000808191810895FC01E75BFF4F60817181E6
:105AB000828193810895FC01EE5AFF4F508141810C
:105AC00032812381652F742F832F922F0895FC013B
:105AD000EA5AFF4F5081418132812381652F742F13
