:100000000C944A010C940B0A0C943D0A0C946F0A50
:100010000C94A10A0C94D30A0C94050B0C94370B86
:100020000C94690B0C9479010C9479010C9479016E
:100030000C9479010C9479010C9479010C94CB20E7
:100040000C9479010C9479010C9479010C94790148
:100050000C9479010C9479010C9479010C949A1503
:100060000C9479010C9464020C9458030C9479015B
:100070000C9479010C9479010C9479010C94790118
:100080000C9479010C9479010C9479010C94790108
:100090000C9499020C9498030C9479010C947901B6
:1000A0000C9479010C9479010C9479010C947901E8
:1000B0000C9479010C9479010C945D220C94C82164
:1000C0000C94C0220C9479010C9479010C94CE020A
:1000D0000C94D8030C9479010C9403030C94180429
:1000E0000C947901084AD73B3BCE016E84BCBFFD1E
:1000F000C12F3D6C74319ABD56833DDA3D00C77FF8
:1001000011BED9E4BB4C3E916BAAAABE0000008090
:100110003F05A84CCDB2D44EB93836A9020C50B91F
:10012000918688083CA6AAAA2ABE000000803F004B
:1001300000090A02080B0C0D070603040100000069
:1001400000000000000000000000000000000000AF
:10015000000000000000000000000011100F00006F
:10016000000000000000000000000000000000008F
:10017000000000000001021020200808102040109C
:10018000204080020102010804020101020408105B
:100190002040808040201008040201800402018079
:1001A00040201008040201080402010102040810A2
:1001B0002040800102040810204080050505050745
:1001C0000508080808020202020A0A0808040404D2
:1001D00004010101010101010103030303030303FE
:1001E00003040707070C0C0C0C0C0C0C0C0202028D
:1001F0000206060606060606060B0B0B0B0B0B0B80
:100200000B000020002300260029002C002F0032C4
:100210000000010000030106010901000022002581
:100220000028002B002E00310034000201000005E0
:100230000108010B0100002100240027002A002DE5
:10024000003000330001010000040107010A0149E8
:100250004E46494E4954594E414E0000204100003F
:10026000C84200401C4620BCBE4CCA1B0E5AAEC53C
:100270009D74CDCCCC3D0AD7233C17B7D13877CC71
:100280002B329595E6241FB14F0A8734FB38D940AD
:100290000041ED3411241FBECFEFD1E2DEBFCDBF50
:1002A00017E0A0E0B2E0ECEFF3E900E00BBF02C022
:1002B00007900D92AE36B107D9F712E1AEE6B7E07E
:1002C00001C01D92A43CB107E1F712E0C2E9D2E0FF
:1002D00000E006C022970109FE010BBF0E94914673
:1002E000CA38D10780E00807A9F70E944C420C9455
:1002F000EC490C940000FC0184859585FC01E05CD0
:10030000FF4F20813181FC01EE5BFF4F80819181A5
:10031000281B390B2F733327C9010895FC018485ED
:100320009585FC01E05CFF4F40815181FC01EE5B53
:10033000FF4F208131814217530741F00190F08136
:10034000E02DE80FF91F208130E002C02FEF3FEFD2
:10035000C9010895FC0184859585FC01E05CFF4F8F
:1003600040815181FC01EE5BFF4F208131814217BA
:10037000530771F0A081B181A80FB91F2C91808122
:10038000918101968F7399279183808330E002C019
:100390002FEF3FEFC9010895FC0181A1882329F0C7
:1003A000A489B5898C9186FFFBCF11A20895CF93C4
:1003B000DF93FC0126853785D901A05CBF4F8D9165
:1003C0009C91119701968F739927E901CE5BDF4FBE
:1003D0004881598184179507D9F30D90BC91A02DC0
:1003E000A20FB31F6C93A685B785A05CBF4F119673
:1003F0009C938E93A689B7892C9181E090E0078C1D
:1004000002C0880F991F0A94E2F7282B2C9381E0F1
:1004100081A30488F589E02D80818064808381E058
:1004200090E0DF91CF910895EF92FF920F931F9389
:10043000CF93DF93FC0126853785D901A05CBF4FA0
:100440008D919C91119701968F73992789010E5B6D
:100450001F4FE801E880F9808E159F05D1F30D90BC
:10046000BC91A02DA20FB31F6C93A685B785A05C8D
:10047000BF4F11969C938E93A689B7898C91442384
:1004800011F0816001C08E7F8C93A689B7892C9171
:1004900081E090E0078C02C0880F991F0A94E2F770
:1004A000282B2C9381E081A30488F589E02D80819D
:1004B0008064808381E090E0DF91CF911F910F9164
:1004C000FF90EF90089508951F920F920FB60F922C
:1004D00011240BB60F921BBE2F933F934F935F9344
:1004E0006F937F938F939F93AF93BF93EF93FF93FC
:1004F0008091C00082FD07C08091C60062ED79E066
:100500000E94E74002C08091C600FF91EF91BF9129
:10051000AF919F918F917F916F915F914F913F919B
:100520002F910F900BBE0F900FBE0F901F9018953C
:1005300008951F920F920FB60F9211240BB60F92CF
:100540001BBE2F933F934F935F936F937F938F9334
:100550009F93AF93BF93EF93FF938091C80082FD69
:1005600007C08091CE006AE479E00E94E74002C0B3
:100570008091CE00FF91EF91BF91AF919F918F91AC
:100580007F916F915F914F913F912F910F900BBE93
:100590000F900FBE0F901F90189508951F920F9205
:1005A0000FB60F9211240BB60F921BBE2F933F93E1
:1005B0004F935F936F937F938F939F93AF93BF936B
:1005C000EF93FF938091D00082FD07C08091D60009
:1005D00062EC78E00E94E74002C08091D600FF9173
:1005E000EF91BF91AF919F918F917F916F915F91AB
:1005F0004F913F912F910F900BBE0F900FBE0F9018
:100600001F90189508951F920F920FB60F92112404
:100610000BB60F921BBE2F933F934F935F936F9335
:100620007F938F939F93AF93BF93EF93FF938091AB
:10063000300182FD07C0809136016AE378E00E94B4
:10064000E74002C080913601FF91EF91BF91AF91D9
:100650009F918F917F916F915F914F913F912F91DA
:100660000F900BBE0F900FBE0F901F90189584ED4A
:1006700097E00E947B01892B11F00E94473482EBA6
:1006800097E00E947B01892B11F00E94FB3080E9EA
:1006900097E00E947B01892B11F00E9422318EE6A7
:1006A00097E00E947B01892B11F00C944F31089543
:1006B0001F920F920FB60F9211240BB60F921BBE12
:1006C0002F933F938F939F93EF93FF932091CE09A6
:1006D0003091CF098091D0099091D109281739071D
:1006E00031F48091C1008F7D8093C10014C0E091EE
:1006F000D009F091D109E257F64F20818091D009BD
:100700009091D10901968F7399279093D109809385
:10071000D0092093C600FF91EF919F918F913F9157
:100720002F910F900BBE0F900FBE0F901F9018953A
:100730001F920F920FB60F9211240BB60F921BBE91
:100740002F933F938F939F93EF93FF9320914609AD
:100750003091470980914809909149092817390734
:1007600031F48091C9008F7D8093C90014C0E0915D
:100770004809F0914909EA5FF64F208180914809C4
:100780009091490901968F73992790934909809315
:1007900048092093CE00FF91EF919F918F913F9157
:1007A0002F910F900BBE0F900FBE0F901F901895BA
:1007B0001F920F920FB60F9211240BB60F921BBE11
:1007C0002F933F938F939F93EF93FF932091BE08B6
:1007D0003091BF088091C0089091C108281739074F
:1007E00031F48091D1008F7D8093D10014C0E091CD
:1007F000C008F091C108E258F74F20818091C008ED
:100800009091C10801968F7399279093C1088093A6
:10081000C0082093D600FF91EF919F918F913F9157
:100820002F910F900BBE0F900FBE0F901F90189539
:100830001F920F920FB60F9211240BB60F921BBE90
:100840002F933F938F939F93EF93FF9320913608BD
:100850003091370880913808909139082817390766
:1008600031F4809131018F7D8093310114C0E0918A
:100870003808F0913908EA50F84F20818091380803
:100880009091390801968F73992790933908809336
:10089000380820933601FF91EF919F918F913F91FE
:1008A0002F910F900BBE0F900FBE0F901F901895B9
:1008B0004F925F926F927F928F929F92AF92BF9270
:1008C000CF92DF92EF92FF920F931F93CF93DF931C
:1008D000CDB7DEB7FC011382128288EE482E83E08A
:1008E000582E612C712C448255826682778284E571
:1008F00097E0918380837587648757874687318B1C
:10090000208B138B028BF58AE48AD78AC68AB18E34
:10091000A08E938E828E8B89848F8C89858F8D8912
:10092000868F8E89878F8F8980A3DF91CF911F91CA
:100930000F91FF90EF90DF90CF90BF90AF909F907E
:100940008F907F906F905F904F900895CF92DF923D
:10095000EF92FF92CF93DF93EC016A017B01411587
:1009600081EE580761057105F9F0EC89FD8981E098
:1009700090E008A002C0880F991F0A94E2F78083D4
:1009800060E079E08DE390E0A70196010E94334694
:1009900021503109410951095695479537952795B9
:1009A000211580E1380798F0EC89FD89108260E814
:1009B00074E88EE190E0A70196010E943346215031
:1009C0003109410951095695479537952795E88989
:1009D000F9893083EA89FB89208319A2EE89FF898E
:1009E000408181E090E09C010C8C02C0220F331FFB
:1009F0000A94E2F7422B4083EE89FF8940819C01F3
:100A00000D8C02C0220F331F0A94E2F7422B408361
:100A1000EE89FF8940819C010E8C02C0220F331F9A
:100A20000A94E2F7422B4083EE89FF8920810F8CE4
:100A300002C0880F991F0A94E2F780958223808371
:100A4000DF91CF91FF90EF90DF90CF900895BF920C
:100A5000CF92DF92EF92FF92CF93DF93EC016A0186
:100A60007B01B22E411581EE580761057105F9F041
:100A7000EC89FD8981E090E008A002C0880F991FF1
:100A80000A94E2F7808360E079E08DE390E0A701CB
:100A900096010E943346215031094109510956956A
:100AA000479537952795211580E1380798F0EC890F
:100AB000FD89108260E874E88EE190E0A70196015C
:100AC0000E943346215031094109510956954795F5
:100AD00037952795E889F9893083EA89FB8920834E
:100AE00087E0B8120AC0E88DF98D86E08083EE8930
:100AF000FF8980818460808308C0EE89FF898081BE
:100B000084708083E88DF98DB082EE89FF89408101
:100B100081E090E09C010C8C02C0220F331F0A94EC
:100B2000E2F7422B4083EE89FF8940819C010D8CC6
:100B300002C0220F331F0A94E2F7422B4083EE8952
:100B4000FF8940819C010E8C02C0220F331F0A9442
:100B5000E2F7422B4083EE89FF8920810F8C02C08F
:100B6000880F991F0A94E2F7809582238083DF9192
:100B7000CF91FF90EF90DF90CF90BF900895CF93EB
:100B8000DF93FC0186859785DC01A05CBF4FEC01FB
:100B9000CE5BDF4F4D915C911197288139814217CF
:100BA0005307C1F7A689B7894C9181E090E09C0179
:100BB000048C02C0220F331F0A94E2F720952423ED
:100BC0002C93A689B7894C919C01058C02C0220FF9
:100BD000331F0A94E2F7209524232C93A689B78922
:100BE0004C919C01068C02C0220F331F0A94E2F73D
:100BF000209524232C93A689B7892C91078C02C0B9
:100C0000880F991F0A94E2F7809582238C9384853C
:100C10009585FC01EE5BFF4F20813181FC01E05C9A
:100C2000FF4F31832083DF91CF91089581E00895B4
:100C3000CF92DF92EF92FF920F931F93CF93DF93A8
:100C40006C01EB017A01E60EF71E00E010E00BC02C
:100C50006991D601ED91FC910190F081E02DC601E2
:100C60000995080F191FCE15DF0591F7C801DF910F
:100C7000CF911F910F91FF90EF90DF90CF9008954B
:100C8000EF92FF920F931F93CF93DF937C01EB01C1
:100C900000E010E0FE0121966491662351F0F70117
:100CA000A081B181ED91FC91C7010995080F191F31
:100CB000F1CFC801DF91CF911F910F91FF90EF907D
:100CC0000895AF92BF92CF92DF92EF92FF920F936F
:100CD0001F93CF93DF937C016B0100E010E0C0E035
:100CE000D0E011C0D701ED91FC91A080B180B80196
:100CF000C6010E947210682FC701F5010995C80F3F
:100D0000D91F0F5F1F4FD60114968D919C91159797
:100D10000817190738F3CE01DF91CF911F910F917A
:100D2000FF90EF90DF90CF90BF90AF9008950C941C
:100D30003642DC01ED91FC910190F081E02D0994A7
:100D4000DB01ED91FC9111970190F081E02DBC0148
:100D5000CD0109940F931F93CF93DF93EC016DE0C6
:100D60000E9499068C016AE0CE010E9499069C01BE
:100D7000200F311FC901DF91CF911F910F9108956D
:100D80000F931F93CF93DF93EC010E9440068C01D9
:100D9000CE010E94AA069C01200F311FC901DF91DC
:100DA000CF911F910F9108950F931F93CF93DF93CE
:100DB000EC010E9461068C01CE010E94AA069C01F2
:100DC000200F311FC901DF91CF911F910F9108951D
:100DD0000F931F93CF93DF93EC010E9436428C0157
:100DE000CE010E94AA069801280F391FC901DF9180
:100DF000CF911F910F9108950F931F93CF93DF937E
:100E0000EC010E9499068C01CE010E94AA069C0169
:100E1000200F311FC901DF91CF911F910F910895CC
:100E20000F931F93CF93DF93EC010E94A0068C01D8
:100E3000CE010E94AA069C01200F311FC901DF913B
:100E4000CF911F910F9108955F926F927F928F9231
:100E50009F92AF92BF92CF92DF92EF92FF920F9349
:100E60001F93CF93DF93CDB7DEB7A1970FB6F8945A
:100E7000DEBF0FBECDBF3C016A017B01522E19A21D
:100E800081E0821710F08AE0582E8E010F5D1F4F0F
:100E9000852C912CA12CB12CC701B601A501940180
:100EA0000E9433468C2D529E801911240150110945
:100EB0008A3010F4805D01C0895CF801808369018B
:100EC0007A01C114D104E104F10431F7B801C3017E
:100ED0000E943642A1960FB6F894DEBF0FBECDBF7A
:100EE000DF91CF911F910F91FF90EF90DF90CF9006
:100EF000BF90AF909F908F907F906F905F9008957C
:100F00002115310541F4DC01ED91FC910190F08156
:100F1000E02D642F09940C9424070F931F93CF9313
:100F2000DF93EC010E9480078C01CE010E94AA068B
:100F30009C01200F311FC901DF91CF911F910F91AB
:100F400008959A01AB0160E070E00C9480070F9364
:100F50001F93CF93DF93EC019A01AB0160E070E047
:100F60000E9480078C01CE010E94AA069801280FDA
:100F7000391FC901DF91CF911F910F9108959A01F7
:100F8000462F50E060E070E00C9480070F931F93B1
:100F9000CF93DF93EC019A01462F50E060E070E0C0
:100FA0000E9480078C01CE010E94AA069801280F9A
:100FB000391FC901DF91CF911F910F910895CF92F1
:100FC000DF92EF92FF920F931F93CF93DF93EC0189
:100FD0006A017B012115310579F4E881F9810190DD
:100FE000F081E02D642FDF91CF911F910F91FF9041
:100FF000EF90DF90CF9009942A30310519F477FDF6
:101000000EC02AE0B701A601CE01DF91CF911F915A
:101010000F91FF90EF90DF90CF900C9424076DE23A
:101020000E9499068C0144275527BA014C195D0985
:101030006E097F092AE0CE010E9424079C01200F3F
:10104000311FC901DF91CF911F910F91FF90EF9058
:10105000DF90CF9008950F931F93CF93DF93EC0110
:101060000E94DF078C01CE010E94AA069C01200F7E
:10107000311FC901DF91CF911F910F9108959A01FE
:10108000AB01662757FD6095762F0C94DF070F9311
:101090001F93CF93DF93EC019A01AB01662757FDB5
:1010A0006095762F0E94DF078C01CE010E94AA0670
:1010B0009801280F391FC901DF91CF911F910F911E
:1010C00008956F927F928F929F92AF92BF92CF922C
:1010D000DF92EF92FF920F931F93CF938C016A01DF
:1010E0007B01C22F9A01AB01C701B6010E94DC450A
:1010F000882319F062E677E032C046015701E89490
:10110000B7F82FEF3FEF4FE75FE7C501B4010E944B
:10111000DC4581110DC02FEF3FEF4FE75FE7C501C1
:10112000B4010E94204318161CF466E677E017C04D
:101130002FEF3FEF4FE75FE4C701B6010E94234561
:1011400018160CF40AC02FEF3FEF4FE75FECC70112
:10115000B6010E94204387FF12C06AE677E0C8010B
:10116000CF911F910F91FF90EF90DF90CF90BF90A4
:10117000AF909F908F907F906F900C94364220E0BC
:1011800030E0A901C701B6010E94204387FF0AC0D1
:101190006DE2C8010E9499063C01F7FAF094F7F855
:1011A000F09402C0612C712CB12C60E070E080E002
:1011B0009FE307C020E030E040E251E40E94274373
:1011C000B394BC12F7CF262F372F482F592FC701C2
:1011D000B6010E945A424B015C01792D9B2D0E9461
:1011E00094436B017C010E94C0439B01AC01682DBC
:1011F000792D8A2D9B2D0E945942B62EA72E982E0E
:10120000892E2AE0A601B701C8010E942407680EB2
:10121000791ECC23C9F168E075E0C8010E9436420E
:10122000680E791E31C020E030E040E251E4D50183
:10123000F4016B2F7A2D8F2F982D0E942E454B0194
:101240005C01792D9B2D0E948F436B01EE24D7FC0E
:10125000E094FE2C2AE030E0B701A601C8010E940C
:10126000DF07680E791EC701B6010E94C2439B01C9
:10127000AC01682D792D8A2D9B2D0E945942B62EE6
:10128000A72E982E892EC150C111CDCFC301CF9169
:101290001F910F91FF90EF90DF90CF90BF90AF9094
:1012A0009F908F907F906F9008950C9461080F939A
:1012B0001F93CF93DF93EC010E9461088C01CE0154
:1012C0000E94AA069801280F391FC901DF91CF910A
:1012D0001F910F910895883008F073C0E82FF0E057
:1012E000EE0FFF1FEA5EF54F71836083843011F1CA
:1012F00030F4823059F090F48130B1F53DC0863041
:1013000009F446C020F1873079F54FC0809169001B
:101310008C7F842B80936900E89A089580916900FE
:10132000440F551F440F551F837F842B8093690002
:10133000E99A08958091690074E0440F551F7A95E9
:10134000E1F78F7C842B80936900EA9A089580915D
:10135000690066E0440F551F6A95E1F78F73842B8F
:1013600080936900EB9A089580916A008C7F842BAA
:1013700080936A00EC9A089580916A00440F551F8B
:10138000440F551F837F842B80936A00ED9A089544
:1013900080916A0024E0440F551F2A95E1F78F7C65
:1013A000842B80936A00EE9A089580916A0096E0FB
:1013B000440F551F9A95E1F78F73842B80936A0031
:1013C000EF9A0895883030F5843089F030F4823017
:1013D00051F058F4813079F410C0863081F048F033
:1013E000873049F40EC0E8980DC0E9980BC0EA9820
:1013F00009C0EB9807C0EC9805C0ED9803C0EE98C3
:1014000001C0EF98E82FF0E0EE0FFF1FEA5EF54F06
:101410001182108208951F920F920FB60F9211241D
:101420000BB60F921BBE2F933F934F935F936F9317
:101430007F938F939F93AF93BF93EF93FF9380918D
:101440001A0A90911B0A892B29F0E0911A0AF0914F
:101450001B0A0995FF91EF91BF91AF919F918F91D9
:101460007F916F915F914F913F912F910F900BBEA4
:101470000F900FBE0F901F9018951F920F920FB6EE
:101480000F9211240BB60F921BBE2F933F934F93D5
:101490005F936F937F938F939F93AF93BF93EF93DC
:1014A000FF9380911C0A90911D0A892B29F0E091ED
:1014B0001C0AF0911D0A0995FF91EF91BF91AF9120
:1014C0009F918F917F916F915F914F913F912F915C
:1014D0000F900BBE0F900FBE0F901F9018951F928C
:1014E0000F920FB60F9211240BB60F921BBE2F93C3
:1014F0003F934F935F936F937F938F939F93AF939C
:10150000BF93EF93FF9380911E0A90911F0A892B3E
:1015100029F0E0911E0AF0911F0A0995FF91EF91C1
:10152000BF91AF919F918F917F916F915F914F91FB
:101530003F912F910F900BBE0F900FBE0F901F90F9
:1015400018951F920F920FB60F9211240BB60F929F
:101550001BBE2F933F934F935F936F937F938F9314
:101560009F93AF93BF93EF93FF938091200A909145
:10157000210A892B29F0E091200AF091210A09958E
:10158000FF91EF91BF91AF919F918F917F916F915B
:101590005F914F913F912F910F900BBE0F900FBE17
:1015A0000F901F9018951F920F920FB60F92112453
:1015B0000BB60F921BBE2F933F934F935F936F9386
:1015C0007F938F939F93AF93BF93EF93FF938091FC
:1015D000160A9091170A892B29F0E091160AF091CA
:1015E000170A0995FF91EF91BF91AF919F918F914C
:1015F0007F916F915F914F913F912F910F900BBE13
:101600000F900FBE0F901F9018951F920F920FB65C
:101610000F9211240BB60F921BBE2F933F934F9343
:101620005F936F937F938F939F93AF93BF93EF934A
:10163000FF938091180A9091190A892B29F0E09163
:10164000180AF091190A0995FF91EF91BF91AF9196
:101650009F918F917F916F915F914F913F912F91CA
:101660000F900BBE0F900FBE0F901F9018951F92FA
:101670000F920FB60F9211240BB60F921BBE2F9331
:101680003F934F935F936F937F938F939F93AF930A
:10169000BF93EF93FF938091220A9091230A892BA5
:1016A00029F0E091220AF091230A0995FF91EF9128
:1016B000BF91AF919F918F917F916F915F914F916A
:1016C0003F912F910F900BBE0F900FBE0F901F9068
:1016D00018951F920F920FB60F9211240BB60F920E
:1016E0001BBE2F933F934F935F936F937F938F9383
:1016F0009F93AF93BF93EF93FF938091240A9091B0
:10170000250A892B29F0E091240AF091250A0995F0
:10171000FF91EF91BF91AF919F918F917F916F91C9
:101720005F914F913F912F910F900BBE0F900FBE85
:101730000F901F901895FC01808191810C940A14E0
:10174000CF93DF93EC0188819981009711F00E947B
:101750000A14198218821D821C821B821A82DF9150
:10176000CF9108950F931F93CF93DF93EC018B01DB
:101770006F5F7F4F888199810E94A814009731F094
:10178000998388831B830A8381E001C080E0DF9115
:10179000CF911F910F910895CF93DF93EC01888132
:1017A0009981892B31F08A819B818617970708F0F0
:1017B0000CC0CE010E94B20B882349F08C819D8120
:1017C000892B19F4E881F981108281E001C080E061
:1017D000DF91CF910895EF92FF920F931F93CF93D4
:1017E000DF93EC017B018A01BA010E94CC0B8111CD
:1017F00004C0CE010E94A00B07C01D830C83B7015B
:10180000888199810E942947CE01DF91CF911F9154
:101810000F91FF90EF900895DC0111961C921E929B
:1018200013961C921E92129715961C921E92149754
:1018300016961C926115710559F0DB010D90002080
:10184000E9F7AD0141505109461B570B0C94EB0BC6
:101850000895CF93DF93EC01FB018617970761F0A2
:10186000608171816115710529F0448155810E9463
:10187000EB0B02C00E94A00BCE01DF91CF91089527
:10188000FC01118210821382128215821482168248
:101890000C94290CCF93DF93D82FC92F61157105B4
:1018A00061F0DB010D900020E9F7AD0141505109D5
:1018B000461B570B0E94EB0B02C00E94A00B8D2F02
:1018C0009C2FDF91CF9108950F931F93CF93DF93B8
:1018D000CDB7DEB7A1970FB6F894DEBF0FBECDBF70
:1018E0008C01CB01BA01F80111821082138212829D
:1018F00015821482168230E0AE014F5F5F4F0E9466
:101900000B48BE016F5F7F4FC8010E944A0CA19631
:101910000FB6F894DEBF0FBECDBFDF91CF911F9100
:101920000F9108950F931F93CF93DF93CDB7DEB739
:10193000A2970FB6F894DEBF0FBECDBF8C01CB01CE
:10194000BA01F80111821082138212821582148268
:10195000168230E0AE014F5F5F4F0E94BA47BE0172
:101960006F5F7F4FC8010E944A0CA2960FB6F89491
:10197000DEBF0FBECDBFDF91CF911F910F910895B4
:101980000F931F93CF93DF93CDB7DEB761970FB659
:10199000F894DEBF0FBECDBF8C01CB01F8011182E0
:1019A00010821382128215821482168250E0BE01C8
:1019B0006F5F7F4F0E943048BE016F5F7F4FC8014D
:1019C0000E944A0C61960FB6F894DEBF0FBECDBFE1
:1019D000DF91CF911F910F9108950F931F93CF9394
:1019E000DF93CDB7DEB762970FB6F894DEBF0FBEB8
:1019F000CDBF8C01CB01F8011182108213821282BB
:101A000015821482168250E0BE016F5F7F4F0E94E4
:101A10009947BE016F5F7F4FC8010E944A0C6296D2
:101A20000FB6F894DEBF0FBECDBFDF91CF911F91EF
:101A30000F9108950F931F93CF93DF93CDB7DEB728
:101A400029970FB6F894DEBF0FBECDBF8C01862F4D
:101A5000F80111821082138212821582148216827A
:101A600050E0BE016F5F7F4F90E00E943048BE01A2
:101A70006F5F7F4FC8010E944A0C29960FB6F894F9
:101A8000DEBF0FBECDBFDF91CF911F910F910895A3
:101A9000CF93DF9300D0CDB7DEB7FC011182108267
:101AA0001382128215821482168269831A82BE0101
:101AB0006F5F7F4F0E944A0C0F900F90DF91CF9184
:101AC0000895EF92FF920F931F93CF93DF93EC0152
:101AD0007B010C811D816115710511F480E016C038
:101AE0004115510591F0040F151FB8010E94CC0B50
:101AF0008823A1F3288139818C819D81B701820FD0
:101B0000931F0E9429471D830C8381E0DF91CF91B1
:101B10001F910F91FF90EF900895FB014481558133
:101B2000608171810C94610D6115710559F0DB01C3
:101B30000D900020E9F7AD0141505109461B570BAC
:101B40000C94610D80E00895CF93DF9300D0CDB762
:101B5000DEB769831A8241E050E0BE016F5F7F4FBC
:101B60000E94610D0F900F90DF91CF910895EF9239
:101B7000FF920F931F93CF93DF9300D000D0CDB788
:101B8000DEB77C01862F4AE050E08E010F5F1F4FC9
:101B9000B80190E00E949947F80101900020E9F710
:101BA000AF0141505109401B510BB801C7010E94C0
:101BB000610D0F900F900F900F90DF91CF911F91BB
:101BC0000F91FF90EF900895EF92FF920F931F9364
:101BD000CF93DF93CDB7DEB727970FB6F894DEBF6C
:101BE0000FBECDBF7C01CB014AE050E08E010F5FFC
:101BF0001F4FB8010E949947F80101900020E9F7B2
:101C0000AF0141505109401B510BB801C7010E945F
:101C1000610D27960FB6F894DEBF0FBECDBFDF91E2
:101C2000CF911F910F91FF90EF900895EF92FF9247
:101C30000F931F93CF93DF9300D000D000D0CDB788
:101C4000DEB77C01CB014AE050E08E010F5F1F4FF1
:101C5000B8010E943048F80101900020E9F7AF0177
:101C600041505109401B510BB801C7010E94610D41
:101C700026960FB6F894DEBF0FBECDBFDF91CF9191
:101C80001F910F91FF90EF900895EF92FF920F93A5
:101C90001F93CF93DF93CDB7DEB72C970FB6F89491
:101CA000DEBF0FBECDBF7C01CB01BA012AE030E020
:101CB0008E010F5F1F4FA8010E94BA47F8010190E3
:101CC0000020E9F7AF0141505109401B510BB80109
:101CD000C7010E94610D2C960FB6F894DEBF0FBEAF
:101CE000CDBFDF91CF911F910F91FF90EF9008959D
:101CF000EF92FF920F931F93CF93DF93CDB7DEB791
:101D00002B970FB6F894DEBF0FBECDBF7C01CB0181
:101D1000BA012AE030E08E010F5F1F4FA8010E9438
:101D20000B48F80101900020E9F7AF01415051093B
:101D3000401B510BB801C7010E94610D2B960FB6D5
:101D4000F894DEBF0FBECDBFDF91CF911F910F91F1
:101D5000FF90EF900895CF93DF93D82FC92FFB0109
:101D600044815581608171810E94610D811104C09F
:101D70008D2F9C2F0E94A00B8D2F9C2FDF91CF9138
:101D80000895CF93DF93D82FC92F6115710569F09E
:101D9000DB010D900020E9F7AD0141505109461BD0
:101DA000570B0E94610D811104C08D2F9C2F0E9442
:101DB000A00B8D2F9C2FDF91CF910895CF93DF93B0
:101DC000D82FC92F0E94A40D811104C08D2F9C2FE4
:101DD0000E94A00B8D2F9C2FDF91CF910895CF9360
:101DE000DF93D82FC92F0E94B70D811104C08D2F0A
:101DF0009C2F0E94A00B8D2F9C2FDF91CF910895D7
:101E0000CF93DF93D82FC92F0E94E40D811104C016
:101E10008D2F9C2F0E94A00B8D2F9C2FDF91CF9197
:101E20000895CF93DF93D82FC92F0E94160E8111EA
:101E300004C08D2F9C2F0E94A00B8D2F9C2FDF9113
:101E4000CF910895CF93DF93D82FC92F0E94450ECD
:101E5000811104C08D2F9C2F0E94A00B8D2F9C2FD1
:101E6000DF91CF910895CF93DF93D82FC92F0E9490
:101E7000780E811104C08D2F9C2F0E94A00B8D2FF6
:101E80009C2FDF91CF910895CF93DF93DC01ED91EB
:101E9000FC91EB01A881B981309711F01097C9F43A
:101EA000109759F0EB012C813D81232B31F02C91BF
:101EB00030E031952195310914C0309781F0DC0173
:101EC00014968D919C911597892B49F0208130E0D3
:101ED00008C0BD01CF01DF91CF910C94204720E0D5
:101EE00030E0C901DF91CF910895FC014481558113
:101EF000FB01248135814217530729F40E94440FC6
:101F000021E0892B09F020E0822F0895DC0114964E
:101F10002D913C911597232B39F481E061157105C2
:101F200011F0FB0108C00895DC01ED91FC916115F1
:101F3000710529F481E09081992349F007C0CF0110
:101F40000E9420479C0181E0232B09F080E0089546
:101F50000E94440F892F881F8827881F08950E9498
:101F6000440F21E0181619060CF020E0822F089586
:101F70000E94440F21E0181619060CF420E0822F6D
:101F800008950E94440F892F8095881F8827881FF5
:101F90000895EF92FF920F931F93CF93DF938617CD
:101FA000970709F1FC0124813581FB0144815581AA
:101FB00024173507D1F4232BB1F0C081D181FC0166
:101FC000008111810BC090E00E94E6467C0189915E
:101FD00090E00E94E646E816F90639F4F80181918E
:101FE0008F018111F0CF81E001C080E0DF91CF91BE
:101FF0001F910F91FF90EF900895FA01DB01149665
:102000004D915C911597DC0114962D913C9115979B
:10201000241B350B2E173F0790F08D919C91009754
:1020200071F0DB016D917C916115710541F08E0FAE
:102030009F1F0E9430479C0181E0232B09F080E024
:102040000895FC0144815581FB01248135814217AB
:10205000530720F040E050E00C94FD0F80E008951D
:10206000FC0184819581DB0114964D915C9115975B
:1020700084179507A0F0208131812115310579F071
:102080006D917C916115710551F0841B950B820F48
:10209000931F0E9420479C0181E0232B09F080E0E0
:1020A0000895DC0114962D913C91159762177307E2
:1020B00028F4ED91FC91E60FF71F40830895FC0191
:1020C000248135816217730720F480819181009704
:1020D00029F41092260A66E27AE002C0680F791F9E
:1020E000CB010895FC01248135816217730748F400
:1020F00080819181009729F0FC01E60FF71F808114
:10210000089580E008950C9472100F931F93CF935D
:10211000DF93EB0141155105E9F02097D9F0FC015F
:10212000048115812017310708F013C0415051096F
:10213000021B130B4017510708F48A01FC01608150
:102140007181620F731FA801CE010E943E47C00F2C
:10215000D11F1882DF91CF911F910F910895CF93D6
:10216000DF93FC01848195814817590770F4C08181
:10217000D18170E0CE01840F951F0E941547009712
:1021800021F09C012C1B3D0B02C02FEF3FEFC9013A
:10219000DF91CF91089540E050E00C94AF10CF93C1
:1021A000DF93FC01848195814817590780F4C08131
:1021B000D181FB0160817181CE01840F951F0E9446
:1021C0005847009721F09C012C1B3D0B02C02FEFBC
:1021D0003FEFC901DF91CF91089540E050E00C94AA
:1021E000CF10DF92EF92FF920F931F93CF93DF9365
:1021F000EC018C819D814817590718F02FEF3FEFB4
:102200001BC08A010F5F1F4FE881F981E00FF11FAA
:10221000D0801082E880F98070E0C7010E944D47AD
:10222000F701E00FF11FD082009741F32881398137
:10223000AC01421B530B9A01C901DF91CF911F9151
:102240000F91FF90EF90DF900895FC01448155813C
:10225000415051090C94F110AF92BF92CF92DF928E
:10226000EF92FF920F931F93CF93DF936B018A013D
:10227000FB01448155814115510569F1FC0124811F
:1022800035812115310539F12417350720F1021761
:10229000130718F0890101501109FC01E080F18059
:1022A000C701CFEFDFEF5701A00EB11E10C0F6013E
:1022B000608171810E945847009779F09C012E1926
:1022C0003F090217130708F49E010196E901A816B9
:1022D000B90668F702C0CFEFDFEFCE01DF91CF91F3
:1022E0001F910F91FF90EF90DF90CF90BF90AF9034
:1022F0000895FC0144815581FB0124813581421BF5
:10230000530B0C942C11BF92CF92DF92EF92FF925D
:102310000F931F93CF93DF936C017B01EA01890137
:102320002417350720F48D2FE901042F182F61EFB2
:1023300074E0C6010E940C0CD70114968D919C91FB
:1023400015978C179D07C8F08017910708F48C012A
:10235000D701ED91FC911197E00FF11FB080108231
:102360006D917C916C0F7D1FC6010E944A0CD701B4
:10237000ED91FC91E00FF11FB082C601DF91CF918A
:102380001F910F91FF90EF90DF90CF90BF90089535
:10239000CF93DF93EC01FB01248135810E948311EF
:1023A000CE01DF91CF910895DC01ED91FC91309742
:1023B00029F40895861301C04083319680818111EC
:1023C000F9CF08952F923F924F925F926F927F9232
:1023D0008F929F92AF92BF92CF92DF92EF92FF9235
:1023E0000F931F93CF93DF938C015B017A01DC0184
:1023F00014966D907C9015976114710409F4E1C0F6
:10240000FB01448055804114510409F4DAC0DA011B
:102410001496CD90DC901597C418D508FC01C081A6
:10242000D181C114D104E1F411C0D7016C9111968E
:102430007C91119714964D915C911597C8010E945B
:10244000FA46F701C481D581C00FD11FD5016D9126
:102450007C91CE010E9458478C01009731F7B1C0A2
:10246000D7FE02C04E012FC0FB0120803180430106
:102470004EC023014C1A5D0AA201BE01C4010E9494
:10248000FA46E401C40DD51DD7016C9111967C91DB
:10249000119714964D915C911597CE010E94FA46C2
:1024A000F701848095808C0E9D1ED5011496CD91E8
:1024B000DC911597C60DD71DF801848195818C0D8F
:1024C0009D1D95838483D5016D917C91CE010E94E1
:1024D00058473C01009769F6BE01C401DF91CF91D6
:1024E0001F910F91FF90EF90DF90CF90BF90AF9032
:1024F0009F908F907F906F905F904F903F902F9024
:102500000C942947EC01C40DD51D8C0C9D1CB10108
:10251000CE010E9458470097A9F78614970409F442
:1025200050C0F801828193818815990598F4B4010F
:10253000C8010E94B20B882309F443C00BC0D7FD29
:1025400040C0AE01B501C8010E942C11EC0197FFFB
:1025500007C037C0D8011496CD91DC9115972FC0D4
:10256000F80180819181D50114962D913C911597A8
:102570002C0F3D1F820F931F44815581421B530B2B
:10258000BC018C0D9D1D0E940347F801848195813B
:102590008C0D9D1D958384830190F081E02DE80FC3
:1025A000F91F1082D8012D913C912C0F3D1FF7018E
:1025B0006081718144815581C9010E94FA46219749
:1025C000BECFDF91CF911F910F91FF90EF90DF90E1
:1025D000CF90BF90AF909F908F907F906F905F90C3
:1025E0004F903F902F900895CF93DF93FC01C081CF
:1025F000D181209729F407C090E00E94E646899394
:1026000088818111F9CFDF91CF910895CF93DF9326
:10261000FC01C081D181209729F407C090E00E947D
:10262000EE46899388818111F9CFDF91CF9108958A
:10263000AF92BF92CF92DF92EF92FF920F931F93D0
:10264000CF93DF936C01DC01ED90FC901197E114C6
:10265000F10409F442C014960D911C9115970115CF
:102660001105D9F15701E501BFEFAB1ABB0A88810B
:1026700090E00E94DE46892BB1F7015011090E0D42
:102680001F1DF801808190E00E94DE46892B69F4CD
:102690000F5F1F4F0C1B1D0BD60115961C930E933D
:1026A0001497EC16FD0650F404C00C171D0790F4A7
:1026B000EFCFA801BE01C7010E94FA46D601ED91F5
:1026C000FC91119714968D919C911597E80FF91F25
:1026D000108203C001501109D4CFDF91CF911F9117
:1026E0000F91FF90EF90DF90CF90BF90AF90089543
:1026F000FC0180819181009711F00C94B74660E055
:1027000070E080E090E008950F931F93CF93DF93E4
:102710008230910510F482E090E0E091C012F091D7
:10272000C11220E030E0C0E0D0E023C04081518100
:1027300048175907A8F04817590761F48281938117
:10274000209719F09B838A832EC09093C1128093A7
:10275000C01229C02115310529F04217530710F086
:10276000A90102C0BE01DF0102811381EF019A01BC
:10277000F8013097D9F62115310509F1281B390BDD
:102780002430310590F412968D919C911397611528
:10279000710521F0FB019383828304C09093C112E1
:1027A0008093C012FD0132962FC0FD01E20FF31F8E
:1027B00081939193225031092D933C9325C04DB7BD
:1027C0005EB748575109E0910202F0910302E41705
:1027D000F507C0F44E1B5F0B4817590798F09C0192
:1027E0002E5F3F4F4217530768F02E0F3F1F309365
:1027F000030220930202309301022093000281938E
:10280000919302C0E0E0F0E0CF01DF91CF911F9102
:102810000F910895EF92FF920F931F93CF93DF9341
:10282000009709F48EC0DC01129713961C921E9239
:102830001297E090C012F090C112E114F10489F4F3
:102840002D913C911197280F391F80910202909190
:1028500003028217930789F5B0930302A093020243
:1028600070C0E70120E030E001C0EA01CA17DB07D1
:1028700038F44A815B819E0141155105B1F722C0B0
:10288000AC0142505109FA01D383C2830081118106
:10289000BC01600F711F6C177D0761F4688179813D
:1028A000600F711F6E5F7F4F718360836A817B81D0
:1028B000738362832115310529F4B093C112A0936B
:1028C000C0123FC0F901B383A283E9014991599134
:1028D000C40FD51FAC17BD0771F4DC019E918E911A
:1028E000840F951F02969183808312968D919C91FF
:1028F000139793838283A0E0B0E002C0D7017C01EC
:10290000F701828193810097C9F7C7010296208160
:102910003181820F931F2091020230910302281708
:10292000390779F4109729F41092C1121092C0124D
:1029300004C013961C921E921297F0920302E0922A
:102940000202DF91CF911F910F91FF90EF900895B8
:102950008F929F92AF92BF92CF92DF92EF92FF92AF
:102960000F931F93CF93DF93EC01009779F4CB0182
:10297000DF91CF911F910F91FF90EF90DF90CF905B
:10298000BF90AF909F908F900C948413DC01A60FA2
:10299000B71FFC013297AE17BF0718F4C0E0D0E0B4
:1029A000A3C00081118106171707B0F0053011058B
:1029B00008F49AC0C80104978617970708F494C0D2
:1029C00002501109061B170B0D931D937183608331
:1029D000CD010E940A1488C06B01C01AD10A7C0183
:1029E000E00EF11EE091C012F091C11220E030E043
:1029F00080E090E048C0EE15FF05D1F58080918021
:102A0000540142E0A40EB11CAC14BD0488F1740161
:102A1000EC18FD08670122E0C20ED11C9E01225075
:102A2000310945E0C416D10478F0428153811396F0
:102A30005C934E9312971196FC92EE92F90171837A
:102A400060833A2F2B2F09C00E5F1F4F080D191DF1
:102A5000D9010D931C9332812381009721F0FC0151
:102A60003283238341C03093C0122093C1123CC0F3
:102A7000808191812817390708F49C015281438194
:102A8000CF01E52FF42F309709F0B5CF80910202E6
:102A9000909103028E159F05C1F426173707A8F4FD
:102AA0008DB79EB788579109A817B90708F076CF58
:102AB000B0930302A0930202B0930102A09300021C
:102AC000FE013297718360830FC0CB010E94841393
:102AD0007C01009709F462CFA801BE010E94FA466A
:102AE000CE010E940A14E701CE01DF91CF911F9120
:102AF0000F91FF90EF90DF90CF90BF90AF909F909D
:102B00008F9008950C9484130C9484130C940A14DD
:102B10000C940A1421E030E0FC018081882311F03C
:102B200020E030E0C901089521E0FC0120830895F0
:102B3000089508951F920F920FB60F9211242F93AC
:102B40003F938F939F93AF93BF938091270A909168
:102B5000280AA091290AB0912A0A30912F0A232F1E
:102B60002D5F2D3720F40196A11DB11D05C0232F27
:102B70002A570296A11DB11D20932F0A8093270A80
:102B80009093280AA093290AB0932A0A80912B0ACD
:102B900090912C0AA0912D0AB0912E0A0196A11DA8
:102BA000B11D80932B0A90932C0AA0932D0AB09309
:102BB0002E0ABF91AF919F918F913F912F910F90CE
:102BC0000FBE0F901F9018950F931F938FB7F89417
:102BD0000091270A1091280A2091290A30912A0A87
:102BE0008FBFB801C9011F910F9108950F931F93D3
:102BF0009FB7F89400912B0A10912C0A20912D0A6E
:102C000030912E0A86B5A89B06C08F3F21F00F5F3A
:102C10001F4F2F4F3F4F9FBF322F212F102F0027C5
:102C2000080F111D211D311D42E0000F111F221F31
:102C3000331F4A95D1F7B801C9011F910F9108952B
:102C4000CF92DF92EF92FF92CF93DF936B017C01E3
:102C50000E94F615EB0110C00E94B8170E94F615ED
:102C60006C1B7D0B683E734038F081E0C81AD108B8
:102C7000E108F108C851DC4FC114D104E104F104AA
:102C800059F7DF91CF91FF90EF90DF90CF900895AB
:102C9000019739F0880F991F880F991F02970197A4
:102CA000F1F70895789484B5826084BD84B581601D
:102CB00084BD85B5826085BD85B5816085BDEEE644
:102CC000F0E0808181608083E1E8F0E01082808123
:102CD00082608083808181608083E0E8F0E0808191
:102CE00081608083E1EBF0E0808184608083E0EBB1
:102CF000F0E0808181608083E1E9F0E080818260A2
:102D00008083808181608083E0E9F0E08081816060
:102D10008083E1EAF0E0808182608083808181604D
:102D20008083E0EAF0E0808181608083E1E2F1E08D
:102D3000808182608083808181608083E0E2F1E035
:102D4000808181608083EAE7F0E080818460808315
:102D500080818260808380818160808380818068BF
:102D600080831092C1000895893009F443C088F42B
:102D7000843029F138F4823059F1E8F4813009F0D7
:102D80005EC023C0873061F188F5863009F057C0F6
:102D900023C08D3009F440C020F48B30A9F1C0F578
:102DA0002DC0803109F442C0813109F443C08F3015
:102DB00009F045C037C0809180008F7703C08091B3
:102DC00080008F7D80938000089584B58F7702C046
:102DD00084B58F7D84BD08958091B0008F7703C046
:102DE0008091B0008F7D8093B00008958091900015
:102DF0008F7707C0809190008F7D03C080919000F5
:102E0000877F8093900008958091A0008F7707C0FE
:102E10008091A0008F7D03C08091A000877F809368
:102E2000A0000895809120018F7707C08091200134
:102E30008F7D03C080912001877F809320010895BA
:102E4000CF93DF9390E0FC01EB58FE4F4491FC01DF
:102E5000E554FE4F8491882341F190E0880F991F3B
:102E6000FC01EB5CFD4F25913491D901855E9D4FAE
:102E7000FC0185919491C82FD92F9FB7F8948C911C
:102E8000611106C0409584238C938881842308C0F7
:102E9000623041F4242F209582238C938881842BE7
:102EA000888302C0842B8C939FBFDF91CF910895BC
:102EB0000F931F93CF93DF931F92CDB7DEB7282FC9
:102EC00030E0F901E15DFE4F8491F901EB58FE4FCE
:102ED0001491F901E554FE4F04910023D1F08823A9
:102EE00021F069830E94B4166981E02FF0E0EE0FB3
:102EF000FF1FE55EFD4F85919491DC019FB7F8942B
:102F00008C91611103C01095812301C0812B8C939A
:102F10009FBF0F90DF91CF911F910F910895CF9395
:102F2000DF93282F30E0F901E15DFE4F8491F90134
:102F3000EB58FE4FD491F901E554FE4FC491CC23D8
:102F400089F081110E94B416EC2FF0E0EE0FFF1F04
:102F5000EF5FFD4F85919491DC018C918D2321E0F1
:102F600030E011F420E030E0C901DF91CF91089505
:102F70000895FC01A681B7819D012F5F3F4F848199
:102F8000958140855185840F951F2817390740F496
:102F90006C933783268311961C9221E030E002C0A7
:102FA00020E030E0C9010895FC01A481B581B78318
:102FB000A68380859185892B09F01C920895089538
:102FC0002F923F924F925F926F927F928F929F9239
:102FD000AF92BF92CF92DF92EF92FF920F931F9327
:102FE000CF93DF93CDB7DEB72A970FB6F894DEBF45
:102FF0000FBECDBF9A878987DC01D6968C91882336
:1030000009F4FAC00E94E41569837A838B839C8358
:10301000E985FA8580A191A129813A81281B390B84
:1030200084A595A5281739070CF4E6C0028CF38D0A
:10303000E02DC080D180E280F380A985BA855E96BC
:10304000ED91FC915F97A70196016081718182816A
:1030500093810E9459426D837E838F839887E9858F
:10306000FA8520893189428953890E942E45A98594
:10307000BA8594962D913D914D915C9197970E94C0
:103080005A42562E672E782E092F982F452D562DF1
:10309000692F702FE985FA8544A355A366A377A30A
:1030A00022A813A934A845A8222D312F432D542D31
:1030B000652D762D872D902F0E94234518166CF4D0
:1030C000422D512F632D742DA985BA8594964D9369
:1030D0005D936D937C93979718C0E985FA8586A4D4
:1030E00097A4A0A8B1A8A5019401652D762D872DE0
:1030F000902F0E94204387FF08C0A985BA85949627
:103100008D929D92AD92BC929797E985FA85248520
:10311000358546855785BD81AE810F81B8846B2F7B
:103120007A2F802F9B2D0E942E45A985BA859496D3
:103130002D913D914D915C9197970E945A424B0180
:103140005C01E985FA8520A531A542A553A5C701F3
:10315000B6010E945942A985BA8554962D913D9198
:103160004D915C9157970E942E459B01AC01C50182
:10317000B4010E945942962EA72EB82E092F222D57
:10318000312F432D542D692D7A2D8B2D902F0E9498
:1031900023451816B4F0E985FA8526A417A530A8AA
:1031A00041A8222D312F432D542D692D7A2D8B2DA1
:1031B000902F0E94204387FD04C0292C1A2D3B2C00
:1031C000402EA985BA855C96ED91FC915D97422DC4
:1031D000512F632D742D4083518362837383FD01CE
:1031E000C0A6D1A6E2A6F3A689819A81AB81BC8153
:1031F00080A391A3A2A3B3A32A960FB6F894DEBF2F
:103200000FBECDBFDF91CF911F910F91FF90EF9037
:10321000DF90CF90BF90AF909F908F907F906F90F6
:103220005F904F903F902F9008952F923F924F9232
:103230005F926F927F928F929F92AF92BF92CF9246
:10324000DF92EF92FF920F931F93CF93DF931C01B6
:103250004A015B012801390120E030E0A901C501E4
:10326000B4010E94204387FD8EC020E030E0A90118
:10327000C301B2010E94204387FD85C020E030E0F9
:10328000A901C701B6010E94204387FD7CC0F1015E
:1032900080829182A282B382448255826682778242
:1032A000C086D186E286F38664A575A5882777FD5A
:1032B0008095982F0E94C24320E030E04AE754E412
:1032C0000E942743D62FC72F8C01F1018486958653
:1032D000A686B786BE01982F272F362F492F512F4C
:1032E000C301B2010E942E452B013C01982F442DB1
:1032F000552D692F772DF101408B518B628B738B8C
:10330000BE01272F362F402F512FC701B6010E9433
:1033100027437B01D82FC92FCE010E2D1F2D292F1A
:10332000382FF101048B158B268B378B808D918D77
:10333000019749F5A501940160E070E0CB010E947E
:103340005942F1016487758786879787242D352D2B
:10335000462D572D60E070E0CB010E945942F101EB
:10336000608B718B828B938BCE01202F312F492F55
:10337000582F60E070E0CB010E945942F101648B4C
:10338000758B868B978BDF91CF911F910F91FF905B
:10339000EF90DF90CF90BF90AF909F908F907F90F5
:1033A0006F905F904F903F902F900895CF92DF9253
:1033B000EF92FF920F931F93CF93DF93EC018B015A
:1033C00016161706BCF5882777FD8095982F0E9462
:1033D000C2436B017C016CA57DA5882777FD809594
:1033E000982F0E94C2439B01AC01C701B6010E9405
:1033F00027436B017C01762F272F3D2D4E2D5F2D0E
:10340000688979898A899B890E942E45688B798B86
:103410008A8B9B8B2C2D3D2D4E2D5F2D6C897D89AC
:103420008E899F890E9427436C8B7D8B8E8B9F8B0F
:103430001DA70CA7DF91CF911F910F91FF90EF90E7
:10344000DF90CF9008954F925F926F927F928F920C
:103450009F92AF92BF92CF92DF92EF92FF920F9323
:103460001F93CF93DF93EC016A017B01480159015F
:10347000A9019801C701B6010E94234587FF4FC0EB
:10348000CEA6DFA6E8AAF9AA8AAA9BAAACAABDAAD8
:103490008EA9882309F443C00C8D1D8DF80140804E
:1034A000518062807380A5019401C301B2010E9422
:1034B0002345181634F4F80180829182A282B382E7
:1034C0000DC0A7019601C301B2010E94204387FFEE
:1034D00005C0F801C082D182E282F3828CA09DA057
:1034E000AEA0BFA0CAA8DBA8ECA8FDA8A7019601C2
:1034F000C501B4010E94234518160CF40CC0CEA4DB
:10350000DFA4E8A8F9A8A7019601C501B4010E94AB
:10351000204387FF04C0CCA2DDA2EEA2FFA2DF9170
:10352000CF911F910F91FF90EF90DF90CF90BF90C0
:10353000AF909F908F907F906F905F904F90089585
:103540008F929F92AF92BF92CF92DF92EF92FF92B3
:10355000CF93DF93EC01EC8DFD8DC080D180E280B4
:10356000F380CCA2DDA2EEA2FFA2EA8DFB8D40810A
:1035700051816281738148A759A76AA77BA78AA84E
:103580009BA8ACA8BDA8A5019401C701B6010E94E3
:10359000234518160CF40CC08EA49FA4A8A8B9A8A3
:1035A000A5019401C701B6010E94204387FF04C012
:1035B0008CA29DA2AEA2BFA2DF91CF91FF90EF900F
:1035C000DF90CF90BF90AF909F908F9008951F9302
:1035D000CF93DF93EC0111E06130710509F010E049
:1035E0008EA991E08927181303C0CE010E94A01A6A
:1035F0001EABDF91CF911F9108950F931F93CF932F
:10360000DF93EC018B018EA9882361F1888D998D60
:103610006817790739F12C853D854E855F8560E017
:1036200070E0CB010E9459426C877D878E879F870F
:10363000288939894A895B8960E070E0CB010E9462
:103640005942688B798B8A8B9B8B2C893D894E895B
:103650005F8960E070E0CB010E9459426C8B7D8BEA
:103660008E8B9F8B198F088FDF91CF911F910F91B8
:1036700008952F923F924F925F926F927F928F9216
:103680009F92AF92BF92CF92DF92EF92FF920F93F1
:103690001F93CF93DF9300D000D000D0CDB7DEB71B
:1036A0001C017A8369835C834B833E832D832701CE
:1036B00038014501560100E010E02FE733E440E017
:1036C00050E0BA010E94231A84E690E0F10195A728
:1036D00084A76F8D78A1C1010E94FD1ACB8CDC8C70
:1036E000ED8CFE8C95018401B301A201C1010E9401
:1036F00015190E94E415F10184A495A4AA2497FC4D
:10370000A094BA2C681979098A099B0960A371A34E
:1037100082A393A316AA8B819C81958F848F898124
:103720009A81938F828F8D819E81978F868F269627
:103730000FB6F894DEBF0FBECDBFDF91CF911F91C2
:103740000F91FF90EF90DF90CF90BF90AF909F9040
:103750008F907F906F905F904F903F902F90089543
:103760000F931F93CF93DF93FC01718360831282C9
:1037700013821482158286E586831782108611864D
:10378000128613861486158616861786108A118A65
:10379000128A138A148A158A168ADF01A754BF4F2A
:1037A0001D921C92DF01A55ABE4F1D921C92DF0193
:1037B000A15ABE4F1D921C92DF01AF59BE4F1D9200
:1037C0001C92DF01AD59BE4F1D921C92178ADF017A
:1037D000A954BF4F1D921C92EF010EE110E08FE043
:1037E00090E00E948413FE01E15EFE4F808391838E
:1037F0008FE090E00E948413FC01DE01A558BF4FCA
:103800008D939C9310820150110922960115110588
:1038100031F7DF91CF911F910F910895FC015281F3
:10382000438134812581652F742F832F922F089532
:10383000FC0186810895FC015781408531852285F0
:10384000652F742F832F922F0895FC015385448593
:1038500035852685652F742F832F922F0895CF925B
:10386000DF92EF92FF926A017B01FC01278530898C
:1038700041895289C701B6010E942E45FF90EF9001
:10388000DF90CF900895FC015389448935892689BA
:10389000652F742F832F922F08959C01295E3F4F2F
:1038A000C9010895660F771F680F791FFB01E5585E
:1038B000FF4F8081918108954F925F926F927F9226
:1038C0008F929F92AF92BF92CF92DF92EF92FF9230
:1038D0000F931F93CF93DF93DB01CC9181E090E0B6
:1038E000CD3221F0CB3211F080E090E02B01480E78
:1038F000591E612C3DECA32E4CEC942E5CEC852ED5
:103900006DE3762EB12C00E010E0D0E0C12CD12C7C
:1039100076014AC0EE3209F445C0FF27E7FDF09575
:10392000611015C0AAE0B0E0A70196010E94F84519
:103930006B017C01BF0160537109CB01AA2797FD80
:10394000A095BA2FC80ED91EEA1EFB1E2DC0BF01BE
:1039500060537109882777FD8095982F0E94C24394
:103960009B01AC016A2D792D882D972D0E942E4543
:103970009B01AC016B2D702F812F9D2F0E945A420D
:10398000B62E072F182FD92F20E030E040E251E467
:103990006A2D792D882D972D0E942743A62E972ECC
:1039A000882E792E66246394D201ED912D01E111C8
:1039B000B1CFC701B6010E94C2439B01AC016B2D80
:1039C000702F812F9D2F0E945A42CD3249F4262F0D
:1039D000372F482F592F60E070E0CB010E945942E9
:1039E000DF91CF911F910F91FF90EF90DF90CF90DB
:1039F000BF90AF909F908F907F906F905F904F900F
:103A000008958F929F92AF92BF92EF92FF920F9381
:103A10001F93CF93DF93EC01FC01E55AFE4F8081A9
:103A200091818436910584F4FE01E754FF4F208193
:103A300031812E31310544F4FE01ED59FE4F2081D4
:103A400031812F3031052CF0FE01E15AFE4F1182F9
:103A500010828E01015A1E4F6A3011F06D3019F438
:103A6000D8011D921C92643211F5FE01E35AFE4FFB
:103A700011821082FE01EF59FE4F11821082FE0169
:103A8000E754FF4F11821082FE01ED59FE4F118263
:103A90001082FE01E554FF4F6083FE01E55AFE4FA0
:103AA00081E090E091838083C15ADE4FE0C0F8014D
:103AB000208131812130310571F024F4232B09F468
:103AC0008DC288C22230310509F48BC02330310504
:103AD00009F080C2CFC0873091057CF4FC01E45F1F
:103AE000FD4F2081621309C0FE01E35AFE4F208181
:103AF00031812F5F3F4F31832083FE01E80FF91F93
:103B0000E554FF4F6083FE01E55AFE4F0196918315
:103B100080838E0107541F4FFE01ED59FE4F6A321C
:103B200019F16C32E1F5D8012D913C91C901880F52
:103B3000991F8C0F9D1F815E9E4FDC018D919C9182
:103B400040815181840F951FDC011C922F5F3F4FF4
:103B5000D8012D933C9311821082CF59DE4F88817A
:103B60009981BCE28B2783C0D8012D913C91C9017A
:103B7000880F991F8C0F9D1F815E9E4FDC018D91D8
:103B80009C9140815181840F951FDC011C922F5F15
:103B90003F4FD8012D933C931182108263C0208146
:103BA0003181D8018D919C91880F991F8C0F9D1F99
:103BB000DC01A15EBE4F0D90BC91A02DA20FB31FE2
:103BC0006C932F5F3F4F31832083CF59DE4F772790
:103BD00067FD709588819981682779277983688343
:103BE000FDC1FE01E80FF91FE554FF4F6083FE01A0
:103BF000E55AFE4F019691838083DE01AD59BE4F99
:103C00002D913C911197FE01E754FF4F80819181E6
:103C1000880F991F8C0F9D1FFC01E15EFE4F0190E4
:103C2000F081E02DE20FF31F60832F5F3F4F2D9354
:103C30003C93FE01EF59FE4F40815181862F992719
:103C400087FD9095613414F0C79701C0C0979C011F
:103C5000A4E0220F331FAA95E1F7CA01821B930B40
:103C600091838083C15ADE4F88819981019699831F
:103C70008883B4C19E01280F391FD901A554BF4FB5
:103C80006C93D901A454BF4F1C92DE01A55ABE4FBC
:103C900002968D939C939E012D593E4FF9014081D0
:103CA0005181DE01A754BF4F8D919C911197880FD0
:103CB000991F8C0F9D1F815E9E4FFC018081918119
:103CC000840F951FFC0160834F5F5F4FF9015183A3
:103CD00040832D913C911197C901880F991F8C0F3A
:103CE0009D1F815E9E4FFC0180819181840F951FF5
:103CF000FC0110822F5F3F4F2D933C93D8011D9202
:103D00001C92FE01EF59FE4F80819181262F3327AF
:103D100027FD309561341CF02753310902C0205330
:103D20003109821B930B91838083892B09F056C143
:103D300088819981892B39F4FE01E55AFE4F208153
:103D40003181C90110C0FE01E35AFE4F808191818B
:103D5000069791F343C1FE01E80FF91FDF01A55457
:103D6000BF4F4C91478B019797FFF5CFA901415069
:103D70005109C90137FF02C080E090E0FE01E55A19
:103D8000FE4F9A01281B390B318320837E0137EBCC
:103D9000E30EF11CD7011D921C92B7018E0107544E
:103DA0001F4FDE01AD59BE4F31C011961C921E92BD
:103DB00008C040838D919C911197019611969C9318
:103DC0008E93FB01808191812D913C911197880FF9
:103DD000991F8C0F9D1FAC01415E5E4FFA0140811F
:103DE0005181420F531FFA01408185589F4FFC01BA
:103DF00080819181820F931FFC014111DACF1082E3
:103E0000F70180819181019691838083FB0120815C
:103E10003181F801808191812817390734F2FE0140
:103E2000E35AFE4F80819181069709F0DAC0FE01C6
:103E3000EF5DFE4F60817181CE010E945C1C6A8340
:103E40007B838C839D83FE01ED5DFE4F0190F081AD
:103E5000E02D80818E83FE01EB5DFE4F60817181DC
:103E6000CE010E945C1C20E030E048EC52E40E944D
:103E700027437B018C017F2D802F912F0E94FD43D2
:103E80004B015C01FE01EB59FE4F6083718382831D
:103E900093839B01AC016E2D7F2D802F912F0E946B
:103EA000594220E030E048EC52E40E942E4520E0E8
:103EB00030E040E752E40E942743A50194010E94AC
:103EC0005A429B01462F532F682F792F4F835887D3
:103ED00069877A87FE01E95DFE4F0190F081E02D50
:103EE0004081433559F4482F592F60E070E0CB01F1
:103EF0000E9459426F83788789879A87FE01E75D20
:103F0000FE4F60817181CE010E945C1C20E030E098
:103F100048EC52E40E9427437B018C017F2D802FC7
:103F2000912F0E94FD434B015C01FE01EB59FE4FB6
:103F300060837183828393839B01AC016E2D7F2DFF
:103F4000802F912F0E94594220E030E048EC52E44B
:103F50000E942E4520E030E040E752E40E942743D3
:103F6000A50194010E945A429B01462F532F682FAE
:103F7000792F4B875C876D877E87FE01E55DFE4F5D
:103F80000190F081E02D4081473559F4482F592F99
:103F900060E070E0CB010E9459426B877C878D877F
:103FA0009E87FE01E35DFE4F60817181CE010E941C
:103FB0005C1C6F87788B898B9A8BFE01E15DFE4FCD
:103FC00060817181CE010E945C1C6B8B7C8B8D8B20
:103FD0009E8B07C0C15ADE4F1982188220E030E064
:103FE00002C021E030E0C901DF91CF911F910F9114
:103FF000FF90EF90BF90AF909F908F900895CF92D9
:10400000DF92EF92FF920F931F936B017C01CA0125
:10401000B901C114D104E104F10421F4C12CD12C63
:104020007601C394C0923B0AD0923C0AE0923D0ACA
:10403000F0923E0A10933A0A0093390A20917000D8
:104040002E7F209370002091B0002C7F2093B00031
:104050002091B100277F2093B1002091B6002F7DE1
:104060002093B600209170002D7F20937000209146
:10407000B10024602093B1002091B1002C7F2093E7
:10408000B10020E034E244E75BE40E942E4520E0EA
:1040900030E040E85CE30E942E450E948F4380E0C0
:1040A00091E0861B970B9093330A8093320A1F91FD
:1040B0000F91FF90EF90DF90CF9008950F931F9393
:1040C0008A012FE632E143E85AE30E94FF1F1F9165
:1040D0000F9108951092350A1092360A1092370AFD
:1040E0001092380A1092340A8091320A9091330A61
:1040F0008093B200E0E7F0E08081816080830895E2
:104100008091350A9091360AA091370AB091380A09
:104110000196A11DB11D8093350A9093360AA09394
:10412000370AB093380A8091350A9091360AA091E7
:10413000370AB091380A40913B0A50913C0A60918D
:104140003D0A70913E0A84179507A607B70710F13C
:104150008091340A81111EC081E08093340A8091DD
:10416000350A9091360AA091370AB091380A841B1B
:10417000950BA60BB70B8093350A9093360AA09344
:10418000370AB093380AE091390AF0913A0A099552
:104190001092340A08951F920F920FB60F921124B5
:1041A0000BB60F921BBE2F933F934F935F936F936A
:1041B0007F938F939F93AF93BF93EF93FF938091E0
:1041C000320A9091330A8093B2000E948020FF91BE
:1041D000EF91BF91AF919F918F917F916F915F917F
:1041E0004F913F912F910F900BBE0F900FBE0F90EC
:1041F0001F901895CB010C944648CB01642F0C946A
:104200004E489091E40A8091E30A981769F08F5F15
:10421000803508F080E0E82FF0E0ED56F54F208182
:104220008093E30A30E002C02FEF3FEFC901089509
:104230008091E40AE091E30A8E1731F0F0E0ED5648
:10424000F54F208130E002C02FEF3FEFC901089504
:104250005091E40A4091E30A252F30E0842F90E04A
:10426000541708F002C0205B3F4F281B390BC901CF
:1042700008959B01AC012D3A8BE1380741055105AA
:1042800030F4109273001092200181E812C063E0B4
:1042900056954795379527956A95D1F72D3A8BE135
:1042A000380741055105B0F51092730010922001B6
:1042B00082E8809321013093E80A2093E70AA5E27F
:1042C000B0E00E94F84522E096958795779567952E
:1042D0002A95D1F77093EA0A6093E90A62E080E3D5
:1042E0000E94201761E08EE20E94581761E08EE282
:1042F0000E9420171092E50A1092E40A1092E30A35
:104300001092920A1092910A1092900A80E28ABB4F
:104310008093730008959091910A9F5F943408F000
:1043200090E02091900A2917E1F32FB7F89430918B
:10433000920A332341F0E92FF0E0E05CF54F8083EF
:104340009093910A1DC091E09093920A8093EB0A9A
:104350001092EC0A82E08ABB8091730082608093A5
:104360007300809120018F73806880932001809179
:104370002401909125014096909329018093280172
:104380002FBF0895862F0E948B2181E090E0089531
:104390001F920F920FB60F9211240BB60F921BBEF5
:1043A0002F933F934F935F936F937F938F939F933D
:1043B000EF93FF934091920A5091EB0A809128016C
:1043C000909129012091E70A3091E80A7091EC0A56
:1043D0001DC0820F931F652F617056954F5F671741
:1043E000A9F020912001662311F0206C02C02F73E8
:1043F00020682093200190932901809328016093E5
:10440000EC0A5093EB0A4093920A3FC0493008F3FC
:10441000493039F42AE02093920A20912001206C3F
:1044200028C02091910AE091900A2E130DC010929D
:10443000920A809120018F738093200180917300F4
:104440008D7F8093730021C021E02093920AEF5F5B
:10445000E43408F0E0E0E093900AF0E0E05CF54F2F
:1044600020812093EB0A1092EC0A209120012F73F7
:104470002068209320012091E70A3091E80A280F54
:10448000391F3093290120932801FF91EF919F91CB
:104490008F917F916F915F914F913F912F910F90ED
:1044A0000BBE0F900FBE0F901F9018958091920A2F
:1044B0008111FCCF08950C9456221F920F920FB6D3
:1044C0000F9211240BB60F921BBE2F933F934F9365
:1044D0008F939F93EF93FF938091260190912701F3
:1044E0004091E50A2091210140FF04C02F7B2093D9
:1044F00021011BC0206420932101411116C020918D
:10450000E90A3091EA0A280F391F30932B012093D2
:104510002A0124E02ABB20917300246020937300B9
:104520009093EE0A8093ED0A0AC04A3040F4E42FDB
:10453000F0E0EE0FFF1FE351F54F918380834F5F53
:104540004093E50A2091240130912501281B390B65
:104550008091E70A9091E80A8217930718F481E0A6
:104560008093E60AFF91EF919F918F914F913F9138
:104570002F910F900BBE0F900FBE0F901F901895AC
:104580001F920F920FB60F9211240BB60F921BBE03
:10459000AF92BF92CF92DF92EF92FF920F931F9351
:1045A0002F933F934F935F936F937F938F939F933B
:1045B000AF93BF93CF93DF93EF93FF9380917300FB
:1045C0008B7F80937300809121018F7B80932101E9
:1045D0001091E40A1F5F103508F010E08091E30AA3
:1045E0001817E9F1C12FD0E00091E50A0B3008F06F
:1045F0000AE06091ED0A7091EE0A2091E70A30918D
:10460000E80AC90196958795820F931F40E050E014
:10461000E12CDD24D394FF24FA94EFEEFAE0CC24CD
:10462000C39415C0A191B1915D01A61AB70A4A0DB4
:104630005B1D08C0E11003C06D2D6095F622DD0CF6
:10464000820F931F48175907A8F7EC24BD010150AA
:1046500049F7FE01ED56F54FF0821093E40A1092EF
:10466000E50AFF91EF91DF91CF91BF91AF919F91BB
:104670008F917F916F915F914F913F912F911F91FA
:104680000F91FF90EF90DF90CF90BF90AF900F9081
:104690000BBE0F900FBE0F901F9018958091E30AEC
:1046A0008093E40A0895CF93DF93C3E7D0E0888135
:1046B0008B7F888388818F7D88830E944E230E9410
:1046C000562288818D7F8883DF91CF91089528E2DB
:1046D00032E0FC0131832083089528E232E0FC01BE
:1046E000318320830C948615FC01CB0128E232E053
:1046F0003183208373836283148240E050E0BA01E7
:104700000E94552E61E086E10E94201761E087E15A
:104710000E94201761E088E10E94201761E089E192
:104720000C942017CF92DF92EF92FF92CF93DF93FA
:10473000EC018A819B810E946F2F882371F08A810E
:104740009B810E94E42B6B017C010E94E41521E017
:10475000C616D706E806F90608F020E0822FDF919A
:10476000CF91FF90EF90DF90CF900895CF92DF929E
:10477000EF92FF92CF93DF93EC010E949223882364
:10478000A9F10E94E4156B017C018A819B810E9442
:10479000DE2BC61AD70AE80AF90A89EEC81683E0A2
:1047A000D806E104F104C0F16C8186E10E9458173B
:1047B0006C8187E10E9458176C8188E10E9458172C
:1047C0006C8189E10E9458178C8191E089278C8344
:1047D0000E94E415AB01BC018A819B81DF91CF91DE
:1047E000FF90EF90DF90CF900C94552E60E086E123
:1047F0000E94581760E087E10E94581760E088E146
:104800000E94581760E089E1DF91CF91FF90EF900F
:10481000DF90CF900C945817DF91CF91FF90EF90DD
:10482000DF90CF900895CF92DF92EF92FF92CF93D7
:10483000DF93EC018A819B810E94502E882311F125
:104840008A819B810E941C2E18161906DCF48A812D
:104850009B810E94282E6B017C018A819B810E9492
:104860001C2EBC01882777FD8095982F0E94C2439B
:104870009B01AC01C701B6010E942345181614F430
:1048800061E001C060E08A819B81DF91CF91FF9060
:10489000EF90DF90CF900C94A42F20E332E0FC0146
:1048A00031832083089520E332E0FC0131832083AB
:1048B0000C9486152F923F924F925F926F927F9247
:1048C0008F929F92AF92BF92CF92DF92EF92FF9220
:1048D0000F931F93CF93DF9300D000D000D0CDB7BC
:1048E000DEB79E838D834A015B0168017901FC017B
:1048F000828193810E94362C9B01AC01C501B401D9
:104900000E945A4269837A831C01ED81FE81828173
:1049100093810E94362C9B01AC01C501B4010E9419
:1049200059422B013C01ED81FE81828193810E94DD
:10493000362C9B01AC01C701B6010E945A424B01C3
:104940005C01ED81FE81828193810E94362C9B0166
:10495000AC01C701B6010E945942162F7B838C839C
:10496000092FED81FE81828193810E94402C6B0191
:104970007C0124E83AEB4CE358E3B981AA816B2F20
:104980007A2F822D932D0E945942A70196010E94F1
:104990002345181694F4ED81FE81828193810E9453
:1049A000202C9B01AC01B981AA816B2F7A2F822D1B
:1049B000932D0E94204387FD7EC0ED81FE81828180
:1049C00093810E94202C6B017C0124E83AEB4CE39C
:1049D00058E3642D752D862D972D0E945A42A7010C
:1049E00096010E94204387FF11C0ED81FE818281E4
:1049F00093810E94402C9B01AC01642D752D862D66
:104A0000972D0E94234518160CF462C0ED81FE819B
:104A1000828193810E944A2C2B013C0124E83AEBCD
:104A20004CE358E3682D792D8A2D9B2D0E94594225
:104A3000A30192010E942345181684F4ED81FE81A2
:104A4000828193810E94F42B9B01AC01682D792D0A
:104A50008A2D9B2D0E94204387FD45C0ED81FE815C
:104A6000828193810E94F42B4B015C0124E83AEB94
:104A70004CE358E3AB81FC80612F7A2F8F2D902F70
:104A80000E945A42A50194010E94204387FF5AC008
:104A9000ED81FE81828193810E944A2C9B01AC01B1
:104AA000AB81FC80612F7A2F8F2D902F0E942345A0
:104AB000181624F147C039812A81432F522F622DC5
:104AC000732DED81FE81828193810E948B2E75CFA3
:104AD000442D552D662D772DED81FE8182819381A8
:104AE0000E949F2E93CF482D592D6A2D7B2DED814D
:104AF000FE81828193810E946F2EB0CF2B819C8199
:104B0000412F522F692F702FED81FE818281938179
:104B100026960FB6F894DEBF0FBECDBFDF91CF91C2
:104B20001F910F91FF90EF90DF90CF90BF90AF90CB
:104B30009F908F907F906F905F904F903F902F90BD
:104B40000C94A52E26960FB6F894DEBF0FBECDBFEF
:104B5000DF91CF911F910F91FF90EF90DF90CF9059
:104B6000BF90AF909F908F907F906F905F904F908D
:104B70003F902F9008958F929F92AF92BF92CF92C5
:104B8000DF92EF92FF920F931F93CF93DF93EC018D
:104B90006A017B014801590140E050E064EB72E496
:104BA0008A819B810E948B2E40E050E064EB72EC86
:104BB0008A819B810E949F2E40E050E064E373E471
:104BC0008A819B810E946F2E40E050E064E373EC89
:104BD0008A819B810E94A52E8A819B810E942A2C1A
:104BE0002DE93BEF46E157E30E942E45AB01BC01A6
:104BF0008A819B810E94992E95018401B701A601AB
:104C0000CE010E945A24DF91CF911F910F91FF9006
:104C1000EF90DF90CF90BF90AF909F908F900895CE
:104C2000CF92DF92EF92FF920F931F93CF93DF9378
:104C300000D0CDB7DEB76C017B0180E392E0F601D6
:104C40009183808373836283CB010E940A2C8B0142
:104C50009C01C70129833A830E94FE2BAB01BC0152
:104C600029813A81C6010E94BB250F900F90DF91E8
:104C7000CF911F910F91FF90EF90DF90CF9008950B
:104C80008F929F92AF92BF92CF92DF92EF92FF925C
:104C90000F931F93CF93DF9300D000D0CDB7DEB733
:104CA0004C01FC01828193810E94462E882309F4E5
:104CB000CFC00E94E4156B017C01F40182819381D5
:104CC0000E94D12DC61AD70AE80AF90AF1EECF16CA
:104CD000F3E9DF06F4E0EF06F10438F0F401828135
:104CE00093810E94462E811184C0F40182819381B8
:104CF0000E94FD2D882309F4ABC0F40182819381C9
:104D00000E94E52D5B016C01F401828193810E9478
:104D1000D92D7B018C01F401828193810E940A2CA0
:104D20009B01AC01F401828193812B833C834983F5
:104D30005A830E94FE2B2B813C8149815A810E941B
:104D40002E36AB01BC01F401828193810E94692E51
:104D5000F401828193810E94EA2B6B017C01F401B2
:104D6000828193810E94162C9B01AC01C701B60180
:104D70000E942345181664F4F401828193810E94F5
:104D8000EA2BAB01BC01F401828193810E94852E44
:104D9000F401828193810E94E52D8B019C01F40135
:104DA000828193812B833C830E94D92DAB01BC016E
:104DB0002B813C81C4010E945A24F4018281938199
:104DC0000E94462E882371F1F401828193810E9412
:104DD000EA2B6B017C01F401828193810E942A2CD1
:104DE0009B01AC01C701B6010E942345181684F04F
:104DF00019C040E050E0BA01F401828193810E9421
:104E00005B2E61E0F401828193810E94662E6DCF5A
:104E100040E050E0BA01F401828193810E945B2E50
:104E200061E001C060E0F401828193810F900F90F6
:104E30000F900F90DF91CF911F910F91FF90EF9006
:104E4000DF90CF90BF90AF909F908F900C94662E84
:104E50000F900F900F900F90DF91CF911F910F91B6
:104E6000FF90EF90DF90CF90BF90AF909F908F908A
:104E70000895CF93DF93EC018A819B810E94D92D05
:104E8000AB01BC018A819B810E94752E8A819B8126
:104E90000E94E52DAB01BC018A819B810E947D2E81
:104EA00040E050E0BA018A819B81DF91CF910C9460
:104EB000852E6F927F928F929F92AF92BF92CF92E8
:104EC000DF92EF92FF920F931F93CF93DF93CDB7B3
:104ED000DEB7E7970FB6F894DEBF0FBECDBF4C012B
:104EE0008B013C0183E1680E711CC3010E94DF1736
:104EF000F401128B018BC8010E945E2C20E030E08F
:104F000044E354E40E945A426B017C01982F4C2DDB
:104F10005D2D692F7F2DF40140835183628373835C
:104F2000C8010E947C2C9B01AC016C2D7D2D8E2D27
:104F30009F2D0E945A42F401648375838683978370
:104F4000C8010E94542CF40160877187828793877F
:104F500081E0808BA401485F5F4FB4016C5F7F4F9D
:104F60001F928F938FE38F9385E08F938EE18F93C2
:104F700088EB8F938AE0A82E87EDB82E83EAC82E9F
:104F80008DE3D82E16E6E12EFE2C06EE1EE39401EC
:104F9000CE0101960E94391B87E3FE013196D301B1
:104FA00001900D928A95E1F700E010E024E832E4E8
:104FB00040E050E0BA01C3010E94231A64E670E0A9
:104FC000C3010E94D6190F900F900F900F900F9071
:104FD0000F90E7960FB6F894DEBF0FBECDBFDF91FE
:104FE000CF911F910F91FF90EF90DF90CF90BF90E6
:104FF000AF909F908F907F906F90089508958F92BB
:105000009F92AF92BF92CF92DF92EF92FF920F9357
:105010001F93CF93DF93EC0189899A890E948E2F89
:105020008E010D5E1F4F882309F4CDC061E070E052
:10503000C8010E94E71A89899A890E945E2C20E0A3
:1050400030E044E354E40E945A426B017C01982F03
:105050004C2D5D2D692F7F2D488359836A837B8377
:1050600089899A890E947C2C9B01AC016C2D7D2D35
:105070008E2D9F2D0E945A426C837D838E839F8349
:10508000C8010E94E0172C853D854E855F856885A7
:1050900079858A859B850E945942B62FA72F462F76
:1050A000572F682F792F4A015B0120E030E0A901DA
:1050B0006B2F7A2F0E942345181624F0B7FAB0946C
:1050C000B7F8B09489899A890E94C52DBC018827B8
:1050D00077FD8095982F0E94C2439B01AC01C501CA
:1050E000B4010E94234518160CF07EC08889C8843C
:1050F000D984EA84FB848C849D84AE84BF84A5011A
:105100009401882311F1C701B6010E9423451816A6
:105110000CF421C0A5019401C701B6010E942043EF
:1051200087FF3DC0188A89899A890E94CB2DBC01CE
:10513000882777FD8095982F0E94C2439B01AC0180
:10514000C701B6010E94594226C0C701B6010E949C
:10515000204387FF05C0CC86DD86EE86FF861FC014
:10516000A5019401C701B6010E9423451816BCF49D
:1051700081E0888B89899A890E94CB2DBC01882780
:1051800077FD8095982F0E94C2439B01AC01C70117
:10519000B6010E945A426C877D878E879F874C8517
:1051A0005D856E857F8589899A89DF91CF911F9171
:1051B0000F91FF90EF90DF90CF90BF90AF909F90B6
:1051C0008F900C94DA2E60E070E0C801DF91CF91EF
:1051D0001F910F91FF90EF90DF90CF90BF90AF9015
:1051E0009F908F900C94E71ADF91CF911F910F91B0
:1051F000FF90EF90DF90CF90BF90AF909F908F90F7
:105200000895FC0110821182128213821482158289
:1052100016821782108A118A128A138A148A158AB2
:10522000168A178A108E118E128E138E148E40E0FD
:1052300050E064EB72E4458F568F678F70A340E0B7
:1052400050E064EB72EC41A352A363A374A340E06B
:1052500050E064E373E445A356A367A370A740E05E
:1052600050E064E373EC41A752A763A774A715A6A7
:1052700083E482AB13AA14AA15AA16AA40E050E050
:1052800064E072E447AB50AF61AF72AF13AE40E081
:1052900050E068EC72E444AF55AF66AF77AFDF0122
:1052A000A05CBF4F40E050E060E271E44D935D933D
:1052B0006D937C931397DF01AC5BBF4F4D935D9370
:1052C0006D937C931397108611861286138614862D
:1052D000158616861786DF01A85BBF4F1C92DF017B
:1052E000A75BBF4F1D921D921D921C921397DF0169
:1052F000A35BBF4F1D921D921D921C921397DF015D
:10530000AF5ABF4F86E58C93DF01AE5ABF4F1D9257
:105310001D921D921C921397DF01AA5ABF4F1D9236
:105320001D921D921C921397DF01A65ABF4F1D922A
:105330001D921D921C921397DF01A25ABF4F1D921E
:105340001D921D921C921397DF01AE59BF4F1C9204
:10535000DF01AD59BF4F1C92DF01AC59BF4F1C920A
:10536000DF01AB59BF4F1D921D921D921C921397E6
:10537000DF01A759BF4F1D921D921D921C921397DA
:10538000DF01A359BF4F1D921C92DF01A159BF4FEE
:105390001D921C92DF01AF58BF4F1D921C92DF017E
:1053A000AD58BF4F1C92DF01AC58BF4F1D921D92EC
:1053B0001D921C921397DF01A858BF4F1D921D929A
:1053C0001D921C921397DF01A458BF4F40E050E09C
:1053D00060E272E44D935D936D937C931397DF01CC
:1053E000A058BF4F1C92DF01AF57BF4F1C92DF0187
:1053F000AE57BF4F1D921C92DF01AC57BF4F1D929D
:105400001C92DF01AA57BF4F40E050E060E87FE305
:105410004D935D936D937C931397DF01A657BF4F18
:105420001C92DF01A557BF4F40EE53E964E070E0E6
:105430004D935D936D937C931397DF01A157BF4FFD
:105440001C92DF01A057BF4F1C92DF01AF56BF4F28
:1054500083E690E08D939C93DF01AD56BF4F1C9285
:10546000DF01AC56BF4F40E050E46CE176E44D9371
:105470005D936D937C931397DF01A856BF4F1D92E8
:105480001C92DF01A656BF4F81E090E08D939C9364
:10549000DF01A456BF4F40E056E960E070E04D9355
:1054A0005D936D937C931397DF01A056BF4F4D938F
:1054B0005D936D937C931397DF01AC55BF4F40E82C
:1054C00055E260E070E04D935D936D937C9313978C
:1054D000DF01A855BF4F4D935D936D937C93139758
:1054E000DF01A455BF4F1C92E355FF4F87E090E0CA
:1054F0009183808308950F931F93CF93DF93EC01E3
:105500008B0164E372E0C8010E9497066FE372E0CA
:10551000C8010E9497066DE472E0C8010E949706D8
:10552000FE01E856FF4F608171814AE050E0C801FA
:105530000E943F0863E572E0C8010E949706FE01E1
:10554000E656FF4F608171814AE050E0C8010E9439
:105550003F0869E572E0C8010E949706FE01E45623
:10556000FF4F40815181628173812AE030E0C801A0
:105570000E94DF076FE572E0C8010E949706FE01F6
:10558000E056FF4F40815181628173812AE030E013
:10559000C8010E94DF0765E672E0C8010E94970615
:1055A000FE01EC55FF4F40815181628173812AE0F9
:1055B00030E0C8010E94DF076BE672E0C8010E947C
:1055C0009706FE01E855FF4F40815181628173814A
:1055D0002AE030E0C8010E94DF0761E772E0C801FD
:1055E0000E949706C455DF4F68814AE050E070E0A2
:1055F000C8010E943F086EEE75E0C8010E94E806EF
:1056000080E090E0DF91CF911F910F910895FC0110
:10561000DB0112968D919C9113979383828314964C
:105620004D915D916D917C9117974483558366836D
:10563000778318964D915D916D917C911B97408772
:1056400051876287738784E597E0918380831C96F6
:105650008D919C911D97958784871E968D919C9125
:105660001F979787868750968D919C915197918B24
:10567000808B52968D919C915397938B828B5496ED
:105680008D919C915597958B848B56968D919C917D
:105690005797978B868B58968D919C915997918FA0
:1056A000808F5A968D919C915B97938F828F5C9699
:1056B0008C915C97848F5D968C915D97858F5E96BB
:1056C0008C915E97868F5F968C915F97878F90966F
:1056D0008C91909780A391968C9181A308950F93BC
:1056E0001F93CF93DF93EC01FC01E355FF4F408103
:1056F00060E070E08FE39AE00E94FD20FE01E25539
:10570000FF4F408161E070E08FE39AE00E94FD204E
:10571000CC58DF4F64E070E049918B010F5F1F4F61
:105720008FE39AE00E94FD20B8010D331105A1F727
:10573000DF91CF911F910F910895EF92FF920F93F8
:105740001F93CF93DF9300D0CDB7DEB78C0160E01D
:1057500070E08FE39AE00E94FA20898361E070E0B4
:105760008FE39AE00E94FA208A83F801E355FF4F05
:1057700029813A81808191812817390719F0C80160
:105780000E946F2B0C581F4F64E070E07B018FEF7D
:10579000E81AF80A8FE39AE00E94FA20F801819350
:1057A0008F01B7016D33710589F70F900F90DF916D
:1057B000CF911F910F91FF90EF900895FC016081B0
:1057C0007181828193810895FC0164817581868154
:1057D00097810895FC015489458936892789652F69
:1057E000742F832F922F0895FC0155A146A137A154
:1057F00020A5652F742F832F922F0895FC01EC585C
:10580000FF4F5081418132812381652F742F832F77
:10581000922F0895FC01E858FF4F50814181328159
:105820002381652F742F832F922F0895FC01508DB3
:10583000418D328D238D652F742F832F922F0895E4
:10584000FC01558D468D378D20A1652F742F832F38
:10585000922F0895FC01E458FF4F5081418132811D
:105860002381652F742F832F922F0895FC01508977
:10587000418932892389652F742F832F922F0895B0
:10588000FC0151A142A133A124A1652F742F832FC4
:10589000922F0895FC0151A542A533A524A5652F9B
:1058A000742F832F922F0895FC0157A940AD31AD7D
:1058B00022AD652F742F832F922F0895FC0153A9D9
:1058C00044A935A926A9652F742F832F922F0895F7
:1058D000FC0182A9873559F4E159FF4F608171813C
:1058E000882777FD8095982F0E94C24304C0608569
:1058F0007185828593850895EF92FF920F931F9390
:10590000CF93DF93EC010E94682C9B01AC016BA943
:105910007CA98DA99EA90E9459427B018C0120E09F
:1059200030E044E353E47F2D912F0E942345181665
:105930008CF020E030E044E353EC6E2D7F2D802F7F
:10594000912F0E94204387FF0AC020E030E044EB03
:1059500053E408C020E030E044EB53EC03C020E007
:1059600030E0A9016E2D7F2D802F912F0E945A4289
:105970009B01462F532F682F792F4EA75FA768AB47
:1059800079AB622F732FDF91CF911F910F91FF9011
:10599000EF900895EF92FF920F931F93CF93DF93B1
:1059A0008C01D62FC72F64E372E08D2F9C2F0E94AD
:1059B00097066FE372E08D2F9C2F0E949706F801E7
:1059C00065A54AE050E070E08D2F9C2F0E943F08B3
:1059D00067E972E08D2F9C2F0E949706F80162A95B
:1059E0008D2F9C2F0E949906F80185A58823D9F157
:1059F0006DE972E08D2F9C2F0E949706F80143A954
:105A000054A965A976A922E030E08D2F9C2F0E9431
:105A1000550963EA72E08D2F9C2F0E949706C801FA
:105A20000E94682CAB01BC0122E030E08D2F9C2F3E
:105A30000E94550969EA72E08D2F9C2F0E949706FB
:105A400020E030E044E052E4F80167A970AD81AD98
:105A500092AD0E945942AB01BC0122E030E08D2F93
:105A60009C2F0E9455096FEA72E08D2F9C2F0E9497
:105A700097067801F0E8EF0EF11CF70160814AE02B
:105A800050E070E08D2F9C2F0E943F0865EB72E084
:105A90008D2F9C2F0E949706F801E458FF4F4081FC
:105AA00051816281738122E030E08D2F9C2F0E9412
:105AB0005509F70180818823B9F16BEB72E08D2FD6
:105AC0009C2F0E949706F801EC58FF4F40815181AE
:105AD0006281738122E030E08D2F9C2F0E94550956
