:100000000C944D010C94842C0C94B52C0C94E62C7F
:100010000C94172D0C94482D0C94792D0C94AA2D2A
:100020000C94DB2D0C947C010C947C010C94F90154
:100030000C947C010C947C010C947C010C94390B85
:100040000C947C010C947C010C947C010C947C013C
:100050000C947C010C947C010C947C010C942E2F4C
:100060000C947C010C94BF250C9490260C947C017C
:100070000C947C010C947C010C947C010C947C010C
:100080000C947C010C947C010C947C010C947C01FC
:100090000C94EB250C94CF260C947C010C947C01E1
:1000A0000C947C010C947C010C947C010C947C01DC
:1000B0000C947C010C947C010C94E90C0C94540C71
:1000C0000C944C0D0C947C010C947C010C94172620
:1000D0000C940E270C947C010C9443260C944D2711
:1000E0000C947C01084AD73B3BCE016E84BCBFFD1B
:1000F000C12F3D6C74319ABD56833DDA3D00C77FF8
:1001000011BED9E4BB4C3E916BAAAABE0000008090
:100110003F05A84CCDB2D44EB93836A9020C50B91F
:10012000918688083CA6AAAA2ABE000000803F004B
:10013000002100240027002A002D00300033000198
:10014000010000040107010A010000220025002827
:10015000002B002E003100340002010000050108D0
:10016000010B01000020002300260029002C002F95
:100170000032000001000003010601090105050528
:1001800005070508080808020202020A0A0808040E
:10019000040404010101010101010103030303033C
:1001A000030303040707070C0C0C0C0C0C0C0C02CB
:1001B00002020206060606060606060B0B0B0B0BD2
:1001C0000B0B0B01021020200808102040102040CB
:1001D000800201020108040201010204081020400B
:1001E0008080402010080402018004020180402029
:1001F0001008040201080402010102040810204052
:100200008001020408102040800000090A02080B47
:100210000C0D0706030401000000000000000000B0
:1002200000000000000000000000000000000000CE
:10023000000000000011100F00000000000000008E
:100240000000000000000000000000000000004965
:100250004E46494E4954594E414E0000204100003F
:10026000C84200401C4620BCBE4CCA1B0E5AAEC53C
:100270009D74CDCCCC3D0AD7233C17B7D13877CC71
:100280002B329595E6241FB14F0A2202810B7D1C6B
:10029000CF1FB0243B292602E31C11241FBECFEF41
:1002A000D1E2DEBFCDBF15E0A0E0B2E0E0EEF2E7C4
:1002B00000E00BBF02C007900D92AA34B107D9F736
:1002C00010E1AAE4B5E001C01D92AC3BB107E1F733
:1002D00012E0C6E9D2E000E006C022970109FE0163
:1002E0000BBF0E940035CA38D10780E00807A9F784
:1002F0000E941C2F0C945E390C940000CF93DF9366
:10030000DC01E3E6F1E025913491C90191963C933B
:100310002E939097E5E7F1E025913491C22FD32FEA
:100320009396DC93CE939297E9E7F1E0259134918F
:1003300095963C932E939497FC01808196968C938E
:100340009697888197968C939797F90180819896D4
:100350008C93989799961C9299979A961C929A9733
:100360009B961C929B9780E11D928A95E9F7DF91FD
:10037000CF9108951092680010926B0010926C005B
:1003800010926D000895FF920F931F93CF93DF9308
:10039000EC01ECA1FDA1008118A510278BA5182365
:1003A00008A7EEE3FE2E19C010FF14C0EF2DF0E0F9
:1003B000F697EE0FFF1FEC0FFD1F80819181DC018E
:1003C000ED91FC91402F41700190F081E02D6F2D57
:1003D00070E0099516950695F3941111E5CFDF911C
:1003E000CF911F910F91FF9008958CE495E00C94AC
:1003F000C3011F920F920FB60F9211240BB60F92EA
:100400001BBE2F933F934F935F936F937F938F9375
:100410009F93AF93BF93EF93FF930E94F501FF91DA
:10042000EF91BF91AF919F918F917F916F915F916C
:100430004F913F912F910F900BBE0F900FBE0F90D9
:100440001F9018958CE495E00C947E018CE495E067
:100450000C94BA01FC01A681B7819D012F5F3F4F2B
:100460008481958140855185840F951F2817390710
:1004700040F46C933783268311961C9221E030E080
:1004800002C020E030E0C9010895FC01A481B581DB
:10049000B783A68380859185892B09F01C920895E6
:1004A00008952F923F924F925F926F927F928F9218
:1004B0009F92AF92BF92CF92DF92EF92FF920F93F3
:1004C0001F93CF93DF93CDB7DEB72A970FB6F8947B
:1004D000DEBF0FBECDBF9A878987DC01D6968C918F
:1004E000882309F4FAC00E94762F69837A838B836C
:1004F0009C83E985FA8580A191A129813A81281BF5
:10050000390B84A595A5281739070CF4E6C0028C91
:10051000F38DE02DC080D180E280F380A985BA857B
:100520005E96ED91FC915F97A701960160817181C4
:10053000828193810E94DC306D837E838F839887D4
:10054000E985FA8520893189428953890E94B1332E
:10055000A985BA8594962D913D914D915C9197977F
:100560000E94DD30562E672E782E092F982F452DAC
:10057000562D692F702FE985FA8544A355A366A3EC
:1005800077A322A813A934A845A8222D312F432DE3
:10059000542D652D762D872D902F0E94A633181689
:1005A0006CF4422D512F632D742DA985BA85949634
:1005B0004D935D936D937C93979718C0E985FA8569
:1005C00086A497A4A0A8B1A8A5019401652D762DB5
:1005D000872D902F0E94A33187FF08C0A985BA8577
:1005E00094968D929D92AD92BC929797E985FA85EB
:1005F0002485358546855785BD81AE810F81B884B8
:100600006B2F7A2F802F9B2D0E94B133A985BA853D
:1006100094962D913D914D915C9197970E94DD307C
:100620004B015C01E985FA8520A531A542A553A5BA
:10063000C701B6010E94DC30A985BA8554962D9178
:100640003D914D915C9157970E94B1339B01AC0154
:10065000C501B4010E94DC30962EA72EB82E092FBA
:10066000222D312F432D542D692D7A2D8B2D902F36
:100670000E94A6331816B4F0E985FA8526A417A5BA
:1006800030A841A8222D312F432D542D692D7A2DCC
:100690008B2D902F0E94A33187FD04C0292C1A2D89
:1006A0003B2C402EA985BA855C96ED91FC915D9717
:1006B000422D512F632D742D4083518362837383A8
:1006C000FD01C0A6D1A6E2A6F3A689819A81AB81DD
:1006D000BC8180A391A3A2A3B3A32A960FB6F894DA
:1006E000DEBF0FBECDBFDF91CF911F910F91FF9065
:1006F000EF90DF90CF90BF90AF909F908F907F90C2
:100700006F905F904F903F902F9008952F923F925F
:100710004F925F926F927F928F929F92AF92BF9211
:10072000CF92DF92EF92FF920F931F93CF93DF93BD
:100730001C014A015B012801390120E030E0A901D8
:10074000C501B4010E94A33187FD8EC020E030E0D6
:10075000A901C301B2010E94A33187FD85C020E039
:1007600030E0A901C701B6010E94A33187FD7CC01A
:10077000F10180829182A282B38244825582668294
:100780007782C086D186E286F38664A575A5882720
:1007900077FD8095982F0E94453220E030E04AE7AF
:1007A00054E40E94AA31D62FC72F8C01F101848610
:1007B0009586A686B786BE01982F272F362F492FFC
:1007C000512FC301B2010E94B1332B013C01982F7C
:1007D000442D552D692F772DF101408B518B628B64
:1007E000738BBE01272F362F402F512FC701B60123
:1007F0000E94AA317B01D82FC92FCE010E2D1F2DAB
:10080000292F382FF101048B158B268B378B808D88
:10081000918D019749F5A501940160E070E0CB014D
:100820000E94DC30F1016487758786879787242DC5
:10083000352D462D572D60E070E0CB010E94DC3055
:10084000F101608B718B828B938BCE01202F312F26
:10085000492F582F60E070E0CB010E94DC30F1019D
:10086000648B758B868B978BDF91CF911F910F9146
:10087000FF90EF90DF90CF90BF90AF909F908F90C0
:100880007F906F905F904F903F902F900895CF9200
:10089000DF92EF92FF920F931F93CF93DF93EC01C0
:1008A0008B0116161706BCF5882777FD8095982FC3
:1008B0000E9445326B017C016CA57DA5882777FDE0
:1008C0008095982F0E9445329B01AC01C701B6016B
:1008D0000E94AA316B017C01762F272F3D2D4E2DD2
:1008E0005F2D688979898A899B890E94B133688BD9
:1008F000798B8A8B9B8B2C2D3D2D4E2D5F2D6C89FA
:100900007D898E899F890E94AA316C8B7D8B8E8B0D
:100910009F8B1DA70CA7DF91CF911F910F91FF9087
:10092000EF90DF90CF9008954F925F926F927F92F9
:100930008F929F92AF92BF92CF92DF92EF92FF92EF
:100940000F931F93CF93DF93EC016A017B01480162
:100950005901A9019801C701B6010E94A63387FF7A
:100960004FC0CEA6DFA6E8AAF9AA8AAA9BAAACAA7B
:10097000BDAA8EA9882309F443C00C8D1D8DF801F2
:100980004080518062807380A5019401C301B2014F
:100990000E94A633181634F4F80180829182A28254
:1009A000B3820DC0A7019601C301B2010E94A33119
:1009B00087FF05C0F801C082D182E282F3828CA059
:1009C0009DA0AEA0BFA0CAA8DBA8ECA8FDA8A70167
:1009D0009601C501B4010E94A63318160CF40CC090
:1009E000CEA4DFA4E8A8F9A8A7019601C501B40127
:1009F0000E94A33187FF04C0CCA2DDA2EEA2FFA219
:100A0000DF91CF911F910F91FF90EF90DF90CF90EA
:100A1000BF90AF909F908F907F906F905F904F901E
:100A200008958F929F92AF92BF92CF92DF92EF92F2
:100A3000FF92CF93DF93EC01EC8DFD8DC080D180D0
:100A4000E280F380CCA2DDA2EEA2FFA2EA8DFB8DB4
:100A5000408151816281738148A759A76AA77BA70A
:100A60008AA89BA8ACA8BDA8A5019401C701B6019E
:100A70000E94A63318160CF40CC08EA49FA4A8A83C
:100A8000B9A8A5019401C701B6010E94A33187FF4F
:100A900004C08CA29DA2AEA2BFA2DF91CF91FF9015
:100AA000EF90DF90CF90BF90AF909F908F90089580
:100AB0001F93CF93DF93EC0111E06130710509F0D2
:100AC00010E08EA991E08927181303C0CE010E947F
:100AD00011051EABDF91CF911F9108950F931F93C6
:100AE000CF93DF93EC018B018EA9882361F1888D70
:100AF000998D6817790739F12C853D854E855F857D
:100B000060E070E0CB010E94DC306C877D878E87CF
:100B10009F87288939894A895B8960E070E0CB0129
:100B20000E94DC30688B798B8A8B9B8B2C893D896A
:100B30004E895F8960E070E0CB010E94DC306C8BF5
:100B40007D8B8E8B9F8B198F088FDF91CF911F919B
:100B50000F9108952F923F924F925F926F927F92E2
:100B60008F929F92AF92BF92CF92DF92EF92FF92BD
:100B70000F931F93CF93DF9300D000D000D0CDB759
:100B8000DEB71C017A8369835C834B833E832D83AC
:100B9000270138014501560100E010E02FE733E45A
:100BA00040E050E0BA010E94940484E690E0F10134
:100BB00095A784A76F8D78A1C1010E946E05CB8C8B
:100BC000DC8CED8CFE8C95018401B301A201C10186
:100BD0000E9486030E94762FF10184A495A4AA2482
:100BE00097FCA094BA2C681979098A099B0960A31B
:100BF00071A382A393A316AA8B819C81958F848F66
:100C000089819A81938F828F8D819E81978F868F24
:100C100026960FB6F894DEBF0FBECDBFDF91CF9101
:100C20001F910F91FF90EF90DF90CF90BF90AF900A
:100C30009F908F907F906F905F904F903F902F90FC
:100C400008950F931F93CF93DF93FC01718360830B
:100C5000128213821482158286E58683178210869B
:100C60001186128613861486158616861786108AB4
:100C7000118A128A138A148A158A168ADF01A754E8
:100C8000BF4F1D921C92DF01A55ABE4F1D921C92B0
:100C9000DF01A15ABE4F1D921C92DF01AF59BE4F1A
:100CA0001D921C92DF01AD59BE4F1D921C92178AF6
:100CB000DF01A954BF4F1D921C92EF010EE110E01D
:100CC0008FE090E00E940435FE01E15EFE4F8083DC
:100CD00091838FE090E00E940435FC01DE01A5586D
:100CE000BF4F8D939C9310820150110922960115DC
:100CF000110531F7DF91CF911F910F910895FC01FC
:100D00005281438134812581652F742F832F922F47
:100D10000895FC0186810895FC0157814085318545
:100D20002285652F742F832F922F0895FC01538500
:100D3000448535852685652F742F832F922F08953E
:100D4000CF92DF92EF92FF926A017B01FC0127852F
:100D5000308941895289C701B6010E94B133FF90A1
:100D6000EF90DF90CF900895FC0153894489358935
:100D70002689652F742F832F922F08959C01295E59
:100D80003F4FC9010895660F771F680F791FFB0158
:100D9000E558FF4F8081918108954F925F926F9245
:100DA0007F928F929F92AF92BF92CF92DF92EF92FB
:100DB000FF920F931F93CF93DF93DB01CC9181E0E0
:100DC00090E0CD3221F0CB3211F080E090E02B01A9
:100DD000480E591E612C3DECA32E4CEC942E5CEC7D
:100DE000852E6DE3762EB12C00E010E0D0E0C12C12
:100DF000D12C76014AC0EE3209F445C0FF27E7FD49
:100E0000F095611015C0AAE0B0E0A70196010E941C
:100E100077346B017C01BF0160537109CB01AA27B4
:100E200097FDA095BA2FC80ED91EEA1EFB1E2DC035
:100E3000BF0160537109882777FD8095982F0E9424
:100E400045329B01AC016A2D792D882D972D0E948A
:100E5000B1339B01AC016B2D702F812F9D2F0E9410
:100E6000DD30B62E072F182FD92F20E030E040E2DA
:100E700051E46A2D792D882D972D0E94AA31A62E36
:100E8000972E882E792E66246394D201ED912D0140
:100E9000E111B1CFC701B6010E9445329B01AC01FF
:100EA0006B2D702F812F9D2F0E94DD30CD3249F4A4
:100EB000262F372F482F592F60E070E0CB010E947A
:100EC000DC30DF91CF911F910F91FF90EF90DF9079
:100ED000CF90BF90AF909F908F907F906F905F90DA
:100EE0004F9008958F929F92AF92BF92EF92FF9290
:100EF0000F931F93CF93DF93EC01FC01E55AFE4F54
:100F0000808191818436910584F4FE01E754FF4F7E
:100F1000208131812E31310544F4FE01ED59FE4F1F
:100F2000208131812F3031052CF0FE01E15AFE4F36
:100F3000118210828E01015A1E4F6A3011F06D30FD
:100F400019F4D8011D921C92643211F5FE01E35A86
:100F5000FE4F11821082FE01EF59FE4F1182108266
:100F6000FE01E754FF4F11821082FE01ED59FE4F42
:100F700011821082FE01E554FF4F6083FE01E55AA5
:100F8000FE4F81E090E091838083C15ADE4FE0C044
:100F9000F801208131812130310571F024F4232BB7
:100FA00009F48DC288C22230310509F48BC0233088
:100FB000310509F080C2CFC0873091057CF4FC0177
:100FC000E05FFD4F2081621309C0FE01E35AFE4F2E
:100FD000208131812F5F3F4F31832083FE01E80F55
:100FE000F91FE554FF4F6083FE01E55AFE4F01965D
:100FF000918380838E0107541F4FFE01ED59FE4FF0
:101000006A3219F16C32E1F5D8012D913C91C90198
:10101000880F991F8C0F9D1F815E9E4FDC018D9163
:101020009C9140815181840F951FDC011C922F5FA0
:101030003F4FD8012D933C9311821082CF59DE4F40
:1010400088819981BCE28B2783C0D8012D913C9186
:10105000C901880F991F8C0F9D1F815E9E4FDC0177
:101060008D919C9140815181840F951FDC011C92D0
:101070002F5F3F4FD8012D933C931182108263C0A4
:1010800020813181D8018D919C91880F991F8C0FFF
:101090009D1FDC01A15EBE4F0D90BC91A02DA20F43
:1010A000B31F6C932F5F3F4F31832083CF59DE4FA7
:1010B000772767FD709588819981682779277983DB
:1010C0006883FDC1FE01E80FF91FE554FF4F6083FF
:1010D000FE01E55AFE4F019691838083DE01AD59F2
:1010E000BE4F2D913C911197FE01E754FF4F808137
:1010F0009181880F991F8C0F9D1FFC01E15EFE4FAF
:101100000190F081E02DE20FF31F60832F5F3F4FCE
:101110002D933C93FE01EF59FE4F40815181862F64
:10112000992787FD9095613414F0C79701C0C09747
:101130009C01A4E0220F331FAA95E1F7CA01821B8C
:10114000930B91838083C15ADE4F888199810196E8
:1011500099838883B4C19E01280F391FD901A554F2
:10116000BF4F6C93D901A454BF4F1C92DE01A55A06
:10117000BE4F02968D939C939E012D593E4FF901CF
:1011800040815181DE01A754BF4F8D919C911197F1
:10119000880F991F8C0F9D1F815E9E4FFC018081DF
:1011A0009181840F951FFC0160834F5F5F4FF901B0
:1011B000518340832D913C911197C901880F991F4C
:1011C0008C0F9D1F815E9E4FFC0180819181840F59
:1011D000951FFC0110822F5F3F4F2D933C93D80148
:1011E0001D921C92FE01EF59FE4F80819181262FA6
:1011F000332727FD309561341CF02753310902C095
:1012000020533109821B930B91838083892B09F032
:1012100056C188819981892B39F4FE01E55AFE4F28
:1012200020813181C90110C0FE01E35AFE4F808147
:101230009181069791F343C1FE01E80FF91FDF0189
:10124000A554BF4F4C91478B019797FFF5CFA9014C
:1012500041505109C90137FF02C080E090E0FE0112
:10126000E55AFE4F9A01281B390B318320837E01FA
:1012700037EBE30EF11CD7011D921C92B7018E01D2
:1012800007541F4FDE01AD59BE4F31C011961C925D
:101290001E9208C040838D919C91119701961196E2
:1012A0009C938E93FB01808191812D913C911197AC
:1012B000880F991F8C0F9D1FAC01415E5E4FFA0194
:1012C00040815181420F531FFA01408185589F4F41
:1012D000FC0180819181820F931FFC014111DACFC3
:1012E0001082F70180819181019691838083FB01B7
:1012F00020813181F801808191812817390734F2EA
:10130000FE01E35AFE4F80819181069709F0DAC011
:10131000FE01EF5DFE4F60817181CE010E94CD061E
:101320006A837B838C839D83FE01ED5DFE4F01907C
:10133000F081E02D80818E83FE01EB5DFE4F6081A8
:101340007181CE010E94CD0620E030E048EC52E4ED
:101350000E94AA317B018C017F2D802F912F0E944A
:1013600080324B015C01FE01EB59FE4F60837183BB
:10137000828393839B01AC016E2D7F2D802F912F53
:101380000E94DC3020E030E048EC52E40E94B133AF
:1013900020E030E040E752E40E94AA31A501940128
:1013A0000E94DD309B01462F532F682F792F4F83EA
:1013B000588769877A87FE01E95DFE4F0190F081C9
:1013C000E02D4081433559F4482F592F60E070E0FB
:1013D000CB010E94DC306F83788789879A87FE0172
:1013E000E75DFE4F60817181CE010E94CD0620E055
:1013F00030E048EC52E40E94AA317B018C017F2D41
:10140000802F912F0E9480324B015C01FE01EB592D
:10141000FE4F60837183828393839B01AC016E2DA9
:101420007F2D802F912F0E94DC3020E030E048ECAF
:1014300052E40E94B13320E030E040E752E40E94E1
:10144000AA31A50194010E94DD309B01462F532F44
:10145000682F792F4B875C876D877E87FE01E55D5E
:10146000FE4F0190F081E02D4081473559F4482F1F
:10147000592F60E070E0CB010E94DC306B877C87E5
:101480008D879E87FE01E35DFE4F60817181CE01F5
:101490000E94CD066F87788B898B9A8BFE01E15D68
:1014A000FE4F60817181CE010E94CD066B8B7C8BDB
:1014B0008D8B9E8B07C0C15ADE4F1982188220E0A7
:1014C00030E002C021E030E0C901DF91CF911F91EF
:1014D0000F91FF90EF90BF90AF909F908F900895E5
:1014E000CF92DF92EF92FF920F931F936B017C01DB
:1014F000CA01B901209170002E7F209370002091C5
:10150000B0002C7F2093B0002091B100277F209362
:10151000B1002091B6002F7D2093B600209170007D
:101520002D7F209370002091B10024602093B100A2
:101530002091B1002C7F2093B10020E034E244E7F9
:101540005BE40E94B13320E030E040E85CE30E94BD
:10155000B1330E94123280E091E0861B970B90938A
:10156000790580937805C114D104E104F10469F48C
:1015700081E090E0A0E0B0E0809381059093820547
:10158000A0938305B093840508C0C0928105D092D2
:101590008205E0928305F092840510938005009304
:1015A0007F051F910F91FF90EF90DF90CF900895EE
:1015B0000F931F938A012FE632E143E85AE30E941A
:1015C000700A1F910F91089510927B0510927C056F
:1015D00010927D0510927E0510927A058091780513
:1015E000909179058093B200E0E7F0E0808181601E
:1015F0008083089580917B0590917C05A0917D0565
:10160000B0917E050196A11DB11D80937B0590933D
:101610007C05A0937D05B0937E0540917B0550919C
:101620007C0560917D0570917E058091810590918A
:101630008205A0918305B0918405481759076A0770
:101640007B07B0F080917A05811112C081E0809310
:101650007A0510927B0510927C0510927D05109200
:101660007E05E0917F05F0918005099510927A053D
:1016700008951F920F920FB60F9211240BB60F927E
:101680001BBE2F933F934F935F936F937F938F93E3
:101690009F93AF93BF93EF93FF93809178059091C1
:1016A00079058093B2000E94FA0AFF91EF91BF91F1
:1016B000AF919F918F917F916F915F914F913F91EA
:1016C0002F910F900BBE0F900FBE0F901F9018958B
:1016D000FC0115821682178280E090E0DF01A80FDE
:1016E000B91F18961C92019680329105B9F710A681
:1016F00012A611A605A8F6A9E02D309709F00994C5
:1017000008958DE090E19093860580938505109271
:10171000870585E895E00C94680B909164068091AC
:101720006306981769F08F5F803508F080E0E82F36
:10173000F0E0ED5EF94F20818093630630E002C057
:101740002FEF3FEFC901089580916406E091630691
:101750008E1731F0F0E0ED5EF94F208130E002C0ED
:101760002FEF3FEFC9010895509164064091630641
:10177000252F30E0842F90E0541708F002C0205B42
:101780003F4F281B390BC90108959B01AC012D3A2D
:101790008BE138074105510530F410927300109227
:1017A000200181E812C063E056954795379527954B
:1017B0006A95D1F72D3A8BE1380741055105B0F50F
:1017C000109273001092200182E8809321013093DF
:1017D000680620936706A5E2B0E00E94773422E015
:1017E00096958795779567952A95D1F770936A06B0
:1017F0006093690660E080E30E94803061E08EE2E1
:101800000E94A43061E08EE20E9480301092650652
:10181000109264061092630610921206109211063E
:101820001092100680E28ABB809373000895909115
:1018300011069F5F943408F090E02091100629175C
:10184000E1F32FB7F89430911206332341F0E92FDA
:10185000F0E0E054FA4F8083909311061DC091E0B0
:101860009093120680936B0610926C0682E08ABBFE
:1018700080917300826080937300809120018F7348
:1018800080688093200180912401909125014096E9
:1018900090932901809328012FBF0895862F0E94DD
:1018A000170C81E090E008951F920F920FB60F92EF
:1018B00011240BB60F921BBE2F933F934F935F9350
:1018C0006F937F938F939F93EF93FF9340911206B3
:1018D00050916B0680912801909129012091670613
:1018E0003091680670916C061DC0820F931F652FA2
:1018F000617056954F5F6717A9F02091200166230C
:1019000011F0206C02C02F73206820932001909367
:1019100029018093280160936C0650936B064093D5
:1019200012063FC0493008F3493039F42AE02093C9
:10193000120620912001206C28C020911106E09110
:1019400010062E130DC010921206809120018F7385
:1019500080932001809173008D7F8093730021C05C
:1019600021E020931206EF5FE43408F0E0E0E0931A
:101970001006F0E0E054FA4F208120936B0610929D
:101980006C06209120012F73206820932001209164
:10199000670630916806280F391F3093290120937C
:1019A0002801FF91EF919F918F917F916F915F91AE
:1019B0004F913F912F910F900BBE0F900FBE0F9044
:1019C0001F901895809112068111FCCF08950C94F8
:1019D000E20C1F920F920FB60F9211240BB60F92CA
:1019E0001BBE2F933F934F938F939F93EF93FF9340
:1019F0008091260190912701409165062091210157
:101A000040FF04C02F7B209321011BC02064209342
:101A10002101411116C02091690630916A06280FF4
:101A2000391F30932B0120932A0124E02ABB2091F7
:101A3000730024602093730090936E0680936D066C
:101A40000AC04A3040F4E42FF0E0EE0FFF1FE359E4
:101A5000F94F918380834F5F409365062091240165
:101A600030912501281B390B8091670690916806FB
:101A70008217930718F481E080936606FF91EF9137
:101A80009F918F914F913F912F910F900BBE0F908F
:101A90000FBE0F901F9018951F920F920FB60F92C6
:101AA00011240BB60F921BBEAF92BF92CF92DF9262
:101AB000EF92FF920F931F932F933F934F935F9358
:101AC0006F937F938F939F93AF93BF93CF93DF9346
:101AD000EF93FF93809173008B7F809373008091CD
:101AE00021018F7B80932101109164061F5F1035C7
:101AF00008F010E0809163061817E9F1C12FD0E0DB
:101B0000009165060B3008F00AE060916D06709157
:101B10006E062091670630916806C90196958795F3
:101B2000820F931F40E050E0E12CDD24D394FF248A
:101B3000FA94EFE6F6E0CC24C39415C0A191B191DC
:101B40005D01A61AB70A4A0D5B1D08C0E11003C06B
:101B50006D2D6095F622DD0C820F931F48175907F3
:101B6000A8F7EC24BD01015049F7FE01ED5EF94FE5
:101B7000F0821093640610926506FF91EF91DF9159
:101B8000CF91BF91AF919F918F917F916F915F9115
:101B90004F913F912F911F910F91FF90EF90DF9008
:101BA000CF90BF90AF900F900BBE0F900FBE0F90D5
:101BB0001F90189580916306809364060895CF93D3
:101BC000DF93C3E7D0E088818B7F888388818F7D16
:101BD00088830E94DA0D0E94E20C88818D7F8883C1
:101BE000DF91CF9108952CE232E0FC013183208314
:101BF00008952CE232E0FC01318320830C942B2FDA
:101C0000FC01CB012CE232E03183208373836283B9
:101C1000148240E050E0BA010E94AD1761E086E115
:101C20000E94803061E087E10E94803061E088E1BD
:101C30000E94803061E089E10C948030CF92DF9285
:101C4000EF92FF92CF93DF93EC018A819B810E94F8
:101C5000A817882311F18A819B810E947417181696
:101C60001906DCF48A819B810E9480176B017C013C
:101C70008A819B810E947417BC01882777FD80951B
:101C8000982F0E9445329B01AC01C701B6010E940A
:101C9000A633181614F461E001C060E08A819B81CC
:101CA000DF91CF91FF90EF90DF90CF900C94DD18F3
:101CB00024E332E0FC0131832083089524E332E001
:101CC000FC01318320830C942B2F2F923F924F9253
:101CD0005F926F927F928F929F92AF92BF92CF92BC
:101CE000DF92EF92FF920F931F93CF93DF9300D079
:101CF00000D000D0CDB7DEB79E838D834A015B0153
:101D000068017901FC01828193810E940F159B017A
:101D1000AC01C501B4010E94DD3069837A831C01E6
:101D2000ED81FE81828193810E940F159B01AC01A0
:101D3000C501B4010E94DC302B013C01ED81FE8124
:101D4000828193810E940F159B01AC01C701B601EE
:101D50000E94DD304B015C01ED81FE818281938127
:101D60000E940F159B01AC01C701B6010E94DC3037
:101D7000162F7B838C83092FED81FE8182819381D5
:101D80000E9419156B017C0124E83AEB4CE358E3FF
:101D9000B981AA816B2F7A2F822D932D0E94DC307E
:101DA000A70196010E94A633181694F4ED81FE81D6
:101DB000828193810E94F9149B01AC01B981AA81AF
:101DC0006B2F7A2F822D932D0E94A33187FD7EC029
:101DD000ED81FE81828193810E94F9146B017C0167
:101DE00024E83AEB4CE358E3642D752D862D972DAE
:101DF0000E94DD30A70196010E94A33187FF11C028
:101E0000ED81FE81828193810E9419159B01AC01B5
:101E1000642D752D862D972D0E94A63318160CF46F
:101E200062C0ED81FE81828193810E9423152B0186
:101E30003C0124E83AEB4CE358E3682D792D8A2DD8
:101E40009B2D0E94DC30A30192010E94A63318163C
:101E500084F4ED81FE81828193810E94CD149B01E7
:101E6000AC01682D792D8A2D9B2D0E94A33187FD11
:101E700045C0ED81FE81828193810E94CD144B018A
:101E80005C0124E83AEB4CE358E3AB81FC80612F22
:101E90007A2F8F2D902F0E94DD30A50194010E9492
:101EA000A33187FF5AC0ED81FE81828193810E9418
:101EB00023159B01AC01AB81FC80612F7A2F8F2D04
:101EC000902F0E94A633181624F147C039812A8129
:101ED000432F522F622D732DED81FE8182819381DC
:101EE0000E94E31775CF442D552D662D772DED817A
:101EF000FE81828193810E94F71793CF482D592D3F
:101F00006A2D7B2DED81FE81828193810E94C7170E
:101F1000B0CF2B819C81412F522F692F702FED81E3
:101F2000FE818281938126960FB6F894DEBF0FBEA4
:101F3000CDBFDF91CF911F910F91FF90EF90DF9078
:101F4000CF90BF90AF909F908F907F906F905F9059
:101F50004F903F902F900C94FD1726960FB6F89453
:101F6000DEBF0FBECDBFDF91CF911F910F91FF90CC
:101F7000EF90DF90CF90BF90AF909F908F907F9029
:101F80006F905F904F903F902F9008958F929F9207
:101F9000AF92BF92CF92DF92EF92FF920F931F9377
:101FA000CF93DF93EC016A017B014801590140E0C6
:101FB00050E064EB72E48A819B810E94E31740E069
:101FC00050E064EB72EC8A819B810E94F71740E03D
:101FD00050E064E373E48A819B810E94C71740E06C
:101FE00050E064E373EC8A819B810E94FD178A8133
:101FF0009B810E9403152DE93BEF46E157E30E94C8
:10200000B133AB01BC018A819B810E94F11795011C
:102010008401B701A601CE010E94650EDF91CF9128
:102020001F910F91FF90EF90DF90CF90BF90AF90F6
:102030009F908F900895CF92DF92EF92FF920F932F
:102040001F93CF93DF9300D0CDB7DEB76C017B0138
:1020500084E392E0F6019183808373836283CB01F2
:102060000E94E3148B019C01C70129833A830E94DB
:10207000D714AB01BC0129813A81C6010E94C60F69
:102080000F900F90DF91CF911F910F91FF90EF90E4
:10209000DF90CF9008958F929F92AF92BF92CF9290
:1020A000DF92EF92FF920F931F93CF93DF9300D0B5
:1020B00000D0CDB7DEB74C01FC01828193810E9434
:1020C0009E17882309F4CFC00E94762F6B017C01F4
:1020D000F401828193810E943D17C61AD70AE80A4B
:1020E000F90AF1EECF16F3E9DF06F4E0EF06F104AA
:1020F00038F0F401828193810E949E17811184C07F
:10210000F401828193810E946917882309F4ABC08E
:10211000F401828193810E9451175B016C01F401EB
:10212000828193810E9445177B018C01F401828199
:1021300093810E94E3149B01AC01F401828193819D
:102140002B833C8349835A830E94D7142B813C8183
:1021500049815A810E943C1EAB01BC01F40182817D
:1021600093810E94C117F401828193810E94C3145C
:102170006B017C01F401828193810E94EF149B0129
:10218000AC01C701B6010E94A633181664F4F4012D
:10219000828193810E94C314AB01BC01F40182814E
:1021A00093810E94DD17F401828193810E9451176F
:1021B0008B019C01F401828193812B833C830E94DB
:1021C0004517AB01BC012B813C81C4010E94650E07
:1021D000F401828193810E949E17882371F1F4019A
:1021E000828193810E94C3146B017C01F40182817E
:1021F00093810E9403159B01AC01C701B6010E94A7
:10220000A633181684F019C040E050E0BA01F4017A
:10221000828193810E94B31761E0F40182819381EE
:102220000E94BE176DCF40E050E0BA01F4018281F8
:1022300093810E94B31761E001C060E0F4018281E4
:1022400093810F900F900F900F90DF91CF911F917E
:102250000F91FF90EF90DF90CF90BF90AF909F9045
:102260008F900C94BE170F900F900F900F90DF91EE
:10227000CF911F910F91FF90EF90DF90CF90BF9083
:10228000AF909F908F900895CF93DF93EC018A8158
:102290009B810E944517AB01BC018A819B810E94F2
:1022A000CD178A819B810E945117AB01BC018A81A5
:1022B0009B810E94D51740E050E0BA018A819B8142
:1022C000DF91CF910C94DD176F927F928F929F9246
:1022D000AF92BF92CF92DF92EF92FF920F931F9334
:1022E000CF93DF93CDB7DEB7E7970FB6F894DEBF95
:1022F0000FBECDBF4C018B013C0183E1680E711C08
:10230000C3010E945002F401128B018BC8010E948C
:10231000371520E030E044E354E40E94DD306B01E7
:102320007C01982F4C2D5D2D692F7F2DF40140836A
:10233000518362837383C8010E9455159B01AC01D0
:102340006C2D7D2D8E2D9F2D0E94DD30F401648338
:10235000758386839783C8010E942D15F4016087D9
:1023600071878287938781E0808BA401485F5F4FEC
:10237000B4016C5F7F4F1F928F938FE38F9385E043
:102380008F938EE18F9388EB8F938AE0A82E87ED51
:10239000B82E83EAC82E8DE3D82E16E6E12EFE2C49
:1023A00006EE1EE39401CE0101960E94AA0587E382
:1023B000FE013196D30101900D928A95E1F700E07C
:1023C00010E024E832E440E050E0BA01C3010E948A
:1023D000940464E670E0C3010E9447040F900F90DC
:1023E0000F900F900F900F90E7960FB6F894DEBF06
:1023F0000FBECDBFDF91CF911F910F91FF90EF9056
:10240000DF90CF90BF90AF909F908F907F906F9014
:10241000089508958F929F92AF92BF92CF92DF92CC
:10242000EF92FF920F931F93CF93DF93EC01898973
:102430009A890E94C7188E010D5E1F4F882309F4E8
:10244000CDC061E070E0C8010E94580589899A8971
:102450000E94371520E030E044E354E40E94DD3070
:102460006B017C01982F4C2D5D2D692F7F2D4883AA
:1024700059836A837B8389899A890E9455159B01B8
:10248000AC016C2D7D2D8E2D9F2D0E94DD306C8337
:102490007D838E839F83C8010E9451022C853D85D8
:1024A0004E855F85688579858A859B850E94DC30AD
:1024B000B62FA72F462F572F682F792F4A015B0180
:1024C00020E030E0A9016B2F7A2F0E94A633181666
:1024D00024F0B7FAB094B7F8B09489899A890E9429
:1024E0003117BC01882777FD8095982F0E944532CF
:1024F0009B01AC01C501B4010E94A63318160CF073
:102500007EC08889C884D984EA84FB848C849D84B5
:10251000AE84BF84A5019401882311F1C701B601DF
:102520000E94A63318160CF421C0A5019401C7011E
:10253000B6010E94A33187FF3DC0188A89899A8914
:102540000E943717BC01882777FD8095982F0E943D
:1025500045329B01AC01C701B6010E94DC3026C0A8
:10256000C701B6010E94A33187FF05C0CC86DD8676
:10257000EE86FF861FC0A5019401C701B6010E9427
:10258000A6331816BCF481E0888B89899A890E9449
:102590003717BC01882777FD8095982F0E94453218
:1025A0009B01AC01C701B6010E94DD306C877D87BD
:1025B0008E879F874C855D856E857F8589899A8901
:1025C000DF91CF911F910F91FF90EF90DF90CF900F
:1025D000BF90AF909F908F900C94321860E070E0A5
:1025E000C801DF91CF911F910F91FF90EF90DF9085
:1025F000CF90BF90AF909F908F900C945805DF9133
:10260000CF911F910F91FF90EF90DF90CF90BF90EF
:10261000AF909F908F9008950F931F93FC011082AD
:102620001182128213821482158216821782108AF6
:10263000118A128A138A148A158A168A178A108EAA
:10264000118E128E138E148E40E050E064EB72E413
:10265000458F568F678F70A340E050E064EB72ECBB
:1026600041A352A363A374A340E050E064E373E486
:1026700045A356A367A370A740E050E064E373EC62
:1026800041A752A763A774A715A683E482AB13AA38
:1026900014AA15AA16AA40E050E064E072E447AB21
:1026A00050AF61AF72AF13AE40E050E068EC72E43F
:1026B00044AF55AF66AF77AFDF01A05CBF4F40E0DE
:1026C00050E060E271E44D935D936D937C931397BA
:1026D000DF01AC5BBF4F4D935D936D937C9313977C
:1026E000108611861286138614861586168617861E
:1026F000DF01A85BBF4F1C92DF01A75BBF4F1D929C
:102700001D921D921C921397DF01A35BBF4F1D9278
:102710001D921D921C921397DF01AF5ABF4F86E5A1
:102720008C93DF01AE5ABF4F1D921D921D921C92D9
:102730001397DF01AA5ABF4F1D921D921D921C9242
:102740001397DF01A65ABF4F1D921D921D921C9236
:102750001397DF01A25ABF4F1D921D921D921C922A
:102760001397DF01AE59BF4F1C92DF01AD59BF4F28
:102770001C92DF01AC59BF4F1C92DF01AB59BF4F18
:102780001D921D921D921C921397DF01A759BF4FF6
:102790001D921D921D921C921397DF01A359BF4FEA
:1027A0001D921C92DF01A159BF4F1D921C92DF01A7
:1027B000AF58BF4F1D921C92DF01AD58BF4F1C9206
:1027C000DF01AC58BF4F1D921D921D921C921397B2
:1027D000DF01A858BF4F1D921D921D921C921397A6
:1027E000DF01A458BF4F40E050E060E272E44D9337
:1027F0005D936D937C931397DF01A058BF4F1C929C
:10280000DF01AF57BF4F1C92DF01AE57BF4F1D9284
:102810001C92DF01AC57BF4F1D921C92DF01AA57DB
:10282000BF4F40E050E060E87FE34D935D936D93D0
:102830007C931397DF01A657BF4F1C92DF01A5576A
:10284000BF4F00EE13E924E030E00D931D932D936C
:102850003C931397DF01A157BF4F1C92DF01A05794
:10286000BF4F1C92DF01AF56BF4F83E690E08D93C0
:102870009C93DF01AD56BF4F1C92DF01AC56BF4F9A
:102880004D935D936D937C931397DF01A856BF4FD3
:102890001D921C92E656FF4F85E090E09183808365
:1028A0001F910F910895FC01DB0112968D919C916F
:1028B00013979383828314964D915D916D917C91D2
:1028C0001797448355836683778318964D915D915E
:1028D0006D917C911B9740875187628773878CE34A
:1028E00095E0918380831C968D919C911D9795878F
:1028F00084871E968D919C911F9797878687509607
:102900008D919C915197918B808B52968D919C913A
:102910005397938B828B54968D919C915597958B61
:10292000848B56968D919C915797978B868B589652
:102930008D919C915997918F808F5A968D919C91F2
:102940005B97938F828F5C968C915C97848F5D965A
:102950008C915D97858F5E968C915E97868F5F9642
:102960008C915F97878F90968C91909780A391968A
:102970008C91919781A392968C91929782A3939632
:102980008C9183A30895FC01548945893689278950
:10299000652F742F832F922F0895FC0155A146A116
:1029A00037A120A5652F742F832F922F0895FC0146
:1029B000EC58FF4F5081418132812381652F742F64
:1029C000832F922F0895FC01E858FF4F50814181D9
:1029D00032812381652F742F832F922F0895FC015C
:1029E000508D418D328D238D652F742F832F922F23
:1029F0000895FC01558D468D378D20A1652F742FCC
:102A0000832F922F0895FC01E458FF4F508141819C
:102A100032812381652F742F832F922F0895FC011B
:102A20005089418932892389652F742F832F922FF2
:102A30000895FC0151A142A133A124A1652F742F57
:102A4000832F922F0895FC0151A542A533A524A5FB
:102A5000652F742F832F922F0895FC0157A940AD45
:102A600031AD22AD652F742F832F922F0895FC0175
:102A700053A944A935A926A9652F742F832F922F16
:102A80000895FC0182A9873559F4E159FF4F60810F
:102A90007181882777FD8095982F0E94453204C068
:102AA00060857185828593850895EF92FF920F93DB
:102AB0001F93CF93DF93EC010E9441159B01AC0162
:102AC0006BA97CA98DA99EA90E94DC307B018C0199
:102AD00020E030E044E353E47F2D912F0E94A633A1
:102AE00018168CF020E030E044E353EC6E2D7F2D7F
:102AF000802F912F0E94A33187FF0AC020E030E091
:102B000044EB53E408C020E030E044EB53EC03C056
:102B100020E030E0A9016E2D7F2D802F912F0E94A3
:102B2000DD309B01462F532F682F792F4EA75FA7CB
:102B300068AB79AB622F732FDF91CF911F910F910B
:102B4000FF90EF900895EF92FF920F931F93CF9312
:102B5000DF938C01D62FC72F68E572E08D2F9C2F55
:102B60000E94682A64E672E08D2F9C2F0E94682ADA
:102B7000F80165A54AE050E070E08D2F9C2F0E947F
:102B8000472B62E772E08D2F9C2F0E94682AF80184
:102B900062A98D2F9C2F0E946B2AF80185A588239E
:102BA000D9F168E772E08D2F9C2F0E94682AF80106
:102BB00043A954A965A976A922E030E08D2F9C2F66
:102BC0000E94072C6EE772E08D2F9C2F0E94682ACE
:102BD000C8010E944115AB01BC0122E030E08D2FFD
:102BE0009C2F0E94072C64E872E08D2F9C2F0E947E
:102BF000682A20E030E044E052E4F80167A970ADB3
:102C000081AD92AD0E94DC30AB01BC0122E030E02E
:102C10008D2F9C2F0E94072C6AE872E08D2F9C2F2D
:102C20000E94682A7801F0E8EF0EF11CF70160813C
:102C30004AE050E070E08D2F9C2F0E94472B60E906
:102C400072E08D2F9C2F0E94682AF801E458FF4FF4
:102C5000408151816281738122E030E08D2F9C2F71
:102C60000E94072CF70180818823B9F166E972E0A0
:102C70008D2F9C2F0E94682AF801EC58FF4F40814D
:102C800051816281738122E030E08D2F9C2F0E9460
:102C9000072C6CE972E08D2F9C2F0E94682AF801A6
:102CA000E858FF4F408151816281738122E030E01A
:102CB0008D2F9C2F0E94072C62EA72E08D2F9C2F93
:102CC0000E94682AF801448955896689778922E03B
:102CD00030E08D2F9C2F0E94072C68EA72E08D2F28
:102CE0009C2F0E94682AF801ED56FF4F60814AE050
:102CF00050E070E08D2F9C2F0E94472B6EEA72E00F
:102D00008D2F9C2F0E94682AF801EF56FF4F60819B
:102D100071814AE050E08D2F9C2F0E94472B62E684
:102D200072E08D2F9C2F0E94882A80E090E0DF9136
:102D3000CF911F910F91FF90EF900895BF92CF9286
:102D4000DF92EF92FF920F931F93CF93DF93CDB754
:102D5000DEB7A4970FB6F894DEBF0FBECDBF7C01DF
:102D6000433471F56C0184E7C80ED11C8E010F5FEE
:102D70001F4FC8010E94531460E4C8010E942F2510
:102D800063E4C8010E942F25EAE9EE0EF11C30E34E
:102D9000B32EF60161916F01C8010E942F25F60143
:102DA0008081B826CE14DF04A1F76B2DC8010E94E4
:102DB0002F256AE0C8010E942F2526E230E040C09E
:102DC000443471F56C01F8E4CF0ED11C8E010F5F15
:102DD0001F4FC8010E94531460E4C8010E942F25B0
:102DE00064E4C8010E942F2583E6E80EF11C20E36D
:102DF000B22EF60161916F01C8010E942F25F601E4
:102E00008081B826CE14DF04A1F76B2DC8010E9483
:102E10002F256AE0C8010E942F252BE130E010C069
:102E2000433561F4CE0101960E945314BE016F5FD9
:102E30007F4FC7010E94A3159C0102C02FEF3FEFF7
:102E4000C901A4960FB6F894DEBF0FBECDBFDF91C7
:102E5000CF911F910F91FF90EF90DF90CF90BF9097
:102E60000895FC01EE57FF4F808191810895FC0188
:102E7000EC57FF4F808191810895FC01E75BFF4F84
:102E800060817181828193810895FC01EE5AFF4F28
:102E90005081418132812381652F742F832F922F9E
:102EA0000895FC01EA5AFF4F50814181328123810C
:102EB000652F742F832F922F0895FC01EA57FF4F3F
:102EC0005081418132812381652F742F832F922F6E
:102ED00008958F5A9F4FFC0180810895FC01E856A8
:102EE000FF4F808191810895FC01EF56FF4F808153
:102EF00091810895FC01E159FF4F808191810895EE
:102F0000FC01E759FF4F5081418132812381652FB8
:102F1000742F832F922F0895FC01EC56FF4F5081A0
:102F2000418132812381652F742F832F922F089541
:102F3000FC01E359FF4F80819181089580589F4F94
:102F4000FC0180810895885B9F4FFC01808108957A
:102F50008D569F4FFC0180810895FC014083518371
:102F6000628373830895FC0144835583668377836A
:102F7000089580589F4FFC0160830895FC01648F81
:102F80000895FC01448B558B668B778B0895FC016B
:102F900045A356A367A370A708958C589F4FFC01C3
:102FA0004083518362837383089588589F4FFC0147
:102FB00040835183628373830895FC01408F518F56
:102FC000628F738F0895FC01458F568F678F70A3B2
:102FD000089584589F4FFC0140835183628373831B
:102FE0000895FC01408B518B628B738B0895FC011B
:102FF00041A352A363A374A30895FC0141A752A760
:1030000063A774A70895CF93DF93EC01673511F0A0
:10301000633429F56AAB673581F4FE01E159FF4F4E
:1030200060817181882777FD8095982F0E944532B5
:103030006BAB7CAB8DAB9EAB0AC0633441F448856F
:1030400059856A857B854BAB5CAB6DAB7EAB40E055
:1030500050E064E072E44FAB58AF69AF7AAFDF91F4
:10306000CF910895FC0147AB50AF61AF72AF0895A7
:10307000CF93DF93EC01CB01BA010E941232CB0156
:1030800088599E4F68E671E00E948E34BC01882703
:1030900077FD8095982F0E9445326BAB7CAB8DAB52
:1030A0009EABDF91CF910895825A9F4FFC014083E0
:1030B0005183628373830895885B9F4FFC01608313
:1030C0000895875B9F4FFC01408351836283738324
:1030D00008958E5A9F4FFC0140835183628373830E
:1030E00008958A5A9F4FFC01408351836283738302
:1030F0000895865A9F4FFC014083518362837383F6
:1031000008958F5A9F4FFC0160830895835B9F4F02
:10311000FC0140835183628373830895FC014087DF
:103120005187628773870895FC01448755876687B6
:103130007787089588569F4FFC01718360830895B7
:103140008D569F4FFC01608308958F569F4FFC0161
:1031500071836083089581599F4FFC01718360835F
:1031600008958F589F4FFC0171836083089587599C
:103170009F4FFC01408351836283738308958B5971
:103180009F4FFC0140835183628373830895FC0148
:1031900085A508951F93CF93DF93EC01162F6AA99D
:1031A0000E9403181DA7DF91CF911F9108958359A5
:1031B0009F4FFC017183608308958D589F4FFC01E0
:1031C0006083089581E08093820D8091800D9091BD
:1031D000810D01969093810D8093800D8091800DDB
:1031E0009091810D64E170E00E948E349093810D86
:1031F0008093800D089588EF96E00C943D2188EF30
:1032000096E00C94BE20EF920F93CF93DF93CDB74F
:10321000DEB7A4970FB6F894DEBF0FBECDBF68E24D
:1032200070E083E896E00E943E2EE12C01E028E069
:1032300040E056E960E070E08DE090E10E940F28E8
:1032400064EB72E08DE090E10E94882A63EC72E00A
:103250008DE090E10E94882A82EF96E00E94F41DA2
:1032600040E056E960E070E081E390E10E948C2745
:103270006FEC72E08DE090E10E94882A29E040EC3A
:1032800052E160E070E085E590E10E940F2869EE70
:1032900072E08DE090E10E94882A28E040EC52E143
:1032A00060E070E089E790E10E940F2863E073E03E
:1032B0008DE090E10E94882A60E084E30E948030E3
:1032C00061E085E30E94803040EC52E160E070E014
:1032D00083EA9CE00E94FE1F63E173E08DE090E1D1
:1032E0000E94882A60E083E00E94803042E050E043
:1032F0006FEF78E181E00E940A2C60E082E00E949A
:10330000803042E050E06BEF78E180E00E940A2CD0
:1033100060E273E08DE090E10E94882A42EE58E17D
:1033200064E670E080E090E00E94D80A0E94E40A1F
:103330006EE273E08DE090E10E94882A6DE070E11A
:10334000CE0101960E94531443E4BE016F5F7F4F8C
:1033500084EE9CE00E949E16A4960FB6F894DEBF01
:103360000FBECDBFDF91CF910F91EF9008951FC099
:1033700081E390E10E94F924682F82EF96E00E9499
:10338000461F80938206882391F08AE39BE00E9487
:10339000BE06BC0183EA9CE00E940F208AE39BE00A
:1033A0000E94BE06BC018DE090E10C94882A81E366
:1033B00090E10E94CA24892BD9F6089509C085E5B9
:1033C00090E10E94F924682F8AE896E00E94AD20DF
:1033D00085E590E10E94CA24892B89F708951FC0D2
:1033E00089E790E10E94F924682F8FEF96E00E9410
:1033F000720780938106882391F08FEF96E00E94F8
:10340000BE06BC0183EA9CE00E940F208FEF96E08D
:103410000E94BE06BC018DE090E10C94882A89E7E9
:1034200090E10E94CA24892BD9F60895CF93DF93A7
:10343000CDB7DEB7A4970FB6F894DEBF0FBECDBFF1
:103440008091820D8823B9F188EA96E00E940A12E1
:1034500088EF96E00E94AA228091800D9091810DC4
:1034600065E070E00E948E34892B69F46DE070E1B4
:10347000CE0101960E945314BE016F5F7F4F84EE10
:103480009CE00E94A3158091800D9091810D6AE0CF
:1034900070E00E948E34892B61F484EA96E00E94E9
:1034A0004B108AEF96E00E941E0E83EA9CE00E9479
:1034B00011201092820DA4960FB6F894DEBF0FBEB5
:1034C000CDBFDF91CF9108954F925F926F927F921F
:1034D0008F929F92AF92BF92CF92DF92EF92FF9224
:1034E0000F931F93CF93DF9300D000D01F92CDB7DF
:1034F000DEB76DB67EB662E672E073C14DB65EB6FB
:1035000044E050E0B701CE0101960E948B371D8246
:10351000480185E0881A9108680194E0C91AD10829
:10352000ADB7BEB7AC19BD090FB6F894BEBF0FBE9C
:10353000ADBFADB6BEB6EFEFAE1ABE0A6501F5E09F
:10354000EF0EF11CA401B701C5010E947237F5010D
:10355000E80DF91D10826FE373E0CE0101960E9421
:103560007B370097B1F4C5010E94213761E0892BB8
:1035700009F460E084EE9CE00E94B917C6010E9445
:103580002137019709F0BFC084EA96E00E944411F8
:10359000BAC064E473E0CE0101960E947B370097C5
:1035A000B1F484EE9CE00E9403156B017C01C5011F
:1035B0000E941D379B01AC01C701B6010E94DD309E
:1035C000AB01BC0184EE9CE00E94E9179CC069E459
:1035D00073E0CE0101960E947B37009751F4C5013C
:1035E0000E941D37AB01BC0184EE9CE00E94CD1708
:1035F0008AC06EE473E0CE0101960E947B3700978B
:1036000051F4C5010E941D37AB01BC0184EE9CE062
:103610000E94D51778C063E573E0CE0101960E9441
:103620007B37009761F4C5010E94213761E0892B47
:1036300009F460E084EE9CE00E94CA1864C068E56A
:1036400073E0CE0101960E947B370097C1F484EEAF
:103650009CE00E9437156B017C01C5010E943F3739
:103660000E9445329B01AC01C701B6010E94DD30CA
:10367000AB01BC0184EE9CE00E94381844C06DE5AB
:1036800073E0CE0101960E947B37009739F4D50193
:103690006C9184EE9CE00E94031835C062E673E0F2
:1036A000CE0101960E947B37009761F4C5010E940C
:1036B000213761E0892B09F460E084EE9CE00E94F0
:1036C000A01821C067E673E0CE0101960E948437FE
:1036D000009749F4C5010E942137BC0184EE9CE0AB
:1036E0000E94A51810C06CE673E0CE0101960E94FE
:1036F0008437009741F4C5010E942137BC0184EE54
:103700009CE00E949A18342D252D60C08DB69EB67F
:1037100043E050E0B701CE0101960E948B371C8236
:103720005801B4E0AB1AB1086801E3E0CE1AD10841
:103730008DB79EB78C199D090FB6F8949EBF0FBE2A
:103740008DBF0DB71EB70F5F1F4F680194E0E90EE4
:10375000F11CA501B701C8010E947237F801EA0DFA
:10376000FB1D108261E773E0CE0101960E947B375A
:10377000009749F4C8010E941D37AB01BC0184EEDB
:103780009CE00E948E1865E773E0CE0101960E94CE
:103790007B37009749F4C6010E941D37AB01BC017D
:1037A00084EE9CE00E94941869E773E0CE010196D4
:1037B0000E947B37009741F4C6010E942137BC016B
:1037C00084EE9CE00E94B118382D292D832F922F72
:1037D0000FB6F8949EBF0FBE8DBF62E672E080E028
:1037E00090E00E946E377C01009791F0DC010D9013
:1037F0000020E9F78D0101501109081B190B043055
:10380000110530F0FC018081833209F07FCF76CE44
:103810000FB6F8947EBE0FBE6DBE0F900F900F9046
:103820000F900F90DF91CF911F910F91FF90EF902C
:10383000DF90CF90BF90AF909F908F907F906F90D0
:103840005F904F900895CF92DF92EF92FF920F9387
:103850001F93CF93DF93CDB7DEB7EDB6FEB639C079
:103860008DE090E10E94F924182F682F83E896E0FC
:103870000E94DD2E1A3069F5CDB6DEB6409187067E
:10388000509188064F5F5F4F8DB79EB7841B950B95
:103890000FB6F8949EBF0FBE8DBF0DB71EB70F5F5A
:1038A0001F4F20E030E0B80183E896E00E94F02E40
:1038B0006CE2C8010E94641A67ED74E083E896E048
:1038C0000E94992E8C2D9D2D0FB6F8949EBF0FBE91
:1038D0008DBF8DE090E10E94CA24892B09F60FB6B6
:1038E000F894FEBE0FBEEDBEDF91CF911F910F91F8
:1038F000FF90EF90DF90CF90089584EE9CE00E94BF
:103900000C131092A60C1092A50C88EE93E0A0E088
:10391000B0E08093A70C9093A80CA093A90CB0934F
:10392000AA0C88E295E09093A40C8093A30C84EEFB
:103930009CE09093B00C8093AF0C60E070E08AE361
:103940009BE00E94210660E070E081ED99E00E941A
:10395000210660E070E088E698E00E94210660E0C1
:1039600070E08FEF96E00E94210664EE7CE08AEF23
:1039700096E00E94000E64EE7CE088EF96E00E94E4
:10398000062244EE5CE06AE37BE082EF96E00E9470
:10399000081D64EE7CE088EA96E00E94641164EE03
:1039A0007CE084EA96E00E941B1044EE5CE065E552
:1039B00070E18AE896E00E94A52067ED74E083E854
:1039C00096E00C947E2E83E896E00E940C2E84EA0A
:1039D00096E00E94580E88EA96E00E94091282EF53
:1039E00096E00E94FB1C8AEF96E00E94F30D83EAAA
:1039F0009CE00C94E91F20E035E0FC01318320833A
:103A0000089520E035E0FC01318320830C942B2FB6
:103A1000FC0180E095E09183808355834483738328
:103A200062830895CF92DF92EF92FF92CF93DF935C
:103A3000C5E6D0E00AC081E390E10E94CA24892B48
:103A4000D1F381E390E10E94F9242197A1F70E942C
:103A5000762F6B017C01C1E088E8C80E83E1D81E97
:103A6000E11CF11C09C081E390E10E94F924C1E04E
:103A7000813891050CF0C0E00E94762F6C157D0511
:103A80008E059F0518F4C11112C009C0CC2339F06E
:103A90006DE773E08DE090E10E94882A0FC060E836
:103AA00073E08DE090E10E94882AC0E007C081E3C6
:103AB00090E10E94CA24892BF9F2D5CF8C2FDF9197
:103AC000CF91FF90EF90DF90CF900895CF93DF9349
:103AD000EC0165E873E08DE090E10E94882A40ECFB
:103AE00052E160E070E081E390E10E948C27CE011A
:103AF0000E94121D811166C081E390E10E94E428BA
:103B00006CE973E08DE090E10E94882A40E855E27C
:103B100060E070E081E390E10E948C27CE010E947A
:103B2000121D811152C081E390E10E94E42863EBF1
:103B300073E08DE090E10E94882A40E05BE460E061
:103B400070E081E390E10E948C27CE010E94121D5B
:103B500081113EC081E390E10E94E4286BEC73E0A8
:103B60008DE090E10E94882A40E056E960E070E034
:103B700081E390E10E948C27CE010E94121D8111E9
:103B80002AC081E390E10E94E42863EE73E08DE0B7
:103B900090E10E94882A40E051EE60E070E081E30D
:103BA00090E10E948C27CE010E94121D811116C047
:103BB00081E390E10E94E4286BEF73E08DE090E1F7
:103BC0000E94882A20EC32E10BC020E835E208C0D0
:103BD00020E03BE405C020E036E902C020E031EE01
:103BE000C901DF91CF9108950E94661D60E174E0E4
:103BF00081E390E10E94882A6EE174E081E390E124
:103C00000E94882A66E374E081E390E10E94882A9A
:103C10006EE474E081E390E10E94882A66E674E035
:103C200081E390E10E94882A6EE774E081E390E1ED
:103C30000E94882A66E974E081E390E10E94882A64
:103C40006EEA74E081E390E10E94882A6CEB74E0F4
:103C500081E390E10E94682A81E390E10E941B25A4
:103C600081E390E10E94E42840E056E960E070E0E2
:103C700081E390E10C948C272F923F924F925F92B8
:103C80006F927F928F929F92AF92BF92CF92DF926C
:103C9000EF92FF920F931F93CF93DF93CDB7DEB7D1
:103CA00060970FB6F894DEBF0FBECDBF69837A83ED
:103CB0008B839C83CA01B901A60195010E94DC3067
:103CC00025E33AEF4EE85CE30E94B1336B015C01FF
:103CD0007D2D9B2D0E9414342B013C016C2D7D2DDC
:103CE0008A2D9B2D0E94A7316D837E838F839887B9
:103CF00025E33AEF4EE85CE369817A818B819C8110
:103D00000E94B1336B018983998725E33AEF4EE82E
:103D10005CE3C801B7010E94B133162F072F382E7C
:103D2000292E398129856C2D7D2D832F922F0E947C
:103D300014344B015C01398129856C2D7D2D832F35
:103D4000922F0E94A73169837A838B839C83A80179
:103D50009101652F742F832F922F0E94143469874D
:103D60007A878B879C87A8019101652F742F832FF9
:103D7000922F0E94A7316B017C0129853A854B85E2
:103D80005C8569817A818B819C810E94B1336D87CA
:103D90007E878F87988BA7019601C501B4010E9489
:103DA000B1332D813E814F8158850E94B1339B01F3
:103DB000AC016D857E858F8598890E94DC30262F29
:103DC000372F482F592F0E94B133362E272E182F08
:103DD000092FA3019201C701B6010E94B133262F1A
:103DE000372F482F592F0E94B1339B01AC01D101CD
:103DF000F8016B2F7A2F8F2F9E2F0E94DD300E94AB
:103E00001E342B013C0129853A854B855C85C50113
:103E1000B4010E94B1334B015C01A7019601698195
:103E20007A818B819C810E94B1332D813E814F81AB
:103E300058850E94B1339B01AC01C501B4010E94B9
:103E4000DD309B01AC01C301B2010E94503126E775
:103E50003BE742EC5AE40E94B13360960FB6F89407
:103E6000DEBF0FBECDBFDF91CF911F910F91FF90AD
:103E7000EF90DF90CF90BF90AF909F908F907F900A
:103E80006F905F904F903F902F900895CF93DF9366
:103E9000EC018A819B810E94720761E0892B09F401
:103EA00060E08C819D810E945C188C819D810E94C4
:103EB000A317882369F18A819B810E948906682F54
:103EC0008C819D810E9481188A819B810E94890634
:103ED0008134F1F460E070E08A819B810E94C30626
:103EE000FC0182818235A1F060E070E08A819B81D3
:103EF0000E94C306FC0183818D3451F060E070E0C4
:103F00008A819B810E94C306FC018481833431F441
:103F10008C819D81DF91CF910C94A3170E94762F05
:103F2000AB01BC018C819D810E9461188A819B81BB
:103F30000E94B406AB01BC018C819D810E94541883
:103F40008A819B810E948C06AB01BC018C819D8182
:103F50000E9469188A819B810E949606AB01BC0170
:103F60008C819D810E9471188C819D810E945D17BA
:103F7000AB01BC018A819B810E94A006AB01BC0100
:103F80008C819D810E9479188A819B810E947F0685
:103F9000AB01BC018C819D810E948618B9CF109223
:103FA000860D1092850D8CE092E09093840D8093A5
:103FB000830D8DE89DE09093880D8093870D88E2B6
:103FC00090E090938C0D80938B0D83E89DE00C9492
:103FD00045022CE132E0FC01318320830C94DF0D9B
:103FE000CF93DF93EC018CE192E0998388830E9468
:103FF000DF0DCE01DF91CF910C942B2F9A01AB01F5
:10400000CA01B90196958795779567957C5D8B4038
:104010009F4F0E94A234CA01B9010C94C50B0C94A5
:10402000882ACF92DF92EF92FF920F931F93CF9344
:10403000DF93CDB7DEB72A970FB6F894DEBF0FBE79
:10404000CDBF8C017C018EE0E80EF11C1C821B822E
:104050008CE092E09A838983FE82ED828EE190E08B
:104060009A878987CE0101960E94450264E075E037
:10407000CE0101960E94682AF801848595850E94E8
:104080007A174AE050E0BC01CE0101960E94472B0E
:104090006CE075E0CE0101960E94682AF8018485E3
:1040A00095850E948017AB01BC0122E030E0CE0173
:1040B00001960E94072C62E175E0CE0101960E94F4
:1040C000682AF801E05CFF4F108281E090E06F0108
:1040D00009C0F801E80FF91F2685F6013081232772
:1040E00020830196F70101900020E9F7EE19FF09FE
:1040F00032978E179F0768F3F6018081803128F48C
:1041000060E3CE0101960E946B2A40E150E0F60187
:104110006081CE0101960E94042BB7018DE090E1F1
:104120000E94882AB701C8010E940F202A960FB664
:10413000F894DEBF0FBECDBFDF91CF911F910F91DD
:10414000FF90EF90DF90CF900895FC01578B468B46
:10415000718F608F118210820895FC01A081B1815E
:10416000A80FB91F12966C938081918143972CF40C
:104170008081918101969183808308950F931F938D
:104180008091D80D882309F475C01092D80D0E9433
:10419000762F6093E90D7093EA0D8093EB0D909369
:1041A000EC0D0E94842F0091DD0D1091DE0D209109
:1041B000DF0D3091E00D601B710B820B930B609350
:1041C000E50D7093E60D8093E70D9093E80D8091D7
:1041D000E50D9091E60DA091E70DB091E80D892BCA
:1041E0008A2B8B2BE9F10091E50D1091E60D2091C2
:1041F000E70D3091E80D7091BD0D6091BC0D4091BF
:10420000BA0D5091BB0D7617C0F4FA0184E0789F87
:10421000E00DF11D1124C801D90180839183A2838F
:10422000B383672F6F5F6093BD0D8091BE0D8F5F6D
:104230000E9482349093BE0D13C08091BE0D8F5F9B
:104240000E9482349093BE0DFA0184E0989FE00DA5
:10425000F11D1124C801D90180839183A283B38306
:104260000E94842F6093DD0D7093DE0D8093DF0D2F
:104270009093E00D1F910F9108958F929F92AF92AE
:10428000BF92CF92DF92EF92FF92CF93DF93809114
:10429000D80D81119AC081E08093D80D0E94842F9F
:1042A000C090DD0DD090DE0DE090DF0DF090E00DC0
:1042B0006C197D098E099F096093D90D7093DA0DF1
:1042C0008093DB0D9093DC0D8091D90D9091DA0DE8
:1042D000A091DB0DB091DC0D892B8A2B8B2B09F47F
:1042E00074C04091E50D5091E60D6091E70D70911D
:1042F000E80D8091D90D9091DA0DA091DB0DB09170
:10430000DC0D84179507A607B70788F15EC0E901A1
:1043100084E0E89FC00DD11D11244F2F5A2F6B2F21
:104320007F2D488359836A837B836E2F6F5F6093F1
:10433000B80D8091B90D8F5F0E9482349093B90DB2
:1043400044C08091B90D8F5F0E9482349093B90D63
:10435000E90184E0989FC00DD11D11244F2F5A2FE1
:104360006B2F7F2D488359836A837B832EC0609196
:10437000D90D7091DA0D8091DB0D9091DC0D80905C
:10438000E50D9090E60DA090E70DB090E80D0E942D
:1043900043326B017C01C501B4010E9443329B0191
:1043A000AC01C701B6010E94AA31F62FA72FB82F82
:1043B000F92EE091B80D6091B70D2091B50D3091B7
:1043C000B60DE61708F0BDCFA2CFDF91CF91FF90D9
:1043D000EF90DF90CF90BF90AF909F908F90089517
:1043E000FC011382148280E00DC0A081B18194E0B1
:1043F000899FA00DB11D11241D921D921D921C922A
:1044000013978F5F9281891780F30895CF93DF937D
:10441000EB01FC01718360831092E50D1092E60DB3
:104420001092E70D1092E80D0E94842F6093DD0D2D
:104430007093DE0D8093DF0D9093E00D1092D90DF7
:104440001092DA0D1092DB0D1092DC0D81E080935A
:10445000D80D1092D70D8AEB9DE00E94F0211092AA
:10446000B80D1092B90D8091B50D9091B60D20E068
:104470000BC0FC0134E0239FE00DF11D11241082DC
:104480001182128213822F5F3091B70D231788F3A8
:10449000CE010E947417843691053CF063E670E00B
:1044A000CE01DF91CF910C94A518DF91CF910895A3
:1044B000CF92DF92EF92FF920F931F93CF93DF93F0
:1044C00000D000D0CDB7DEB719821A821B821C82C1
:1044D000DC0112965C9160E070E040E018C0DC0105
:1044E000ED91FC91E60FF71FC080D180E280F38050
:1044F00009811A812B813C810C0D1D1D2E1D3F1D34
:1045000009831A832B833C834F5F6C5F7F4F451376
:10451000E6CF69817A818B819C81242F30E040E055
:1045200050E00E94C43429833A834B835C83098121
:104530001A812B813C81B801C9010F900F900F9017
:104540000F90DF91CF911F910F91FF90EF90DF902F
:10455000CF9008952F923F924F925F926F927F92E9
:104560008F929F92AF92BF92CF92DF92EF92FF9283
:104570000F931F93CF93DF931C010E94762FAB0103
:10458000BC01F101808191810E94BF180E94762FA9
:104590000091E90D1091EA0D2091EB0D3091EC0D99
:1045A000601B710B820B930B693B7B40810591056E
:1045B00068F040E050E0BA01F101808191810E94F1
:1045C000B7188AEB9DE00E94F021B7C18AEB9DE00D
:1045D0000E94582216161706180619060CF0F9C084
:1045E0008AEB9DE00E9458220E9445329B01AC015B
:1045F00060E074E284E799E40E94AA31AB01BC0157
:104600004093E10D5093E20D6093E30D7093E40D40
:104610006091E10D7091E20D8091E30D9091E40DB8
:1046200020EF37EA4EE450E40E94A331F101C0814B
:10463000D18187FF3CC0CE010E948C176B017C01A9
:104640006091E10D7091E20D8091E30D9091E40D88
:104650002091E10D3091E20D4091E30D5091E40D78
:104660004090E10D5090E20D6090E30D7090E40DEC
:104670000E94B13321E03EED42EC5DEB0E94B1338C
:104680004B015C0121EE3BE043E250E4C301B20187
:104690000E94B1339B01AC01C501B4010E94DD3021
:1046A00025EB35E14BEF5DE30E94DC3085C0609186
:1046B000E10D7091E20D8091E30D9091E40D20EBFE
:1046C00032E749E552E40E94A33187FF3AC0CE01A8
:1046D0000E948C176B017C016091E10D7091E20DDD
:1046E0008091E30D9091E40D2091E10D3091E20D68
:1046F0004091E30D5091E40D4090E10D5090E20D9A
:104700006090E30D7090E40D0E94B1332CEB34E720
:1047100043E95BE30E94B1334B015C012AE937E7CF
:1047200044EF5FE3C301B2010E94B1339B01AC01CE
:10473000C501B4010E94DD3029E93BEB46E75FE3A8
:1047400039C0CE010E948C176B017C016091E10D94
:104750007091E20D8091E30D9091E40D2091E10DB7
:104760003091E20D4091E30D5091E40D4090E10D48
:104770005090E20D6090E30D7090E40D0E94B13313
:1047800023EF36E744EC5DE30E94B1334B015C015B
:1047900023E039E045E051E4C301B2010E94B133A6
:1047A0009B01AC01C501B4010E94DC3023E333E579
:1047B0004FE853E40E94DD309B01AC01C701B60114
:1047C0000E94B133AB01BC01F101808191810E9453
:1047D000B718F101808191810E9480176B017C01E3
:1047E000F101808191810E949817BC01882777FD93
:1047F0008095982F0E9445329B01AC01C701B601FC
:104800000E94A633181664F4F101808191810E9400
:1048100080170E941232F101808191810E94D71885
:10482000A090B80D4090B50D5090B60DB12C00E0A1
:1048300010E0D0E0C0E0C12CD12CE12CF12C2FC035
:10484000F20161917191819191912F012BED3FE0E6
:1048500049EC50E40E94B1333B014C01772D992D76
:104860000E94A7319B01AC016C2D7D2D8E2D9F2DBB
:104870000E94DD306B017C01662D772D882D992DEE
:104880000E9414349B01AC01FE01602F712F8F2F09
:104890009C2F0E94DD308B01D82FC92FB394BA1002
:1048A000CFCF20E030E0A9016C2D7D2D8E2D9F2DE6
:1048B0000E94A33181110CC020E030E0A901FE016B
:1048C000602F712F8F2F9C2F0E94A3318823A1F07E
:1048D0002C2D3D2D4E2D5F2DFE01602F712F8F2F22
:1048E0009C2F0E94503121EE3EE245E652E40E94A8
:1048F000B1337B018C0104C0E12CF12C00E010E00D
:10490000F101808191810E946E17EC016E2D7F2D47
:10491000802F912F0E941232CB018C0F9D1F68E6D1
:1049200071E00E948E3497FF02C088599E4FBC01EF
:10493000F101808191810E94AB18DF91CF911F918D
:104940000F91FF90EF90DF90CF90BF90AF909F902E
:104950008F907F906F905F904F903F902F90089531
:104960008BEC9DE09093BB0D8093BA0D23E02093D8
:10497000BC0D1092BD0D1092BE0D8FEB9DE090937B
:10498000B60D8093B50D2093B70D1092B80D10920F
:10499000B90D0895FC0184859585FC01E05CFF4F0D
:1049A000208131818E5B9F4FFC0180819181281B8A
:1049B000390B2F733070C9010895FC0184859585EA
:1049C000FC01E05CFF4F40815181FC01EE5BFF4F39
:1049D000208131814217530741F00190F081E02D91
:1049E000E80FF91F208130E002C02FEF3FEFC9012F
:1049F0000895FC0184859585FC01E05CFF4F4081B2
:104A00005181FC01EE5BFF4F20813181421753073A
:104A100071F0A081B181A80FB91F2C918081918183
:104A200001968F7390709183808330E002C02FEFE6
:104A30003FEFC9010895DC011E968D919C911F974F
:104A4000FC01E05CFF4F8E5B9F4F40815181DC0198
:104A50002D913C91119742175307B9F70895FC0126
:104A600026853785D901A05CBF4F8D919C91019619
:104A70008F739070D901AE5BBF4F4D915C911197D0
:104A800084179507D1F3D901A05CBF4F0D90BC915D
:104A9000A02DA20FB31F6C93A685B785A05CBF4F56
:104AA00011969C938E93A689B7892C9181E090E012
:104AB000078C02C0880F991F0A94E2F7282B2C93C9
:104AC00081E090E00895CF93DF93FC012685378540
:104AD000D901A05CBF4F8D919C9101968F7390700E
:104AE000D901AE5BBF4FCD91DC9111978C179D071B
:104AF000D1F3D901A05CBF4F0D90BC91A02DA20FA6
:104B0000B31F6C93A685B785A05CBF4F11969C938D
:104B10008E93A689B789442319F08C91816002C0D5
:104B20008C918E7F8C93A689B7892C9181E090E03F
:104B3000078C02C0880F991F0A94E2F7282B2C9348
:104B400081E090E0DF91CF910895FB01E05CFF4FA1
:104B5000208131812F5F3F4F2F733070DB01AE5BBF
:104B6000BF4F4D915C9111972417350739F0A08103
:104B7000B181A60FB71F8C933183208308951F92B4
:104B80000F920FB60F920BB60F9211242F933F93F3
:104B90004F935F936F937F938F939F93AF93BF9345
:104BA000EF93FF938091C6006DEE7DE00E94A525F6
:104BB000FF91EF91BF91AF919F918F917F916F91F5
:104BC0005F914F913F912F910F900BBE0F900FBEB1
:104BD0000F901F9018951F920F920FB60F920BB661
:104BE0000F9211242F933F934F935F936F937F9373
:104BF0008F939F93AF93BF93EF93FF938091CE00DA
:104C000065E77EE00E94A525FF91EF91BF91AF91EE
:104C10009F918F917F916F915F914F913F912F91D4
:104C20000F900BBE0F900FBE0F901F9018951F9204
:104C30000F920FB60F920BB60F9211242F933F9342
:104C40004F935F936F937F938F939F93AF93BF9394
:104C5000EF93FF938091D6006DEF7EE00E94A52533
:104C6000FF91EF91BF91AF919F918F917F916F9144
:104C70005F914F913F912F910F900BBE0F900FBE00
:104C80000F901F9018951F920F920FB60F920BB6B0
:104C90000F9211242F933F934F935F936F937F93C2
:104CA0008F939F93AF93BF93EF93FF9380913601C0
:104CB00065E87FE00E94A525FF91EF91BF91AF913C
:104CC0009F918F917F916F915F914F913F912F9124
:104CD0000F900BBE0F900FBE0F901F9018958DE098
:104CE00090E10E94CA24009711F00E94231C81E3E6
:104CF00090E10E94CA24009711F00E94B71985E53F
:104D000090E10E94CA24009711F00E94DE1989E701
:104D100090E10E94CA24009711F00E94EF190895B3
:104D20001F920F920FB60F920BB60F9211242F9372
:104D30003F938F939F93EF93FF932091710E309148
:104D4000720E8091730E9091740E2817390731F40A
:104D50008091C1008F7D8093C10014C0E091730EDB
:104D6000F091740EEF5CF14F20818091730E909161
:104D7000740E01968F7390709093740E8093730EDF
:104D80002093C600FF91EF919F918F913F912F91BA
:104D90000F900BBE0F900FBE0F901F9018951F9293
:104DA0000F920FB60F920BB60F9211242F933F93D1
:104DB0008F939F93EF93FF932091F90E3091FA0E0A
:104DC0008091FB0E9091FC0E2817390731F48091E9
:104DD000C9008F7D8093C90014C0E091FB0EF09153
:104DE000FC0EE754F14F20818091FB0E9091FC0E58
:104DF00001968F7390709093FC0E8093FB0E20931E
:104E0000CE00FF91EF919F918F913F912F910F9045
:104E10000BBE0F900FBE0F901F9018951F920F9210
:104E20000FB60F920BB60F9211242F933F938F93CF
:104E30009F93EF93FF932091810F3091820F809188
:104E4000830F9091840F2817390731F48091D10096
:104E50008F7D8093D10014C0E091830FF091840F77
:104E6000EF5BF04F20818091830F9091840F01962A
:104E70008F7390709093840F8093830F2093D6004C
:104E8000FF91EF919F918F913F912F910F900BBECA
:104E90000F900FBE0F901F9018951F920F920FB694
:104EA0000F920BB60F9211242F933F938F939F93E2
:104EB000EF93FF932091091030910A1080910B100D
:104EC00090910C102817390731F4809131018F7DB2
:104ED0008093310114C0E0910B10F0910C10E75356
:104EE000F04F208180910B1090910C1001968F73E0
:104EF000907090930C1080930B1020933601FF91CB
:104F0000EF919F918F913F912F910F900BBE0F903A
:104F10000FBE0F901F901895DF92EF92FF920F93A4
:104F20001F93CF93DF93EC017A018B01DD24D3949F
:104F3000403081EE580780E0680780E0780749F448
:104F4000DD24EC89FD89108260E874E88EE190E050
:104F50000FC0EC89FD8981E090E008A002C0880FB5
:104F6000991F0A94E2F7808360E079E08DE390E096
:104F7000A80197010E94A234215030404040504087
:104F8000569547953795279580E12030380710F0E2
:104F9000DD20B1F6EE89FF89808184708083E88905
:104FA000F9893083EA89FB892083EE89FF89408172
:104FB00081E090E09C010C8C02C0220F331F0A9408
:104FC000E2F7422B4083EE89FF8940819C010D8CE2
:104FD00002C0220F331F0A94E2F7422B4083EE896E
:104FE000FF8940819C010E8C02C0220F331F0A945E
:104FF000E2F7422B4083EE89FF8920810F8C02C0AB
:10500000880F991F0A94E2F7809582238083DF91AD
:10501000CF911F910F91FF90EF90DF900895AF9285
:10502000BF92CF92DF92EF92FF920F931F93CF9395
:10503000DF93EC015A016B01122FF02E01E040309A
:1050400081EE580780E0680780E0780709F400E007
:10505000EE89FF891082002399F002C000E010C0A1
:10506000EC89FD8981E090E008A002C0880F991FBB
:105070000A94E2F7808360E079E08DE390E007C076
:10508000EC89FD89108260E874E88EE190E0A60169
:1050900095010E94A2342150304040405040569526
:1050A00047953795279580E12030380710F0002389
:1050B000A9F6EE89FF89808184708083173079F0AA
:1050C000183028F4153039F1163011F505C01830B4
:1050D000F9F01930E9F40DC081E090E002C082E0FF
:1050E00090E009A002C0880F991F0A94E2F7482FA8
:1050F00013C083E090E009A002C0880F991F0A94B2
:10510000E2F7482FEE89FF8980818460808304C0A4
:1051100083E090E0E6CF40E08F2D823049F481E0DB
:1051200090E00BA002C0880F991F0A94E2F7482B69
:105130008E2D813019F0823069F403C083E090E055
:1051400002C082E090E00AA002C0880F991F0A9472
:10515000E2F7482BE889F9893083EA89FB892083C3
:10516000EE89FF89508181E090E09C010C8C02C0A7
:10517000220F331F0A94E2F7522B5083EE89FF89E6
:1051800050819C010D8C02C0220F331F0A94E2F75C
:10519000522B5083EE89FF8950819C010E8C02C0F6
:1051A000220F331F0A94E2F7522B5083E88DF98DBA
:1051B0004083DF91CF911F910F91FF90EF90DF908F
:1051C000CF90BF90AF900895CF93DF93FC01868579
:1051D0009785DC01A05CBF4F8E5B9F4F4D915C912A
:1051E0001197EC012881398142175307B9F7A68935
:1051F000B7894C9181E090E09C01048C02C0220FA1
:10520000331F0A94E2F7209524232C93A689B789AB
:105210004C919C01058C02C0220F331F0A94E2F7C7
:10522000209524232C93A689B7894C919C01068C48
:1052300002C0220F331F0A94E2F7209524232C93F7
:10524000A689B7892C91078C02C0880F991F0A94F0
:10525000E2F7809582238C9384859585FC01EE5B33
:10526000FF4F20813181805C9F4FFC01318320837F
:10527000DF91CF9108951F93CF93DF931092101079
:1052800010920F1088EE93E0A0E0B0E08093111030
:1052900090931210A0931310B0931410EFE0F0E16C
:1052A0002CE335E0329322934DEE5DE05587448741
:1052B00041E35EE05787468745EC50E0518B408BD9
:1052C00044EC50E0538B428B40EC50E0558B448BC8
:1052D00041EC50E0578B468B42EC50E0518F408FB1
:1052E00046EC50E0538F428F54E0548F43E0458F9B
:1052F00017E0168F75E0778F61E060A361A352A37A
:1053000043A3109234101092331080933510909371
:105310003610A0933710B0933810E3E3F0E13293E6
:105320002293C5E7DEE0D587C487C9EBDEE0D787E7
:10533000C687CDECD0E0D18BC08BCCECD0E0D38B4A
:10534000C28BC8ECD0E0D58BC48BC9ECD0E0D78B36
:10535000C68BCAECD0E0D18FC08FCEECD0E0D38F1B
:10536000C28F548F458F168F778F60A361A352A38E
:1053700043A3109258101092571080935910909395
:105380005A10A0935B10B0935C10E7E5F0E1329304
:105390002293CDEFDEE0D587C487C1E4DFE0D78775
:1053A000C687C5EDD0E0D18BC08BC4EDD0E0D38BE8
:1053B000C28BC0EDD0E0D58BC48BC1EDD0E0D78BD4
:1053C000C68BC2EDD0E0D18FC08FC6EDD0E0D38FB9
:1053D000C28F548F458F168F778F60A361A352A31E
:1053E00043A310927C1010927B1080937D109093B9
:1053F0007E10A0937F10B0938010EBE7F0E1329322
:10540000229385E89FE09587848789EC9FE09787C2
:10541000868785E391E0918B808B84E391E0938B89
:10542000828B80E391E0958B848B81E391E0978B75
:10543000868B82E391E0918F808F86E391E0938F5A
:10544000828F548F458F168F778F60A361A352A3ED
:1054500043A3DF91CF911F910895CF92DF92EF92F6
:10546000FF920F931F93CF93DF936C017B018A010F
:10547000C0E0D0E00FC0D7016D917D01D601ED9164
:10548000FC910190F081E02DC6010995C80FD91F4C
:10549000015010400115110571F7CE01DF91CF9138
:1054A0001F910F91FF90EF90DF90CF900895DB0157
:1054B0000D900020E9F7AD0141505040461B570BBD
:1054C000DC01ED91FC910280F381E02D09950895B6
:1054D0000E94572A0895DC01ED91FC910190F08122
:1054E000E02D099508950F931F93CF93DF93EC015F
:1054F0006DE00E946B2A8C01CE016AE00E946B2A4B
:10550000080F191FC801DF91CF911F910F910895C6
:105510000F931F93CF93DF93EC010E94572A8C01C6
:10552000CE010E94732A080F191FC801DF91CF9185
:105530001F910F9108958F929F92AF92BF92CF9239
:10554000DF92EF92FF920F931F93DF93CF93CDB72C
:10555000DEB7A1970FB6F894DEBF0FBECDBF6C01CA
:10556000042FE52FCB01122F19A2223008F41AE0E4
:1055700021E2E22EF12CEC0EFD1E812E9924AA24AC
:10558000BB2403C0022FE32FCA01602F7E2FA50189
:1055900094010E94A234129F802D1124081B0894AC
:1055A000E108F1080A3014F4005D01C0095CF7015C
:1055B0000083211531054105510521F7C601B701C9
:1055C0000E94572AA1960FB6F894DEBF0FBECDBF3A
:1055D000CF91DF911F910F91FF90EF90DF90CF90CF
:1055E000BF90AF909F908F9008952115310549F499
:1055F000DC01ED91FC910190F081E02D642F099583
:1056000008950E949B2A08959A01462F50E060E079
:1056100070E00E94F52A0895CF92DF92EF92FF92F8
:105620000F931F93CF93DF93EC017A018B01211528
:10563000310541F4E881F9810190F081E02D642F7A
:1056400009951AC02A303105A9F477FF12C06DE21E
:105650000E946B2A6C0144275527BA014E195F0935
:10566000600B710BCE012AE00E949B2AC80ED91E46
:1056700004C02AE00E949B2A6C01C601DF91CF91F1
:105680001F910F91FF90EF90DF90CF9008959A01B6
:10569000FB01AF01662757FD6095762F0E940C2B0A
:1056A00008956F927F929F92AF92BF92CF92DF92B6
:1056B000EF92FF920F931F93CF93DF933C017A01F8
:1056C0008B01C22ECB01BA0120E030E0A9010E947B
:1056D000A33187FF0AC0C3016DE20E946B2AEC016F
:1056E00017FB109517F9109502C0C0E0D0E0DD243B
:1056F00050E040E030E02FE311C0DA01F9016B2FF8
:10570000742F8F2F922F20E030E040E251E40E946E
:10571000AA31562F472F382F292FD394DC1468F342
:10572000C801B701DA01F9012B2F342F4F2F5E2F5B
:105730000E94DD305B01F82E992E7B2D0E941732DE
:10574000162FD72EE82E092F0E9443329B01AC0161
:105750006A2D7B2D8F2D992D0E94DC30962EA72E41
:10576000B82EF92EC301412F5D2D6E2D702F2AE02A
:1057700030E00E94F52AC80FD91FCC20B9F1C3012F
:1057800060E072E00E94572AC80FD91F2FC0692D10
:105790007A2D8B2D9F2D20E030E040E251E40E94D5
:1057A000B133D62EB72EA82E992E0E9412327B012D
:1057B0000027F7FC0095102FC301B801A7012AE0CC
:1057C00030E00E940C2BC80FD91FC801B7010E94FE
:1057D00045329B01AC016D2D7B2D8A2D992D0E94A8
:1057E000DC30962EA72EB82EF92ECA94CC2079F64E
:1057F000CE01DF91CF911F910F91FF90EF90DF903D
:10580000CF90BF90AF909F907F906F9008950E942F
:10581000512B0895883008F076C0E82FF0E0EE0FA5
:10582000FF1FE356FF4E71836083843029F185307A
:1058300038F4823069F0833098F48130B9F53EC095
:10584000863009F447C0863020F1873079F54FC0A3
:10585000809169008C7F842B80936900E89A089579
:1058600080916900440F551F440F551F837F842B7F
:1058700080936900E99A08958091690074E0440F6B
:10588000551F7A95E1F78F7C842B80936900EA9A03
:1058900008958091690066E0440F551F6A95E1F70D
:1058A0008F73842B80936900EB9A089580916A002E
:1058B0008C7F842B80936A00EC9A089580916A0013
:1058C000440F551F440F551F837F842B80936A001C
:1058D000ED9A089580916A0024E0440F551F2A959F
:1058E000E1F78F7C842B80936A00EE9A0895809173
:1058F0006A0096E0440F551F9A95E1F78F73842B49
:1059000080936A00EF9A08951F920F920FB60F923C
:105910000BB60F9211242F933F934F935F936F9386
:105920007F938F939F93AF93BF93EF93FF93809158
:10593000A1109091A210009729F0E091A110F09190
:10594000A2100995FF91EF91BF91AF919F918F9117
:105950007F916F915F914F913F912F910F900BBE6F
:105960000F900FBE0F901F9018951F920F920FB6B9
:105970000F920BB60F9211242F933F934F935F9387
:105980006F937F938F939F93AF93BF93EF93FF9307
:105990008091A3109091A410009729F0E091A3109A
:1059A000F091A4100995FF91EF91BF91AF919F9154
:1059B0008F917F916F915F914F913F912F910F90B8
:1059C0000BBE0F900FBE0F901F9018951F920F9255
:1059D0000FB60F920BB60F9211242F933F934F9354
:1059E0005F936F937F938F939F93AF93BF93EF9347
:1059F000FF938091A5109091A610009729F0E09157
:105A0000A510F091A6100995FF91EF91BF91AF916C
:105A10009F918F917F916F915F914F913F912F91C6
:105A20000F900BBE0F900FBE0F901F9018951F92F6
:105A30000F920FB60F920BB60F9211242F933F9334
:105A40004F935F936F937F938F939F93AF93BF9386
:105A5000EF93FF938091A7109091A810009729F0E1
:105A6000E091A710F091A8100995FF91EF91BF91D7
:105A7000AF919F918F917F916F915F914F913F91E6
:105A80002F910F900BBE0F900FBE0F901F90189587
:105A90001F920F920FB60F920BB60F9211242F93F5
:105AA0003F934F935F936F937F938F939F93AF93A6
:105AB000BF93EF93FF9380919D1090919E1000975C
:105AC00029F0E0919D10F0919E100995FF91EF91C2
:105AD000BF91AF919F918F917F916F915F914F9106
