:100000000C9478010C9462400C9493400C94C4407E
:100010000C94F5400C9426410C9457410C94884163
:100020000C94B9410C9410030C9438030C94BA0846
:100030000C94A7010C94A7010C94A7010C948213B3
:100040000C94A7010C94A8050C94A7010C94A7018B
:100050000C94A7010C94A7010C94A7010C94FD41EA
:100060000C94A7010C941D390C94F1390C94A70140
:100070000C94A7010C94A7010C94A7010C94A70160
:100080000C94D6050C94A7010C94A7010C94A7011D
:100090000C944A390C943C3A0C94A7010C94A70197
:1000A0000C94A7010C94A7010C9404060C94A701CE
:1000B0000C94A7010C94A7010C94A7010C94320690
:1000C0000C94A7010C94A7010C94A7010C94773908
:1000D0000C94873A0C94A7010C94A4390C94D23A4E
:1000E0000C94A701084AD73B3BCE016E84BCBFFDF0
:1000F000C12F3D6C74319ABD56833DDA3D00C77FF8
:1001000011BED9E4BB4C3E916BAAAABE0000008090
:100110003F05A84CCDB2D44EB93836A9020C50B91F
:10012000918688083CA6AAAA2ABE000000803F004B
:10013000C201000100110011000C0000E100000AE2
:100140000025002500210000960000190039003923
:10015000003600127A00001F00460046004400806E
:1001600070000022004D004D004A00004B00003698
:1001700000750075007200403800004A009C009C29
:10018000009900802500007200EC00EC00E900C03E
:10019000120000E900DA01DA01D70160090000D796
:1001A00001B603B603B303B0040000B3036E076ED9
:1001B000076B072C010000DC0EC11DC11DBE1D0018
:1001C000002100240027002A002D00300033000108
:1001D000010000040107010A010000220025002897
:1001E000002B002E00310034000201000005010840
:1001F000010B01000020002300260029002C002F05
:100200000032000001000003010601090105050597
:1002100005070508080808020202020A0A0808047D
:1002200004040401010101010101010303030303AB
:10023000030303040707070C0C0C0C0C0C0C0C023A
:1002400002020206060606060606060B0B0B0B0B41
:100250000B0B0B010210202008081020401020403A
:10026000800201020108040201010204081020407A
:100270008080402010080402018004020180402098
:1002800010080402010804020101020408102040C1
:100290008001020408102040800000090A02080BB7
:1002A0000C0D070603040100000000000000000020
:1002B000000000000000000000000000000000003E
:1002C000000000000011100F0000000000000000FE
:1002D000000000000000000000000000000000001E
:1002E000E208C413161AA81E0738CC3CE708AD1E56
:1002F00011241FBECFEFD1E2DEBFCDBF17E0A0E0DB
:10030000B2E0E6EBF2E900E00BBF02C007900D920D
:10031000A037B107D9F71EE0A0E7B7E001C01D92F2
:10032000A43DB107E1F712E0CCEED2E000E006C058
:1003300022970109FE010BBF0E94FC47C03ED10776
:1003400080E00807A9F70E94EA410C9449490C94FF
:100350000000209170073091710728173907B1F418
:100360009091B3078091B207981781F0E091B3079D
:10037000F0E0EE58F84F20818091B30790E00196AD
:100380008F7390708093B30730E002C02FEF3FEF80
:10039000C901089520917007309171072817390716
:1003A00079F48091B2072091B30790E0805C9F4F71
:1003B000821B910960E470E00E9498479C0102C092
:1003C00020E030E0C9010895209170073091710755
:1003D0002817390749F48FB7F8941092B207909113
:1003E000B2079093B3078FBF0895209170073091A3
:1003F00071072817390781F49091B3078091B207EC
:10040000981751F0E091B307F0E0EE58F84F2081D3
:10041000332727FD309502C02FEF3FEFC901089524
:1004200020E001972FEF8F3F9207D9F70895FC0145
:1004300080917007909171078E179F0791F0838DBF
:100440008E7F838F8FB7F8941092B2079091B20786
:100450009093B307F0937107E09370078FBF81E02B
:10046000089580E00895EF92FF920F931F93CF932A
:10047000DF93EC018B8DEE85FF859D8581FF04C0A8
:100480008081892329F445C08081892309F041C0F6
:100490008B899C890E94100208E010E0EE24E3940E
:1004A000FF248D899E890E941002EE85FF85808140
:1004B0009D85892311F0FE2803C08E2D8095F8229A
:1004C000EE0C0150104069F78F89988D0E94100240
:1004D0008B8D81FDF0948091B2072091B30790E05D
:1004E00001968F73907030E08217930779F0E09156
:1004F000B207F0E0EE58F84FF0828091B20790E03A
:1005000001968F7390708093B20703C08B8D8160CA
:100510008B8FDF91CF911F910F91FF90EF900895F6
:10052000FC01A189B2899089662329F42C91892F35
:100530008095822302C08C91892B8C930895DF9241
:10054000EF92FF920F931F93CF93DF93EC01E62E70
:10055000898D9A8D009739F481E090E09B838A839E
:1005600020E030E04BC0DFB6F8948B8D61E081FF76
:1005700060E0CE010E949002898D9A8D05960E94BE
:1005800010028B8D81FF19C008E010E0FF24F39466
:100590008F2D8E2119F0CE0160E002C0CE0161E006
:1005A0000E949002898D9A8D0E941002FF0C0150CA
:1005B000104071F7CE0160E018C008E010E0FF24A1
:1005C000F3948F2D8E2119F0CE0161E002C0CE018F
:1005D00060E00E949002898D9A8D0E941002FF0CAB
:1005E0000150104071F7CE0161E00E949002DFBE21
:1005F000898D9A8D0E94100221E030E0C901DF91BF
:10060000CF911F910F91FF90EF90DF90089580910F
:10061000700790917107009711F00E9433020895BE
:100620001F920F920FB60F920BB60F9211242F93B9
:100630003F934F935F936F937F938F939F93AF936A
:10064000BF93EF93FF930E940703FF91EF91BF9138
:10065000AF919F918F917F916F915F914F913F915A
:100660002F910F900BBE0F900FBE0F901F901895FB
:100670001F920F920FB60F920BB60F9211242F9369
:100680003F934F935F936F937F938F939F93AF931A
:10069000BF93EF93FF930E940703FF91EF91BF91E8
:1006A000AF919F918F917F916F915F914F913F910A
:1006B0002F910F900BBE0F900FBE0F901F901895AB
:1006C0001F93CF93DF93EC01162F862F61E00E94DA
:1006D0007643812F61E00E949A43812F90E0FC01D4
:1006E000ED5AFD4FE491E88BFC01E35FFD4FE4918F
:1006F000F0E0EE0FFF1FE752FE4F85919491898B3A
:100700009A8BDF91CF911F9108951F93CF93DF9321
:10071000EC01162F862F60E00E9476438B8D81FDC1
:1007200004C0812F61E00E949A431C87812F90E0D2
:10073000FC01ED5AFD4FE491ED87FC01E35FFD4FB5
:10074000E491F0E0EE0FFF1FED50FE4F8591949184
:100750008E879F87DF91CF911F9108951F93CF932D
:10076000DF93EC01162F1B821A8288EE93E0A0E043
:10077000B0E08C839D83AE83BF8382EF96E0998344
:1007800088831C8A1B8A1E8A1D8A188E1F8A1A8ECD
:10079000198E8B8D2170220F8C7F822B8B8FCE0137
:1007A000642F0E946003CE01612F0E948503DF91B8
:1007B000CF911F910895EF92FF920F931F93CF93C4
:1007C000DF93EC017A018B011A8E198E188E1F8A25
:1007D0001E8A1D8A1C8A1B8A40E050E09A01220F63
:1007E000331F240F351F220F331F220F331FF90130
:1007F000E15DFE4F85919591A591B4918E159F0570
:10080000A007B107E9F4F901ED5CFE4F85919491E1
:100810008B8B9C8BF901EB5CFE4F859194918D8BBA
:100820009E8BF901E95CFE4F859194918F8B988F97
:10083000275C3E4FF90185919491898F9A8F06C06C
:100840004F5F5F4F4C30510509F0C8CF8F89988DAD
:10085000009709F466C08C85982F9A50943040F028
:10086000282F2253243020F02C50283008F055C077
:1008700020916800943048F0982F9253943028F0DB
:100880008E53883010F484E001C081E0822B809385
:1008900068002C85922F9A50943088F0822F8253D2
:1008A000843068F08C50883018F4EDE6F0E002C037
:1008B000E0E0F0E0883040F4ADE6B0E007C0EBE601
:1008C000F0E0ABE6B0E002C0A0E0B0E04C919430C4
:1008D00020F430E0265030400FC02233A9F02333FB
:1008E000A9F02433A9F02533A9F0822F8E53883044
:1008F00088F430E02E53304081E090E002C0880F51
:10090000991F2A95E2F707C088E005C084E003C07C
:1009100082E001C081E0842B8083898D9A8D0E94C2
:100920001002CE010E941702DF91CF911F910F910B
:10093000FF90EF900895FC012485922F9A509430F7
:1009400060F0822F8253843040F08C50883088F5DC
:10095000EDE6F0E0ADE6B0E004C0EBE6F0E0ABE6DB
:10096000B0E04C91943020F430E0265030400FC07D
:100970002233B1F02333B1F02433B1F02533B1F099
:10098000822F8E53883090F430E02E53304081E037
:1009900090E002C0880F991F2A95E2F7809507C062
:1009A00087EF05C08BEF03C08DEF01C08EEF84236E
:1009B0008083089522EF36E0FC01318320830E947A
:1009C0009B040895EF92FF920F931F93CF93DF93B1
:1009D000EB017A018C01DC01AB5BB74F8C9187FF97
:1009E00003C01982188237C0C801880F991F800F71
:1009F000911F880F991F880F991F2C91332727FD6E
:100A00003095280F391F4091B40750E0241735075F
:100A100014F52C91332727FD3095280F391FF90144
:100A2000EE0FFF1FE20FF31FEB54F84F208126FF5C
:100A300012C02C91332727FD3095280F391FF9015B
:100A4000EE0FFF1FE20FF31FEB54F84F80818F73FF
:100A500060E00E949A43F801EB5BF74F80818F5F63
:100A60008083C801880F991F800F911F880F991FDD
:100A7000880F991F2081332727FD3095280F391FB4
:100A80004091B40750E0241735070CF053C0208183
:100A90002C300CF04FC0488159812081332727FD2D
:100AA0003095280F391FD901AA0FBB1FA20FB31F02
:100AB000AB54B84F11962D913C911297420F531F92
:100AC000D70111965C934E932081332727FD3095F3
:100AD000280F391FD901AA0FBB1FA20FB31FAB5498
:100AE000B84F2C9126FF2DC02081332727FD30954C
:100AF000280F391FF901EE0FFF1FE20FF31FEB5410
:100B0000F84F80818F7361E00E949A431AC080E49D
:100B10009CE9F7019183808307C0888199810496BD
:100B2000D70111969C938E93F801EB5BF74F8FEFF3
:100B3000808307C088819981BCE984349B0738F39E
:100B4000ECCFDF91CF911F910F91FF90EF9008951F
:100B50001F920F920FB60F920BB60F9211242F9384
:100B60003F934F935F936F937F938F939F93AF9335
:100B7000BF93EF93FF9381E090E064E870E048E872
:100B800050E00E94E204FF91EF91BF91AF919F91DD
:100B90008F917F916F915F914F913F912F910F9026
:100BA0000BBE0F900FBE0F901F9018951F920F92C3
:100BB0000FB60F920BB60F9211242F933F934F93C2
:100BC0005F936F937F938F939F93AF93BF93EF93B5
:100BD000FF9382E090E064E970E048E950E00E9411
:100BE000E204FF91EF91BF91AF919F918F917F911F
:100BF0006F915F914F913F912F910F900BBE0F908E
:100C00000FBE0F901F9018951F920F920FB60F9264
:100C10000BB60F9211242F933F934F935F936F93D3
:100C20007F938F939F93AF93BF93EF93FF9383E053
:100C300090E064EA70E048EA50E00E94E204FF912C
:100C4000EF91BF91AF919F918F917F916F915F9144
:100C50004F913F912F910F900BBE0F900FBE0F90B1
:100C60001F9018951F920F920FB60F920BB60F920E
:100C700011242F933F934F935F936F937F938F93A1
:100C80009F93AF93BF93EF93FF9380E090E064E274
:100C900071E048E251E00E94E204FF91EF91BF91C0
:100CA000AF919F918F917F916F915F914F913F9104
:100CB0002F910F900BBE0F900FBE0F901F901895A5
:100CC000CB010A978530910550F0CB01C297843053
:100CD000910528F0CB01CE978830910520F489E466
:100CE00098E00E940B080895AC01CB010A9785306B
:100CF000910550F0CB01C2978430910528F0CB01CB
:100D0000CE978830910520F489E498E00E94F2069D
:100D1000089522E037E0FC0131832083089522E02A
:100D200037E0FC01318320830895EF92FF92CF9347
:100D3000DF93DC0123EF31E0F90145915491CA01C1
:100D400091965C934E939097F901729645915491C8
:100D5000E42EE7017E01F52EE7019396FC92EE92D8
:100D600092972A5E3F4FF9014591549195965C9375
:100D70004E939497FC01808196968C9396978881E8
:100D800097968C939797FA01808198968C93989771
:100D900099961C9299979A961C929A979B961C9258
:100DA0009B9780E11D928A95E9F7DF91CF91FF90A3
:100DB000EF9008951092680010926B0010926C00F2
:100DC00010926D0008958130910529F489E498E02E
:100DD0000E9495060895009721F489E498E00E9406
:100DE000DA0608951F93CF93DF93DC01EB01FB013B
:100DF0003A97E430F10508F04DC0EE0FFF1FE80F01
:100E0000F91F51834083FB01ED5AFD4F14919996D0
:100E10008C919997812B99968C9390916B00982B3C
:100E200090936B008091680081608093680087E2F6
:100E30009EE060E072E00E94F93D87E29EE0BE0124
:100E40004AE050E00E94953E87E29EE062E172E057
:100E50000E94F93DC35FDD4FFE01649187E29EE091
:100E60004AE050E00E949C3E87E29EE069E172E029
:100E70000E94F93D87E29EE0612F42E050E00E942F
:100E80009C3E87E29EE060E272E00E94F93D609144
:100E90006B00A9C0CB01C2978430910508F04FC008
:100EA000FB01BD97EE0FFF1FEA0FFB1F518340832D
:100EB000FB01ED5AFD4F14919A968C919A97812BD4
:100EC0009A968C9390916C00982B90936C008091E3
:100ED000680082608093680087E29EE060E072E0D4
:100EE0000E94F93D87E29EE0BE014AE050E00E9488
:100EF000953E87E29EE062E172E00E94F93DC35FA9
:100F0000DD4FFE01649187E29EE04AE050E00E94DE
:100F10009C3E87E29EE069E172E00E94F93D87E233
:100F20009EE0612F42E050E00E949C3E87E29EE0FE
:100F300060E272E00E94F93D60916C0054C0CB0108
:100F4000CE978830910508F062C0FB01F697EE0F4E
:100F5000FF1FEA0FFB1F51834083FB01ED5AFD4F3A
:100F600014919B968C919B97812B9B968C9390913F
:100F70006D00982B90936D00809168008460809341
:100F8000680087E29EE060E072E00E94F93D87E23F
:100F90009EE0BE014AE050E00E94953E87E29EE05E
:100FA00062E172E00E94F93DC35FDD4FFE01649192
:100FB00087E29EE04AE050E00E949C3E87E29EE08D
:100FC00069E172E00E94F93D87E29EE0612F42E014
:100FD00050E00E949C3E87E29EE060E272E00E9448
:100FE000F93D60916D0087E29EE042E050E00E9492
:100FF000A43E87E29EE060E372E00E94F93D6091CA
:10100000680087E29EE042E050E00E94A43EDF914B
:10101000CF911F910895DC01CB010A97843091058F
:10102000F0F46D5A7D4FFB016491609599962C9177
:101030009997622399966C93999760936B00999610
:101040002C919997222329F42091680023702093F2
:101050006800FC01EE0FFF1FEA0FFB1F24C0CB014D
:10106000C2978430910510F5FB01ED5AFD4FE491D4
:10107000E0959A968C919A97E82B9A96EC939A978A
:10108000E0936C009A968C919A97882329F480912A
:1010900068008670809368006D527040660F771FFD
:1010A0006A0F7B1FFB01118210820895CB01CE973E
:1010B0008830910508F5FB01ED5AFD4FE491E0956C
:1010C0009B968C919B97E8239B96EC939B97E09340
:1010D0006D009B968C919B97882329F480916800E2
:1010E00085708093680066537040660F771F6A0FA3
:1010F0007B1FFB01118210820895EF92FF920F93E4
:101100001F93CF93DF93EC01ECA1FDA1F08008A524
:101110000F258BA50823F8A62EE3E22E1DC010E0B4
:1011200000FF16C0EE2DF0E0F697EE0FFF1FEC0F5C
:10113000FD1F80819181DC01ED91FC914F2D50E0EC
:10114000417050700190F081E02D6E2D70E0099596
:1011500015950795F694E394002309F7DF91CF9155
:101160001F910F91FF90EF90089589E498E00E94FD
:101170007D0808951F920F920FB60F920BB60F9233
:1011800011242F933F934F935F936F937F938F938C
:101190009F93AF93BF93EF93FF930E94B508FF9186
:1011A000EF91BF91AF919F918F917F916F915F91DF
:1011B0004F913F912F910F900BBE0F900FBE0F904C
:1011C0001F90189581E090E00E94E306089580E06A
:1011D00090E00E94E3060895FC01A681B7819D017D
:1011E0002F5F3F4F8481958140855185840F951FE6
:1011F0002817390730F46C933783268311961C9295
:10120000119781E090E00895FC01A481B581B78336
:10121000A68380859185009709F01C9208952F92EE
:101220003F924F925F926F927F928F929F92AF9276
:10123000BF92CF92DF92EF92FF920F931F93DF93B3
:10124000CF93CDB7DEB72A970FB6F894DEBF0FBEA7
:10125000CDBF9A878987DC01D6968C91D697882353
:1012600009F419C10E9445426D837E838F8398875C
:10127000E985FA8580A191A12D813E81281B390B3A
:1012800084A595A5281739070CF405C1228D338D47
:10129000D9018D919D910D90BC91A02D89839A8348
:1012A000AB83BC83068CF78DE02D608171818281D8
:1012B000938129813A814B815C810E94D243562ED1
:1012C000472E382E292EA2019101652F742F832FCE
:1012D000922FE985FA8520893189428953890E94B4
:1012E000A746A985BA8594962D913D914D915C9123
:1012F00097970E94D343D62EC72EB82EA92EA601AB
:101300009501852F942FA32FB22FE985FA8584A309
:1013100095A3A6A3B7A302A913A9F4A8E5A8652FCE
:10132000742F832F922FF701202F312F4F2F5E2FF5
:101330000E949C46181664F49701802F912FA32FCA
:10134000B22FE985FA8584A395A3A6A3B7A31AC0F3
:10135000A985BA859E966D907D908D909C90D19731
:10136000A6019501652F742F832F922FA40193015D
:101370000E94994487FF06C0E985FA8564A275A298
:1013800086A297A2A2019101652F742D832F922D21
:10139000A985BA851C962D913D914D915C911F9721
:1013A0000E94A746E985FA8524A135A146A157A147
:1013B0000E94D3435B016C0169817A818B819C819E
:1013C000A985BA8598962D913D914D915C919B97F9
:1013D0000E94D243E985FA8524893589468957894F
:1013E0000E94A7469B01AC01C601B5010E94D243F1
:1013F000D62EC72EB82EA92EA6019501652F742FC3
:10140000832F922FF701202F312F4F2F5E2D0E9417
:101410009C461816FCF0A985BA859E960C919E975D
:101420009F961C919F97D096FC90D097D196EC9068
:10143000A6019501652F742F832F922FF701202F7E
:10144000312F4F2F5E2F0E94994487FD03C00D2D31
:101450001C2D7501A985BA855C96ED91FC915D976F
:101460009701802F912FA32FBE2D80839183A2837C
:10147000B38389819A81AB81BC81E985FA8580A794
:1014800091A7A2A7B3A78D819E81AF81B88580A3C4
:1014900091A3A2A3B3A32A960FB6F894DEBF0FBE02
:1014A000CDBFCF91DF911F910F91FF90EF90DF9013
:1014B000CF90BF90AF909F908F907F906F905F90F4
:1014C0004F903F902F9008952F923F924F925F92AE
:1014D0006F927F928F929F92AF92BF92CF92DF9244
:1014E000EF92FF920F931F93CF93DF93EC012A01AA
:1014F0003B0148015901CB01BA0120E030E0A901CC
:101500000E94994487FD8AC0C501B40120E030E003
:10151000A9010E94994487FD81C0C701B60120E05E
:1015200030E0A9010E94994487FD78C04882598221
:101530006A827B828C829D82AE82BF82C886D98677
:10154000EA86FB866CA57DA5882777FD8095982F78
:101550000E943B4520E030E04AE754E40E94A0446A
:10156000162F072F382E292E4C865D866E867F8695
:10157000C501B401D801F1012B2F3A2F4F2F5E2F57
:101580000E94A746862EB72EA82E992E862F9B2D19
:10159000AA2DB92D888B998BAA8BBB8BC701B6015D
:1015A000D801F1012B2F3A2F4F2F5E2F0E94A0441C
:1015B000C62E172F082FF92E862F912FA02FBF2D63
:1015C0008C8B9D8BAE8BBF8B888D998D81309105D7
:1015D00029F560E070E0CB01A30192010E94D243A3
:1015E0006C877D878E879F8760E070E0CB01282D18
:1015F0003B2D4A2D592D0E94D243688B798B8A8BC3
:101600009B8B60E070E0CB012C2D312F402F5F2DA4
:101610000E94D2436C8B7D8B8E8B9F8BDF91CF9101
:101620001F910F91FF90EF90DF90CF90BF90AF9000
:101630009F908F907F906F905F904F903F902F90F2
:101640000895CF92DF92EF92FF920F931F93CF9363
:10165000DF93EC016B0116161706ECF5B60188272F
:1016600077FD8095982F0E943B457B018C016CA5EE
:101670007DA5882777FD8095982F0E943B459B018B
:10168000AC01C801B7010E94A044162F072FF82E05
:10169000E92E688979898A899B89D801F7012B2FDE
:1016A0003A2F4F2F5E2F0E94A746688B798B8A8B2B
:1016B0009B8B6C897D898E899F89D801F7012B2F9F
:1016C0003A2F4F2F5E2F0E94A0446C8B7D8B8E8B08
:1016D0009F8BDDA6CCA6DF91CF911F910F91FF903C
:1016E000EF90DF90CF9008954F925F926F927F922C
:1016F0008F929F92AF92BF92CF92DF92EF92FF9222
:101700000F931F93CF93DF93EC015A016B01780184
:101710008901CB01BA01A80197010E949C4687FF6D
:101720004EC0AEA6BFA6C8AAD9AAEAAAFBAA0CAB0D
:101730001DAB8EA9882309F442C08C8C9D8CF401CA
:101740004080518062807380C301B201A80197017B
:101750000E949C46181634F4F401E082F182028360
:1017600013830DC0C301B201A60195010E949944E3
:1017700087FF05C0F401A082B182C282D382ACA0EF
:10178000BDA0CEA0DFA0EAA8FBA80CA91DA9C60198
:10179000B501A80197010E949C46181664F0EEA4BA
:1017A000FFA408A919A9C601B501A80197010E94C3
:1017B000994487FF04C0ECA2FDA20EA31FA3DF91F2
:1017C000CF911F910F91FF90EF90DF90CF90BF903E
:1017D000AF909F908F907F906F905F904F90089503
:1017E000AF92BF92CF92DF92EF92FF920F931F932F
:1017F000CF93DF93EC01EC8DFD8DE080F1800281D1
:101800001381ECA2FDA20EA31FA3EA8DFB8D8081A4
:101810009181A281B38188A799A7AAA7BBA7AAA8EB
:10182000BBA8CCA8DDA8C801B701A60195010E94FC
:101830009C46181664F0AEA4BFA4C8A8D9A8C801D5
:10184000B701A60195010E94994487FF04C0ACA28C
:10185000BDA2CEA2DFA2DF91CF911F910F91FF9089
:10186000EF90DF90CF90BF90AF9008951F93CF93EC
:10187000DF93EC0111E06130710509F010E08EA9F1
:1018800091E08927181719F4CE010E94F00B1EABC6
:10189000DF91CF911F9108950F931F93CF93DF9303
:1018A000EC018B018EA9882361F1888D998D6817D1
:1018B000790739F160E070E0CB012C853D854E85DC
:1018C0005F850E94D2436C877D878E879F8760E00B
:1018D00070E0CB01288939894A895B890E94D2430B
:1018E000688B798B8A8B9B8B60E070E0CB012C89B5
:1018F0003D894E895F890E94D2436C8B7D8B8E8B94
:101900009F8B198F088FDF91CF911F910F910895B1
:101910002F923F924F925F926F927F928F929F92FF
:10192000AF92BF92CF92DF92EF92FF920F931F93ED
:10193000DF93CF9300D000D0CDB7DEB74C017A83D0
:1019400069831A013C832B832701380140E050E072
:10195000BA0100E010E02FE733E40E94740B84E644
:1019600090E0F40195A784A7C4016D8D7E8D0E943F
:101970004C0CC401B301A20196018501C98CDA8C1B
:10198000EB8CFC8C0E94640A0E944542F40124A561
:1019900035A5442737FD4095542F621B730B840BEC
:1019A000950B60A371A382A393A316AA358E248EF0
:1019B00089819A81938F828F8B819C81978F868F6B
:1019C0000F900F900F900F90CF91DF911F910F917B
:1019D000FF90EF90DF90CF90BF90AF909F908F904F
:1019E0007F906F905F904F903F902F900895FC01F3
:1019F00086A990E00895EF92FF920F931F93CF93E3
:101A0000DF93FC017183608320E030E0A901228331
:101A100033834483558386E58683278330874187D4
:101A2000528723873487458756872787308B418B9A
:101A3000528B238B348B458B568BDF01A754BF4FC2
:101A40001D921C92DF01A55ABE4F1D921C92DF0110
:101A5000A15ABE4F1D921C92DF01AF59BE4F1D927D
:101A60001C92DF01AD59BE4F1D921C92178ADF01F7
:101A7000A954BF4F1D921C92EF01C15EDE4F8BE750
:101A8000E82EF12CEE0EFF1E0EE110E08FE090E04C
:101A90000E9400488883998322968FE090E00E94FC
:101AA0000048FC01D7018D939D937D011082015068
:101AB000104061F7DF91CF911F910F91FF90EF9050
:101AC0000895FC0186810895FC0157814085318588
:101AD0002285652F742F832F922F0895FC01538543
:101AE000448535852685652F742F832F922F089581
:101AF0009C01295E3F4FC90108952F923F924F925A
:101B00005F926F927F928F929F92AF92BF92CF928D
:101B1000DF92EF92FF920F931F93DF93CF93CDB796
:101B2000DEB760970FB6F894DEBF0FBECDBF498316
:101B30005A836B837C83C901B80126013701A50153
:101B400094010E94D24325E33AEF4EE85CE30E9401
:101B5000A746D62EE72E8C01762F272F3E2D402F1D
:101B6000512FCA01B9010E940A476D837E838F837A
:101B700098876D2D7E2D802F912F0E949D4469871F
:101B80007A878B879C8769817A818B819C8125E309
:101B90003AEF4EE85CE30E94A7468B01A82EE92E9F
:101BA000C301B20125E33AEF4EE85CE30E94A74689
:101BB000962EB72E6C01602F712F8A2D9E2D0E94BC
:101BC0000A4769837A838B839C83602F712F8A2DC8
:101BD0009E2D0E949D446D877E878F87988B692DEF
:101BE0007B2D8C2D9D2D0E940A472B013C01692DD8
:101BF0007B2D8C2D9D2D0E949D447B018C016D853C
:101C00007E858F859889A30192010E94A7465B017A
:101C10006C0169817A818B819C81A80197010E9466
:101C2000A74629853A854B855C850E94A7469B017E
:101C3000AC01C601B5010E94D2435B016C01762F55
:101C4000272F3B2D4C2D5D2DCA01B9010E94A746BF
:101C5000962E872E382E292EC801B7012D813E8160
:101C60004F8158850E94A746C72ED82EA92E762FC1
:101C7000272F3C2D4D2D5A2DCA01B9010E94A74690
:101C80009B01AC01D401F1016B2F7A2F8F2F9E2F76
:101C90000E94D3430E9414476D837E838F8398876D
:101CA00069817A818B819C81A30192010E94A74660
:101CB0005B016C016D857E858F859889A8019701F0
:101CC0000E94A74629853A854B855C850E94A746D8
:101CD0009B01AC01C601B5010E94D3439B01AC013D
:101CE0006D817E818F8198850E94464426E73BE77F
:101CF00042EC5AE40E94A7462DA13EA14FA158A54F
:101D00000E94A74660960FB6F894DEBF0FBECDBF07
:101D1000CF91DF911F910F91FF90EF90DF90CF90C7
:101D2000BF90AF909F908F907F906F905F904F90FB
:101D30003F902F9008954F925F926F927F928F9273
:101D40009F92AF92BF92CF92DF92EF92FF920F934A
:101D50001F934A015B012801390100D000D0FC012A
:101D60004781508561857285038514852585368573
:101D7000EDB7FEB7C182D282E382F48275016401BD
:101D8000530142010E947D0D0F900F900F900F9014
:101D90001F910F91FF90EF90DF90CF90BF90AF9089
:101DA0009F908F907F906F905F904F9008952F92AB
:101DB0003F924F925F926F927F928F929F92AF92DB
:101DC000BF92CF92DF92EF92FF920F931F93CF9328
:101DD000DF93FB014080F42DFD3239F081E090E08B
:101DE000FB3229F080E090E002C081E090E01B012E
:101DF000280E391EDD246DECC62E5CEC852E4CECD5
:101E0000742E3DE3632EBB24AA2499245524EE248A
:101E1000FF2487014DC08E3209F448C0C82FDD274A
:101E2000C7FDD095DD20A9F4C801B7012AE030E054
:101E300040E050E00E946D477B018C01E097CE01AD
:101E4000AA2797FDA095BA2FE80EF91E0A1F1B1F9F
:101E50002FC0E097BE01882777FD8095982F0E94BC
:101E60003B459B01AC01F3016C2D782D8F2F962DF6
:101E70000E94A7469B01AC01D5016B2F7A2D892DBD
:101E8000952D0E94D343B62EA72E982E592E93013E
:101E90006C2D782D832F962D20E030E040E251E428
:101EA0000E94A044C62E872E782E692EDD24D3945E
:101EB000F10181911F01882309F0ADCFC801B7015D
:101EC0000E943B459B01AC01D5016B2F7A2D892DDA
:101ED000952D0E94D343562F472F382F292FF42DAD
:101EE000FD3279F460E070E0CB01DA01F9012B2FCB
:101EF0003A2F4F2F5E2F0E94D243562F472F382F55
:101F0000292FDA01F9016B2F742F8F2F922FDF9178
:101F1000CF911F910F91FF90EF90DF90CF90BF90E6
:101F2000AF909F908F907F906F905F904F903F9079
:101F30002F900895AF92BF92CF92DF92EF92FF92CF
:101F40000F931F93CF93DF93EC01FC01E55AFE4FF3
:101F5000808191818436910584F4FE01E754FF4F1E
:101F6000208131812E31310544F4FE01ED59FE4FBF
:101F7000208131812F3031052CF0FE01E15AFE4FD6
:101F8000118210826A3011F06D3029F4FE01E15A9D
:101F9000FE4F118210828E01015A1E4F643219F5D4
:101FA000FE01E35AFE4F11821082FE01EF59FE4FEF
:101FB00011821082FE01E754FF4F11821082FE0150
:101FC000ED59FE4F11821082FE01E554FF4F6083F0
:101FD000C55ADE4F81E090E099838883D80111963D
:101FE0009C938E93B5C2F801208131812130310557
:101FF00089F0223031052CF42115310509F4A8C2ED
:10200000A3C22230310509F49BC02330310509F009
:102010009BC2E2C0873091057CF4FC01E65CFD4F79
:102020002081621749F4FE01E35AFE4F208131817D
:102030002F5F3F4F31832083FE01E80FF91FE554E6
:10204000FF4F6083FE01E55AFE4F01969183808326
:102050006A3289F19E0127543F4FCE018D599E4F20
:102060008E010F591E4F6C3209F047C0D9014D91B6
:102070005C911197FA01EE0FFF1FEC0FFD1FE15E5F
:10208000FE4F0190F081E02DEC0168817981E60F2F
:10209000F71F10824F5F5F4F11965C934E9319822A
:1020A0001882F801808191812CE230E08227932709
:1020B000918380834DC2CE0187549F4FDC012D91C7
:1020C0003C91F901EE0FFF1FEC0FFD1FE15EFE4F8B
:1020D0000190F081E02DDE01AD59BE4F4D915C9134
:1020E0001197E40FF51F10822F5F3F4FFC013183E2
:1020F000208311961C921E9267C0DC014D915C9169
:10210000D901ED91FC911197EE0FFF1FEC0FFD1F10
:10211000E15EFE4F0190F081E02DE40FF51F60833A
:102120004F5F5F4FEC0159834883772767FD7095B8
:10213000F80180819181682779277183608308C2C3
:10214000FE01E80FF91FE554FF4F6083FE01E55AD9
:10215000FE4F019691838083DE01AD59BE4F8D9174
:102160009C911197FE01E754FF4F0190F081E02D03
:10217000EE0FFF1FEC0FFD1FE15EFE4F0190F0819F
:10218000E02DE80FF91F6083019611969C938E93C2
:10219000FE01EF59FE4F40815181862F992787FD1F
:1021A0009095613414F0C79701C0C097FE01EF59B4
:1021B000FE4F9C01A4E0220F331FAA95E1F7CA014C
:1021C000821B930B91838083C15ADE4F8881998152
:1021D000019699838883BCC1FE01E80FF91FE5547D
:1021E000FF4F60830196FE01E80FF91FE554FF4F92
:1021F0001082FE01E55AFE4F0196918380839E0175
:102200002D593E4FD9014D915C91CE0187549F4F7E
:10221000DC01ED91FC911197EE0FFF1FEC0FFD1FFC
:10222000E15EFE4F0190F081E02DE40FF51F608329
:102230004F5F5F4FF901518340832D913C9111977E
:10224000F901EE0FFF1FEC0FFD1FE15EFE4F019045
:10225000F081E02DE40FF51F10822F5F3F4F2D938B
:102260003C93D80111961C921E92FE01EF59FE4F2D
:1022700020813181862F992787FD9095613414F054
:10228000C79701C0C097F901E81BF90BCF01FE0108
:10229000EF59FE4F91838083009709F059C18881DF
:1022A0009981009779F4FE01E55AFE4F8081918172
:1022B000DC01A554BF4FAC0FBD1FFC017796EC0F9E
:1022C000FD1F0CC0FE01E35AFE4F808191818630D4
:1022D000910509F03DC1E7CF2E912293019797FF19
:1022E000FBCFFE01E55AFE4F91838083DE01A954A6
:1022F000BF4F11961C921E92BD018E0107541F4FB5
:1023000083E6E82E81E0F82EEC0EFD1E37C0F701C3
:10231000118210820DC0FC0180819181820F931F78
:10232000FC014083F7018081918101969183808334
:10233000FB0180819181F70120813181880F991FF4
:102340008C0F9D1FAC01415E5E4FFA0140815181AF
:10235000420F531FFA01408185589F4F4423D9F6FD
:10236000FC0180819181820F931FFC0110828D916D
:102370009C911197019611969C938E93FB0120815D
:102380003181F80180819181281739070CF4BFCF82
:10239000FE01E35AFE4F808191818630910509F05C
:1023A000DAC0FE01EF5DFE4F60817181CE010E94B7
:1023B000D70E6A837B838C839D83FE01ED5DFE4F88
:1023C0000190F081E02D80818E83FE01EB5DFE4F58
:1023D00060817181CE010E94D70E20E030E048EC90
:1023E00052E40E94A0445B016C017B2D9D2D0E9454
:1023F00076457B018C01FE01EB59FE4F60837183B2
:10240000828393836A2D7B2D8C2D9D2DA8019701AE
:102410000E94D24320E030E048EC52E40E94A746FC
:1024200020E030E040E752E40E94A044A801970178
:102430000E94D3436B01E82E092F762F272F3D2DC5
:102440004E2D502F2F83388749875A87FE01E95D2B
:10245000FE4F0190F081E02D8081833549F460E0EA
:1024600070E0CB010E94D2436F83788789879A8777
:10247000FE01E75DFE4F60817181CE010E94D70EA3
:1024800020E030E048EC52E40E94A0445B016C0183
:102490007B2D9D2D0E9476457B018C01FE01EB5921
:1024A000FE4F60837183828393836A2D7B2D8C2DF5
:1024B0009D2DA80197010E94D24320E030E048EC16
:1024C00052E40E94A74620E030E040E752E40E9438
:1024D000A044A80197010E94D3436B01E82E092F65
:1024E000762F272F3D2D4E2D502F2B873C874D8744
:1024F0005E87FE01E55DFE4F0190F081E02D808159
:10250000873549F460E070E0CB010E94D2436B87CD
:102510007C878D879E87FE01E35DFE4F6081718120
:10252000CE010E94D70E6F87788B898B9A8BFE0124
:10253000E15DFE4F60817181CE010E94D70E6B8BF1
:102540007C8B8D8B9E8B07C0C15ADE4F19821882FF
:1025500020E030E002C021E030E0C901DF91CF91FE
:102560001F910F91FF90EF90DF90CF90BF90AF90B1
:102570000895CF92DF92EF92FF920F931F936B011A
:102580007C01CA01B901209170002E7F2093700058
:102590002091B0002C7F2093B0002091B100277FC4
:1025A0002093B1002091B6002F7D2093B60020919A
:1025B00070002D7F209370002091B1002460209343
:1025C000B1002091B1002C7F2093B10020E034E2D3
:1025D00044E75BE40E94A74620E030E040E85CE38B
:1025E0000E94A7460E94084580E091E0861B970B59
:1025F0009093810880938008C114D104E104F10410
:1026000069F481E090E0A0E0B0E0809375089093D9
:102610007608A0937708B093780808C0C092750830
:10262000D0927608E0927708F092780810937A08B2
:10263000009379081F910F91FF90EF90DF90CF905A
:1026400008950F931F938A012FE632E143E85AE37E
:102650000E94B9121F910F91089510927B08109259
:102660007C0810927D0810927E0810927F0880915D
:102670008008909181088093B200E0E7F0E08081CB
:1026800081608083089580917B0890917C08A0915F
:102690007D08B0917E080196A11DB11D80937B0835
:1026A00090937C08A0937D08B0937E0820917B08CE
:1026B00030917C0840917D0850917E08809175088A
:1026C00090917608A0917708B0917808281739077B
:1026D0004A075B07B0F080917F08882391F481E07E
:1026E00080937F0810927B0810927C0810927D08DE
:1026F00010927E08E0917908F0917A08099510927D
:102700007F0808951F920F920FB60F920BB60F928B
:1027100011242F933F934F935F936F937F938F93E6
:102720009F93AF93BF93EF93FF9380918008909115
:1027300081088093B2000E944313FF91EF91BF91F3
:10274000AF919F918F917F916F915F914F913F9149
:102750002F910F900BBE0F900FBE0F901F901895EA
:10276000FC01158216821782DC01189680E21D9208
:102770008150E9F710A612A611A605A8F6A9E02D2A
:10278000309709F00995089587E29EE090938308B9
:10279000809382081092840882E898E00E94B01327
:1027A0000895CB010E9433490895CB01642F0E9404
:1027B0003B49089524E137E0FC01318320830895EB
:1027C00024E137E0FC01318320830E94F941089520
:1027D000FC0184E197E09183808316821282138248
:1027E00014821582178286E161E00E94764387E1B8
:1027F00061E00E94764388E161E00E94764389E1CE
:1028000061E00E9476430895EF92FF920F931F9329
:10281000FC018781181664F4E084F1840285138535
:102820000E94454221E06E157F058007910708F45C
:1028300020E0822F1F910F91FF90EF900895FC01EF
:10284000978181E091FF80E00895FC01978181E00C
:1028500092FF80E00895FC01978181E093FF80E082
:102860000895CF93DF93EC010E940414882389F12B
:102870000E9445422A813B814C815D81621B730B22
:10288000840B950B693E23E0720720E0820720E06D
:10289000920778F186E16E810E949A4387E16E810A
:1028A0000E949A4388E16E810E949A4389E16E8179
:1028B0000E949A438E8191E089278E830E9445422F
:1028C0006A837B838C839D83188619861A861B8670
:1028D00010C086E160E00E949A4387E160E00E94B8
:1028E0009A4388E160E00E949A4389E160E00E9497
:1028F0009A43DF91CF910895FC0140875187628709
:10290000738708952CE137E0FC013183208308951B
:102910002CE137E0FC01318320830E94F9410895C6
:10292000FC0182A90895FC0162AB08952F923F92A9
:102930004F925F926F927F928F929F92AF92BF92CF
:10294000CF92DF92EF92FF920F931F93DF93CF937B
:1029500000D000D000D0CDB7DEB79E838D835A0162
:102960006B0138014901FC01E284F384048515857B
:10297000CB01BA01A80197010E94D343562E472EDE
:10298000382E292EC601B501A80197010E94D24315
:10299000D62EC72EB82EA92EC401B301A8019701C7
:1029A0000E94D34369837A838B839C83C401B301E0
:1029B000A80197010E94D243162FE72E082FF92E67
:1029C000A2019101652F742F832F922F24E83AEBF7
:1029D0004CE358E30E94D243ED81FE8122A133A152
:1029E00044A155A10E949C461816E4F4A20191014D
:1029F000652F742F832F922FED81FE81268D378DC9
:102A000040A151A10E94994487FF0CC0A2019101ED
:102A1000852F942FA32FB22FED81FE81868F978F64
:102A2000A0A3B1A3A6019501652F7C2D832F9A2D1C
:102A300024E83AEB4CE358E30E94D343ED81FE8156
:102A4000268D378D40A151A10E94994487FF1CC05B
:102A5000A6019501652F7C2D832F9A2DED81FE8196
:102A600022A133A144A155A10E949C46181664F4EA
:102A7000A6019501852F9C2DA32FBA2DED81FE81F6
:102A800082A393A3A4A3B5A359814A813B812C813E
:102A9000652F742F832F922F24E83AEB4CE358E3F1
:102AA0000E94D243ED81FE8122A533A544A555A500
:102AB0000E949C46181604F559814A813B812C815D
:102AC000652F742F832F922FED81FE8126A137A1D0
:102AD00040A551A50E94994487FF0EC059814A81A3
:102AE0003B812C81852F942FA32FB22FED81FE8166
:102AF00086A397A3A0A7B1A7612F7E2D802F9F2D1E
:102B000024E83AEB4CE358E30E94D343ED81FE8185
:102B100026A137A140A551A50E94994487FF18C05E
:102B2000612F7E2D802F9F2DED81FE8122A533A563
:102B300044A555A50E949C46181654F4812F9E2D3D
:102B4000A02FBF2DED81FE8182A793A7A4A7B5A7D3
:102B500026960FB6F894DEBF0FBECDBFCF91DF91A2
:102B60001F910F91FF90EF90DF90CF90BF90AF90AB
:102B70009F908F907F906F905F904F903F902F909D
:102B80000895AF92BF92CF92DF92EF92FF920F9390
:102B90001F93CF93DF93EC015A016B0178018901F8
:102BA00080E090E0A4EBB2E48E8F9F8FA8A3B9A33E
:102BB00080E090E0A4EBB2EC8AA39BA3ACA3BDA3FE
:102BC00080E090E0A4E3B3E48EA39FA3A8A7B9A7F5
:102BD00080E090E0A4E3B3EC8AA79BA7ACA7BDA7D5
:102BE0006E817F81888599852DE93BEF46E157E32A
:102BF0000E94A7466A877B878C879D87CE01B60196
:102C0000A501980187010E949614DF91CF911F9131
:102C10000F91FF90EF90DF90CF90BF90AF9008950D
:102C20000F931F93CF93DF93EC018CE197E099838F
:102C300088837DAB6CAB1A821B821C821D8280E074
:102C400090E0DC018A879B87AC87BD878E8B9F8B4A
:102C5000A88FB98F8A8F9B8FAC8FBD8F80E090E05B
:102C6000A4EBB2E48E8F9F8FA8A3B9A380E090E07D
:102C7000A4EBB2EC8AA39BA3ACA3BDA380E090E03D
:102C8000A4E3B3E48EA39FA3A8A7B9A780E090E034
:102C9000A4E3B3EC8AA79BA7ACA7BDA71BAA0E947D
:102CA000DB1B6E877F87888B998B0E94B81B6A8B92
:102CB0007B8B8C8B9D8B0E94941B6E837F8388877C
:102CC00099874E855F85688979890A891B892C894E
:102CD0003D89CE010E94C115DF91CF911F910F91C7
:102CE0000895FC015681478130852185652F742F19
:102CF000832F922F0895AF92BF92CF92DF92EF92DF
:102D0000FF920F931F93CF93DF93EC017A018B0116
:102D1000CB01BA0120E030E0A9010E94994487FF6D
:102D20000AC00F2EF0E0EF2EF0E0FF2EF0E00F2FA4
:102D3000F0E01F2FF02DC801B7012E813F8148859B
:102D400059850E94D243D62EC72EB82EA92EEE82C8
:102D5000FF8208871987C801B7012DE93BEF46E1DB
:102D600057E30E94A7466A877B878C879D87C801A7
:102D7000B7010E94271BA6019501652F742F832F91
:102D8000922F20E030E0A9010E94994418160CF01F
:102D900048C0A6019501652F742F832F922F2DE92E
:102DA0003BEF46E157E30E94A746E62E172F082F78
:102DB000F92E6E8D7F8D88A199A12E2D312F402F58
:102DC0005F2D0E94D3436E8F7F8F88A399A36AA142
:102DD0007BA18CA19DA12E2D312F402F5F2D0E9414
:102DE000D2436AA37BA38CA39DA36EA17FA188A5D8
:102DF00099A52E2D312F402F5F2D0E94D3436EA316
:102E00007FA388A799A76AA57BA58CA59DA52E2D34
:102E1000312F402F5F2D0E94D2436AA77BA78CA73A
:102E20009DA7DF91CF911F910F91FF90EF90DF90C1
:102E3000CF90BF90AF900895CF92DF92EF92FF9224
:102E40000F931F93CF93DF93EC018AA9882309F492
:102E50006BC00E9445427B018C018CA99DA90E94F8
:102E60000F20E61AF70A080B190B81EEE81683E922
:102E7000F80684E0080780E0180748F08AA988234C
:102E800031F01EA61FA618AA19AA81E08BAB8CA947
:102E90009DA90E941520882309F446C04E855F85B0
:102EA000688979890A891B892C893D898CA99DA902
:102EB0000E9422207B018C016E8B7F8B888F998FE3
:102EC0002A8D3B8D4C8D5D8D0E949C46181624F4F6
:102ED000EA8EFB8E0C8F1D8F8CA99DA90E94FF1F6F
:102EE0006B017C018CA99DA90E9407208B019C018C
:102EF000CE01B701A6010E9496148AA9882399F0F1
:102F00006E897F89888D998D2E813F81488559856D
:102F10000E949C4618163CF41EA61FA618AA19AAC1
:102F200081E08BAB01C01BAADF91CF911F910F9164
:102F3000FF90EF90DF90CF900895CF93DF93EC0157
:102F40008CA99DA90E94FF1F6E877F87888B998B14
:102F50008CA99DA90E9407206A8B7B8B8C8B9D8BF3
:102F600080E090E0DC018A8F9B8FAC8FBD8F6E85F7
:102F70007F85888999890E94571B6A897B898C89FA
:102F80009D890E943F1BDF91CF910895CF92DF92E0
:102F9000EF92FF920F931F93CF93DF93EC01F62EE6
:102FA000E72E6A01862F972F62E070E04CE350E035
:102FB0000E947B218AA9882329F08F2D9E2D62E40F
:102FC00072E004C08F2D9E2D64E572E00E94F93DF1
:102FD0008F2D9E2D62E070E042E350E00E947B2145
:102FE0008F2D9E2D66E672E00E94F93D4E855F852D
:102FF000688979898CA99DA924E030E00AE010E075
:103000000E946420BC018F2D9E2D0E94F93D8F2DC2
:103010009E2D62E070E048E250E00E947B218F2DFF
:103020009E2D6CE672E00E94F93D4A895B896C89AD
:103030007D898CA99DA924E030E00E94CE20BC01AE
:103040008F2D9E2D0E94F93D8F2D9E2D62E070E008
:103050004EE150E00E947B218F2D9E2D62E772E0B1
:103060000E94F93D6E817F81888599850E9408457F
:103070009B01AC018F2D9E2DB9014AE050E00E94CA
:10308000F73E8F2D9E2D6CE772E00E94F93D8F2D4B
:103090009E2D62E070E044E150E00E947B21C60179
:1030A0000A978430910538F48F2D9E2D63E872E0E5
:1030B0000E94F93D69C08F2D9E2D66E972E00E9445
:1030C000F93D6E897F89888D998D0E9408459B0105
:1030D000AC018F2D9E2DB9014AE050E00E94F73ED1
:1030E0008F2D9E2D6CE972E00E94F93D6E8D7F8DD3
:1030F00088A199A12AA13BA14CA15DA10E94D24324
:103100002DE93BEF46E157E30E94A044162F072F1D
:103110006C016EA17FA188A599A52AA53BA54CA508
:103120005DA50E94D2432DE93BEF46E157E30E94A3
:10313000A0440E9408459B01AC018F2D9E2DB90132
:103140004AE050E00E94F73E8F2D9E2D63EA72E028
:103150000E94F93DA801652F742F8C2D9D2D0E9492
:1031600008459B01AC018F2D9E2DB9014AE050E02E
:103170000E94F73E8F2D9E2D65EA72E04AEA52E0EA
:103180002FEA32E00E9469230E9445426A837B83D2
:103190008C839D83DF91CF911F910F91FF90EF90D2
:1031A000DF90CF9008950F931F93CF93DF93EC019F
:1031B000CB019A012A50304024303105B8F54A300D
:1031C000510549F460E070E043E350E02FE730E060
:1031D0000EE310E023C04B30510549F460E070E08D
:1031E0004FE150E02FE730E004E310E017C04C302F
:1031F000510549F460E070E045E150E02FE730E030
:1032000000E210E00BC04D30510551F460E070E079
:103210004BE050E02FE730E006E110E00E94AB22E7
:103220000E9445426A837B838C839D83DF91CF918B
:103230001F910F9108950F931F93CF93DF93EC018C
:10324000CB019A012A50304024303105B8F54A307C
:10325000510549F460E070E043E350E02FE730E0CF
:103260000EE310E023C04B30510549F460E070E0FC
:103270004FE150E02FE730E004E310E017C04C309E
:10328000510549F460E070E045E150E02FE730E09F
:1032900000E210E00BC04D30510551F460E070E0E9
:1032A0004BE050E02FE730E006E110E00E940A23F7
:1032B0000E9445426A837B838C839D83DF91CF91FB
:1032C0001F910F910895FC017183608380E090E06D
:1032D000DC018093C2089093C308A093C408B09304
:1032E000C5088093C6089093C708A093C808B093F8
:1032F000C9088093CA089093CB08A093CC08B093D8
:10330000CD088EEC98E064E670E00E94210B0895F1
:1033100008958EEC98E00E94F70C21E0009709F4E4
:1033200020E0822F08958091BE089091BF08A0915F
:10333000C008B091C1088093C2089093C308A093BD
:10334000C408B093C5088093C6089093C708A0939B
:10335000C808B093C9088EEC98E061E070E00E9464
:10336000360C08958EEC98E060E070E00E94360C18
:1033700008955091BE084091BF083091C008209137
:10338000C108652F742F832F922F08954093BE0894
:103390005093BF086093C0087093C108089540938C
:1033A000C2085093C3086093C4087093C508089579
:1033B0005091C2084091C3083091C4082091C508BB
:1033C000652F742F832F922F08956091CA087091F2
:1033D000CB088091CC089091CD0820E030E040E00F
:1033E00053E40E94D24320E030E040EC50E40E94DD
:1033F000A04408958EEC98E00E94F70C813091056E
:10340000A1F48091BE089091BF08A091C008B0912E
:10341000C1088093C6089093C708A093C808B093CA
:10342000C9088EEC98E00E940F090895AF92BF92F0
:10343000CF92DF92EF92FF920F931F9300D000D0B4
:1034400000D08AE999E9A9E9BEE3EDB7FEB7818327
:103450009283A383B483168215828EEC98E066EC87
:1034600078E04AEC58E022EC38E00F2EF0E0EF2E46
:10347000F0E0FF2EF0E00F2FF0E41F2FF02D0F2EC5
:10348000F0E0AF2EF0E0BF2EF0EACF2EF0E4DF2E1A
:10349000F02D0E94880C8DB79EB706960FB6F89453
:1034A0009EBF0FBE8DBF1F910F91FF90EF90DF90D9
:1034B000CF90BF90AF9008959C01FB018DEB98E0F9
:1034C000B90140810E94D51381E090E00895DF9317
:1034D000CF930F92CDB7DEB7898383E190E0BE0131
:1034E0006F5F7F4F0E945C1A0F90CF91DF9108951C
:1034F000CF93DF939C01EB018DEB98E0B9010E9423
:10350000D113888381E090E0DF91CF910895DF931C
:10351000CF930F92CDB7DEB7198283E190E0BE0161
:103520006F5F7F4F0E94781A89810F90CF91DF9152
:103530000895EF92FF920F931F93CF93DF93EC01C7
:103540007B010DEB18E0C801BE01F70140810E942C
:10355000D513BE016F5F7F4FC801F70141810E9403
:10356000D51382E090E0DF91CF911F910F91FF90F2
:10357000EF900895DF93CF9300D0CDB7DEB79A8355
:1035800089838FE090E0BE016F5F7F4F0E94991AA0
:103590000F900F90CF91DF910895EF92FF920F93CC
:1035A0001F93CF93DF93EC017B010DEB18E0C80173
:1035B000BE010E94D113F7018083BE016F5F7F4F70
:1035C000C8010E94D113F701818382E090E0DF916E
:1035D000CF911F910F91FF90EF900895DF93CF93BC
:1035E00000D0CDB7DEB71A8219828FE090E0BE011D
:1035F0006F5F7F4F0E94CD1A89819A810F900F9043
:10360000CF91DF910895EF92FF920F931F93CF9385
:10361000DF939C01EB0184E0E82EF12CE60EF71E0F
:1036200001C0980189010F5F1F4F49918DEB98E010
:10363000B9010E94D513CE15DF0599F784E090E01B
:10364000DF91CF911F910F91FF90EF900895DF933D
:10365000CF9300D000D0CDB7DEB769837A838B8358
:103660009C838BE090E0BE016F5F7F4F0E94031B45
:103670000F900F900F900F90CF91DF910895DF93EF
:10368000CF9300D000D0CDB7DEB769837A838B8328
:103690009C8386E090E0BE016F5F7F4F0E94031B1A
:1036A0000F900F900F900F90CF91DF910895DF93BF
:1036B000CF9300D000D0CDB7DEB769837A838B83F8
:1036C0009C8381E090E0BE016F5F7F4F0E94031BEF
:1036D0000F900F900F900F90CF91DF910895EF9280
:1036E000FF920F931F93CF93DF939C018B0194E084
:1036F000E92EF12CE60EF71E01C09E01E90121968C
:103700008DEB98E0B9010E94D113F80181938F01EC
:10371000EE15FF0591F784E090E0DF91CF911F91C6
:103720000F91FF90EF900895DF93CF9300D000D0DA
:10373000CDB7DEB780E090E0A0E4B0E489839A835F
:10374000AB83BC838BE090E0BE016F5F7F4F0E9434
:103750006F1B59814A813B812C81652F742F832FE8
:10376000922F0F900F900F900F90CF91DF910895AF
:10377000DF93CF9300D000D0CDB7DEB780E090E0EC
:10378000DC0189839A83AB83BC8386E090E0BE0131
:103790006F5F7F4F0E946F1B59814A813B812C8153
:1037A000652F742F832F922F0F900F900F900F90F3
:1037B000CF91DF910895DF93CF9300D000D0CDB7A4
:1037C000DEB780E090E0DC0189839A83AB83BC8321
:1037D00081E090E0BE016F5F7F4F0E946F1B5981B7
:1037E0004A813B812C81652F742F832F922F0F905C
:1037F0000F900F900F90CF91DF91089581E080930B
:10380000B70B8091B80B9091B90B01969093B90BBF
:103810008093B80B8091B80B9091B90B64E170E084
:103820000E9498479093B90B8093B80B089586EB4C
:103830009AE00E940736089586EB9AE00E944A3586
:103840000895EF92FF920F931F938130910509F035
:103850005FC085E099E062E343E320E00E94AE03AD
:1038600084E297E0909306098093050985E299E048
:1038700064E345E320E00E94AE038EE497E090937A
:1038800026098093250981E499E060E070E00E94B8
:10389000FB0C8AEA9AE00E94E81386EB9AE065E264
:1038A00079E00E949C348EEE9AE061E479E00E9417
:1038B000C01E8BE49BE06EEE7AE00E9463198DE4FB
:1038C0009BE06EEE7AE00E94101683E89BE06AEAC5
:1038D0007AE04FE65EE00E9441328FE99BE065E0CE
:1038E00079E04AEA5AE02DE43BE006EB1AE0E3E82F
:1038F000EE2EEBE0FE2E0E94BD238DEB9BE00E949E
:10390000890684E397E09093BE0B8093BD0B28C09B
:10391000009731F584E397E09093BE0B8093BD0B45
:103920008DEB9BE00E948F068FE99BE00E94AF2306
:103930008DE49BE00E9482148BE49BE00E94881936
:103940008EEE9AE00E94B21E8AEA9AE00E94DA1392
:1039500085E299E00E94233285E099E00E943821B7
:103960001F910F91FF90EF900895FC01A081B1810C
:1039700012962D913C911397F90109950895CF92D4
:10398000DF92EF920F931F93CF93DF93C7E2DEE0B6
:10399000CE0140E056E960E070E028E001E0EE246E
:1039A0000E94A03BCE0164EB72E00E94193EF5E05C
:1039B000CF2EF9E0DF2EC6010E941622CE0163EC65
:1039C00072E00E94193E8EEE9AE00E94BC1FCE016A
:1039D0006FEC72E00E94193E83E99EE040EC52E1F8
:1039E00060E070E028E00E94A03BCE0169EE72E04A
:1039F0000E94193E84E360E00E94764385E361E023
:103A00000E94764385E299E040EC52E160E070E08C
:103A10000E943B32CE0169EF72E00E94193E85E1BF
:103A200060E00E94764382E06CE17CE143E050E09C
:103A30000E94E83F84E160E00E94764383E067E112
:103A40007CE143E050E00E94E83FCE0166E073E095
:103A50000E94193E8FE360E00E94764380E460E0BC
:103A60000E94764381E460E00E9476430DEB1BE008
:103A7000C8016FE370E00E94B51CC80160E470E00B
:103A80000E94B51CC80161E470E00E94B51CCE0123
:103A900060E273E00E94193E64E670E080E090E02E
:103AA0004EEF5BE10E9421130E942D13C6010E947C
:103AB000E321CE016EE273E00E94193EDF91CF91C7
:103AC0001F910F91EF90DF90CF9008958FE99BE0C9
:103AD0006FE30E94DF2308958FE99BE060E40E947A
:103AE000DF2308958FE99BE061E40E94DF230895BE
:103AF0006F33710519F40E94661D089560347105D5
:103B000019F40E946C1D08956134710511F40E942E
:103B1000721D0895EF92FF920F931F9310E256C00B
:103B200087E29EE00E9450388093BC0B813651F4AE
:103B300087E29EE06FE373E00E94193E8BE49BE016
:103B40000E9493198091BC0B843651F487E29EE069
:103B500062E573E00E94193E8BE49BE00E94B2197B
:103B60008091BC0B8D32B1F487E29EE066E673E093
:103B70000E94193E8BE49BE00E94D81920E030E0BF
:103B800040EA50E40E94D243AB01BC018BE49BE0CD
:103B90000E94CF198091BC0B8B32B1F487E29EE07A
:103BA0006CE773E00E94193E8BE49BE00E94D819F9
:103BB00020E030E040EA50E40E94D343AB01BC0176
:103BC0008BE49BE00E94CF191093BC0B87E29EE030
:103BD0000E942138181619060CF4A2CF22C08BE4DB
:103BE0009EE00E945038682F8093BA0B9093BB0BD5
:103BF0008EEE9AE00E944020882399F081E499E0BB
:103C00000E94780DBC0185E299E00E943E3281E479
:103C100099E00E94780DBC0187E29EE00E94193E67
:103C200007C08BE49EE00E94213818161906BCF2EA
:103C30008091B70B882309F482C08BE49BE00E943B
:103C4000FA198091B80B9091B90B65E070E00E9471
:103C50009847009721F48AEA9AE00E9431148091F3
:103C6000B80B9091B90B6AE070E00E9498470097FA
:103C700009F063C086EB9AE00E94B5378BE49BE0C5
:103C80000E948919882309F44CC087E29EE062E90A
:103C900073E00E94F93D8BE49BE00E94D819AB01D0
:103CA000BC0187E29EE022E030E00E94D23F87E242
:103CB0009EE060EA73E00E94F93D8BE49BE00E9485
:103CC000B919AB01BC0187E29EE022E030E00E941E
:103CD000D23F87E29EE06FEA73E00E94F93D8BE4F9
:103CE0009BE00E94E519AB01BC0187E29EE022E067
:103CF00030E00E94D53F8BE49BE00E94B9197B0124
:103D00008C018BE49BE00E94E5199B01AC01C8018A
:103D1000B7010E94D343AB01BC018BE49BE00E943E
:103D2000C6198DE49BE00E941C1786EB9AE00E9466
:103D30003B3386EB9AE00E94A9321092B70B8FE9D1
:103D40009BE00E94CB311F910F91FF90EF9008955F
:103D500081E090E00E94211C089580E090E00E94A4
:103D6000211C08952EE337E0FC0131832083089560
:103D70002EE337E0FC01318320830E94F94108954E
:103D8000FC018EE397E09183808312821382148278
:103D9000158216821782108611861286E55AFF4F09
:103DA000718360830895DF92EF92FF920F931F93C8
:103DB000CF93DF93C0E0D0E08BE49EE00E942138F7
:103DC0000097D1F38BE49EE00E9450382196C436D0
:103DD000D10591F70E9445427B018C01DD24D394EB
:103DE00088E893E1A0E0B0E0E80EF91E0A1F1B1F6F
:103DF0000AC08BE49EE00E945038DD24D3948138C1
:103E000091050CF0DD240E9445426E157F05800768
:103E1000910748F4DD2081F08BE49EE00E94213878
:103E2000009789F3E6CFDD2039F087E29EE06BEB67
:103E300073E00E94193E07C087E29EE06EEB73E0DC
:103E40000E94193EDD248D2DDF91CF911F910F919E
:103E5000FF90EF90DF900895CF93DF93EC0187E21E
:103E60009EE063EC73E00E94193E8BE49EE040EC20
:103E700052E160E070E00E941D3BCE010E94D31E23
:103E8000882309F067C08BE49EE00E94753C87E2BE
:103E90009EE06AED73E00E94193E8BE49EE040E8EC
:103EA00055E260E070E00E941D3BCE010E94D31EEF
:103EB000882309F052C08BE49EE00E94753C87E2A3
:103EC0009EE061EF73E00E94193E8BE49EE040E0CB
:103ED0005BE460E070E00E941D3BCE010E94D31EB7
:103EE0008823F1F58BE49EE00E94753C87E29EE01A
:103EF00069E074E00E94193E8BE49EE040E056E9E0
:103F000060E070E00E941D3BCE010E94D31E88231A
:103F100051F58BE49EE00E94753C87E29EE061E2F1
:103F200074E00E94193E8BE49EE040E051EE60E0B8
:103F300070E00E941D3BCE010E94D31E8823B1F485
:103F40008BE49EE00E94753C87E29EE069E374E0AA
:103F50000E94193E20EC32E10BC020E835E208C097
:103F600020E03BE405C020E036E902C020E031EE6D
:103F7000C901DF91CF910895CF93DF930E942C1F49
:103F8000CBE4DEE0CE016EE474E00E94193ECE0187
:103F90006CE574E00E94193ECE0164E774E00E9473
:103FA000193ECE016CE874E00E94193ECE0164EA2D
:103FB00074E00E94193ECE016CEB74E00E94193E41
:103FC000CE0164ED74E00E94193ECE016CEE74E007
:103FD0000E94193ECE016AEF74E00E94F93DCE01C5
:103FE0000E947238CE010E94753CCE0140E056E935
:103FF00060E070E00E941D3BDF91CF910895FC01CD
:10400000E55AFF4F808191810E94640D0895FC0163
:10401000E55AFF4F808191810E946E0D0895FC0149
:1040200063817481858196810895FC01E55AFF4F73
:10403000808191810E94610D91E0813409F090E0CE
:10404000892F0895CF92DF92EF92FF920F931F93E3
:10405000FC01E55AFF4F808191810F2EF0E0CF2EB9
:10406000F0E0DF2EF0E8EF2EFFE3FF2EF02D0E94B0
:104070009B0E1F910F91FF90EF90DF90CF900895CE
:10408000CF93DF93EC01FC01E55AFF4F80819181D2
:104090000E949A0F21E0009709F420E02A8322234E
:1040A00079F0FE01E55AFF4F808191810E94610DF8
:1040B000813431F40E9445426B837C838D839E83DF
:1040C0008A81DF91CF910895AF92BF92CF92DF9214
:1040D000EF92FF920F931F93DF93CF93CDB7DEB78D
:1040E0002A970FB6F894DEBF0FBECDBF6A017B01E1
:1040F0002BE0A22EB12CA80EB91E1C821B828CE0D4
:1041000097E09A838983BE82AD8288E290E09A87A5
:1041100089878E010F5F1F4FC8010E940409C801E3
:104120000E940409C701B60120E030E0A9010E9405
:104130009C4687FD09C0C80163E375E00E94F93D14
:10414000C801B701A6010FC0C8016AE375E00E946B
:10415000F93D60E070E0CB01A70196010E94D243D7
:10416000AB01BC01C80124E030E00E94D23FC8018D
:1041700065E375E00E94F93DC5012A960FB6F894F3
:10418000DEBF0FBECDBFCF91DF911F910F91FF908A
:10419000EF90DF90CF90BF90AF900895AF92BF9215
:1041A000CF92DF92EF92FF920F931F93DF93CF9303
:1041B000CDB7DEB72A970FB6F894DEBF0FBECDBFDE
:1041C0006A017B0133E3A32EB12CA80EB91E1C8219
:1041D0001B828CE097E09A838983BE82AD8288E25D
:1041E00090E09A8789878E010F5F1F4FC8010E9458
:1041F0000409C8010E940409C701B60120E030E0AB
:10420000A9010E949C4687FD09C0C8016CE375E0C6
:104210000E94F93DC801B701A6010FC0C8016EE3B5
:1042200075E00E94F93D60E070E0CB01A7019601C6
:104230000E94D243AB01BC01C80124E030E00E94DF
:10424000D23FC80165E375E00E94F93DC5012A9699
:104250000FB6F894DEBF0FBECDBFCF91DF911F9197
:104260000F91FF90EF90DF90CF90BF90AF900895A7
:1042700024E237E0FC01318320830E94DA040895B0
:10428000EF92FF921F93CF93DF93EC01162FE881FB
:10429000F9810190F081E02D7E019F2D6CE7099559
:1042A000E881F9810190F081E02DCE0162E009956D
:1042B000E881F9810190F081E02DCE01612F09950F
:1042C000E881F9810190F081E02DCE0160E009954F
:1042D000E881F9810284F385E02DCE01099562E33E
:1042E00070E080E090E00E947942DF91CF911F91D1
:1042F000FF90EF900895CF92DF92EF92FF921F937D
:10430000DF93CF930F92CDB7DEB76C01162FDC0190
:10431000ED91FC910190F081E02D6CE749830995C6
:10432000D601ED91FC910190F081E02DC60168E18C
:104330000995D601ED91FC910190F081E02DC60127
:10434000612F0995D601ED91FC910284F385E02D52
:10435000C601099564E670E080E090E00E94794231
:10436000D601ED91FC910190F081E02DC6016CE742
:104370000995D601ED91FC910190F081E02DC601E7
:1043800069E10995D601ED91FC910190F081E02D54
:10439000C6014981642F0995D601ED91FC910284F3
:1043A000F385E02DC601099564E670E080E090E0B9
:1043B0000E9479420F90CF91DF911F91FF90EF9073
:1043C000DF90CF900895EF92FF92CF93DF93EC01AF
:1043D000E881F9810190F081E02D7E019F2D6CE74D
:1043E0000995E881F9810190F081E02DCE0160E02E
:1043F0000995CE0160E070E040E050E00E947B2132
:104400001C8E1D8E1E8E1F8EE881F9810284F3851D
:10441000E02DCE01099562E370E080E090E00E941B
:104420007942DF91CF91FF90EF900895EF92FF9244
:104430000F931F93CF93DF93EC011C8E1D8E1E8E66
:104440001F8E07E21EE0C8016FE975E00E94193E69
:10445000CE0140E052EC61E070E00E94DB03CE014F
:104460006BEA75E00E94F93DE881F9810284F385E9
:10447000E02DCE01099560ED77E080E090E00E94AC
:104480007942C8016DEA75E00E94193EE881F98120
:104490000190F081E02DCE016CE70995E881F9816A
:1044A0000190F081E02DCE0167E00995E881F98166
:1044B0000190F081E02DCE0163E30995E881F98157
:1044C0000284F385E02DCE01099568EE73E080E06B
:1044D00090E00E947942CE0140E05BE460E070E051
:1044E0000E94DB03CE010E94E321CE0160E070E078
:1044F0000E944021CE0164E170E042E350E00E945E
:104500007B21CE0162EC75E00E94F93DCE016AE0AC
:1045100070E048E250E00E947B21CE016CEC75E037
:104520000E94F93DCE016AE070E04EE150E00E9449
:104530007B21CE016FED75E00E94F93D60ED77E0E3
:1045400080E090E00E947942DF91CF911F910F911E
:10455000FF90EF900895CF92DF92EF92FF920F932A
:104560001F93DF93CF9300D0CDB7DEB76C01162F2A
:10457000DC01ED91FC910190F081E02D6CE72A8344
:1045800049830995D601ED91FC910190F081E02DD0
:10459000C6016FE00995D601ED91FC910190F08183
:1045A000E02DC601612F0995D601ED91FC91019096
:1045B000F081E02DC6014981642F0995D601ED9166
:1045C000FC910190F081E02DC6012A81622F0995AE
:1045D000D601ED91FC910190F081E02DC601602F94
:1045E0000995D601ED91FC910284F385E02DC60179
:1045F000099562E370E080E090E00E9479420F90BC
:104600000F90CF91DF911F910F91FF90EF90DF906E
:10461000CF900895CF92DF92EF92FF920F931F9366
:10462000DF93CF9300D0CDB7DEB76C01162FDC013E
:10463000ED91FC910190F081E02D6CE72A83498394
:104640000995D601ED91FC910190F081E02DC60114
:1046500065E00995D601ED91FC910190F081E02D86
:10466000C601612F0995D601ED91FC910190F08171
:10467000E02DC6014981642F0995D601ED91FC9189
:104680000190F081E02DC6012A81622F0995D601A3
:10469000ED91FC910190F081E02DC601602F09950C
:1046A000D601ED91FC910284F385E02DC6010995B8
:1046B00062E370E080E090E00E9479420F900F90FA
:1046C000CF91DF911F910F91FF90EF90DF90CF90EE
:1046D0000895AF92BF92CF92DF92EF92FF920F9325
:1046E0001F93CF93DF93EC017B016A01890160E0A6
:1046F00070E04AE050E00E947B21CE01B7010E94A9
:10470000F93DCE0162E370E04AE050E00E947B2177
:10471000CE01B6010E94F93DCE016AE570E04AE0A3
:1047200050E00E947B21CE01B8010E94F93DE88152
:10473000F9810284F385E02DCE01099562E370E0F2
:1047400080E090E00E947942DF91CF911F910F911C
:10475000FF90EF90DF90CF90BF90AF90089526E448
:1047600037E0FC0131832083089526E437E0FC0123
:10477000318320830E94F9410895EF92FF920F93B5
:104780001F93FC0186E497E0918380837787668797
:10479000518B408B338B228B158B048BF78AE68AE7
:1047A0001282138214821582118610861386128655
:1047B000158614861F910F91FF90EF900895FC01CC
:1047C0008281882319F58381882301F584818823D8
:1047D000E9F485818823D1F412C081E082830895B1
:1047E000603419F481E083830895613419F481E021
:1047F00084830895623451F481E085830895862F7F
:1048000090E0978386836F3359F7E7CF0895CF926F
:10481000DF92EF92FF920F931F93DF93CF93CDB769
:10482000DEB7C05ED0400FB6F894DEBF0FBECDBF7E
:104830007C01DC0112968C911297882309F45BC1EC
:1048400052968D919C9153971E96ED91FC911F97D6
:10485000228133813C832B8324813581468157819A
:104860002D833E834F83588720853185428553852C
:1048700029873A874B875C8724852D8725852E8756
:1048800026853785388B2F872089298B2189328986
:104890003B8B2A8B238934893D8B2C8B2589368948
:1048A0003F8B2E8B2789308D398F288F218D328D2C
:1048B0003B8F2A8F338D31702C8D2E7F232B2C8FA5
:1048C000338D32702D7F232B2C8F24E237E03A83F7
:1048D0002983248D358D468D578D2D8F3E8F4F8F9B
:1048E00058A31A964D915C911B978E010F5F1F4F35
:1048F000B8010E941B19C8010E943821F701828566
:104900009385019693878287828593858E30910562
:1049100024F08AE090E093878287D70152968D91A8
:104920009C9153971E96ED91FC911F9722813381A4
:104930003CA32BA324813581468157812DA33EA31F
:104940004FA358A7208531854285538529A73AA7CB
:104950004BA75CA724852DA725852EA726853785FF
:1049600038AB2FA7208929AB218932893BAB2AABF1
:10497000238934893DAB2CAB258936893FAB2EABDF
:104980002789308D39AF28AF218D328D3BAF2AAFCB
:10499000338D31702CAD2E7F232B2CAF338D3270A5
:1049A0002D7F232B2CAF34E2C32E37E0D32EDAA297
:1049B000C9A2248D358D468D578DFE01FD9620832D
:1049C0003183428353831A964D915C911B978E01DC
:1049D0000F5D1F4FB8010E94D318C8010E943821F3
:1049E000F701828993890684F785E02D228133813E
:1049F000DE01AD5BBF4F2D933C9324813581468111
:104A00005781DE01AB5BBF4F2D933D934D935C937C
:104A100013972085318542855385DE01A75BBF4F03
:104A20002D933D934D935C9313972485DE01A35BF7
:104A3000BF4F2C932585DE01A25BBF4F2C932685AB
:104A40003785DE01A15BBF4F2D933C932089DE01AA
:104A5000AF5ABF4F2C9321893289DE01AE5ABF4F26
:104A60002D933C9323893489DE01AC5ABF4F2D939B
:104A70003C9325893689DE01AA5ABF4F2D933C937A
:104A80002789308DDE01A85ABF4F2D933C93218D8D
:104A9000328DDE01A65ABF4F2D933C93338D31707A
:104AA000DE01A45ABF4F2C912E7F232B2C93338DE4
:104AB00032702D7F232B2C938E010F5B1F4FD8015B
:104AC000CD92DC92248D358D468D578DFE01E35AB3
:104AD000FF4F2083318342835383F70142855385FF
:104AE000B8010E94C617C8010E943821D70112964A
:104AF0001C9212975AC2F7018381882309F48BC153
:104B0000828993890684F785E02D8E010F591F4F06
:104B100022813381D80113963C932E9312972481DE
:104B200035814681578114962D933D934D935C9327
:104B30001797208531854285538518962D933D938F
:104B40004D935C931B9724851C962C931C9725856D
:104B50001D962C931D97268537851F963C932E9383
:104B60001E97208950962C9350972189328952960E
:104B70003C932E9351972389348954963C932E93DA
:104B800053972589368956963C932E9355972789B6
:104B9000308D58963C932E935797218D328D5A968F
:104BA0003C932E935997338D31705B962C915B9784
:104BB0002E7F232B5B962C935B97338D32702D7F4A
:104BC000232B5B962C935B9724E237E02D933C9349
:104BD000248D358D468D578DF801248F358F468F66
:104BE000578FD7011A964D915C911B97B8010E947F
:104BF0001B19C8010E943821F7018285938501970E
:104C000093878287828593858A30910524F48DE08D
:104C100090E093878287D70152968D919C9153970C
:104C20001E96ED91FC911F978E010F571F4F228109
:104C30003381D80113963C932E93129724813581AA
:104C40004681578114962D933D934D935C9317970E
:104C5000208531854285538518962D933D934D933C
:104C60005C931B9724851C962C931C9725851D9679
:104C70002C931D97268537851F963C932E931E9760
:104C8000208950962C9350972189328952963C93D3
:104C90002E9351972389348954963C932E9353979E
:104CA0002589368956963C932E9355972789308DC2
:104CB00058963C932E935797218D328D5A963C935C
:104CC0002E935997338D31705B962C915B972E7F85
:104CD000232B5B962C935B97338D32702D7F232B88
:104CE0005B962C935B9724E2C22E27E0D22ECD92C6
:104CF000DC92248D358D468D578DF801248F358FAC
:104D0000468F578FD7011A964D915C911B97B8012A
:104D10000E94D318C8010E943821F7018289938923
:104D20000684F785E02D8E010F551F4F22813381B8
:104D3000D80113963C932E93129724813581468196
:104D4000578114962D933D934D935C93179720852F
:104D500031854285538518962D933D934D935C93F1
:104D60001B9724851C962C931C9725851D962C93A8
:104D70001D97268537851F963C932E931E97208975
:104D800050962C9350972189328952963C932E93BA
:104D900051972389348954963C932E9353972589B0
:104DA000368956963C932E9355972789308D589681
:104DB0003C932E935797218D328D5A963C932E9388
:104DC0005997338D31705B962C915B972E7F232BF7
:104DD0005B962C935B97338D32702D7F232B5B96E4
:104DE0002C935B97CD92DC92248D358D468D578D1B
:104DF000F801248F358F468F578FD7011A964D9122
:104E00005C911B97B8010E94C617C8010E94382107
:104E1000F7011382CAC0D70114968C911497882386
:104E200009F4C3C01A968D919C911B978B30910504
:104E3000D1F08C30910524F48A309105A1F507C09A
:104E40008C309105C1F08D30910569F51BC0F701DB
:104E500002891389C8010E94901461E06827C80183
:104E60000E94931420C0D70152968D919C91539724
:104E70000E949D1718C0F701848595850196958736
:104E8000848711C0D7011E968D919C911F970E9417
:104E9000E321F7018485958501979587848781E0D3
:104EA00090E093878287D70152968D919C9153977A
:104EB0001E96ED91FC911F978E010F531F4F22817B
:104EC0003381D80113963C932E9312972481358118
:104ED0004681578114962D933D934D935C9317977C
:104EE000208531854285538518962D933D934D93AA
:104EF0005C931B9724851C962C931C9725851D96E7
:104F00002C931D97268537851F963C932E931E97CD
:104F1000208950962C9350972189328952963C9340
:104F20002E9351972389348954963C932E9353970B
:104F30002589368956963C932E9355972789308D2F
:104F400058963C932E935797218D328D5A963C93C9
:104F50002E935997338D31705B962C915B972E7FF2
:104F6000232B5B962C935B97338D32702D7F232BF5
:104F70005B962C935B9724E237E02D933C93248D32
:104F8000358D468D578DF801248F358F468F578F7D
:104F9000D7011A964D915C911B97B8010E94C617D4
:104FA000C8010E943821F7011482C052DF4F0FB6AA
:104FB000F894DEBF0FBECDBFCF91DF911F910F914F
:104FC000FF90EF90DF90CF900895EF92FF920F93B4
:104FD0001F93DF93CF93CDB7DEB7C056D0400FB647
:104FE000F894DEBF0FBECDBF7C01DC0112968C9120
:104FF0001297882309F472C052960D911C91539711
:10500000C8010E94711620E030E040EA50E40E949E
:10501000D343AB01BC01C8010E947B16F701828912
:1050200093890684F785E02D228133813C832B838D
:1050300024813581468157812D833E834F83588754
:10504000208531854285538529873A874B875C8740
:1050500024852D8725852E8726853785388B2F87B4
:105060002089298B218932893B8B2A8B238934899A
:105070003D8B2C8B258936893F8B2E8B2789308D54
:10508000398F288F218D328D3B8F2A8F338D317050
:105090002C8D2E7F232B2C8F338D32702D7F232B45
:1050A0002C8F24E237E03A832983248D358D468D79
:1050B000578D2D8F3E8F4F8F58A3D7011A964D9144
:1050C0005C911B978E010F5F1F4FB8010E94C6179E
:1050D000C8010E943821F701128219C1D701139625
:1050E0008C911397882309F474C052960D911C91EA
:1050F0005397C8010E94711620E030E040EA50E466
:105100000E94D243AB01BC01C8010E947B16F7018B
:10511000828993890684F785E02D228133813CA31F
:105120002BA324813581468157812DA33EA34FA314
:1051300058A7208531854285538529A73AA74BA7D3
:105140005CA724852DA725852EA72685378538AB16
:105150002FA7208929AB218932893BAB2AAB238930
:1051600034893DAB2CAB258936893FAB2EAB2789E3
:10517000308D39AF28AF218D328D3BAF2AAF338DC3
:1051800031702CAD2E7F232B2CAF338D32702D7FC1
:10519000232B2CAF24E237E03AA329A3248D358DAD
:1051A000468D578DFE01FD962083318342835383C4
:1051B000D7011A964D915C911B978E010F5D1F4F81
:1051C000B8010E94C617C8010E943821F701138256
:1051D0009EC0D70114968C911497882309F497C028
:1051E0001C968D919C911D9701971D969C938E9373
:1051F0001C9752968D919C9153971E96ED91FC9120
:105200001F9722813381DE01AD5BBF4F2D933C930D
:105210002481358146815781DE01AB5BBF4F2D93E1
:105220003D934D935C93139720853185428553853B
:10523000DE01A75BBF4F2D933D934D935C93139776
:105240002485DE01A35BBF4F2C932585DE01A25B85
:10525000BF4F2C9326853785DE01A15BBF4F2D9371
:105260003C932089DE01AF5ABF4F2C9321893289AC
:10527000DE01AE5ABF4F2D933C9323893489DE0162
:10528000AC5ABF4F2D933C9325893689DE01AA5A2B
:10529000BF4F2D933C932789308DDE01A85ABF4F15
:1052A0002D933C93218D328DDE01A65ABF4F2D9355
:1052B0003C93338D3170DE01A45ABF4F2C912E7F69
:1052C000232B2C93338D32702D7F232B2C938E0127
:1052D0000F5B1F4F24E237E0D8012D933C93248DC0
:1052E000358D468D578DFE01E35AFF4F2083318364
:1052F00042835383F70142855385B8010E94C61744
:10530000C8010E943821D70114961C921497C05AE4
:10531000DF4F0FB6F894DEBF0FBECDBFCF91DF9148
:105320001F910F91FF90EF900895CF92DF92EF922F
:10533000FF920F931F93DF93CF93CDB7DEB7C05E7D
:10534000D0400FB6F894DEBF0FBECDBF7C01DC01AC
:1053500012968C911297882309F45BC154968D9113
:105360009C9155971E96ED91FC911F972281338158
:105370003C832B8324813581468157812D833E8355
:105380004F835887208531854285538529873A8701
:105390004B875C8724852D8725852E872685378535
:1053A000388B2F872089298B218932893B8B2A8B47
:1053B000238934893D8B2C8B258936893F8B2E8B15
:1053C0002789308D398F288F218D328D3B8F2A8F01
:1053D000338D31702C8D2E7F232B2C8F338D32709B
:1053E0002D7F232B2C8F24E237E03A832983248DD1
:1053F000358D468D578D2D8F3E8F4F8F58A31A9622
:105400004D915C911B978E010F5F1F4FB8010E9459
:105410004A34C8010E943821F7018285938501969C
:1054200093878287828593858731910524F084E173
:1054300090E093878287D70154968D919C915597E0
:105440001E96ED91FC911F97228133813CA32BA3E3
:1054500024813581468157812DA33EA34FA358A7B0
:10546000208531854285538529A73AA74BA75CA79C
:1054700024852DA725852EA72685378538AB2FA710
:10548000208929AB218932893BAB2AAB2389348916
:105490003DAB2CAB258936893FAB2EAB2789308DB0
:1054A00039AF28AF218D328D3BAF2AAF338D3170AC
:1054B0002CAD2E7F232B2CAF338D32702D7F232BE1
:1054C0002CAF54E2C52E57E0D52EDAA2C9A2248D06
:1054D000358D468D578DFE01FD96208331834283A5
:1054E00053831A964D915C911B978E010F5D1F4F50
:1054F000B8010E941134C8010E943821F701848943
:1055000095890684F785E02D22813381DE01AD5B2C
:10551000BF4F2D933C932481358146815781DE0115
:10552000AB5BBF4F2D933D934D935C9313972085B9
:10553000318542855385DE01A75BBF4F2D933D9397
:105540004D935C9313972485DE01A35BBF4F2C938F
:105550002585DE01A25BBF4F2C9326853785DE01B2
:10556000A15BBF4F2D933C932089DE01AF5ABF4F03
:105570002C9321893289DE01AE5ABF4F2D933C9383
:1055800023893489DE01AC5ABF4F2D933C93258982
:105590003689DE01AA5ABF4F2D933C932789308D5F
:1055A000DE01A85ABF4F2D933C93218D328DDE0131
:1055B000A65ABF4F2D933C93338D3170DE01A45A10
:1055C000BF4F2C912E7F232B2C93338D32702D7F48
:1055D000232B2C938E010F5B1F4FD801CD92DC92B1
:1055E000248D358D468D578DFE01E35AFF4F208364
:1055F000318342835383F70144855585B8010E9466
:105600006233C8010E943821D70112961C9212976A
:105610004FC2F7018381882309F48BC1848995895E
:105620000684F785E02D8E010F591F4F22813381AB
:10563000D80113963C932E9312972481358146818D
:10564000578114962D933D934D935C931797208526
:1056500031854285538518962D933D934D935C93E8
:105660001B9724851C962C931C9725851D962C939F
:105670001D97268537851F963C932E931E9720896C
:1056800050962C9350972189328952963C932E93B1
:1056900051972389348954963C932E9353972589A7
:1056A000368956963C932E9355972789308D589678
:1056B0003C932E935797218D328D5A963C932E937F
:1056C0005997338D31705B962C915B972E7F232BEE
:1056D0005B962C935B97338D32702D7F232B5B96DB
:1056E0002C935B9724E237E02D933C93248D358DEA
:1056F000468D578DF801248F358F468F578FD701F0
:105700001A964D915C911B97B8010E944A34C801CA
:105710000E943821F70182859385019793878287BC
:10572000828593858431910524F486E190E0938706
:105730008287D70154968D919C9155971E96ED9135
:10574000FC911F978E010F571F4F22813381D80183
:1057500013963C932E93129724813581468157816D
:1057600014962D933D934D935C9317972085318527
:105770004285538518962D933D934D935C931B97CB
:1057800024851C962C931C9725851D962C931D977C
:10579000268537851F963C932E931E972089509619
:1057A0002C9350972189328952963C932E9351978E
:1057B0002389348954963C932E93539725893689AF
:1057C00056963C932E9355972789308D58963C9347
:1057D0002E935797218D328D5A963C932E9359973D
:1057E000338D31705B962C915B972E7F232B5B96CC
:1057F0002C935B97338D32702D7F232B5B962C93EC
:105800005B9744E2C42E47E0D42ECD92DC92248DE7
:10581000358D468D578DF801248F358F468F578FE4
:10582000D7011A964D915C911B97B8010E941134D3
:10583000C8010E943821F701848995890684F7857B
:10584000E02D8E010F551F4F22813381D801139611
:105850003C932E931297248135814681578114966B
:105860002D933D934D935C93179720853185428509
:10587000538518962D933D934D935C931B972485E8
:105880001C962C931C9725851D962C931D97268579
:1058900037851F963C932E931E97208950962C9304
:1058A00050972189328952963C932E9351972389A0
:1058B000348954963C932E9353972589368956966E
:1058C0003C932E9355972789308D58963C932E9371
:1058D0005797218D328D5A963C932E935997338D3D
:1058E00031705B962C915B972E7F232B5B962C93CC
:1058F0005B97338D32702D7F232B5B962C935B97B8
:10590000CD92DC92248D358D468D578DF801248FF4
:10591000358F468F578FD7011C964D915C911D97FF
:10592000B8010E946233C8010E943821F701138236
:10593000BFC0D70114968C911497882309F4B8C07E
:105940001A968D919C911B978531910591F0863126
:105950009105D1F08431910561F5F701048915892C
:10596000C8010E945F3361E06827C8010E944E337E
:1059700020C0D7011C968D919C911D9701961D9674
:105980009C938E931C9715C0F701868597850E947E
:10599000E321D7011C968D919C911D9701971D962F
:1059A0009C938E931C9782E090E01B969C938E9321
:1059B0001A97F701848995890684F785E02D8E0171
:1059C0000F531F4F22813381D80113963C932E939E
:1059D0001297248135814681578114962D933D93EA
:1059E0004D935C9317972085318542855385189692
:1059F0002D933D934D935C931B9724851C962C937C
:105A00001C9725851D962C931D97268537851F96F7
:105A10003C932E931E97208950962C935097218962
:105A2000328952963C932E93519723893489549608
:105A30003C932E9353972589368956963C932E9303
:105A400055972789308D58963C932E935797218DE3
:105A5000328D5A963C932E935997338D31705B96C5
:105A60002C915B972E7F232B5B962C935B97338D2A
:105A700032702D7F232B5B962C935B9724E237E0CB
:105A80002D933C93248D358D468D578DF801248FB1
:105A9000358F468F578FD7011C964D915C911D977E
:105AA000B8010E946233C8010E943821F7011482B4
:105AB000C052DF4F0FB6F894DEBF0FBECDBFCF91FF
:105AC000DF911F910F91FF90EF90DF90CF9008959D
:105AD000EF92FF920F931F93DF93CF93CDB7DEB773
